{"contracts/TreasureAdventure.sol":{"Equipment":{"abi":[{"inputs":[],"stateMutability":"nonpayable","type":"constructor"},{"inputs":[{"internalType":"address","name":"sender","type":"address"},{"internalType":"uint256","name":"tokenId","type":"uint256"},{"internalType":"address","name":"owner","type":"address"}],"name":"ERC721IncorrectOwner","type":"error"},{"inputs":[{"internalType":"address","name":"operator","type":"address"},{"internalType":"uint256","name":"tokenId","type":"uint256"}],"name":"ERC721InsufficientApproval","type":"error"},{"inputs":[{"internalType":"address","name":"approver","type":"address"}],"name":"ERC721InvalidApprover","type":"error"},{"inputs":[{"internalType":"address","name":"operator","type":"address"}],"name":"ERC721InvalidOperator","type":"error"},{"inputs":[{"internalType":"address","name":"owner","type":"address"}],"name":"ERC721InvalidOwner","type":"error"},{"inputs":[{"internalType":"address","name":"receiver","type":"address"}],"name":"ERC721InvalidReceiver","type":"error"},{"inputs":[{"internalType":"address","name":"sender","type":"address"}],"name":"ERC721InvalidSender","type":"error"},{"inputs":[{"internalType":"uint256","name":"tokenId","type":"uint256"}],"name":"ERC721NonexistentToken","type":"error"},{"inputs":[{"internalType":"address","name":"owner","type":"address"}],"name":"OwnableInvalidOwner","type":"error"},{"inputs":[{"internalType":"address","name":"account","type":"address"}],"name":"OwnableUnauthorizedAccount","type":"error"},{"anonymous":false,"inputs":[{"indexed":true,"internalType":"address","name":"owner","type":"address"},{"indexed":true,"internalType":"address","name":"approved","type":"address"},{"indexed":true,"internalType":"uint256","name":"tokenId","type":"uint256"}],"name":"Approval","type":"event"},{"anonymous":false,"inputs":[{"indexed":true,"internalType":"address","name":"owner","type":"address"},{"indexed":true,"internalType":"address","name":"operator","type":"address"},{"indexed":false,"internalType":"bool","name":"approved","type":"bool"}],"name":"ApprovalForAll","type":"event"},{"anonymous":false,"inputs":[{"indexed":true,"internalType":"address","name":"previousOwner","type":"address"},{"indexed":true,"internalType":"address","name":"newOwner","type":"address"}],"name":"OwnershipTransferred","type":"event"},{"anonymous":false,"inputs":[{"indexed":true,"internalType":"address","name":"from","type":"address"},{"indexed":true,"internalType":"address","name":"to","type":"address"},{"indexed":true,"internalType":"uint256","name":"tokenId","type":"uint256"}],"name":"Transfer","type":"event"},{"inputs":[{"internalType":"address","name":"to","type":"address"},{"internalType":"uint256","name":"tokenId","type":"uint256"}],"name":"approve","outputs":[],"stateMutability":"nonpayable","type":"function"},{"inputs":[{"internalType":"address","name":"owner","type":"address"}],"name":"balanceOf","outputs":[{"internalType":"uint256","name":"","type":"uint256"}],"stateMutability":"view","type":"function"},{"inputs":[{"internalType":"uint256","name":"","type":"uint256"}],"name":"equipmentData","outputs":[{"internalType":"uint8","name":"equipmentType","type":"uint8"},{"internalType":"uint8","name":"level","type":"uint8"},{"internalType":"uint8","name":"stars","type":"uint8"},{"internalType":"uint8","name":"rarity","type":"uint8"},{"internalType":"uint16","name":"attack","type":"uint16"},{"internalType":"uint16","name":"defense","type":"uint16"},{"internalType":"uint16","name":"agility","type":"uint16"},{"internalType":"uint8","name":"criticalRate","type":"uint8"},{"internalType":"uint16","name":"criticalDamage","type":"uint16"},{"internalType":"string","name":"name","type":"string"}],"stateMutability":"view","type":"function"},{"inputs":[{"internalType":"uint256","name":"tokenId","type":"uint256"}],"name":"getApproved","outputs":[{"internalType":"address","name":"","type":"address"}],"stateMutability":"view","type":"function"},{"inputs":[{"internalType":"address","name":"owner","type":"address"},{"internalType":"address","name":"operator","type":"address"}],"name":"isApprovedForAll","outputs":[{"internalType":"bool","name":"","type":"bool"}],"stateMutability":"view","type":"function"},{"inputs":[{"internalType":"address","name":"to","type":"address"},{"internalType":"uint8","name":"equipmentType","type":"uint8"},{"internalType":"uint8","name":"level","type":"uint8"},{"internalType":"uint8","name":"stars","type":"uint8"},{"internalType":"uint8","name":"rarity","type":"uint8"},{"internalType":"uint16","name":"attack","type":"uint16"},{"internalType":"uint16","name":"defense","type":"uint16"},{"internalType":"uint16","name":"agility","type":"uint16"},{"internalType":"uint8","name":"criticalRate","type":"uint8"},{"internalType":"uint16","name":"criticalDamage","type":"uint16"},{"internalType":"string","name":"name","type":"string"}],"name":"mintEquipment","outputs":[{"internalType":"uint256","name":"","type":"uint256"}],"stateMutability":"nonpayable","type":"function"},{"inputs":[],"name":"name","outputs":[{"internalType":"string","name":"","type":"string"}],"stateMutability":"view","type":"function"},{"inputs":[],"name":"owner","outputs":[{"internalType":"address","name":"","type":"address"}],"stateMutability":"view","type":"function"},{"inputs":[{"internalType":"uint256","name":"tokenId","type":"uint256"}],"name":"ownerOf","outputs":[{"internalType":"address","name":"","type":"address"}],"stateMutability":"view","type":"function"},{"inputs":[],"name":"renounceOwnership","outputs":[],"stateMutability":"nonpayable","type":"function"},{"inputs":[{"internalType":"address","name":"from","type":"address"},{"internalType":"address","name":"to","type":"address"},{"internalType":"uint256","name":"tokenId","type":"uint256"}],"name":"safeTransferFrom","outputs":[],"stateMutability":"nonpayable","type":"function"},{"inputs":[{"internalType":"address","name":"from","type":"address"},{"internalType":"address","name":"to","type":"address"},{"internalType":"uint256","name":"tokenId","type":"uint256"},{"internalType":"bytes","name":"data","type":"bytes"}],"name":"safeTransferFrom","outputs":[],"stateMutability":"nonpayable","type":"function"},{"inputs":[{"internalType":"address","name":"operator","type":"address"},{"internalType":"bool","name":"approved","type":"bool"}],"name":"setApprovalForAll","outputs":[],"stateMutability":"nonpayable","type":"function"},{"inputs":[{"internalType":"bytes4","name":"interfaceId","type":"bytes4"}],"name":"supportsInterface","outputs":[{"internalType":"bool","name":"","type":"bool"}],"stateMutability":"view","type":"function"},{"inputs":[],"name":"symbol","outputs":[{"internalType":"string","name":"","type":"string"}],"stateMutability":"view","type":"function"},{"inputs":[{"internalType":"uint256","name":"tokenId","type":"uint256"}],"name":"tokenURI","outputs":[{"internalType":"string","name":"","type":"string"}],"stateMutability":"view","type":"function"},{"inputs":[{"internalType":"address","name":"from","type":"address"},{"internalType":"address","name":"to","type":"address"},{"internalType":"uint256","name":"tokenId","type":"uint256"}],"name":"transferFrom","outputs":[],"stateMutability":"nonpayable","type":"function"},{"inputs":[{"internalType":"address","name":"newOwner","type":"address"}],"name":"transferOwnership","outputs":[],"stateMutability":"nonpayable","type":"function"}],"evm":{"bytecode":{"linkReferences":{},"object":"6080346200038b576001600160401b039060408181018381118382101762000375578152601382526020917f416476656e747572652045717569706d656e74000000000000000000000000008382015281519382850185811082821117620003755783526005855264045515549560dc1b84860152815181811162000375576000948554916001948584811c941680156200036a575b8385101462000356578190601f9485811162000303575b5083908583116001146200029f57899262000293575b5050600019600383901b1c191690851b1786555b86519283116200027f5783548481811c9116801562000274575b82821014620002605782811162000218575b5080918311600114620001b1575084958293949592620001a5575b5050600019600383901b1c191690821b1790555b33156200018d5760068054336001600160a01b03198216811790925591519290916001600160a01b0316907f8be0079c531659141344cd1fd0a4f28419497f9722a3daafe3b4186f6b6457e09080a36112439081620003918239f35b51631e4fbdf760e01b81526004810191909152602490fd5b0151905038806200011d565b90601f198316968487528287209287905b89821062000200575050838596979810620001e6575b505050811b01905562000131565b015160001960f88460031b161c19169055388080620001d8565b808785968294968601518155019501930190620001c2565b8487528187208380860160051c82019284871062000256575b0160051c019085905b8281106200024a57505062000102565b8881550185906200023a565b9250819262000231565b634e487b7160e01b87526022600452602487fd5b90607f1690620000f0565b634e487b7160e01b86526041600452602486fd5b015190503880620000c2565b898052848a208894509190601f1984168b5b87828210620002ec5750508411620002d2575b505050811b018655620000d6565b015160001960f88460031b161c19169055388080620002c4565b8385015186558b97909501949384019301620002b1565b9091508880528389208580850160051c8201928686106200034c575b918991869594930160051c01915b8281106200033d575050620000ac565b8b81558594508991016200032d565b925081926200031f565b634e487b7160e01b88526022600452602488fd5b93607f169362000095565b634e487b7160e01b600052604160045260246000fd5b600080fdfe608080604052600436101561001357600080fd5b60003560e01c90816301ffc9a714610cf65750806305434cf41461087357806306fdde03146107d0578063081812fc14610792578063095ea7b3146106ab57806323b872dd1461069457806342842e0e1461066c5780636352211e1461063c57806370a08231146105e3578063715018a6146105865780638da5cb5b1461055d57806395d89b411461047e578063a22cb465146103d9578063b88d4fde14610377578063c6452e1314610225578063c87b56dd146101ce578063e985e9c5146101785763f2fde38b146100e557600080fd5b34610173576020366003190112610173576100fe610d61565b610106610ecd565b6001600160a01b0390811690811561015a57600654826bffffffffffffffffffffffff60a01b821617600655167f8be0079c531659141344cd1fd0a4f28419497f9722a3daafe3b4186f6b6457e0600080a3005b604051631e4fbdf760e01b815260006004820152602490fd5b600080fd5b3461017357604036600319011261017357610191610d61565b610199610d77565b9060018060a01b03809116600052600560205260406000209116600052602052602060ff604060002054166040519015158152f35b34610173576020366003190112610173576101ea6004356111d2565b5060006040516101f981610d8d565b5261022160405161020981610d8d565b60008152604051918291602083526020830190610e1e565b0390f35b346101735760208060031936011261017357600435600052600881526040600020908154916001809101906040519160009181549161026383610e93565b9283865286838216918260001461035057505060011461030c575b5050509061029181610221930382610da9565b8360405194859460ff8216865260ff8260081c168187015260ff8260101c16604087015260ff8260181c16606087015261ffff9283911c166080860152818160301c1660a0860152818160401c1660c086015260ff8160501c1660e086015260581c1661010084015261014080610120850152830190610e1e565b859294935060005281600020936000915b818310610339575092935083010190506102918261022161027e565b85548584018501529485019486939092019161031d565b60ff19168782015293151560051b860190930193506102919250849150610221905061027e565b3461017357608036600319011261017357610390610d61565b610398610d77565b6064359167ffffffffffffffff83116101735736602384011215610173576103cd6103d7933690602481600401359101610de7565b916044359161107f565b005b34610173576040366003190112610173576103f2610d61565b60243590811515809203610173576001600160a01b031690811561046557336000526005602052604060002082600052602052604060002060ff1981541660ff83161790556040519081527f17307eab39ab6107e8899845ad3d59bd9653f200f220920489ca2b5937696c3160203392a3005b604051630b61174360e31b815260048101839052602490fd5b3461017357600036600319011261017357604051600060018054906104a282610e93565b8085529181811690811561053657506001146104dd575b610221846104c981860382610da9565b604051918291602083526020830190610e1e565b600081815292507fb10e2d527612073b26eecdfd717e6a320cf44b4afac2b0732d9fcbe2b7fa0cf65b82841061051e5750505081016020016104c9826104b9565b80546020858701810191909152909301928101610506565b60ff191660208087019190915292151560051b850190920192506104c991508390506104b9565b34610173576000366003190112610173576006546040516001600160a01b039091168152602090f35b346101735760003660031901126101735761059f610ecd565b600680546001600160a01b031981169091556000906001600160a01b03167f8be0079c531659141344cd1fd0a4f28419497f9722a3daafe3b4186f6b6457e08280a3005b34610173576020366003190112610173576001600160a01b03610604610d61565b1680156106235760005260036020526020604060002054604051908152f35b6040516322718ad960e21b815260006004820152602490fd5b3461017357602036600319011261017357602061065a6004356111d2565b6040516001600160a01b039091168152f35b34610173576103d761067d36610e5e565b906040519261068b84610d8d565b6000845261107f565b34610173576103d76106a536610e5e565b91610ef9565b34610173576040366003190112610173576106c4610d61565b6024356106d0816111d2565b3315158061077f575b80610752575b61073a576001600160a01b039283169282918491167f8c5be1e5ebec7d5bd14f71427d1e84f3dd0314c0f7b2291e5b200ac8c7c3b925600080a4600090815260046020526040902080546001600160a01b0319169091179055005b60405163a9fbf51f60e01b8152336004820152602490fd5b5060018060a01b038116600052600560205260406000203360005260205260ff60406000205416156106df565b506001600160a01b0381163314156106d9565b34610173576020366003190112610173576004356107af816111d2565b506000526004602052602060018060a01b0360406000205416604051908152f35b3461017357600036600319011261017357604051600080546107f181610e93565b80845290600190818116908115610536575060011461081a57610221846104c981860382610da9565b600080805292507f290decd9548b62a8d60345a988386fc84ba6bc95484008f6362f93160ef3e5635b82841061085b5750505081016020016104c9826104b9565b80546020858701810191909152909301928101610843565b34610173576101603660031901126101735761088d610d61565b6024359060ff82168203610173576044359160ff83168303610173576064359060ff82168203610173576084359160ff831683036101735760a4359461ffff9283871687036101735760c4359284841684036101735760e435858116810361017357610104359260ff841684036101735761012435958787168703610173576101443567ffffffffffffffff811161017357366023820112156101735761093e903690602481600401359101610de7565b98610947610ecd565b6007549a6000198c14610ce05760018c016007556001600160a01b03811615610cc75760018c016000908152600260205260409020546001600160a01b0316908c82610c8c575b5060018060a01b038116600052600360205260406000206001815401905560018d016000526002602052604060002060018060a01b0382166bffffffffffffffffffffffff60a01b82541617905560018d019060018060a01b0316827fddf252ad1be2c89b69c2b068fc378daa952ba7f163c4a11628f55a4df523b3ef600080a4610c73576040519b8c67ffffffffffffffff610140828181011092011117610c5d578c606060ff8c9894818a989681809e818c9a6101408a01604052168852166020870152166040850152169101521660808c01521660a08a01521660c08801521660e0860152166101008401526101208301526001810160005260086020526101206001604060002060ff85511681549061ff00602088015160081b1662ff0000604089015160101b1663ff00000060608a015160181b1665ffff0000000060808b015160201b169067ffff00000000000060a08c015160301b169269ffff000000000000000060c08d015160401b16948c60e060ff60501b91015160501b16968d61010061ffff60581b91015160581b16986cffffffffffffffffffffffffff19161717171717171717178155019201519081519267ffffffffffffffff8411610c5d57610b5f8154610e93565b93601f8511610c15575b602094508493601f8211600114610bb2579381929394600092610ba7575b50508160011b916000199060031b1c19161790555b600160405191018152f35b015190508580610b87565b601f1982169483600052866000209160005b878110610bfe575083600195969710610be5575b505050811b019055610b9c565b015160001960f88460031b161c19169055858080610bd8565b919288600181928685015181550194019201610bc4565b816000526020600020601f820160051c81019560208310610c53575b601f0160051c01945b858110610c475750610b69565b60008155600101610c3a565b9095508590610c31565b634e487b7160e01b600052604160045260246000fd5b6040516339e3563760e11b815260006004820152602490fd5b600101600090815260046020526040902080546001600160a01b0319169055816000526003602052604060002060001981540190558c61098e565b604051633250574960e11b815260006004820152602490fd5b634e487b7160e01b600052601160045260246000fd5b34610173576020366003190112610173576004359063ffffffff60e01b8216809203610173576020916380ac58cd60e01b8114908115610d50575b8115610d3f575b5015158152f35b6301ffc9a760e01b14905083610d38565b635b5e139f60e01b81149150610d31565b600435906001600160a01b038216820361017357565b602435906001600160a01b038216820361017357565b6020810190811067ffffffffffffffff821117610c5d57604052565b90601f8019910116810190811067ffffffffffffffff821117610c5d57604052565b67ffffffffffffffff8111610c5d57601f01601f191660200190565b929192610df382610dcb565b91610e016040519384610da9565b829481845281830111610173578281602093846000960137010152565b919082519283825260005b848110610e4a575050826000602080949584010152601f8019910116010190565b602081830181015184830182015201610e29565b6060906003190112610173576001600160a01b0390600435828116810361017357916024359081168103610173579060443590565b90600182811c92168015610ec3575b6020831014610ead57565b634e487b7160e01b600052602260045260246000fd5b91607f1691610ea2565b6006546001600160a01b03163303610ee157565b60405163118cdaa760e01b8152336004820152602490fd5b6001600160a01b039182169290918315610cc757600092828452826020956002875260409684888820541696879133151580610fe9575b509060027fddf252ad1be2c89b69c2b068fc378daa952ba7f163c4a11628f55a4df523b3ef9284610fb6575b858352600381528b8320805460010190558683525289812080546001600160a01b0319168517905580a41692838303610f955750505050565b6064945051926364283d7b60e01b8452600484015260248301526044820152fd5b600087815260046020526040902080546001600160a01b0319169055848352600381528b83208054600019019055610f5c565b9193945091508061103e575b1561100557859291879138610f30565b878688611022576024915190637e27328960e01b82526004820152fd5b604491519063177e802f60e01b82523360048301526024820152fd5b503387148015611063575b80610ff55750858252600481523385898420541614610ff5565b5086825260058152878220338352815260ff8883205416611049565b61108a838383610ef9565b813b611097575b50505050565b604051630a85bd0160e11b8082523360048301526001600160a01b039283166024830152604482019490945260806064820152602095929091169390929083906110e5906084830190610e1e565b039285816000958187895af184918161118e575b50611159575050503d600014611151573d61111381610dcb565b906111216040519283610da9565b81528091843d92013e5b8051928361114c57604051633250574960e11b815260048101849052602490fd5b019050fd5b50606061112b565b919450915063ffffffff60e01b1603611176575038808080611091565b60249060405190633250574960e11b82526004820152fd5b9091508681813d83116111cb575b6111a68183610da9565b810103126111c757516001600160e01b0319811681036111c75790386110f9565b8480fd5b503d61119c565b6000818152600260205260409020546001600160a01b03169081156111f5575090565b60249060405190637e27328960e01b82526004820152fdfea26469706673582212209b1d5fd114af819e15f8dd487b245981ce8ee145e3c827e4c3f775748251ea4964736f6c63430008140033","opcodes":"PUSH1 0x80 CALLVALUE PUSH3 0x38B JUMPI PUSH1 0x1 PUSH1 0x1 PUSH1 0x40 SHL SUB SWAP1 PUSH1 0x40 DUP2 DUP2 ADD DUP4 DUP2 GT DUP4 DUP3 LT OR PUSH3 0x375 JUMPI DUP2 MSTORE PUSH1 0x13 DUP3 MSTORE PUSH1 0x20 SWAP2 PUSH32 0x416476656E747572652045717569706D656E7400000000000000000000000000 DUP4 DUP3 ADD MSTORE DUP2 MLOAD SWAP4 DUP3 DUP6 ADD DUP6 DUP2 LT DUP3 DUP3 GT OR PUSH3 0x375 JUMPI DUP4 MSTORE PUSH1 0x5 DUP6 MSTORE PUSH5 0x455155495 PUSH1 0xDC SHL DUP5 DUP7 ADD MSTORE DUP2 MLOAD DUP2 DUP2 GT PUSH3 0x375 JUMPI PUSH1 0x0 SWAP5 DUP6 SLOAD SWAP2 PUSH1 0x1 SWAP5 DUP6 DUP5 DUP2 SHR SWAP5 AND DUP1 ISZERO PUSH3 0x36A JUMPI JUMPDEST DUP4 DUP6 LT EQ PUSH3 0x356 JUMPI DUP2 SWAP1 PUSH1 0x1F SWAP5 DUP6 DUP2 GT PUSH3 0x303 JUMPI JUMPDEST POP DUP4 SWAP1 DUP6 DUP4 GT PUSH1 0x1 EQ PUSH3 0x29F JUMPI DUP10 SWAP3 PUSH3 0x293 JUMPI JUMPDEST POP POP PUSH1 0x0 NOT PUSH1 0x3 DUP4 SWAP1 SHL SHR NOT AND SWAP1 DUP6 SHL OR DUP7 SSTORE JUMPDEST DUP7 MLOAD SWAP3 DUP4 GT PUSH3 0x27F JUMPI DUP4 SLOAD DUP5 DUP2 DUP2 SHR SWAP2 AND DUP1 ISZERO PUSH3 0x274 JUMPI JUMPDEST DUP3 DUP3 LT EQ PUSH3 0x260 JUMPI DUP3 DUP2 GT PUSH3 0x218 JUMPI JUMPDEST POP DUP1 SWAP2 DUP4 GT PUSH1 0x1 EQ PUSH3 0x1B1 JUMPI POP DUP5 SWAP6 DUP3 SWAP4 SWAP5 SWAP6 SWAP3 PUSH3 0x1A5 JUMPI JUMPDEST POP POP PUSH1 0x0 NOT PUSH1 0x3 DUP4 SWAP1 SHL SHR NOT AND SWAP1 DUP3 SHL OR SWAP1 SSTORE JUMPDEST CALLER ISZERO PUSH3 0x18D JUMPI PUSH1 0x6 DUP1 SLOAD CALLER PUSH1 0x1 PUSH1 0x1 PUSH1 0xA0 SHL SUB NOT DUP3 AND DUP2 OR SWAP1 SWAP3 SSTORE SWAP2 MLOAD SWAP3 SWAP1 SWAP2 PUSH1 0x1 PUSH1 0x1 PUSH1 0xA0 SHL SUB AND SWAP1 PUSH32 0x8BE0079C531659141344CD1FD0A4F28419497F9722A3DAAFE3B4186F6B6457E0 SWAP1 DUP1 LOG3 PUSH2 0x1243 SWAP1 DUP2 PUSH3 0x391 DUP3 CODECOPY RETURN JUMPDEST MLOAD PUSH4 0x1E4FBDF7 PUSH1 0xE0 SHL DUP2 MSTORE PUSH1 0x4 DUP2 ADD SWAP2 SWAP1 SWAP2 MSTORE PUSH1 0x24 SWAP1 REVERT JUMPDEST ADD MLOAD SWAP1 POP CODESIZE DUP1 PUSH3 0x11D JUMP JUMPDEST SWAP1 PUSH1 0x1F NOT DUP4 AND SWAP7 DUP5 DUP8 MSTORE DUP3 DUP8 KECCAK256 SWAP3 DUP8 SWAP1 JUMPDEST DUP10 DUP3 LT PUSH3 0x200 JUMPI POP POP DUP4 DUP6 SWAP7 SWAP8 SWAP9 LT PUSH3 0x1E6 JUMPI JUMPDEST POP POP POP DUP2 SHL ADD SWAP1 SSTORE PUSH3 0x131 JUMP JUMPDEST ADD MLOAD PUSH1 0x0 NOT PUSH1 0xF8 DUP5 PUSH1 0x3 SHL AND SHR NOT AND SWAP1 SSTORE CODESIZE DUP1 DUP1 PUSH3 0x1D8 JUMP JUMPDEST DUP1 DUP8 DUP6 SWAP7 DUP3 SWAP5 SWAP7 DUP7 ADD MLOAD DUP2 SSTORE ADD SWAP6 ADD SWAP4 ADD SWAP1 PUSH3 0x1C2 JUMP JUMPDEST DUP5 DUP8 MSTORE DUP2 DUP8 KECCAK256 DUP4 DUP1 DUP7 ADD PUSH1 0x5 SHR DUP3 ADD SWAP3 DUP5 DUP8 LT PUSH3 0x256 JUMPI JUMPDEST ADD PUSH1 0x5 SHR ADD SWAP1 DUP6 SWAP1 JUMPDEST DUP3 DUP2 LT PUSH3 0x24A JUMPI POP POP PUSH3 0x102 JUMP JUMPDEST DUP9 DUP2 SSTORE ADD DUP6 SWAP1 PUSH3 0x23A JUMP JUMPDEST SWAP3 POP DUP2 SWAP3 PUSH3 0x231 JUMP JUMPDEST PUSH4 0x4E487B71 PUSH1 0xE0 SHL DUP8 MSTORE PUSH1 0x22 PUSH1 0x4 MSTORE PUSH1 0x24 DUP8 REVERT JUMPDEST SWAP1 PUSH1 0x7F AND SWAP1 PUSH3 0xF0 JUMP JUMPDEST PUSH4 0x4E487B71 PUSH1 0xE0 SHL DUP7 MSTORE PUSH1 0x41 PUSH1 0x4 MSTORE PUSH1 0x24 DUP7 REVERT JUMPDEST ADD MLOAD SWAP1 POP CODESIZE DUP1 PUSH3 0xC2 JUMP JUMPDEST DUP10 DUP1 MSTORE DUP5 DUP11 KECCAK256 DUP9 SWAP5 POP SWAP2 SWAP1 PUSH1 0x1F NOT DUP5 AND DUP12 JUMPDEST DUP8 DUP3 DUP3 LT PUSH3 0x2EC JUMPI POP POP DUP5 GT PUSH3 0x2D2 JUMPI JUMPDEST POP POP POP DUP2 SHL ADD DUP7 SSTORE PUSH3 0xD6 JUMP JUMPDEST ADD MLOAD PUSH1 0x0 NOT PUSH1 0xF8 DUP5 PUSH1 0x3 SHL AND SHR NOT AND SWAP1 SSTORE CODESIZE DUP1 DUP1 PUSH3 0x2C4 JUMP JUMPDEST DUP4 DUP6 ADD MLOAD DUP7 SSTORE DUP12 SWAP8 SWAP1 SWAP6 ADD SWAP5 SWAP4 DUP5 ADD SWAP4 ADD PUSH3 0x2B1 JUMP JUMPDEST SWAP1 SWAP2 POP DUP9 DUP1 MSTORE DUP4 DUP10 KECCAK256 DUP6 DUP1 DUP6 ADD PUSH1 0x5 SHR DUP3 ADD SWAP3 DUP7 DUP7 LT PUSH3 0x34C JUMPI JUMPDEST SWAP2 DUP10 SWAP2 DUP7 SWAP6 SWAP5 SWAP4 ADD PUSH1 0x5 SHR ADD SWAP2 JUMPDEST DUP3 DUP2 LT PUSH3 0x33D JUMPI POP POP PUSH3 0xAC JUMP JUMPDEST DUP12 DUP2 SSTORE DUP6 SWAP5 POP DUP10 SWAP2 ADD PUSH3 0x32D JUMP JUMPDEST SWAP3 POP DUP2 SWAP3 PUSH3 0x31F JUMP JUMPDEST PUSH4 0x4E487B71 PUSH1 0xE0 SHL DUP9 MSTORE PUSH1 0x22 PUSH1 0x4 MSTORE PUSH1 0x24 DUP9 REVERT JUMPDEST SWAP4 PUSH1 0x7F AND SWAP4 PUSH3 0x95 JUMP JUMPDEST PUSH4 0x4E487B71 PUSH1 0xE0 SHL PUSH1 0x0 MSTORE PUSH1 0x41 PUSH1 0x4 MSTORE PUSH1 0x24 PUSH1 0x0 REVERT JUMPDEST PUSH1 0x0 DUP1 REVERT INVALID PUSH1 0x80 DUP1 PUSH1 0x40 MSTORE PUSH1 0x4 CALLDATASIZE LT ISZERO PUSH2 0x13 JUMPI PUSH1 0x0 DUP1 REVERT JUMPDEST PUSH1 0x0 CALLDATALOAD PUSH1 0xE0 SHR SWAP1 DUP2 PUSH4 0x1FFC9A7 EQ PUSH2 0xCF6 JUMPI POP DUP1 PUSH4 0x5434CF4 EQ PUSH2 0x873 JUMPI DUP1 PUSH4 0x6FDDE03 EQ PUSH2 0x7D0 JUMPI DUP1 PUSH4 0x81812FC EQ PUSH2 0x792 JUMPI DUP1 PUSH4 0x95EA7B3 EQ PUSH2 0x6AB JUMPI DUP1 PUSH4 0x23B872DD EQ PUSH2 0x694 JUMPI DUP1 PUSH4 0x42842E0E EQ PUSH2 0x66C JUMPI DUP1 PUSH4 0x6352211E EQ PUSH2 0x63C JUMPI DUP1 PUSH4 0x70A08231 EQ PUSH2 0x5E3 JUMPI DUP1 PUSH4 0x715018A6 EQ PUSH2 0x586 JUMPI DUP1 PUSH4 0x8DA5CB5B EQ PUSH2 0x55D JUMPI DUP1 PUSH4 0x95D89B41 EQ PUSH2 0x47E JUMPI DUP1 PUSH4 0xA22CB465 EQ PUSH2 0x3D9 JUMPI DUP1 PUSH4 0xB88D4FDE EQ PUSH2 0x377 JUMPI DUP1 PUSH4 0xC6452E13 EQ PUSH2 0x225 JUMPI DUP1 PUSH4 0xC87B56DD EQ PUSH2 0x1CE JUMPI DUP1 PUSH4 0xE985E9C5 EQ PUSH2 0x178 JUMPI PUSH4 0xF2FDE38B EQ PUSH2 0xE5 JUMPI PUSH1 0x0 DUP1 REVERT JUMPDEST CALLVALUE PUSH2 0x173 JUMPI PUSH1 0x20 CALLDATASIZE PUSH1 0x3 NOT ADD SLT PUSH2 0x173 JUMPI PUSH2 0xFE PUSH2 0xD61 JUMP JUMPDEST PUSH2 0x106 PUSH2 0xECD JUMP JUMPDEST PUSH1 0x1 PUSH1 0x1 PUSH1 0xA0 SHL SUB SWAP1 DUP2 AND SWAP1 DUP2 ISZERO PUSH2 0x15A JUMPI PUSH1 0x6 SLOAD DUP3 PUSH12 0xFFFFFFFFFFFFFFFFFFFFFFFF PUSH1 0xA0 SHL DUP3 AND OR PUSH1 0x6 SSTORE AND PUSH32 0x8BE0079C531659141344CD1FD0A4F28419497F9722A3DAAFE3B4186F6B6457E0 PUSH1 0x0 DUP1 LOG3 STOP JUMPDEST PUSH1 0x40 MLOAD PUSH4 0x1E4FBDF7 PUSH1 0xE0 SHL DUP2 MSTORE PUSH1 0x0 PUSH1 0x4 DUP3 ADD MSTORE PUSH1 0x24 SWAP1 REVERT JUMPDEST PUSH1 0x0 DUP1 REVERT JUMPDEST CALLVALUE PUSH2 0x173 JUMPI PUSH1 0x40 CALLDATASIZE PUSH1 0x3 NOT ADD SLT PUSH2 0x173 JUMPI PUSH2 0x191 PUSH2 0xD61 JUMP JUMPDEST PUSH2 0x199 PUSH2 0xD77 JUMP JUMPDEST SWAP1 PUSH1 0x1 DUP1 PUSH1 0xA0 SHL SUB DUP1 SWAP2 AND PUSH1 0x0 MSTORE PUSH1 0x5 PUSH1 0x20 MSTORE PUSH1 0x40 PUSH1 0x0 KECCAK256 SWAP2 AND PUSH1 0x0 MSTORE PUSH1 0x20 MSTORE PUSH1 0x20 PUSH1 0xFF PUSH1 0x40 PUSH1 0x0 KECCAK256 SLOAD AND PUSH1 0x40 MLOAD SWAP1 ISZERO ISZERO DUP2 MSTORE RETURN JUMPDEST CALLVALUE PUSH2 0x173 JUMPI PUSH1 0x20 CALLDATASIZE PUSH1 0x3 NOT ADD SLT PUSH2 0x173 JUMPI PUSH2 0x1EA PUSH1 0x4 CALLDATALOAD PUSH2 0x11D2 JUMP JUMPDEST POP PUSH1 0x0 PUSH1 0x40 MLOAD PUSH2 0x1F9 DUP2 PUSH2 0xD8D JUMP JUMPDEST MSTORE PUSH2 0x221 PUSH1 0x40 MLOAD PUSH2 0x209 DUP2 PUSH2 0xD8D JUMP JUMPDEST PUSH1 0x0 DUP2 MSTORE PUSH1 0x40 MLOAD SWAP2 DUP3 SWAP2 PUSH1 0x20 DUP4 MSTORE PUSH1 0x20 DUP4 ADD SWAP1 PUSH2 0xE1E JUMP JUMPDEST SUB SWAP1 RETURN JUMPDEST CALLVALUE PUSH2 0x173 JUMPI PUSH1 0x20 DUP1 PUSH1 0x3 NOT CALLDATASIZE ADD SLT PUSH2 0x173 JUMPI PUSH1 0x4 CALLDATALOAD PUSH1 0x0 MSTORE PUSH1 0x8 DUP2 MSTORE PUSH1 0x40 PUSH1 0x0 KECCAK256 SWAP1 DUP2 SLOAD SWAP2 PUSH1 0x1 DUP1 SWAP2 ADD SWAP1 PUSH1 0x40 MLOAD SWAP2 PUSH1 0x0 SWAP2 DUP2 SLOAD SWAP2 PUSH2 0x263 DUP4 PUSH2 0xE93 JUMP JUMPDEST SWAP3 DUP4 DUP7 MSTORE DUP7 DUP4 DUP3 AND SWAP2 DUP3 PUSH1 0x0 EQ PUSH2 0x350 JUMPI POP POP PUSH1 0x1 EQ PUSH2 0x30C JUMPI JUMPDEST POP POP POP SWAP1 PUSH2 0x291 DUP2 PUSH2 0x221 SWAP4 SUB DUP3 PUSH2 0xDA9 JUMP JUMPDEST DUP4 PUSH1 0x40 MLOAD SWAP5 DUP6 SWAP5 PUSH1 0xFF DUP3 AND DUP7 MSTORE PUSH1 0xFF DUP3 PUSH1 0x8 SHR AND DUP2 DUP8 ADD MSTORE PUSH1 0xFF DUP3 PUSH1 0x10 SHR AND PUSH1 0x40 DUP8 ADD MSTORE PUSH1 0xFF DUP3 PUSH1 0x18 SHR AND PUSH1 0x60 DUP8 ADD MSTORE PUSH2 0xFFFF SWAP3 DUP4 SWAP2 SHR AND PUSH1 0x80 DUP7 ADD MSTORE DUP2 DUP2 PUSH1 0x30 SHR AND PUSH1 0xA0 DUP7 ADD MSTORE DUP2 DUP2 PUSH1 0x40 SHR AND PUSH1 0xC0 DUP7 ADD MSTORE PUSH1 0xFF DUP2 PUSH1 0x50 SHR AND PUSH1 0xE0 DUP7 ADD MSTORE PUSH1 0x58 SHR AND PUSH2 0x100 DUP5 ADD MSTORE PUSH2 0x140 DUP1 PUSH2 0x120 DUP6 ADD MSTORE DUP4 ADD SWAP1 PUSH2 0xE1E JUMP JUMPDEST DUP6 SWAP3 SWAP5 SWAP4 POP PUSH1 0x0 MSTORE DUP2 PUSH1 0x0 KECCAK256 SWAP4 PUSH1 0x0 SWAP2 JUMPDEST DUP2 DUP4 LT PUSH2 0x339 JUMPI POP SWAP3 SWAP4 POP DUP4 ADD ADD SWAP1 POP PUSH2 0x291 DUP3 PUSH2 0x221 PUSH2 0x27E JUMP JUMPDEST DUP6 SLOAD DUP6 DUP5 ADD DUP6 ADD MSTORE SWAP5 DUP6 ADD SWAP5 DUP7 SWAP4 SWAP1 SWAP3 ADD SWAP2 PUSH2 0x31D JUMP JUMPDEST PUSH1 0xFF NOT AND DUP8 DUP3 ADD MSTORE SWAP4 ISZERO ISZERO PUSH1 0x5 SHL DUP7 ADD SWAP1 SWAP4 ADD SWAP4 POP PUSH2 0x291 SWAP3 POP DUP5 SWAP2 POP PUSH2 0x221 SWAP1 POP PUSH2 0x27E JUMP JUMPDEST CALLVALUE PUSH2 0x173 JUMPI PUSH1 0x80 CALLDATASIZE PUSH1 0x3 NOT ADD SLT PUSH2 0x173 JUMPI PUSH2 0x390 PUSH2 0xD61 JUMP JUMPDEST PUSH2 0x398 PUSH2 0xD77 JUMP JUMPDEST PUSH1 0x64 CALLDATALOAD SWAP2 PUSH8 0xFFFFFFFFFFFFFFFF DUP4 GT PUSH2 0x173 JUMPI CALLDATASIZE PUSH1 0x23 DUP5 ADD SLT ISZERO PUSH2 0x173 JUMPI PUSH2 0x3CD PUSH2 0x3D7 SWAP4 CALLDATASIZE SWAP1 PUSH1 0x24 DUP2 PUSH1 0x4 ADD CALLDATALOAD SWAP2 ADD PUSH2 0xDE7 JUMP JUMPDEST SWAP2 PUSH1 0x44 CALLDATALOAD SWAP2 PUSH2 0x107F JUMP JUMPDEST STOP JUMPDEST CALLVALUE PUSH2 0x173 JUMPI PUSH1 0x40 CALLDATASIZE PUSH1 0x3 NOT ADD SLT PUSH2 0x173 JUMPI PUSH2 0x3F2 PUSH2 0xD61 JUMP JUMPDEST PUSH1 0x24 CALLDATALOAD SWAP1 DUP2 ISZERO ISZERO DUP1 SWAP3 SUB PUSH2 0x173 JUMPI PUSH1 0x1 PUSH1 0x1 PUSH1 0xA0 SHL SUB AND SWAP1 DUP2 ISZERO PUSH2 0x465 JUMPI CALLER PUSH1 0x0 MSTORE PUSH1 0x5 PUSH1 0x20 MSTORE PUSH1 0x40 PUSH1 0x0 KECCAK256 DUP3 PUSH1 0x0 MSTORE PUSH1 0x20 MSTORE PUSH1 0x40 PUSH1 0x0 KECCAK256 PUSH1 0xFF NOT DUP2 SLOAD AND PUSH1 0xFF DUP4 AND OR SWAP1 SSTORE PUSH1 0x40 MLOAD SWAP1 DUP2 MSTORE PUSH32 0x17307EAB39AB6107E8899845AD3D59BD9653F200F220920489CA2B5937696C31 PUSH1 0x20 CALLER SWAP3 LOG3 STOP JUMPDEST PUSH1 0x40 MLOAD PUSH4 0xB611743 PUSH1 0xE3 SHL DUP2 MSTORE PUSH1 0x4 DUP2 ADD DUP4 SWAP1 MSTORE PUSH1 0x24 SWAP1 REVERT JUMPDEST CALLVALUE PUSH2 0x173 JUMPI PUSH1 0x0 CALLDATASIZE PUSH1 0x3 NOT ADD SLT PUSH2 0x173 JUMPI PUSH1 0x40 MLOAD PUSH1 0x0 PUSH1 0x1 DUP1 SLOAD SWAP1 PUSH2 0x4A2 DUP3 PUSH2 0xE93 JUMP JUMPDEST DUP1 DUP6 MSTORE SWAP2 DUP2 DUP2 AND SWAP1 DUP2 ISZERO PUSH2 0x536 JUMPI POP PUSH1 0x1 EQ PUSH2 0x4DD JUMPI JUMPDEST PUSH2 0x221 DUP5 PUSH2 0x4C9 DUP2 DUP7 SUB DUP3 PUSH2 0xDA9 JUMP JUMPDEST PUSH1 0x40 MLOAD SWAP2 DUP3 SWAP2 PUSH1 0x20 DUP4 MSTORE PUSH1 0x20 DUP4 ADD SWAP1 PUSH2 0xE1E JUMP JUMPDEST PUSH1 0x0 DUP2 DUP2 MSTORE SWAP3 POP PUSH32 0xB10E2D527612073B26EECDFD717E6A320CF44B4AFAC2B0732D9FCBE2B7FA0CF6 JUMPDEST DUP3 DUP5 LT PUSH2 0x51E JUMPI POP POP POP DUP2 ADD PUSH1 0x20 ADD PUSH2 0x4C9 DUP3 PUSH2 0x4B9 JUMP JUMPDEST DUP1 SLOAD PUSH1 0x20 DUP6 DUP8 ADD DUP2 ADD SWAP2 SWAP1 SWAP2 MSTORE SWAP1 SWAP4 ADD SWAP3 DUP2 ADD PUSH2 0x506 JUMP JUMPDEST PUSH1 0xFF NOT AND PUSH1 0x20 DUP1 DUP8 ADD SWAP2 SWAP1 SWAP2 MSTORE SWAP3 ISZERO ISZERO PUSH1 0x5 SHL DUP6 ADD SWAP1 SWAP3 ADD SWAP3 POP PUSH2 0x4C9 SWAP2 POP DUP4 SWAP1 POP PUSH2 0x4B9 JUMP JUMPDEST CALLVALUE PUSH2 0x173 JUMPI PUSH1 0x0 CALLDATASIZE PUSH1 0x3 NOT ADD SLT PUSH2 0x173 JUMPI PUSH1 0x6 SLOAD PUSH1 0x40 MLOAD PUSH1 0x1 PUSH1 0x1 PUSH1 0xA0 SHL SUB SWAP1 SWAP2 AND DUP2 MSTORE PUSH1 0x20 SWAP1 RETURN JUMPDEST CALLVALUE PUSH2 0x173 JUMPI PUSH1 0x0 CALLDATASIZE PUSH1 0x3 NOT ADD SLT PUSH2 0x173 JUMPI PUSH2 0x59F PUSH2 0xECD JUMP JUMPDEST PUSH1 0x6 DUP1 SLOAD PUSH1 0x1 PUSH1 0x1 PUSH1 0xA0 SHL SUB NOT DUP2 AND SWAP1 SWAP2 SSTORE PUSH1 0x0 SWAP1 PUSH1 0x1 PUSH1 0x1 PUSH1 0xA0 SHL SUB AND PUSH32 0x8BE0079C531659141344CD1FD0A4F28419497F9722A3DAAFE3B4186F6B6457E0 DUP3 DUP1 LOG3 STOP JUMPDEST CALLVALUE PUSH2 0x173 JUMPI PUSH1 0x20 CALLDATASIZE PUSH1 0x3 NOT ADD SLT PUSH2 0x173 JUMPI PUSH1 0x1 PUSH1 0x1 PUSH1 0xA0 SHL SUB PUSH2 0x604 PUSH2 0xD61 JUMP JUMPDEST AND DUP1 ISZERO PUSH2 0x623 JUMPI PUSH1 0x0 MSTORE PUSH1 0x3 PUSH1 0x20 MSTORE PUSH1 0x20 PUSH1 0x40 PUSH1 0x0 KECCAK256 SLOAD PUSH1 0x40 MLOAD SWAP1 DUP2 MSTORE RETURN JUMPDEST PUSH1 0x40 MLOAD PUSH4 0x22718AD9 PUSH1 0xE2 SHL DUP2 MSTORE PUSH1 0x0 PUSH1 0x4 DUP3 ADD MSTORE PUSH1 0x24 SWAP1 REVERT JUMPDEST CALLVALUE PUSH2 0x173 JUMPI PUSH1 0x20 CALLDATASIZE PUSH1 0x3 NOT ADD SLT PUSH2 0x173 JUMPI PUSH1 0x20 PUSH2 0x65A PUSH1 0x4 CALLDATALOAD PUSH2 0x11D2 JUMP JUMPDEST PUSH1 0x40 MLOAD PUSH1 0x1 PUSH1 0x1 PUSH1 0xA0 SHL SUB SWAP1 SWAP2 AND DUP2 MSTORE RETURN JUMPDEST CALLVALUE PUSH2 0x173 JUMPI PUSH2 0x3D7 PUSH2 0x67D CALLDATASIZE PUSH2 0xE5E JUMP JUMPDEST SWAP1 PUSH1 0x40 MLOAD SWAP3 PUSH2 0x68B DUP5 PUSH2 0xD8D JUMP JUMPDEST PUSH1 0x0 DUP5 MSTORE PUSH2 0x107F JUMP JUMPDEST CALLVALUE PUSH2 0x173 JUMPI PUSH2 0x3D7 PUSH2 0x6A5 CALLDATASIZE PUSH2 0xE5E JUMP JUMPDEST SWAP2 PUSH2 0xEF9 JUMP JUMPDEST CALLVALUE PUSH2 0x173 JUMPI PUSH1 0x40 CALLDATASIZE PUSH1 0x3 NOT ADD SLT PUSH2 0x173 JUMPI PUSH2 0x6C4 PUSH2 0xD61 JUMP JUMPDEST PUSH1 0x24 CALLDATALOAD PUSH2 0x6D0 DUP2 PUSH2 0x11D2 JUMP JUMPDEST CALLER ISZERO ISZERO DUP1 PUSH2 0x77F JUMPI JUMPDEST DUP1 PUSH2 0x752 JUMPI JUMPDEST PUSH2 0x73A JUMPI PUSH1 0x1 PUSH1 0x1 PUSH1 0xA0 SHL SUB SWAP3 DUP4 AND SWAP3 DUP3 SWAP2 DUP5 SWAP2 AND PUSH32 0x8C5BE1E5EBEC7D5BD14F71427D1E84F3DD0314C0F7B2291E5B200AC8C7C3B925 PUSH1 0x0 DUP1 LOG4 PUSH1 0x0 SWAP1 DUP2 MSTORE PUSH1 0x4 PUSH1 0x20 MSTORE PUSH1 0x40 SWAP1 KECCAK256 DUP1 SLOAD PUSH1 0x1 PUSH1 0x1 PUSH1 0xA0 SHL SUB NOT AND SWAP1 SWAP2 OR SWAP1 SSTORE STOP JUMPDEST PUSH1 0x40 MLOAD PUSH4 0xA9FBF51F PUSH1 0xE0 SHL DUP2 MSTORE CALLER PUSH1 0x4 DUP3 ADD MSTORE PUSH1 0x24 SWAP1 REVERT JUMPDEST POP PUSH1 0x1 DUP1 PUSH1 0xA0 SHL SUB DUP2 AND PUSH1 0x0 MSTORE PUSH1 0x5 PUSH1 0x20 MSTORE PUSH1 0x40 PUSH1 0x0 KECCAK256 CALLER PUSH1 0x0 MSTORE PUSH1 0x20 MSTORE PUSH1 0xFF PUSH1 0x40 PUSH1 0x0 KECCAK256 SLOAD AND ISZERO PUSH2 0x6DF JUMP JUMPDEST POP PUSH1 0x1 PUSH1 0x1 PUSH1 0xA0 SHL SUB DUP2 AND CALLER EQ ISZERO PUSH2 0x6D9 JUMP JUMPDEST CALLVALUE PUSH2 0x173 JUMPI PUSH1 0x20 CALLDATASIZE PUSH1 0x3 NOT ADD SLT PUSH2 0x173 JUMPI PUSH1 0x4 CALLDATALOAD PUSH2 0x7AF DUP2 PUSH2 0x11D2 JUMP JUMPDEST POP PUSH1 0x0 MSTORE PUSH1 0x4 PUSH1 0x20 MSTORE PUSH1 0x20 PUSH1 0x1 DUP1 PUSH1 0xA0 SHL SUB PUSH1 0x40 PUSH1 0x0 KECCAK256 SLOAD AND PUSH1 0x40 MLOAD SWAP1 DUP2 MSTORE RETURN JUMPDEST CALLVALUE PUSH2 0x173 JUMPI PUSH1 0x0 CALLDATASIZE PUSH1 0x3 NOT ADD SLT PUSH2 0x173 JUMPI PUSH1 0x40 MLOAD PUSH1 0x0 DUP1 SLOAD PUSH2 0x7F1 DUP2 PUSH2 0xE93 JUMP JUMPDEST DUP1 DUP5 MSTORE SWAP1 PUSH1 0x1 SWAP1 DUP2 DUP2 AND SWAP1 DUP2 ISZERO PUSH2 0x536 JUMPI POP PUSH1 0x1 EQ PUSH2 0x81A JUMPI PUSH2 0x221 DUP5 PUSH2 0x4C9 DUP2 DUP7 SUB DUP3 PUSH2 0xDA9 JUMP JUMPDEST PUSH1 0x0 DUP1 DUP1 MSTORE SWAP3 POP PUSH32 0x290DECD9548B62A8D60345A988386FC84BA6BC95484008F6362F93160EF3E563 JUMPDEST DUP3 DUP5 LT PUSH2 0x85B JUMPI POP POP POP DUP2 ADD PUSH1 0x20 ADD PUSH2 0x4C9 DUP3 PUSH2 0x4B9 JUMP JUMPDEST DUP1 SLOAD PUSH1 0x20 DUP6 DUP8 ADD DUP2 ADD SWAP2 SWAP1 SWAP2 MSTORE SWAP1 SWAP4 ADD SWAP3 DUP2 ADD PUSH2 0x843 JUMP JUMPDEST CALLVALUE PUSH2 0x173 JUMPI PUSH2 0x160 CALLDATASIZE PUSH1 0x3 NOT ADD SLT PUSH2 0x173 JUMPI PUSH2 0x88D PUSH2 0xD61 JUMP JUMPDEST PUSH1 0x24 CALLDATALOAD SWAP1 PUSH1 0xFF DUP3 AND DUP3 SUB PUSH2 0x173 JUMPI PUSH1 0x44 CALLDATALOAD SWAP2 PUSH1 0xFF DUP4 AND DUP4 SUB PUSH2 0x173 JUMPI PUSH1 0x64 CALLDATALOAD SWAP1 PUSH1 0xFF DUP3 AND DUP3 SUB PUSH2 0x173 JUMPI PUSH1 0x84 CALLDATALOAD SWAP2 PUSH1 0xFF DUP4 AND DUP4 SUB PUSH2 0x173 JUMPI PUSH1 0xA4 CALLDATALOAD SWAP5 PUSH2 0xFFFF SWAP3 DUP4 DUP8 AND DUP8 SUB PUSH2 0x173 JUMPI PUSH1 0xC4 CALLDATALOAD SWAP3 DUP5 DUP5 AND DUP5 SUB PUSH2 0x173 JUMPI PUSH1 0xE4 CALLDATALOAD DUP6 DUP2 AND DUP2 SUB PUSH2 0x173 JUMPI PUSH2 0x104 CALLDATALOAD SWAP3 PUSH1 0xFF DUP5 AND DUP5 SUB PUSH2 0x173 JUMPI PUSH2 0x124 CALLDATALOAD SWAP6 DUP8 DUP8 AND DUP8 SUB PUSH2 0x173 JUMPI PUSH2 0x144 CALLDATALOAD PUSH8 0xFFFFFFFFFFFFFFFF DUP2 GT PUSH2 0x173 JUMPI CALLDATASIZE PUSH1 0x23 DUP3 ADD SLT ISZERO PUSH2 0x173 JUMPI PUSH2 0x93E SWAP1 CALLDATASIZE SWAP1 PUSH1 0x24 DUP2 PUSH1 0x4 ADD CALLDATALOAD SWAP2 ADD PUSH2 0xDE7 JUMP JUMPDEST SWAP9 PUSH2 0x947 PUSH2 0xECD JUMP JUMPDEST PUSH1 0x7 SLOAD SWAP11 PUSH1 0x0 NOT DUP13 EQ PUSH2 0xCE0 JUMPI PUSH1 0x1 DUP13 ADD PUSH1 0x7 SSTORE PUSH1 0x1 PUSH1 0x1 PUSH1 0xA0 SHL SUB DUP2 AND ISZERO PUSH2 0xCC7 JUMPI PUSH1 0x1 DUP13 ADD PUSH1 0x0 SWAP1 DUP2 MSTORE PUSH1 0x2 PUSH1 0x20 MSTORE PUSH1 0x40 SWAP1 KECCAK256 SLOAD PUSH1 0x1 PUSH1 0x1 PUSH1 0xA0 SHL SUB AND SWAP1 DUP13 DUP3 PUSH2 0xC8C JUMPI JUMPDEST POP PUSH1 0x1 DUP1 PUSH1 0xA0 SHL SUB DUP2 AND PUSH1 0x0 MSTORE PUSH1 0x3 PUSH1 0x20 MSTORE PUSH1 0x40 PUSH1 0x0 KECCAK256 PUSH1 0x1 DUP2 SLOAD ADD SWAP1 SSTORE PUSH1 0x1 DUP14 ADD PUSH1 0x0 MSTORE PUSH1 0x2 PUSH1 0x20 MSTORE PUSH1 0x40 PUSH1 0x0 KECCAK256 PUSH1 0x1 DUP1 PUSH1 0xA0 SHL SUB DUP3 AND PUSH12 0xFFFFFFFFFFFFFFFFFFFFFFFF PUSH1 0xA0 SHL DUP3 SLOAD AND OR SWAP1 SSTORE PUSH1 0x1 DUP14 ADD SWAP1 PUSH1 0x1 DUP1 PUSH1 0xA0 SHL SUB AND DUP3 PUSH32 0xDDF252AD1BE2C89B69C2B068FC378DAA952BA7F163C4A11628F55A4DF523B3EF PUSH1 0x0 DUP1 LOG4 PUSH2 0xC73 JUMPI PUSH1 0x40 MLOAD SWAP12 DUP13 PUSH8 0xFFFFFFFFFFFFFFFF PUSH2 0x140 DUP3 DUP2 DUP2 ADD LT SWAP3 ADD GT OR PUSH2 0xC5D JUMPI DUP13 PUSH1 0x60 PUSH1 0xFF DUP13 SWAP9 SWAP5 DUP2 DUP11 SWAP9 SWAP7 DUP2 DUP1 SWAP15 DUP2 DUP13 SWAP11 PUSH2 0x140 DUP11 ADD PUSH1 0x40 MSTORE AND DUP9 MSTORE AND PUSH1 0x20 DUP8 ADD MSTORE AND PUSH1 0x40 DUP6 ADD MSTORE AND SWAP2 ADD MSTORE AND PUSH1 0x80 DUP13 ADD MSTORE AND PUSH1 0xA0 DUP11 ADD MSTORE AND PUSH1 0xC0 DUP9 ADD MSTORE AND PUSH1 0xE0 DUP7 ADD MSTORE AND PUSH2 0x100 DUP5 ADD MSTORE PUSH2 0x120 DUP4 ADD MSTORE PUSH1 0x1 DUP2 ADD PUSH1 0x0 MSTORE PUSH1 0x8 PUSH1 0x20 MSTORE PUSH2 0x120 PUSH1 0x1 PUSH1 0x40 PUSH1 0x0 KECCAK256 PUSH1 0xFF DUP6 MLOAD AND DUP2 SLOAD SWAP1 PUSH2 0xFF00 PUSH1 0x20 DUP9 ADD MLOAD PUSH1 0x8 SHL AND PUSH3 0xFF0000 PUSH1 0x40 DUP10 ADD MLOAD PUSH1 0x10 SHL AND PUSH4 0xFF000000 PUSH1 0x60 DUP11 ADD MLOAD PUSH1 0x18 SHL AND PUSH6 0xFFFF00000000 PUSH1 0x80 DUP12 ADD MLOAD PUSH1 0x20 SHL AND SWAP1 PUSH8 0xFFFF000000000000 PUSH1 0xA0 DUP13 ADD MLOAD PUSH1 0x30 SHL AND SWAP3 PUSH10 0xFFFF0000000000000000 PUSH1 0xC0 DUP14 ADD MLOAD PUSH1 0x40 SHL AND SWAP5 DUP13 PUSH1 0xE0 PUSH1 0xFF PUSH1 0x50 SHL SWAP2 ADD MLOAD PUSH1 0x50 SHL AND SWAP7 DUP14 PUSH2 0x100 PUSH2 0xFFFF PUSH1 0x58 SHL SWAP2 ADD MLOAD PUSH1 0x58 SHL AND SWAP9 PUSH13 0xFFFFFFFFFFFFFFFFFFFFFFFFFF NOT AND OR OR OR OR OR OR OR OR OR DUP2 SSTORE ADD SWAP3 ADD MLOAD SWAP1 DUP2 MLOAD SWAP3 PUSH8 0xFFFFFFFFFFFFFFFF DUP5 GT PUSH2 0xC5D JUMPI PUSH2 0xB5F DUP2 SLOAD PUSH2 0xE93 JUMP JUMPDEST SWAP4 PUSH1 0x1F DUP6 GT PUSH2 0xC15 JUMPI JUMPDEST PUSH1 0x20 SWAP5 POP DUP5 SWAP4 PUSH1 0x1F DUP3 GT PUSH1 0x1 EQ PUSH2 0xBB2 JUMPI SWAP4 DUP2 SWAP3 SWAP4 SWAP5 PUSH1 0x0 SWAP3 PUSH2 0xBA7 JUMPI JUMPDEST POP POP DUP2 PUSH1 0x1 SHL SWAP2 PUSH1 0x0 NOT SWAP1 PUSH1 0x3 SHL SHR NOT AND OR SWAP1 SSTORE JUMPDEST PUSH1 0x1 PUSH1 0x40 MLOAD SWAP2 ADD DUP2 MSTORE RETURN JUMPDEST ADD MLOAD SWAP1 POP DUP6 DUP1 PUSH2 0xB87 JUMP JUMPDEST PUSH1 0x1F NOT DUP3 AND SWAP5 DUP4 PUSH1 0x0 MSTORE DUP7 PUSH1 0x0 KECCAK256 SWAP2 PUSH1 0x0 JUMPDEST DUP8 DUP2 LT PUSH2 0xBFE JUMPI POP DUP4 PUSH1 0x1 SWAP6 SWAP7 SWAP8 LT PUSH2 0xBE5 JUMPI JUMPDEST POP POP POP DUP2 SHL ADD SWAP1 SSTORE PUSH2 0xB9C JUMP JUMPDEST ADD MLOAD PUSH1 0x0 NOT PUSH1 0xF8 DUP5 PUSH1 0x3 SHL AND SHR NOT AND SWAP1 SSTORE DUP6 DUP1 DUP1 PUSH2 0xBD8 JUMP JUMPDEST SWAP2 SWAP3 DUP9 PUSH1 0x1 DUP2 SWAP3 DUP7 DUP6 ADD MLOAD DUP2 SSTORE ADD SWAP5 ADD SWAP3 ADD PUSH2 0xBC4 JUMP JUMPDEST DUP2 PUSH1 0x0 MSTORE PUSH1 0x20 PUSH1 0x0 KECCAK256 PUSH1 0x1F DUP3 ADD PUSH1 0x5 SHR DUP2 ADD SWAP6 PUSH1 0x20 DUP4 LT PUSH2 0xC53 JUMPI JUMPDEST PUSH1 0x1F ADD PUSH1 0x5 SHR ADD SWAP5 JUMPDEST DUP6 DUP2 LT PUSH2 0xC47 JUMPI POP PUSH2 0xB69 JUMP JUMPDEST PUSH1 0x0 DUP2 SSTORE PUSH1 0x1 ADD PUSH2 0xC3A JUMP JUMPDEST SWAP1 SWAP6 POP DUP6 SWAP1 PUSH2 0xC31 JUMP JUMPDEST PUSH4 0x4E487B71 PUSH1 0xE0 SHL PUSH1 0x0 MSTORE PUSH1 0x41 PUSH1 0x4 MSTORE PUSH1 0x24 PUSH1 0x0 REVERT JUMPDEST PUSH1 0x40 MLOAD PUSH4 0x39E35637 PUSH1 0xE1 SHL DUP2 MSTORE PUSH1 0x0 PUSH1 0x4 DUP3 ADD MSTORE PUSH1 0x24 SWAP1 REVERT JUMPDEST PUSH1 0x1 ADD PUSH1 0x0 SWAP1 DUP2 MSTORE PUSH1 0x4 PUSH1 0x20 MSTORE PUSH1 0x40 SWAP1 KECCAK256 DUP1 SLOAD PUSH1 0x1 PUSH1 0x1 PUSH1 0xA0 SHL SUB NOT AND SWAP1 SSTORE DUP2 PUSH1 0x0 MSTORE PUSH1 0x3 PUSH1 0x20 MSTORE PUSH1 0x40 PUSH1 0x0 KECCAK256 PUSH1 0x0 NOT DUP2 SLOAD ADD SWAP1 SSTORE DUP13 PUSH2 0x98E JUMP JUMPDEST PUSH1 0x40 MLOAD PUSH4 0x32505749 PUSH1 0xE1 SHL DUP2 MSTORE PUSH1 0x0 PUSH1 0x4 DUP3 ADD MSTORE PUSH1 0x24 SWAP1 REVERT JUMPDEST PUSH4 0x4E487B71 PUSH1 0xE0 SHL PUSH1 0x0 MSTORE PUSH1 0x11 PUSH1 0x4 MSTORE PUSH1 0x24 PUSH1 0x0 REVERT JUMPDEST CALLVALUE PUSH2 0x173 JUMPI PUSH1 0x20 CALLDATASIZE PUSH1 0x3 NOT ADD SLT PUSH2 0x173 JUMPI PUSH1 0x4 CALLDATALOAD SWAP1 PUSH4 0xFFFFFFFF PUSH1 0xE0 SHL DUP3 AND DUP1 SWAP3 SUB PUSH2 0x173 JUMPI PUSH1 0x20 SWAP2 PUSH4 0x80AC58CD PUSH1 0xE0 SHL DUP2 EQ SWAP1 DUP2 ISZERO PUSH2 0xD50 JUMPI JUMPDEST DUP2 ISZERO PUSH2 0xD3F JUMPI JUMPDEST POP ISZERO ISZERO DUP2 MSTORE RETURN JUMPDEST PUSH4 0x1FFC9A7 PUSH1 0xE0 SHL EQ SWAP1 POP DUP4 PUSH2 0xD38 JUMP JUMPDEST PUSH4 0x5B5E139F PUSH1 0xE0 SHL DUP2 EQ SWAP2 POP PUSH2 0xD31 JUMP JUMPDEST PUSH1 0x4 CALLDATALOAD SWAP1 PUSH1 0x1 PUSH1 0x1 PUSH1 0xA0 SHL SUB DUP3 AND DUP3 SUB PUSH2 0x173 JUMPI JUMP JUMPDEST PUSH1 0x24 CALLDATALOAD SWAP1 PUSH1 0x1 PUSH1 0x1 PUSH1 0xA0 SHL SUB DUP3 AND DUP3 SUB PUSH2 0x173 JUMPI JUMP JUMPDEST PUSH1 0x20 DUP2 ADD SWAP1 DUP2 LT PUSH8 0xFFFFFFFFFFFFFFFF DUP3 GT OR PUSH2 0xC5D JUMPI PUSH1 0x40 MSTORE JUMP JUMPDEST SWAP1 PUSH1 0x1F DUP1 NOT SWAP2 ADD AND DUP2 ADD SWAP1 DUP2 LT PUSH8 0xFFFFFFFFFFFFFFFF DUP3 GT OR PUSH2 0xC5D JUMPI PUSH1 0x40 MSTORE JUMP JUMPDEST PUSH8 0xFFFFFFFFFFFFFFFF DUP2 GT PUSH2 0xC5D JUMPI PUSH1 0x1F ADD PUSH1 0x1F NOT AND PUSH1 0x20 ADD SWAP1 JUMP JUMPDEST SWAP3 SWAP2 SWAP3 PUSH2 0xDF3 DUP3 PUSH2 0xDCB JUMP JUMPDEST SWAP2 PUSH2 0xE01 PUSH1 0x40 MLOAD SWAP4 DUP5 PUSH2 0xDA9 JUMP JUMPDEST DUP3 SWAP5 DUP2 DUP5 MSTORE DUP2 DUP4 ADD GT PUSH2 0x173 JUMPI DUP3 DUP2 PUSH1 0x20 SWAP4 DUP5 PUSH1 0x0 SWAP7 ADD CALLDATACOPY ADD ADD MSTORE JUMP JUMPDEST SWAP2 SWAP1 DUP3 MLOAD SWAP3 DUP4 DUP3 MSTORE PUSH1 0x0 JUMPDEST DUP5 DUP2 LT PUSH2 0xE4A JUMPI POP POP DUP3 PUSH1 0x0 PUSH1 0x20 DUP1 SWAP5 SWAP6 DUP5 ADD ADD MSTORE PUSH1 0x1F DUP1 NOT SWAP2 ADD AND ADD ADD SWAP1 JUMP JUMPDEST PUSH1 0x20 DUP2 DUP4 ADD DUP2 ADD MLOAD DUP5 DUP4 ADD DUP3 ADD MSTORE ADD PUSH2 0xE29 JUMP JUMPDEST PUSH1 0x60 SWAP1 PUSH1 0x3 NOT ADD SLT PUSH2 0x173 JUMPI PUSH1 0x1 PUSH1 0x1 PUSH1 0xA0 SHL SUB SWAP1 PUSH1 0x4 CALLDATALOAD DUP3 DUP2 AND DUP2 SUB PUSH2 0x173 JUMPI SWAP2 PUSH1 0x24 CALLDATALOAD SWAP1 DUP2 AND DUP2 SUB PUSH2 0x173 JUMPI SWAP1 PUSH1 0x44 CALLDATALOAD SWAP1 JUMP JUMPDEST SWAP1 PUSH1 0x1 DUP3 DUP2 SHR SWAP3 AND DUP1 ISZERO PUSH2 0xEC3 JUMPI JUMPDEST PUSH1 0x20 DUP4 LT EQ PUSH2 0xEAD JUMPI JUMP JUMPDEST PUSH4 0x4E487B71 PUSH1 0xE0 SHL PUSH1 0x0 MSTORE PUSH1 0x22 PUSH1 0x4 MSTORE PUSH1 0x24 PUSH1 0x0 REVERT JUMPDEST SWAP2 PUSH1 0x7F AND SWAP2 PUSH2 0xEA2 JUMP JUMPDEST PUSH1 0x6 SLOAD PUSH1 0x1 PUSH1 0x1 PUSH1 0xA0 SHL SUB AND CALLER SUB PUSH2 0xEE1 JUMPI JUMP JUMPDEST PUSH1 0x40 MLOAD PUSH4 0x118CDAA7 PUSH1 0xE0 SHL DUP2 MSTORE CALLER PUSH1 0x4 DUP3 ADD MSTORE PUSH1 0x24 SWAP1 REVERT JUMPDEST PUSH1 0x1 PUSH1 0x1 PUSH1 0xA0 SHL SUB SWAP2 DUP3 AND SWAP3 SWAP1 SWAP2 DUP4 ISZERO PUSH2 0xCC7 JUMPI PUSH1 0x0 SWAP3 DUP3 DUP5 MSTORE DUP3 PUSH1 0x20 SWAP6 PUSH1 0x2 DUP8 MSTORE PUSH1 0x40 SWAP7 DUP5 DUP9 DUP9 KECCAK256 SLOAD AND SWAP7 DUP8 SWAP2 CALLER ISZERO ISZERO DUP1 PUSH2 0xFE9 JUMPI JUMPDEST POP SWAP1 PUSH1 0x2 PUSH32 0xDDF252AD1BE2C89B69C2B068FC378DAA952BA7F163C4A11628F55A4DF523B3EF SWAP3 DUP5 PUSH2 0xFB6 JUMPI JUMPDEST DUP6 DUP4 MSTORE PUSH1 0x3 DUP2 MSTORE DUP12 DUP4 KECCAK256 DUP1 SLOAD PUSH1 0x1 ADD SWAP1 SSTORE DUP7 DUP4 MSTORE MSTORE DUP10 DUP2 KECCAK256 DUP1 SLOAD PUSH1 0x1 PUSH1 0x1 PUSH1 0xA0 SHL SUB NOT AND DUP6 OR SWAP1 SSTORE DUP1 LOG4 AND SWAP3 DUP4 DUP4 SUB PUSH2 0xF95 JUMPI POP POP POP POP JUMP JUMPDEST PUSH1 0x64 SWAP5 POP MLOAD SWAP3 PUSH4 0x64283D7B PUSH1 0xE0 SHL DUP5 MSTORE PUSH1 0x4 DUP5 ADD MSTORE PUSH1 0x24 DUP4 ADD MSTORE PUSH1 0x44 DUP3 ADD MSTORE REVERT JUMPDEST PUSH1 0x0 DUP8 DUP2 MSTORE PUSH1 0x4 PUSH1 0x20 MSTORE PUSH1 0x40 SWAP1 KECCAK256 DUP1 SLOAD PUSH1 0x1 PUSH1 0x1 PUSH1 0xA0 SHL SUB NOT AND SWAP1 SSTORE DUP5 DUP4 MSTORE PUSH1 0x3 DUP2 MSTORE DUP12 DUP4 KECCAK256 DUP1 SLOAD PUSH1 0x0 NOT ADD SWAP1 SSTORE PUSH2 0xF5C JUMP JUMPDEST SWAP2 SWAP4 SWAP5 POP SWAP2 POP DUP1 PUSH2 0x103E JUMPI JUMPDEST ISZERO PUSH2 0x1005 JUMPI DUP6 SWAP3 SWAP2 DUP8 SWAP2 CODESIZE PUSH2 0xF30 JUMP JUMPDEST DUP8 DUP7 DUP9 PUSH2 0x1022 JUMPI PUSH1 0x24 SWAP2 MLOAD SWAP1 PUSH4 0x7E273289 PUSH1 0xE0 SHL DUP3 MSTORE PUSH1 0x4 DUP3 ADD MSTORE REVERT JUMPDEST PUSH1 0x44 SWAP2 MLOAD SWAP1 PUSH4 0x177E802F PUSH1 0xE0 SHL DUP3 MSTORE CALLER PUSH1 0x4 DUP4 ADD MSTORE PUSH1 0x24 DUP3 ADD MSTORE REVERT JUMPDEST POP CALLER DUP8 EQ DUP1 ISZERO PUSH2 0x1063 JUMPI JUMPDEST DUP1 PUSH2 0xFF5 JUMPI POP DUP6 DUP3 MSTORE PUSH1 0x4 DUP2 MSTORE CALLER DUP6 DUP10 DUP5 KECCAK256 SLOAD AND EQ PUSH2 0xFF5 JUMP JUMPDEST POP DUP7 DUP3 MSTORE PUSH1 0x5 DUP2 MSTORE DUP8 DUP3 KECCAK256 CALLER DUP4 MSTORE DUP2 MSTORE PUSH1 0xFF DUP9 DUP4 KECCAK256 SLOAD AND PUSH2 0x1049 JUMP JUMPDEST PUSH2 0x108A DUP4 DUP4 DUP4 PUSH2 0xEF9 JUMP JUMPDEST DUP2 EXTCODESIZE PUSH2 0x1097 JUMPI JUMPDEST POP POP POP POP JUMP JUMPDEST PUSH1 0x40 MLOAD PUSH4 0xA85BD01 PUSH1 0xE1 SHL DUP1 DUP3 MSTORE CALLER PUSH1 0x4 DUP4 ADD MSTORE PUSH1 0x1 PUSH1 0x1 PUSH1 0xA0 SHL SUB SWAP3 DUP4 AND PUSH1 0x24 DUP4 ADD MSTORE PUSH1 0x44 DUP3 ADD SWAP5 SWAP1 SWAP5 MSTORE PUSH1 0x80 PUSH1 0x64 DUP3 ADD MSTORE PUSH1 0x20 SWAP6 SWAP3 SWAP1 SWAP2 AND SWAP4 SWAP1 SWAP3 SWAP1 DUP4 SWAP1 PUSH2 0x10E5 SWAP1 PUSH1 0x84 DUP4 ADD SWAP1 PUSH2 0xE1E JUMP JUMPDEST SUB SWAP3 DUP6 DUP2 PUSH1 0x0 SWAP6 DUP2 DUP8 DUP10 GAS CALL DUP5 SWAP2 DUP2 PUSH2 0x118E JUMPI JUMPDEST POP PUSH2 0x1159 JUMPI POP POP POP RETURNDATASIZE PUSH1 0x0 EQ PUSH2 0x1151 JUMPI RETURNDATASIZE PUSH2 0x1113 DUP2 PUSH2 0xDCB JUMP JUMPDEST SWAP1 PUSH2 0x1121 PUSH1 0x40 MLOAD SWAP3 DUP4 PUSH2 0xDA9 JUMP JUMPDEST DUP2 MSTORE DUP1 SWAP2 DUP5 RETURNDATASIZE SWAP3 ADD RETURNDATACOPY JUMPDEST DUP1 MLOAD SWAP3 DUP4 PUSH2 0x114C JUMPI PUSH1 0x40 MLOAD PUSH4 0x32505749 PUSH1 0xE1 SHL DUP2 MSTORE PUSH1 0x4 DUP2 ADD DUP5 SWAP1 MSTORE PUSH1 0x24 SWAP1 REVERT JUMPDEST ADD SWAP1 POP REVERT JUMPDEST POP PUSH1 0x60 PUSH2 0x112B JUMP JUMPDEST SWAP2 SWAP5 POP SWAP2 POP PUSH4 0xFFFFFFFF PUSH1 0xE0 SHL AND SUB PUSH2 0x1176 JUMPI POP CODESIZE DUP1 DUP1 DUP1 PUSH2 0x1091 JUMP JUMPDEST PUSH1 0x24 SWAP1 PUSH1 0x40 MLOAD SWAP1 PUSH4 0x32505749 PUSH1 0xE1 SHL DUP3 MSTORE PUSH1 0x4 DUP3 ADD MSTORE REVERT JUMPDEST SWAP1 SWAP2 POP DUP7 DUP2 DUP2 RETURNDATASIZE DUP4 GT PUSH2 0x11CB JUMPI JUMPDEST PUSH2 0x11A6 DUP2 DUP4 PUSH2 0xDA9 JUMP JUMPDEST DUP2 ADD SUB SLT PUSH2 0x11C7 JUMPI MLOAD PUSH1 0x1 PUSH1 0x1 PUSH1 0xE0 SHL SUB NOT DUP2 AND DUP2 SUB PUSH2 0x11C7 JUMPI SWAP1 CODESIZE PUSH2 0x10F9 JUMP JUMPDEST DUP5 DUP1 REVERT JUMPDEST POP RETURNDATASIZE PUSH2 0x119C JUMP JUMPDEST PUSH1 0x0 DUP2 DUP2 MSTORE PUSH1 0x2 PUSH1 0x20 MSTORE PUSH1 0x40 SWAP1 KECCAK256 SLOAD PUSH1 0x1 PUSH1 0x1 PUSH1 0xA0 SHL SUB AND SWAP1 DUP2 ISZERO PUSH2 0x11F5 JUMPI POP SWAP1 JUMP JUMPDEST PUSH1 0x24 SWAP1 PUSH1 0x40 MLOAD SWAP1 PUSH4 0x7E273289 PUSH1 0xE0 SHL DUP3 MSTORE PUSH1 0x4 DUP3 ADD MSTORE REVERT INVALID LOG2 PUSH5 0x6970667358 0x22 SLT KECCAK256 SWAP12 SAR PUSH0 0xD1 EQ 0xAF DUP2 SWAP15 ISZERO 0xF8 0xDD BASEFEE PUSH28 0x245981CE8EE145E3C827E4C3F775748251EA4964736F6C6343000814 STOP CALLER "},"methodIdentifiers":{"approve(address,uint256)":"095ea7b3","balanceOf(address)":"70a08231","equipmentData(uint256)":"c6452e13","getApproved(uint256)":"081812fc","isApprovedForAll(address,address)":"e985e9c5","mintEquipment(address,uint8,uint8,uint8,uint8,uint16,uint16,uint16,uint8,uint16,string)":"05434cf4","name()":"06fdde03","owner()":"8da5cb5b","ownerOf(uint256)":"6352211e","renounceOwnership()":"715018a6","safeTransferFrom(address,address,uint256)":"42842e0e","safeTransferFrom(address,address,uint256,bytes)":"b88d4fde","setApprovalForAll(address,bool)":"a22cb465","supportsInterface(bytes4)":"01ffc9a7","symbol()":"95d89b41","tokenURI(uint256)":"c87b56dd","transferFrom(address,address,uint256)":"23b872dd","transferOwnership(address)":"f2fde38b"}}}}}