{
  "_format": "hh-sol-artifact-1",
  "contractName": "GameConfig",
  "sourceName": "contracts/GameConfig.sol",
  "abi": [
    {
      "inputs": [],
      "name": "AGILITY_PER_LEVEL",
      "outputs": [
        {
          "internalType": "uint16",
          "name": "",
          "type": "uint16"
        }
      ],
      "stateMutability": "view",
      "type": "function"
    },
    {
      "inputs": [],
      "name": "ATTACK_PER_LEVEL",
      "outputs": [
        {
          "internalType": "uint16",
          "name": "",
          "type": "uint16"
        }
      ],
      "stateMutability": "view",
      "type": "function"
    },
    {
      "inputs": [],
      "name": "BASE_EXP_PER_LEVEL",
      "outputs": [
        {
          "internalType": "uint16",
          "name": "",
          "type": "uint16"
        }
      ],
      "stateMutability": "view",
      "type": "function"
    },
    {
      "inputs": [],
      "name": "DEFENSE_PER_LEVEL",
      "outputs": [
        {
          "internalType": "uint16",
          "name": "",
          "type": "uint16"
        }
      ],
      "stateMutability": "view",
      "type": "function"
    },
    {
      "inputs": [],
      "name": "HEALTH_PER_LEVEL",
      "outputs": [
        {
          "internalType": "uint16",
          "name": "",
          "type": "uint16"
        }
      ],
      "stateMutability": "view",
      "type": "function"
    },
    {
      "inputs": [],
      "name": "INITIAL_AGILITY",
      "outputs": [
        {
          "internalType": "uint16",
          "name": "",
          "type": "uint16"
        }
      ],
      "stateMutability": "view",
      "type": "function"
    },
    {
      "inputs": [],
      "name": "INITIAL_ATTACK",
      "outputs": [
        {
          "internalType": "uint16",
          "name": "",
          "type": "uint16"
        }
      ],
      "stateMutability": "view",
      "type": "function"
    },
    {
      "inputs": [],
      "name": "INITIAL_CRIT_DAMAGE",
      "outputs": [
        {
          "internalType": "uint16",
          "name": "",
          "type": "uint16"
        }
      ],
      "stateMutability": "view",
      "type": "function"
    },
    {
      "inputs": [],
      "name": "INITIAL_CRIT_RATE",
      "outputs": [
        {
          "internalType": "uint8",
          "name": "",
          "type": "uint8"
        }
      ],
      "stateMutability": "view",
      "type": "function"
    },
    {
      "inputs": [],
      "name": "INITIAL_DEFENSE",
      "outputs": [
        {
          "internalType": "uint16",
          "name": "",
          "type": "uint16"
        }
      ],
      "stateMutability": "view",
      "type": "function"
    },
    {
      "inputs": [],
      "name": "INITIAL_GOLD_REWARD",
      "outputs": [
        {
          "internalType": "uint256",
          "name": "",
          "type": "uint256"
        }
      ],
      "stateMutability": "view",
      "type": "function"
    },
    {
      "inputs": [],
      "name": "INITIAL_HEALTH",
      "outputs": [
        {
          "internalType": "uint16",
          "name": "",
          "type": "uint16"
        }
      ],
      "stateMutability": "view",
      "type": "function"
    },
    {
      "inputs": [],
      "name": "MAX_LEVEL",
      "outputs": [
        {
          "internalType": "uint16",
          "name": "",
          "type": "uint16"
        }
      ],
      "stateMutability": "view",
      "type": "function"
    },
    {
      "inputs": [],
      "name": "MAX_OFFLINE_BOXES",
      "outputs": [
        {
          "internalType": "uint8",
          "name": "",
          "type": "uint8"
        }
      ],
      "stateMutability": "view",
      "type": "function"
    },
    {
      "inputs": [],
      "name": "MAX_STAMINA",
      "outputs": [
        {
          "internalType": "uint8",
          "name": "",
          "type": "uint8"
        }
      ],
      "stateMutability": "view",
      "type": "function"
    },
    {
      "inputs": [],
      "name": "STAMINA_RECOVERY_INTERVAL",
      "outputs": [
        {
          "internalType": "uint32",
          "name": "",
          "type": "uint32"
        }
      ],
      "stateMutability": "view",
      "type": "function"
    },
    {
      "inputs": [],
      "name": "TREASURE_BOX_GOLD_REWARD",
      "outputs": [
        {
          "internalType": "uint256",
          "name": "",
          "type": "uint256"
        }
      ],
      "stateMutability": "view",
      "type": "function"
    },
    {
      "inputs": [],
      "name": "TREASURE_BOX_INTERVAL",
      "outputs": [
        {
          "internalType": "uint32",
          "name": "",
          "type": "uint32"
        }
      ],
      "stateMutability": "view",
      "type": "function"
    }
  ],
  "bytecode": "0x6080806040523461001a576102579081610020823930815050f35b600080fdfe60806040818152600436101561001457600080fd5b600091823560e01c90816302736bca146101a1575080631ac001201461018b57806336ee8646146101445780633d44021a14610175578063494e21f41461015f57806349e12c621461011f5780634a8682061461013f5780638ca765b61461014957806394e7ecfb1461013f5780639aef84bf14610144578063a49062d41461013f578063be10155f14610129578063c5a5c5ed14610124578063cb752c1d14610109578063cffd655814610124578063d32972141461011f578063da04810c146101095763ecac81b6146100e857600080fd5b81600319360112610105576020905168056bc75e2d631000008152f35b5080fd5b5081600319360112610105576020905160058152f35b6101dc565b61020a565b50816003193601126101055760209051600f8152f35b6101f3565b6101bf565b5081600319360112610105576020905160028152f35b5081600319360112610105576020905160968152f35b5081600319360112610105576020905160188152f35b5081600319360112610105576020905160648152f35b83908160031936011261010557806802b5e3af16b188000060209252f35b60003660031901126101d7576020604051610e108152f35b600080fd5b60003660031901126101d757602060405160018152f35b60003660031901126101d757602060405160648152f35b60003660031901126101d7576020604051600a8152f3fea264697066735822122030bd34ef721eb82dc65b582ef771dc335edd4e3121e71992787b3d4d5d394ed664736f6c63430008140033",
  "linkReferences": {},
  "deployedLinkReferences": {}
}