{
  "_format": "hh-sol-artifact-1",
  "contractName": "GameConfig",
  "sourceName": "contracts/GameConfig.sol",
  "abi": [
    {
      "inputs": [],
      "name": "AGILITY_PER_LEVEL",
      "outputs": [
        {
          "internalType": "uint16",
          "name": "",
          "type": "uint16"
        }
      ],
      "stateMutability": "view",
      "type": "function"
    },
    {
      "inputs": [],
      "name": "ATTACK_PER_LEVEL",
      "outputs": [
        {
          "internalType": "uint16",
          "name": "",
          "type": "uint16"
        }
      ],
      "stateMutability": "view",
      "type": "function"
    },
    {
      "inputs": [],
      "name": "BASE_EXP_PER_LEVEL",
      "outputs": [
        {
          "internalType": "uint16",
          "name": "",
          "type": "uint16"
        }
      ],
      "stateMutability": "view",
      "type": "function"
    },
    {
      "inputs": [],
      "name": "DEFENSE_PER_LEVEL",
      "outputs": [
        {
          "internalType": "uint16",
          "name": "",
          "type": "uint16"
        }
      ],
      "stateMutability": "view",
      "type": "function"
    },
    {
      "inputs": [],
      "name": "HEALTH_PER_LEVEL",
      "outputs": [
        {
          "internalType": "uint16",
          "name": "",
          "type": "uint16"
        }
      ],
      "stateMutability": "view",
      "type": "function"
    },
    {
      "inputs": [],
      "name": "INITIAL_AGILITY",
      "outputs": [
        {
          "internalType": "uint16",
          "name": "",
          "type": "uint16"
        }
      ],
      "stateMutability": "view",
      "type": "function"
    },
    {
      "inputs": [],
      "name": "INITIAL_ATTACK",
      "outputs": [
        {
          "internalType": "uint16",
          "name": "",
          "type": "uint16"
        }
      ],
      "stateMutability": "view",
      "type": "function"
    },
    {
      "inputs": [],
      "name": "INITIAL_CRIT_DAMAGE",
      "outputs": [
        {
          "internalType": "uint16",
          "name": "",
          "type": "uint16"
        }
      ],
      "stateMutability": "view",
      "type": "function"
    },
    {
      "inputs": [],
      "name": "INITIAL_CRIT_RATE",
      "outputs": [
        {
          "internalType": "uint8",
          "name": "",
          "type": "uint8"
        }
      ],
      "stateMutability": "view",
      "type": "function"
    },
    {
      "inputs": [],
      "name": "INITIAL_DEFENSE",
      "outputs": [
        {
          "internalType": "uint16",
          "name": "",
          "type": "uint16"
        }
      ],
      "stateMutability": "view",
      "type": "function"
    },
    {
      "inputs": [],
      "name": "INITIAL_GOLD_REWARD",
      "outputs": [
        {
          "internalType": "uint256",
          "name": "",
          "type": "uint256"
        }
      ],
      "stateMutability": "view",
      "type": "function"
    },
    {
      "inputs": [],
      "name": "INITIAL_HEALTH",
      "outputs": [
        {
          "internalType": "uint16",
          "name": "",
          "type": "uint16"
        }
      ],
      "stateMutability": "view",
      "type": "function"
    },
    {
      "inputs": [],
      "name": "MAX_LEVEL",
      "outputs": [
        {
          "internalType": "uint16",
          "name": "",
          "type": "uint16"
        }
      ],
      "stateMutability": "view",
      "type": "function"
    },
    {
      "inputs": [],
      "name": "MAX_OFFLINE_BOXES",
      "outputs": [
        {
          "internalType": "uint256",
          "name": "",
          "type": "uint256"
        }
      ],
      "stateMutability": "view",
      "type": "function"
    },
    {
      "inputs": [],
      "name": "MAX_STAMINA",
      "outputs": [
        {
          "internalType": "uint8",
          "name": "",
          "type": "uint8"
        }
      ],
      "stateMutability": "view",
      "type": "function"
    },
    {
      "inputs": [],
      "name": "STAMINA_RECOVERY_INTERVAL",
      "outputs": [
        {
          "internalType": "uint32",
          "name": "",
          "type": "uint32"
        }
      ],
      "stateMutability": "view",
      "type": "function"
    },
    {
      "inputs": [],
      "name": "TREASURE_BOX_GOLD_REWARD",
      "outputs": [
        {
          "internalType": "uint256",
          "name": "",
          "type": "uint256"
        }
      ],
      "stateMutability": "view",
      "type": "function"
    },
    {
      "inputs": [],
      "name": "TREASURE_BOX_INTERVAL",
      "outputs": [
        {
          "internalType": "uint256",
          "name": "",
          "type": "uint256"
        }
      ],
      "stateMutability": "view",
      "type": "function"
    }
  ],
  "bytecode": "0x6080806040523461001a576102679081610020823930815050f35b600080fdfe60806040818152600436101561001457600080fd5b600091823560e01c90816302736bca146101c9575080631ac00120146101b357806336ee86461461019c5780633d44021a14610186578063494e21f41461017057806349e12c621461011f5780634a8682061461013f5780638ca765b61461015a57806394e7ecfb1461013f5780639aef84bf14610144578063a49062d41461013f578063be10155f14610129578063c5a5c5ed14610124578063cb752c1d14610109578063cffd655814610124578063d32972141461011f578063da04810c146101095763ecac81b6146100e857600080fd5b81600319360112610105576020905168056bc75e2d631000008152f35b5080fd5b5081600319360112610105576020905160058152f35b6101e7565b61021a565b50816003193601126101055760209051600f8152f35b610203565b5081600319360112610105576020905160148152f35b5081600319360112610105576020905160028152f35b5081600319360112610105576020905160968152f35b5081600319360112610105576020905160188152f35b50816003193601126101055760209051610e108152f35b5081600319360112610105576020905160648152f35b83908160031936011261010557806802b5e3af16b188000060209252f35b60003660031901126101fe57602060405160018152f35b600080fd5b60003660031901126101fe57602060405160648152f35b60003660031901126101fe576020604051600a8152f3fea26469706673582212209d01c2e0a8bf96bc4fec95e9f99803633dee0aef34025d9b441bf66f5be773c664736f6c63430008140033",
  "linkReferences": {},
  "deployedLinkReferences": {}
}