{
  "_format": "hh-sol-artifact-1",
  "contractName": "BattleSystem",
  "sourceName": "contracts/BattleSystem.sol",
  "abi": [
    {
      "inputs": [
        {
          "internalType": "address",
          "name": "_goldToken",
          "type": "address"
        },
        {
          "internalType": "address",
          "name": "_treasureBoxSystem",
          "type": "address"
        }
      ],
      "stateMutability": "nonpayable",
      "type": "constructor"
    },
    {
      "inputs": [
        {
          "internalType": "address",
          "name": "owner",
          "type": "address"
        }
      ],
      "name": "OwnableInvalidOwner",
      "type": "error"
    },
    {
      "inputs": [
        {
          "internalType": "address",
          "name": "account",
          "type": "address"
        }
      ],
      "name": "OwnableUnauthorizedAccount",
      "type": "error"
    },
    {
      "anonymous": false,
      "inputs": [
        {
          "indexed": true,
          "internalType": "address",
          "name": "player",
          "type": "address"
        },
        {
          "indexed": false,
          "internalType": "uint16",
          "name": "experience",
          "type": "uint16"
        },
        {
          "indexed": false,
          "internalType": "uint256",
          "name": "gold",
          "type": "uint256"
        },
        {
          "indexed": false,
          "internalType": "bool",
          "name": "victory",
          "type": "bool"
        }
      ],
      "name": "BattleCompleted",
      "type": "event"
    },
    {
      "anonymous": false,
      "inputs": [
        {
          "indexed": true,
          "internalType": "address",
          "name": "player",
          "type": "address"
        },
        {
          "indexed": false,
          "internalType": "uint16",
          "name": "newLevel",
          "type": "uint16"
        },
        {
          "indexed": false,
          "internalType": "uint16",
          "name": "oldLevel",
          "type": "uint16"
        }
      ],
      "name": "LevelUp",
      "type": "event"
    },
    {
      "anonymous": false,
      "inputs": [
        {
          "indexed": true,
          "internalType": "address",
          "name": "previousOwner",
          "type": "address"
        },
        {
          "indexed": true,
          "internalType": "address",
          "name": "newOwner",
          "type": "address"
        }
      ],
      "name": "OwnershipTransferred",
      "type": "event"
    },
    {
      "anonymous": false,
      "inputs": [
        {
          "indexed": true,
          "internalType": "address",
          "name": "player",
          "type": "address"
        },
        {
          "indexed": false,
          "internalType": "string",
          "name": "name",
          "type": "string"
        }
      ],
      "name": "PlayerRegistered",
      "type": "event"
    },
    {
      "anonymous": false,
      "inputs": [
        {
          "indexed": true,
          "internalType": "address",
          "name": "player",
          "type": "address"
        },
        {
          "indexed": false,
          "internalType": "uint8",
          "name": "newStamina",
          "type": "uint8"
        }
      ],
      "name": "StaminaUpdated",
      "type": "event"
    },
    {
      "inputs": [
        {
          "internalType": "address",
          "name": "playerAddress",
          "type": "address"
        },
        {
          "internalType": "uint8",
          "name": "staminaCost",
          "type": "uint8"
        }
      ],
      "name": "canBattle",
      "outputs": [
        {
          "internalType": "bool",
          "name": "",
          "type": "bool"
        }
      ],
      "stateMutability": "view",
      "type": "function"
    },
    {
      "inputs": [
        {
          "internalType": "address",
          "name": "playerAddress",
          "type": "address"
        },
        {
          "internalType": "uint16",
          "name": "experienceGained",
          "type": "uint16"
        },
        {
          "internalType": "uint256",
          "name": "goldGained",
          "type": "uint256"
        },
        {
          "internalType": "uint8",
          "name": "staminaCost",
          "type": "uint8"
        },
        {
          "internalType": "bool",
          "name": "victory",
          "type": "bool"
        },
        {
          "internalType": "uint8",
          "name": "monsterLevel",
          "type": "uint8"
        }
      ],
      "name": "completeBattle",
      "outputs": [],
      "stateMutability": "nonpayable",
      "type": "function"
    },
    {
      "inputs": [
        {
          "internalType": "address",
          "name": "player",
          "type": "address"
        },
        {
          "internalType": "uint8",
          "name": "amount",
          "type": "uint8"
        }
      ],
      "name": "consumeStamina",
      "outputs": [],
      "stateMutability": "nonpayable",
      "type": "function"
    },
    {
      "inputs": [
        {
          "internalType": "address",
          "name": "playerAddress",
          "type": "address"
        }
      ],
      "name": "getBattleStats",
      "outputs": [
        {
          "internalType": "uint32",
          "name": "totalBattlesCount",
          "type": "uint32"
        },
        {
          "internalType": "uint32",
          "name": "totalVictoriesCount",
          "type": "uint32"
        },
        {
          "internalType": "uint8",
          "name": "winRate",
          "type": "uint8"
        },
        {
          "internalType": "uint32",
          "name": "lastBattle",
          "type": "uint32"
        }
      ],
      "stateMutability": "view",
      "type": "function"
    },
    {
      "inputs": [
        {
          "internalType": "address",
          "name": "playerAddress",
          "type": "address"
        }
      ],
      "name": "getExpNeededForNextLevel",
      "outputs": [
        {
          "internalType": "uint32",
          "name": "",
          "type": "uint32"
        }
      ],
      "stateMutability": "view",
      "type": "function"
    },
    {
      "inputs": [
        {
          "internalType": "address",
          "name": "playerAddress",
          "type": "address"
        }
      ],
      "name": "getPlayer",
      "outputs": [
        {
          "components": [
            {
              "internalType": "string",
              "name": "name",
              "type": "string"
            },
            {
              "internalType": "uint16",
              "name": "level",
              "type": "uint16"
            },
            {
              "internalType": "uint32",
              "name": "experience",
              "type": "uint32"
            },
            {
              "internalType": "uint16",
              "name": "health",
              "type": "uint16"
            },
            {
              "internalType": "uint16",
              "name": "maxHealth",
              "type": "uint16"
            },
            {
              "internalType": "uint16",
              "name": "attack",
              "type": "uint16"
            },
            {
              "internalType": "uint16",
              "name": "defense",
              "type": "uint16"
            },
            {
              "internalType": "uint16",
              "name": "agility",
              "type": "uint16"
            },
            {
              "internalType": "uint8",
              "name": "criticalRate",
              "type": "uint8"
            },
            {
              "internalType": "uint16",
              "name": "criticalDamage",
              "type": "uint16"
            },
            {
              "internalType": "uint8",
              "name": "stamina",
              "type": "uint8"
            },
            {
              "internalType": "uint8",
              "name": "maxStamina",
              "type": "uint8"
            },
            {
              "internalType": "uint32",
              "name": "lastStaminaTime",
              "type": "uint32"
            },
            {
              "internalType": "uint16",
              "name": "currentForestLevel",
              "type": "uint16"
            },
            {
              "internalType": "uint16",
              "name": "currentForestProgress",
              "type": "uint16"
            },
            {
              "internalType": "uint32",
              "name": "lastTreasureBoxTime",
              "type": "uint32"
            },
            {
              "internalType": "bool",
              "name": "initialized",
              "type": "bool"
            },
            {
              "internalType": "uint8",
              "name": "job",
              "type": "uint8"
            }
          ],
          "internalType": "struct GameStructs.Player",
          "name": "",
          "type": "tuple"
        }
      ],
      "stateMutability": "view",
      "type": "function"
    },
    {
      "inputs": [],
      "name": "goldToken",
      "outputs": [
        {
          "internalType": "contract AdventureGold",
          "name": "",
          "type": "address"
        }
      ],
      "stateMutability": "view",
      "type": "function"
    },
    {
      "inputs": [
        {
          "internalType": "uint16",
          "name": "amount",
          "type": "uint16"
        }
      ],
      "name": "healPlayer",
      "outputs": [],
      "stateMutability": "nonpayable",
      "type": "function"
    },
    {
      "inputs": [
        {
          "internalType": "address",
          "name": "",
          "type": "address"
        }
      ],
      "name": "lastBattleTime",
      "outputs": [
        {
          "internalType": "uint32",
          "name": "",
          "type": "uint32"
        }
      ],
      "stateMutability": "view",
      "type": "function"
    },
    {
      "inputs": [],
      "name": "owner",
      "outputs": [
        {
          "internalType": "address",
          "name": "",
          "type": "address"
        }
      ],
      "stateMutability": "view",
      "type": "function"
    },
    {
      "inputs": [
        {
          "internalType": "address",
          "name": "",
          "type": "address"
        }
      ],
      "name": "players",
      "outputs": [
        {
          "internalType": "string",
          "name": "name",
          "type": "string"
        },
        {
          "internalType": "uint16",
          "name": "level",
          "type": "uint16"
        },
        {
          "internalType": "uint32",
          "name": "experience",
          "type": "uint32"
        },
        {
          "internalType": "uint16",
          "name": "health",
          "type": "uint16"
        },
        {
          "internalType": "uint16",
          "name": "maxHealth",
          "type": "uint16"
        },
        {
          "internalType": "uint16",
          "name": "attack",
          "type": "uint16"
        },
        {
          "internalType": "uint16",
          "name": "defense",
          "type": "uint16"
        },
        {
          "internalType": "uint16",
          "name": "agility",
          "type": "uint16"
        },
        {
          "internalType": "uint8",
          "name": "criticalRate",
          "type": "uint8"
        },
        {
          "internalType": "uint16",
          "name": "criticalDamage",
          "type": "uint16"
        },
        {
          "internalType": "uint8",
          "name": "stamina",
          "type": "uint8"
        },
        {
          "internalType": "uint8",
          "name": "maxStamina",
          "type": "uint8"
        },
        {
          "internalType": "uint32",
          "name": "lastStaminaTime",
          "type": "uint32"
        },
        {
          "internalType": "uint16",
          "name": "currentForestLevel",
          "type": "uint16"
        },
        {
          "internalType": "uint16",
          "name": "currentForestProgress",
          "type": "uint16"
        },
        {
          "internalType": "uint32",
          "name": "lastTreasureBoxTime",
          "type": "uint32"
        },
        {
          "internalType": "bool",
          "name": "initialized",
          "type": "bool"
        },
        {
          "internalType": "uint8",
          "name": "job",
          "type": "uint8"
        }
      ],
      "stateMutability": "view",
      "type": "function"
    },
    {
      "inputs": [
        {
          "internalType": "address",
          "name": "playerAddress",
          "type": "address"
        },
        {
          "internalType": "string",
          "name": "name",
          "type": "string"
        }
      ],
      "name": "registerPlayer",
      "outputs": [],
      "stateMutability": "nonpayable",
      "type": "function"
    },
    {
      "inputs": [],
      "name": "renounceOwnership",
      "outputs": [],
      "stateMutability": "nonpayable",
      "type": "function"
    },
    {
      "inputs": [
        {
          "internalType": "address",
          "name": "",
          "type": "address"
        }
      ],
      "name": "totalBattles",
      "outputs": [
        {
          "internalType": "uint32",
          "name": "",
          "type": "uint32"
        }
      ],
      "stateMutability": "view",
      "type": "function"
    },
    {
      "inputs": [
        {
          "internalType": "address",
          "name": "",
          "type": "address"
        }
      ],
      "name": "totalVictories",
      "outputs": [
        {
          "internalType": "uint32",
          "name": "",
          "type": "uint32"
        }
      ],
      "stateMutability": "view",
      "type": "function"
    },
    {
      "inputs": [
        {
          "internalType": "address",
          "name": "newOwner",
          "type": "address"
        }
      ],
      "name": "transferOwnership",
      "outputs": [],
      "stateMutability": "nonpayable",
      "type": "function"
    },
    {
      "inputs": [],
      "name": "treasureBoxSystem",
      "outputs": [
        {
          "internalType": "contract TreasureBoxSystem",
          "name": "",
          "type": "address"
        }
      ],
      "stateMutability": "view",
      "type": "function"
    },
    {
      "inputs": [],
      "name": "updateStamina",
      "outputs": [],
      "stateMutability": "nonpayable",
      "type": "function"
    },
    {
      "inputs": [
        {
          "internalType": "address",
          "name": "playerAddress",
          "type": "address"
        }
      ],
      "name": "updateStaminaForPlayer",
      "outputs": [],
      "stateMutability": "nonpayable",
      "type": "function"
    }
  ],
  "bytecode": "0x608034620000ec57601f62001f2638819003918201601f19168301916001600160401b03831184841017620000f1578084926040948552833981010312620000ec576200005a6020620000528362000107565b920162000107565b3315620000d35760008054336001600160a01b0319808316821784556040519590946001600160a01b03949093859391908416907f8be0079c531659141344cd1fd0a4f28419497f9722a3daafe3b4186f6b6457e09080a31683600154161760015516906002541617600255611e0990816200011d8239f35b604051631e4fbdf760e01b815260006004820152602490fd5b600080fd5b634e487b7160e01b600052604160045260246000fd5b51906001600160a01b0382168203620000ec5756fe6080604052600436101561001257600080fd5b6000803560e01c806303daf8bb1461159a5780631082d70514610e675780631f19565d14610e27578063356281a914610dfe578063398afc6814610d445780635c12cd4b14610a88578063611e1be414610a485780636bedfc2f14610a16578063715018a6146109bc5780637c21c8ed1461097c57806389011c6514610945578063894f43c0146103e15780638da5cb5b146103ba5780638fb341031461039857806394002b571461036f578063a296b15114610355578063a8039951146102a6578063e2eb41ff146101805763f2fde38b146100ee57600080fd5b3461017d57602036600319011261017d57610107611678565b61010f611813565b6001600160a01b0390811690811561016457600054826bffffffffffffffffffffffff60a01b821617600055167f8be0079c531659141344cd1fd0a4f28419497f9722a3daafe3b4186f6b6457e0600080a380f35b604051631e4fbdf760e01b815260048101849052602490fd5b80fd5b503461017d57602036600319011261017d576101dc906040906001600160a01b036101a9611678565b1681526003602052206101bb8161176d565b9060ff6002600183015492015460405194859461024080875286019061169e565b9261ffff808216602087015263ffffffff91828160101c166040880152818160301c166060880152818160401c166080880152818160501c1660a0880152818160601c1660c0880152818160701c1660e0880152848160801c16610100880152818160881c16610120880152848160981c16610140880152848160a01c16610160880152828160a81c16610180880152818160c81c166101a088015260d81c166101c086015281166101e0850152818160201c16151561020085015260281c166102208301520390f35b503461017d57602036600319011261017d5760043561ffff908181168091036103505733835260036020526001604084206102ea60ff600283015460201c1661183f565b01805491838360301c16019280841161033a57838161032f959460401c169182911611610332575b509061ffff60301b82549160301b169061ffff60301b1916179055565b80f35b915038610312565b634e487b7160e01b600052601160045260246000fd5b600080fd5b503461017d578060031936011261017d5761032f33611903565b503461017d578060031936011261017d576001546040516001600160a01b039091168152602090f35b503461017d57602036600319011261017d5761032f6103b5611678565b611903565b503461017d578060031936011261017d57546040516001600160a01b039091168152602090f35b503461017d57604036600319011261017d576103fb611678565b6024359067ffffffffffffffff821161092d573660238301121561092d5781600401359167ffffffffffffffff8311610931578390604051936104486020601f19601f8401160186611711565b808552366024828401011161092d578060246020930183870137840101526001600160a01b0381168352600360209081526040842060020154901c60ff166108e8578151600281101590816108dc575b50156108a1576040516104aa816116de565b828152600160208201528360408201526064606082015260646080820152600f60a0820152600560c0820152600a60e0820152600561010082015260966101208201526018610140820152601861016082015263ffffffff421661018082015260016101a0820152836101c082015263ffffffff42166101e082015260016102008201528361022082015260018060a01b0382168452600360205260408420815180519067ffffffffffffffff821161088d576105678354611733565b601f811161084c575b50602090601f83116001146107bc5792826107ab95936002937fe04d23b73ae3d3b27074da9719b5a4cd521395aaf86bfe7e374933ecb567731a98968b926107b1575b50508160011b916000199060031b1c19161781555b60208301516001820180546040808701516060880151608089015161ffff60401b931b9290921660309290921b61ffff60301b1660109190911b65ffffffff00001661ffff90951669ffffffffffffffffffff1990931692909217939093171791909117905560a08381015160018301805460c087015160e08801516101008901516101208a01516101408b01516101608c01516101808d01516101a08e01516101c08f015160c89190911b61ffff60c81b1660a89290921b63ffffffff60a81b1692909b1b60ff60a01b1660989390931b60ff60981b1660889490941b61ffff60881b1660809590951b60ff60801b1660709690961b61ffff60701b1660609790971b61ffff60601b1660509a909a1b61ffff60501b167fffffff00000000000000000000000000000000000000ffffffffffffffffffff90981697909717989098179490941792909217171717929092179190911760d89290921b61ffff60d81b169190911790556101e0830151910180546102008401516102209094015165ff000000000060289190911b1664ff00000000941515602090811b9590951663ffffffff90941665ffffffffffff1990921691909117929092179190911790556040518181526001600160a01b03929092169491928392909183019061169e565b0390a280f35b0151905038806105b3565b908388526020882091885b601f19851681106108345750836002937fe04d23b73ae3d3b27074da9719b5a4cd521395aaf86bfe7e374933ecb567731a9896936001936107ab9997601f1981161061081b575b505050811b0181556105c8565b015160001960f88460031b161c1916905538808061080e565b919260206001819286850151815501940192016107c7565b83885260208820601f840160051c810160208510610886575b601f830160051c8201811061087b575050610570565b898155600101610865565b5080610865565b634e487b7160e01b87526041600452602487fd5b60405162461bcd60e51b8152602060048201526013602482015272092dcecc2d8d2c840dcc2daca40d8cadccee8d606b1b6044820152606490fd5b60149150111538610498565b60405162461bcd60e51b815260206004820152601960248201527f506c6179657220616c72656164792072656769737465726564000000000000006044820152606490fd5b8280fd5b634e487b7160e01b84526041600452602484fd5b503461017d57604036600319011261017d576020610972610964611678565b61096c61168e565b90611af5565b6040519015158152f35b503461017d57602036600319011261017d5760209063ffffffff906040906001600160a01b036109aa611678565b16815260068452205416604051908152f35b503461017d578060031936011261017d576109d5611813565b600080546001600160a01b0319811682556001600160a01b03167f8be0079c531659141344cd1fd0a4f28419497f9722a3daafe3b4186f6b6457e08280a380f35b503461017d57602036600319011261017d576020610a3a610a35611678565b611c90565b63ffffffff60405191168152f35b503461017d57602036600319011261017d5760209063ffffffff906040906001600160a01b03610a76611678565b16815260058452205416604051908152f35b503461017d57602036600319011261017d57604090610aa5611678565b816102208451610ab4816116de565b6060815282602082015282868201528260608201528260808201528260a08201528260c08201528260e08201528261010082015282610120820152826101408201528261016082015282610180820152826101a0820152826101c0820152826101e082015282610200820152015260018060a01b0316815260036020522060ff600260405192610b43846116de565b610b4c8161176d565b845261ffff6001820154818116602087015263ffffffff8160101c166040870152818160301c166060870152818160401c166080870152818160501c1660a0870152818160601c1660c0870152818160701c1660e0870152848160801c16610100870152818160881c16610120870152848160981c16610140870152848160a01c1661016087015263ffffffff8160a81c16610180870152818160c81c166101a087015260d81c166101c0850152015463ffffffff81166101e0840152818160201c16151561020084015260281c1661022082015260405180916020825260ff610220610c478351610240602087015261026086019061169e565b9261ffff602082015116604086015263ffffffff604082015116606086015261ffff606082015116608086015261ffff60808201511660a086015261ffff60a08201511660c086015261ffff60c08201511660e086015261ffff60e082015116610100860152826101008201511661012086015261ffff610120820151166101408601528261014082015116610160860152826101608201511661018086015263ffffffff610180820151166101a086015261ffff6101a0820151166101c086015261ffff6101c0820151166101e086015263ffffffff6101e0820151166102008601526102008101511515828601520151166102408301520390f35b503461017d57602036600319011261017d576001600160a01b03610d66611678565b1690818152600560205263ffffffff918260408320541691600660205283604082205416918315948515600014610dee5780610da1856118d3565b1695610dd857604060ff9384876080990416935b815260046020522054169260405194855260208501521660408301526060820152f35b634e487b7160e01b600052601260045260246000fd5b6080955060408360ff9493610db5565b503461017d578060031936011261017d576002546040516001600160a01b039091168152602090f35b503461017d57602036600319011261017d5760209063ffffffff906040906001600160a01b03610e55611678565b16815260048452205416604051908152f35b503461017d5760c036600319011261017d57610e81611678565b6024359061ffff8216820361092d5760ff606435166064350361092d5760843515156084350361092d5760ff60a4351660a4350361092d5760018060a01b0381168352600360205260408320610ee060ff600283015460201c1661183f565b610efb600182015460ff80606435169160981c161015611a63565b610f0482611903565b610f3e610f1d60643560ff600185015460981c166118bf565b60018301805460ff60981b191660989290921b60ff60981b16919091179055565b60018101805463ffffffff60a81b19164260a881901b63ffffffff60a81b169190911790915563ffffffff166001600160a01b0383168552600560205260408520805463ffffffff610f91818316611aa4565b63ffffffff199283169116179091556001600160a01b038416865260046020526040862080549091169091179055608435611015575b5060607f1a91dc3c87151569f5f7a5f31fe285abbded8694ef4ce8ecd9365f23318a409b9161ffff6040519416845260443560208501526084351515604085015260018060a01b031692a280f35b9092600660205260408120805463ffffffff611032818316611aa4565b169063ffffffff191617905561ffff600183015461108061105e83871663ffffffff8460101c166118eb565b600186019065ffffffff000082549160101b169065ffffffff00001916179055565b169261109361ffff600185015416611ab9565b61ffff60018501549116908163ffffffff8260101c1610158061158c575b1561131b5761110a9163ffffffff8261ffff6110d1816110e89616611acf565b169061ffff19161780600189015560101c16611883565b600185019065ffffffff000082549160101b169065ffffffff00001916179055565b600a61ffff600185015460401c160161ffff81116113075761114690600185019061ffff60401b82549160401b169061ffff60401b1916179055565b60018301805467ffff00000000000019811660109190911c61ffff60301b16179055600261ffff600185015460501c160161ffff81116113075760018401805461ffff60501b191660509290921b61ffff60501b169190911790556111db6111b861ffff600186015460601c16611ae2565b60018501805461ffff60601b191660609290921b61ffff60601b16919091179055565b6112156111f261ffff600186015460701c16611ae2565b60018501805461ffff60701b191660709290921b61ffff60701b16919091179055565b600183015461ffff600a818316061615806112f7575b611287575b5061ffff6001840154169361ffff604051918683521660208201527fe1f82d33381d379c394289804d1e40e3e4ad7fb7cc8d6fb866d7ee513bc27fbe604060018060a01b03881692a261128284611ab9565b611093565b61129960ff6112ba9260a01c16611899565b60018501805460ff60a01b191660a09290921b60ff60a01b16919091179055565b6112f16112d060ff600186015460981c16611899565b60018501805460ff60981b191660989290921b60ff60981b16919091179055565b38611230565b50603260ff8260a01c161061122b565b634e487b7160e01b83526011600452602483fd5b505092509290600161ffff9161135d61133b848484015460d81c16611acf565b828401805461ffff60d81b191660d89290921b61ffff60d81b16919091179055565b81810154600a848260d81c161015611545575b50015416600360ff61138360a435611899565b16049060ff60058160a4351601116114db5760ff60058160a43516011610611510575b604051904260208301526bffffffffffffffffffffffff198360601b16604083015260ff60f81b60a43560f81b1660548301526035825281606081011067ffffffffffffffff6060840111176114fc57849060608301604052600a6064845160208601200610806114ef575b6114c2575b600a60ff821611156114bd5750600a5b6002546001600160a01b031690813b1561092d57630f91c5c560e41b606085019081526001600160a01b038616606486015260ff91909116608485015290604490829084905af180156114b25715610fc75767ffffffffffffffff606082959395011161149e576060908101604052909290610fc7565b634e487b7160e01b82526041600452602482fd5b6040513d86823e3d90fd5b611427565b905060ff808216146114db57600160ff86921601611417565b634e487b7160e01b85526011600452602485fd5b50600a60ff821610611412565b634e487b7160e01b85526041600452602485fd5b60ff16600181111561153d576000190160ff8111156113a657634e487b7160e01b84526011600452602484fd5b5060016113a6565b611556846115789260c81c16611acf565b828401805461ffff60c81b191660c89290921b61ffff60c81b16919091179055565b8260d81b1982820154168282015538611370565b50606461ffff8216106110b1565b503461017d57604036600319011261017d576115b4611678565b7f99d39aeae4b164c4a8ee6810092531613ea48028f3e8b995c22876b82bba736b602060ff6115e161168e565b936115ea611813565b60018060a01b0316938486526003835261164d611633600160408920611617866002830154891c1661183f565b019284845460981c1661162e868316821015611a63565b6118bf565b825460ff60981b191660989190911b60ff60981b16178255565b805463ffffffff60a81b19164260a81b63ffffffff60a81b161781555460981c16604051908152a280f35b600435906001600160a01b038216820361035057565b6024359060ff8216820361035057565b919082519283825260005b8481106116ca575050826000602080949584010152601f8019910116010190565b6020818301810151848301820152016116a9565b610240810190811067ffffffffffffffff8211176116fb57604052565b634e487b7160e01b600052604160045260246000fd5b90601f8019910116810190811067ffffffffffffffff8211176116fb57604052565b90600182811c92168015611763575b602083101461174d57565b634e487b7160e01b600052602260045260246000fd5b91607f1691611742565b906040519182600082549261178184611733565b9081845260019485811690816000146117f057506001146117ad575b50506117ab92500383611711565b565b9093915060005260209081600020936000915b8183106117d85750506117ab9350820101388061179d565b855488840185015294850194879450918301916117c0565b9150506117ab94506020925060ff191682840152151560051b820101388061179d565b6000546001600160a01b0316330361182757565b60405163118cdaa760e01b8152336004820152602490fd5b1561184657565b60405162461bcd60e51b8152602060048201526015602482015274141b185e595c881b9bdd081c9959da5cdd195c9959605a1b6044820152606490fd5b63ffffffff918216908216039190821161033a57565b60ff60029116019060ff821161033a57565b9060ff8091169116019060ff821161033a57565b9060ff8091169116039060ff821161033a57565b90606463ffffffff8093160291821691820361033a57565b91909163ffffffff8080941691160191821161033a57565b60018060a01b03168060005260036020526040600020600160ff9161193083600283015460201c1661183f565b0190815490610e1063ffffffff92828285611952818560a81c16824216611883565b1604169081151580611a50575b61196d575b50505050505050565b818480939281611983818360981c1694856118ab565b9160a01c169182911611611a35575b506119a0826119ba926118ab565b875460ff60981b191660989190911b60ff60981b16178755565b16029282841693840361033a57611a1d6119fd7f99d39aeae4b164c4a8ee6810092531613ea48028f3e8b995c22876b82bba736b95602095845460a81c166118eb565b825463ffffffff60a81b191660a89190911b63ffffffff60a81b16178255565b5460981c16604051908152a238808080808080611964565b819250611a486119ba926119a0926118bf565b929150611992565b50838160a01c16848260981c161061195f565b15611a6a57565b60405162461bcd60e51b81526020600482015260126024820152714e6f7420656e6f756768207374616d696e6160701b6044820152606490fd5b63ffffffff80911690811461033a5760010190565b90606461ffff8093160291821691820361033a57565b61ffff80911690811461033a5760010190565b90600161ffff8093160191821161033a57565b60018060a01b0316600052600360205260406000209060405190611b18826116de565b611b218361176d565b825260018301549261ffff93848116602085015263ffffffff808260101c166040860152858260301c166060860152858260401c166080860152858260501c1660a0860152858260601c1660c0860152858260701c1660e086015260ff94858360801c16610100820152868360881c166101208201526002610140820194878560981c168652610160830198888660a01c168a52848660a81c169586610180860152818160c81c166101a086015260d81c166101c08401520154908282166101e082015261022087808460201c161593841561020085015260281c16910152611c8557610e1081611c16879485944216611883565b1604169151169381151580611c79575b611c36575b505081169116101590565b9083929483611c5d9381611c4a85856118ab565b9151169182911611611c65575b506118ab565b929038611c2b565b81925090611c72916118bf565b9038611c57565b50838151168510611c26565b505050505050600090565b60018060a01b031660005260036020526040600020604051611cb1816116de565b611cba8261176d565b815260018201549161ffff91600283851692836020840152604083019463ffffffff96878160101c168752818160301c166060860152818160401c166080860152818160501c1660a0860152818160601c1660c0860152818160701c1660e086015260ff8160801c16610100860152818160881c1661012086015260ff8160981c1661014086015260ff8160a01c16610160860152878160a81c16610180860152818160c81c166101a086015260d81c166101c08401520154908482166101e082015261022060ff808460201c161593841561020085015260281c16910152611dcb57611da783916118d3565b9151169081600093821611600014611dc657611dc39250611883565b90565b505090565b50505060009056fea2646970667358221220fdf21bf80c199c94b07b405e54870cbdaa73cce716dc33574937f425afaf10a564736f6c63430008140033",
  "linkReferences": {},
  "deployedLinkReferences": {}
}