{
  "_format": "hh-sol-artifact-1",
  "contractName": "Player",
  "sourceName": "contracts/Player.sol",
  "abi": [
    {
      "inputs": [
        {
          "internalType": "address",
          "name": "_equipmentNFT",
          "type": "address"
        }
      ],
      "stateMutability": "nonpayable",
      "type": "constructor"
    },
    {
      "inputs": [],
      "name": "ERC721EnumerableForbiddenBatchMint",
      "type": "error"
    },
    {
      "inputs": [
        {
          "internalType": "address",
          "name": "sender",
          "type": "address"
        },
        {
          "internalType": "uint256",
          "name": "tokenId",
          "type": "uint256"
        },
        {
          "internalType": "address",
          "name": "owner",
          "type": "address"
        }
      ],
      "name": "ERC721IncorrectOwner",
      "type": "error"
    },
    {
      "inputs": [
        {
          "internalType": "address",
          "name": "operator",
          "type": "address"
        },
        {
          "internalType": "uint256",
          "name": "tokenId",
          "type": "uint256"
        }
      ],
      "name": "ERC721InsufficientApproval",
      "type": "error"
    },
    {
      "inputs": [
        {
          "internalType": "address",
          "name": "approver",
          "type": "address"
        }
      ],
      "name": "ERC721InvalidApprover",
      "type": "error"
    },
    {
      "inputs": [
        {
          "internalType": "address",
          "name": "operator",
          "type": "address"
        }
      ],
      "name": "ERC721InvalidOperator",
      "type": "error"
    },
    {
      "inputs": [
        {
          "internalType": "address",
          "name": "owner",
          "type": "address"
        }
      ],
      "name": "ERC721InvalidOwner",
      "type": "error"
    },
    {
      "inputs": [
        {
          "internalType": "address",
          "name": "receiver",
          "type": "address"
        }
      ],
      "name": "ERC721InvalidReceiver",
      "type": "error"
    },
    {
      "inputs": [
        {
          "internalType": "address",
          "name": "sender",
          "type": "address"
        }
      ],
      "name": "ERC721InvalidSender",
      "type": "error"
    },
    {
      "inputs": [
        {
          "internalType": "uint256",
          "name": "tokenId",
          "type": "uint256"
        }
      ],
      "name": "ERC721NonexistentToken",
      "type": "error"
    },
    {
      "inputs": [
        {
          "internalType": "address",
          "name": "owner",
          "type": "address"
        },
        {
          "internalType": "uint256",
          "name": "index",
          "type": "uint256"
        }
      ],
      "name": "ERC721OutOfBoundsIndex",
      "type": "error"
    },
    {
      "inputs": [
        {
          "internalType": "address",
          "name": "owner",
          "type": "address"
        }
      ],
      "name": "OwnableInvalidOwner",
      "type": "error"
    },
    {
      "inputs": [
        {
          "internalType": "address",
          "name": "account",
          "type": "address"
        }
      ],
      "name": "OwnableUnauthorizedAccount",
      "type": "error"
    },
    {
      "anonymous": false,
      "inputs": [
        {
          "indexed": true,
          "internalType": "address",
          "name": "owner",
          "type": "address"
        },
        {
          "indexed": true,
          "internalType": "address",
          "name": "approved",
          "type": "address"
        },
        {
          "indexed": true,
          "internalType": "uint256",
          "name": "tokenId",
          "type": "uint256"
        }
      ],
      "name": "Approval",
      "type": "event"
    },
    {
      "anonymous": false,
      "inputs": [
        {
          "indexed": true,
          "internalType": "address",
          "name": "owner",
          "type": "address"
        },
        {
          "indexed": true,
          "internalType": "address",
          "name": "operator",
          "type": "address"
        },
        {
          "indexed": false,
          "internalType": "bool",
          "name": "approved",
          "type": "bool"
        }
      ],
      "name": "ApprovalForAll",
      "type": "event"
    },
    {
      "anonymous": false,
      "inputs": [
        {
          "indexed": true,
          "internalType": "uint256",
          "name": "playerId",
          "type": "uint256"
        },
        {
          "indexed": true,
          "internalType": "uint256",
          "name": "equipmentId",
          "type": "uint256"
        },
        {
          "indexed": false,
          "internalType": "uint8",
          "name": "slot",
          "type": "uint8"
        }
      ],
      "name": "EquipmentEquipped",
      "type": "event"
    },
    {
      "anonymous": false,
      "inputs": [
        {
          "indexed": true,
          "internalType": "uint256",
          "name": "playerId",
          "type": "uint256"
        },
        {
          "indexed": true,
          "internalType": "uint256",
          "name": "equipmentId",
          "type": "uint256"
        },
        {
          "indexed": false,
          "internalType": "uint8",
          "name": "slot",
          "type": "uint8"
        }
      ],
      "name": "EquipmentUnequipped",
      "type": "event"
    },
    {
      "anonymous": false,
      "inputs": [
        {
          "indexed": true,
          "internalType": "address",
          "name": "previousOwner",
          "type": "address"
        },
        {
          "indexed": true,
          "internalType": "address",
          "name": "newOwner",
          "type": "address"
        }
      ],
      "name": "OwnershipTransferred",
      "type": "event"
    },
    {
      "anonymous": false,
      "inputs": [
        {
          "indexed": true,
          "internalType": "uint256",
          "name": "playerId",
          "type": "uint256"
        },
        {
          "indexed": false,
          "internalType": "uint16",
          "name": "newLevel",
          "type": "uint16"
        },
        {
          "indexed": false,
          "internalType": "uint16",
          "name": "oldLevel",
          "type": "uint16"
        }
      ],
      "name": "PlayerLevelUp",
      "type": "event"
    },
    {
      "anonymous": false,
      "inputs": [
        {
          "indexed": true,
          "internalType": "address",
          "name": "to",
          "type": "address"
        },
        {
          "indexed": true,
          "internalType": "uint256",
          "name": "playerId",
          "type": "uint256"
        },
        {
          "indexed": false,
          "internalType": "string",
          "name": "name",
          "type": "string"
        }
      ],
      "name": "PlayerMinted",
      "type": "event"
    },
    {
      "anonymous": false,
      "inputs": [
        {
          "indexed": true,
          "internalType": "uint256",
          "name": "playerId",
          "type": "uint256"
        },
        {
          "indexed": false,
          "internalType": "uint8",
          "name": "newStamina",
          "type": "uint8"
        }
      ],
      "name": "StaminaUpdated",
      "type": "event"
    },
    {
      "anonymous": false,
      "inputs": [
        {
          "indexed": true,
          "internalType": "address",
          "name": "from",
          "type": "address"
        },
        {
          "indexed": true,
          "internalType": "address",
          "name": "to",
          "type": "address"
        },
        {
          "indexed": true,
          "internalType": "uint256",
          "name": "tokenId",
          "type": "uint256"
        }
      ],
      "name": "Transfer",
      "type": "event"
    },
    {
      "inputs": [
        {
          "internalType": "uint256",
          "name": "playerId",
          "type": "uint256"
        },
        {
          "internalType": "uint16",
          "name": "experience",
          "type": "uint16"
        }
      ],
      "name": "addExperience",
      "outputs": [],
      "stateMutability": "nonpayable",
      "type": "function"
    },
    {
      "inputs": [
        {
          "internalType": "address",
          "name": "to",
          "type": "address"
        },
        {
          "internalType": "uint256",
          "name": "tokenId",
          "type": "uint256"
        }
      ],
      "name": "approve",
      "outputs": [],
      "stateMutability": "nonpayable",
      "type": "function"
    },
    {
      "inputs": [
        {
          "internalType": "address",
          "name": "systemContract",
          "type": "address"
        }
      ],
      "name": "authorizeSystem",
      "outputs": [],
      "stateMutability": "nonpayable",
      "type": "function"
    },
    {
      "inputs": [
        {
          "internalType": "address",
          "name": "",
          "type": "address"
        }
      ],
      "name": "authorizedSystems",
      "outputs": [
        {
          "internalType": "bool",
          "name": "",
          "type": "bool"
        }
      ],
      "stateMutability": "view",
      "type": "function"
    },
    {
      "inputs": [
        {
          "internalType": "address",
          "name": "owner",
          "type": "address"
        }
      ],
      "name": "balanceOf",
      "outputs": [
        {
          "internalType": "uint256",
          "name": "",
          "type": "uint256"
        }
      ],
      "stateMutability": "view",
      "type": "function"
    },
    {
      "inputs": [
        {
          "internalType": "uint256",
          "name": "playerId",
          "type": "uint256"
        },
        {
          "internalType": "uint8",
          "name": "staminaCost",
          "type": "uint8"
        }
      ],
      "name": "canBattle",
      "outputs": [
        {
          "internalType": "bool",
          "name": "",
          "type": "bool"
        }
      ],
      "stateMutability": "view",
      "type": "function"
    },
    {
      "inputs": [
        {
          "internalType": "uint256",
          "name": "playerId",
          "type": "uint256"
        },
        {
          "internalType": "uint8",
          "name": "amount",
          "type": "uint8"
        }
      ],
      "name": "consumeStamina",
      "outputs": [],
      "stateMutability": "nonpayable",
      "type": "function"
    },
    {
      "inputs": [
        {
          "internalType": "uint256",
          "name": "playerId",
          "type": "uint256"
        },
        {
          "internalType": "uint256",
          "name": "equipmentId",
          "type": "uint256"
        }
      ],
      "name": "equipItem",
      "outputs": [],
      "stateMutability": "nonpayable",
      "type": "function"
    },
    {
      "inputs": [],
      "name": "equipmentNFT",
      "outputs": [
        {
          "internalType": "contract Equipment",
          "name": "",
          "type": "address"
        }
      ],
      "stateMutability": "view",
      "type": "function"
    },
    {
      "inputs": [
        {
          "internalType": "uint8",
          "name": "",
          "type": "uint8"
        }
      ],
      "name": "equipmentTypeToSlot",
      "outputs": [
        {
          "internalType": "uint8",
          "name": "",
          "type": "uint8"
        }
      ],
      "stateMutability": "view",
      "type": "function"
    },
    {
      "inputs": [
        {
          "internalType": "uint256",
          "name": "",
          "type": "uint256"
        },
        {
          "internalType": "uint8",
          "name": "",
          "type": "uint8"
        }
      ],
      "name": "equippedItems",
      "outputs": [
        {
          "internalType": "uint256",
          "name": "",
          "type": "uint256"
        }
      ],
      "stateMutability": "view",
      "type": "function"
    },
    {
      "inputs": [
        {
          "internalType": "uint256",
          "name": "tokenId",
          "type": "uint256"
        }
      ],
      "name": "getApproved",
      "outputs": [
        {
          "internalType": "address",
          "name": "",
          "type": "address"
        }
      ],
      "stateMutability": "view",
      "type": "function"
    },
    {
      "inputs": [
        {
          "internalType": "uint256",
          "name": "playerId",
          "type": "uint256"
        }
      ],
      "name": "getEquippedItems",
      "outputs": [
        {
          "internalType": "uint256[8]",
          "name": "",
          "type": "uint256[8]"
        }
      ],
      "stateMutability": "view",
      "type": "function"
    },
    {
      "inputs": [
        {
          "internalType": "uint256",
          "name": "playerId",
          "type": "uint256"
        }
      ],
      "name": "getPlayer",
      "outputs": [
        {
          "components": [
            {
              "internalType": "string",
              "name": "name",
              "type": "string"
            },
            {
              "internalType": "uint16",
              "name": "level",
              "type": "uint16"
            },
            {
              "internalType": "uint32",
              "name": "experience",
              "type": "uint32"
            },
            {
              "internalType": "uint16",
              "name": "health",
              "type": "uint16"
            },
            {
              "internalType": "uint16",
              "name": "maxHealth",
              "type": "uint16"
            },
            {
              "internalType": "uint16",
              "name": "attack",
              "type": "uint16"
            },
            {
              "internalType": "uint16",
              "name": "defense",
              "type": "uint16"
            },
            {
              "internalType": "uint16",
              "name": "agility",
              "type": "uint16"
            },
            {
              "internalType": "uint8",
              "name": "criticalRate",
              "type": "uint8"
            },
            {
              "internalType": "uint16",
              "name": "criticalDamage",
              "type": "uint16"
            },
            {
              "internalType": "uint8",
              "name": "stamina",
              "type": "uint8"
            },
            {
              "internalType": "uint8",
              "name": "maxStamina",
              "type": "uint8"
            },
            {
              "internalType": "uint32",
              "name": "lastStaminaTime",
              "type": "uint32"
            },
            {
              "internalType": "uint16",
              "name": "currentForestLevel",
              "type": "uint16"
            },
            {
              "internalType": "uint16",
              "name": "currentForestProgress",
              "type": "uint16"
            },
            {
              "internalType": "uint32",
              "name": "lastTreasureBoxTime",
              "type": "uint32"
            },
            {
              "internalType": "bool",
              "name": "initialized",
              "type": "bool"
            },
            {
              "internalType": "uint8",
              "name": "job",
              "type": "uint8"
            }
          ],
          "internalType": "struct GameStructs.Player",
          "name": "",
          "type": "tuple"
        }
      ],
      "stateMutability": "view",
      "type": "function"
    },
    {
      "inputs": [
        {
          "internalType": "uint256",
          "name": "playerId",
          "type": "uint256"
        }
      ],
      "name": "getPlayerTotalStats",
      "outputs": [
        {
          "internalType": "uint16",
          "name": "totalAttack",
          "type": "uint16"
        },
        {
          "internalType": "uint16",
          "name": "totalDefense",
          "type": "uint16"
        },
        {
          "internalType": "uint16",
          "name": "totalAgility",
          "type": "uint16"
        },
        {
          "internalType": "uint8",
          "name": "totalCritRate",
          "type": "uint8"
        },
        {
          "internalType": "uint16",
          "name": "totalCritDamage",
          "type": "uint16"
        }
      ],
      "stateMutability": "view",
      "type": "function"
    },
    {
      "inputs": [
        {
          "internalType": "uint256",
          "name": "playerId",
          "type": "uint256"
        },
        {
          "internalType": "uint16",
          "name": "amount",
          "type": "uint16"
        }
      ],
      "name": "heal",
      "outputs": [],
      "stateMutability": "nonpayable",
      "type": "function"
    },
    {
      "inputs": [
        {
          "internalType": "address",
          "name": "owner",
          "type": "address"
        },
        {
          "internalType": "address",
          "name": "operator",
          "type": "address"
        }
      ],
      "name": "isApprovedForAll",
      "outputs": [
        {
          "internalType": "bool",
          "name": "",
          "type": "bool"
        }
      ],
      "stateMutability": "view",
      "type": "function"
    },
    {
      "inputs": [
        {
          "internalType": "uint256",
          "name": "playerId",
          "type": "uint256"
        }
      ],
      "name": "levelUp",
      "outputs": [],
      "stateMutability": "nonpayable",
      "type": "function"
    },
    {
      "inputs": [
        {
          "internalType": "address",
          "name": "to",
          "type": "address"
        },
        {
          "internalType": "string",
          "name": "name",
          "type": "string"
        }
      ],
      "name": "mintPlayer",
      "outputs": [
        {
          "internalType": "uint256",
          "name": "",
          "type": "uint256"
        }
      ],
      "stateMutability": "nonpayable",
      "type": "function"
    },
    {
      "inputs": [],
      "name": "name",
      "outputs": [
        {
          "internalType": "string",
          "name": "",
          "type": "string"
        }
      ],
      "stateMutability": "view",
      "type": "function"
    },
    {
      "inputs": [
        {
          "internalType": "address",
          "name": "operator",
          "type": "address"
        },
        {
          "internalType": "address",
          "name": "from",
          "type": "address"
        },
        {
          "internalType": "uint256",
          "name": "tokenId",
          "type": "uint256"
        },
        {
          "internalType": "bytes",
          "name": "data",
          "type": "bytes"
        }
      ],
      "name": "onERC721Received",
      "outputs": [
        {
          "internalType": "bytes4",
          "name": "",
          "type": "bytes4"
        }
      ],
      "stateMutability": "pure",
      "type": "function"
    },
    {
      "inputs": [],
      "name": "owner",
      "outputs": [
        {
          "internalType": "address",
          "name": "",
          "type": "address"
        }
      ],
      "stateMutability": "view",
      "type": "function"
    },
    {
      "inputs": [
        {
          "internalType": "uint256",
          "name": "tokenId",
          "type": "uint256"
        }
      ],
      "name": "ownerOf",
      "outputs": [
        {
          "internalType": "address",
          "name": "",
          "type": "address"
        }
      ],
      "stateMutability": "view",
      "type": "function"
    },
    {
      "inputs": [
        {
          "internalType": "uint256",
          "name": "",
          "type": "uint256"
        }
      ],
      "name": "players",
      "outputs": [
        {
          "internalType": "string",
          "name": "name",
          "type": "string"
        },
        {
          "internalType": "uint16",
          "name": "level",
          "type": "uint16"
        },
        {
          "internalType": "uint32",
          "name": "experience",
          "type": "uint32"
        },
        {
          "internalType": "uint16",
          "name": "health",
          "type": "uint16"
        },
        {
          "internalType": "uint16",
          "name": "maxHealth",
          "type": "uint16"
        },
        {
          "internalType": "uint16",
          "name": "attack",
          "type": "uint16"
        },
        {
          "internalType": "uint16",
          "name": "defense",
          "type": "uint16"
        },
        {
          "internalType": "uint16",
          "name": "agility",
          "type": "uint16"
        },
        {
          "internalType": "uint8",
          "name": "criticalRate",
          "type": "uint8"
        },
        {
          "internalType": "uint16",
          "name": "criticalDamage",
          "type": "uint16"
        },
        {
          "internalType": "uint8",
          "name": "stamina",
          "type": "uint8"
        },
        {
          "internalType": "uint8",
          "name": "maxStamina",
          "type": "uint8"
        },
        {
          "internalType": "uint32",
          "name": "lastStaminaTime",
          "type": "uint32"
        },
        {
          "internalType": "uint16",
          "name": "currentForestLevel",
          "type": "uint16"
        },
        {
          "internalType": "uint16",
          "name": "currentForestProgress",
          "type": "uint16"
        },
        {
          "internalType": "uint32",
          "name": "lastTreasureBoxTime",
          "type": "uint32"
        },
        {
          "internalType": "bool",
          "name": "initialized",
          "type": "bool"
        },
        {
          "internalType": "uint8",
          "name": "job",
          "type": "uint8"
        }
      ],
      "stateMutability": "view",
      "type": "function"
    },
    {
      "inputs": [
        {
          "internalType": "string",
          "name": "name",
          "type": "string"
        }
      ],
      "name": "registerPlayer",
      "outputs": [
        {
          "internalType": "uint256",
          "name": "",
          "type": "uint256"
        }
      ],
      "stateMutability": "nonpayable",
      "type": "function"
    },
    {
      "inputs": [],
      "name": "renounceOwnership",
      "outputs": [],
      "stateMutability": "nonpayable",
      "type": "function"
    },
    {
      "inputs": [
        {
          "internalType": "address",
          "name": "systemContract",
          "type": "address"
        }
      ],
      "name": "revokeSystemAuthorization",
      "outputs": [],
      "stateMutability": "nonpayable",
      "type": "function"
    },
    {
      "inputs": [
        {
          "internalType": "address",
          "name": "from",
          "type": "address"
        },
        {
          "internalType": "address",
          "name": "to",
          "type": "address"
        },
        {
          "internalType": "uint256",
          "name": "tokenId",
          "type": "uint256"
        }
      ],
      "name": "safeTransferFrom",
      "outputs": [],
      "stateMutability": "nonpayable",
      "type": "function"
    },
    {
      "inputs": [
        {
          "internalType": "address",
          "name": "from",
          "type": "address"
        },
        {
          "internalType": "address",
          "name": "to",
          "type": "address"
        },
        {
          "internalType": "uint256",
          "name": "tokenId",
          "type": "uint256"
        },
        {
          "internalType": "bytes",
          "name": "data",
          "type": "bytes"
        }
      ],
      "name": "safeTransferFrom",
      "outputs": [],
      "stateMutability": "nonpayable",
      "type": "function"
    },
    {
      "inputs": [
        {
          "internalType": "address",
          "name": "operator",
          "type": "address"
        },
        {
          "internalType": "bool",
          "name": "approved",
          "type": "bool"
        }
      ],
      "name": "setApprovalForAll",
      "outputs": [],
      "stateMutability": "nonpayable",
      "type": "function"
    },
    {
      "inputs": [
        {
          "internalType": "bytes4",
          "name": "interfaceId",
          "type": "bytes4"
        }
      ],
      "name": "supportsInterface",
      "outputs": [
        {
          "internalType": "bool",
          "name": "",
          "type": "bool"
        }
      ],
      "stateMutability": "view",
      "type": "function"
    },
    {
      "inputs": [],
      "name": "symbol",
      "outputs": [
        {
          "internalType": "string",
          "name": "",
          "type": "string"
        }
      ],
      "stateMutability": "view",
      "type": "function"
    },
    {
      "inputs": [
        {
          "internalType": "uint256",
          "name": "index",
          "type": "uint256"
        }
      ],
      "name": "tokenByIndex",
      "outputs": [
        {
          "internalType": "uint256",
          "name": "",
          "type": "uint256"
        }
      ],
      "stateMutability": "view",
      "type": "function"
    },
    {
      "inputs": [
        {
          "internalType": "address",
          "name": "owner",
          "type": "address"
        },
        {
          "internalType": "uint256",
          "name": "index",
          "type": "uint256"
        }
      ],
      "name": "tokenOfOwnerByIndex",
      "outputs": [
        {
          "internalType": "uint256",
          "name": "",
          "type": "uint256"
        }
      ],
      "stateMutability": "view",
      "type": "function"
    },
    {
      "inputs": [
        {
          "internalType": "uint256",
          "name": "tokenId",
          "type": "uint256"
        }
      ],
      "name": "tokenURI",
      "outputs": [
        {
          "internalType": "string",
          "name": "",
          "type": "string"
        }
      ],
      "stateMutability": "view",
      "type": "function"
    },
    {
      "inputs": [],
      "name": "totalSupply",
      "outputs": [
        {
          "internalType": "uint256",
          "name": "",
          "type": "uint256"
        }
      ],
      "stateMutability": "view",
      "type": "function"
    },
    {
      "inputs": [
        {
          "internalType": "address",
          "name": "from",
          "type": "address"
        },
        {
          "internalType": "address",
          "name": "to",
          "type": "address"
        },
        {
          "internalType": "uint256",
          "name": "tokenId",
          "type": "uint256"
        }
      ],
      "name": "transferFrom",
      "outputs": [],
      "stateMutability": "nonpayable",
      "type": "function"
    },
    {
      "inputs": [
        {
          "internalType": "address",
          "name": "newOwner",
          "type": "address"
        }
      ],
      "name": "transferOwnership",
      "outputs": [],
      "stateMutability": "nonpayable",
      "type": "function"
    },
    {
      "inputs": [
        {
          "internalType": "uint256",
          "name": "playerId",
          "type": "uint256"
        },
        {
          "internalType": "uint8",
          "name": "slot",
          "type": "uint8"
        }
      ],
      "name": "unequipItem",
      "outputs": [],
      "stateMutability": "nonpayable",
      "type": "function"
    },
    {
      "inputs": [
        {
          "internalType": "uint256",
          "name": "playerId",
          "type": "uint256"
        }
      ],
      "name": "updateStamina",
      "outputs": [],
      "stateMutability": "nonpayable",
      "type": "function"
    }
  ],
  "bytecode": "0x6080346200044f576001600160401b0390601f90601f1962003a553881900380850183168401939190828510878611176200043957808392604096875283396020928391810103126200044f57516001600160a01b0395868216918290036200044f576200006c62000454565b95601087526f20b23b32b73a3ab93290283630bcb2b960811b848801526200009362000454565b6006815265282620aca2a960d11b85820152875195838711620004395760009687549960019a8b81811c911680156200042e575b898210146200041a57908186849311620003c7575b5088908683116001146200035d578a9262000351575b5050600019600383901b1c1916908a1b1787555b81519384116200033d5788548981811c9116801562000332575b878210146200031e579081848695949311620002c7575b508692841160011462000266575086926200025a575b5050600019600383901b1c191690861b1785555b331562000242576007939291600d91600a5460018060a01b0319903382821617600a558651993391167f8be0079c531659141344cd1fd0a4f28419497f9722a3daafe3b4186f6b6457e08780a3600f541617600f5585600e55828052528181209360ff19948581541690558082528282209085825416179055600281528181206002858254161790556003815281812060038582541617905560048152818120600485825416179055600581528181206005858254161790556006815281812060068582541617905582815220918254161790556135e09081620004758239f35b8351631e4fbdf760e01b815260048101849052602490fd5b0151905038806200014d565b8988528688208a959093929116885b88828210620002b0575050841162000296575b505050811b01855562000161565b015160001960f88460031b161c1916905538808062000288565b8385015186558c9790950194938401930162000275565b90919293508988528688208480870160051c82019289881062000314575b9187968d92969594930160051c01915b8281106200030557505062000137565b8a81558796508c9101620002f5565b92508192620002e5565b634e487b7160e01b88526022600452602488fd5b90607f169062000120565b634e487b7160e01b87526041600452602487fd5b015190503880620000f2565b90848d9416918b80528a8c20928c5b8c828210620003a757505084116200038d575b505050811b01875562000106565b015160001960f88460031b161c191690553880806200037f565b91929395968291958786015181550195019301908e95949392916200036c565b909150898052888a208680850160051c8201928b861062000410575b918e91869594930160051c01915b82811062000401575050620000dc565b8c81558594508e9101620003f1565b92508192620003e3565b634e487b7160e01b8a52602260045260248afd5b90607f1690620000c7565b634e487b7160e01b600052604160045260246000fd5b600080fd5b60408051919082016001600160401b03811183821017620004395760405256fe608080604052600436101561001357600080fd5b600090813560e01c90816301ffc9a714611aac5750806306fdde03146119dd578063081812fc146119a0578063095ea7b3146118bd5780630ce90ec214611899578063150b7a021461182e57806318160ddd14611810578063185c3424146117c95780631d3685d81461178c57806322279900146116ca57806323b872dd146116b2578063262a8c3b1461146e578063268815d8146113c65780632f745c591461134157806342842e0e146113135780634f6ccce7146112bc5780636352211e1461128b578063639762961461124c57806370a0823114611228578063715018a6146111ca5780637b42608d14610f185780637cb6ce0314610ea8578063869ae74214610e675780638da5cb5b14610e3e5780638e48059d14610e0d57806395d89b4114610d2e578063962e0a1614610d05578063a22cb46514610c5c578063adcc16e414610b45578063b3446f8514610b00578063b5a9bef714610ac1578063b88d4fde14610a50578063c058540414610a0c578063c87b56dd146107f9578063e1cb41481461074e578063e55ae4e814610480578063e985e9c51461042c578063f2fde38b1461039c578063f71d96cb146102855763fe80c55d146101d957600080fd5b34610282576040366003190112610282576004356101f5611cba565b6102116102018361218d565b6001600160a01b03163314612c3f565b60ff811691600883101561024e5761024b92818552600c60205260408520906000526020526102466040600020541515612dc4565b612e10565b80f35b60405162461bcd60e51b815260206004820152600c60248201526b125b9d985b1a59081cdb1bdd60a21b6044820152606490fd5b80fd5b50346102825760203660031901126102825760406102d2916004358152600b602052206102b181611d5a565b9060ff60026001830154920154604051948594610240808752860190611b56565b9261ffff808216602087015263ffffffff91828160101c166040880152818160301c166060880152818160401c166080880152818160501c1660a0880152818160601c1660c0880152818160701c1660e0880152848160801c16610100880152818160881c16610120880152848160981c16610140880152848160a01c16610160880152828160a81c16610180880152818160c81c166101a088015260d81c166101c086015281166101e0850152818160201c16151561020085015260281c166102208301520390f35b5034610282576020366003190112610282576103b6611b7b565b6103be611e00565b6001600160a01b0390811690811561041357600a54826bffffffffffffffffffffffff60a01b821617600a55167f8be0079c531659141344cd1fd0a4f28419497f9722a3daafe3b4186f6b6457e0600080a380f35b604051631e4fbdf760e01b815260048101849052602490fd5b503461028257604036600319011261028257610446611b7b565b6040610450611b91565b9260018060a01b0380931681526005602052209116600052602052602060ff604060002054166040519015158152f35b5034610282576020366003190112610282578060409161022083516104a481611bd1565b6060815282602082015282858201528260608201528260808201528260a08201528260c08201528260e08201528261010082015282610120820152826101408201528261016082015282610180820152826101a0820152826101c0820152826101e08201528261020082015201526004358152600b60205261053160ff6002848420015460201c16612ef9565b6004358152600b6020522060ff60026040519261054d84611bd1565b61055681611d5a565b845261ffff6001820154818116602087015263ffffffff8160101c166040870152818160301c166060870152818160401c166080870152818160501c1660a0870152818160601c1660c0870152818160701c1660e0870152848160801c16610100870152818160881c16610120870152848160981c16610140870152848160a01c1661016087015263ffffffff8160a81c16610180870152818160c81c166101a087015260d81c166101c0850152015463ffffffff81166101e0840152818160201c16151561020084015260281c1661022082015260405180916020825260ff61022061065183516102406020870152610260860190611b56565b9261ffff602082015116604086015263ffffffff604082015116606086015261ffff606082015116608086015261ffff60808201511660a086015261ffff60a08201511660c086015261ffff60c08201511660e086015261ffff60e082015116610100860152826101008201511661012086015261ffff610120820151166101408601528261014082015116610160860152826101608201511661018086015263ffffffff610180820151166101a086015261ffff6101a0820151166101c086015261ffff6101c0820151166101e086015263ffffffff6101e0820151166102008601526102008101511515828601520151166102408301520390f35b5034610282576020806003193601126107f5576004359060405161077181611c0a565b61010080913690376040519161078683611c0a565b81368437845b60ff811660088110156107ca57906107c591868852600c845260408820906000528352604060002054611fe08260051b16860152613406565b61078c565b604051849086858a835b600882106107e0578585f35b828060019286518152019401910190926107d4565b5080fd5b5034610282576020908160031936011261028257816004359161081b8361218d565b506040519261082984611bee565b81845281156109f2578190807a184f03e93ff9f4daa797ed6e38ed64bf6a1f01000000000000000081818110156109e4575b5050846d04ee2d6d415b85acef8100000000808410156109d6575b5050662386f26fc10000808310156109c7575b506305f5e100808310156109b8575b50612710808310156109a9575b506064821015610999575b600a8092101561098f575b600190816021818601956108e76108d188611c49565b976108df604051998a611c27565b808952611c49565b878a019890601f1901368a3750860101905b610959575b505050509261093f92916109339460405195836109248895518092888089019101611b33565b84019151809386840190611b33565b01038084520182611c27565b905b610955604051928284938452830190611b56565b0390f35b600019019083906f181899199a1a9b1b9c1cb0b131b232b360811b8282061a83530491821561098a579190826108f9565b6108fe565b91600101916108bb565b91906064600291049101916108b0565b600491939204910191386108a5565b60089193920491019138610898565b60109193920491019138610889565b930192909104908438610876565b60409450049150388061085b565b50505050604051610a0281611bee565b6000815290610941565b503461028257602036600319011261028257610a26611b7b565b610a2e611e00565b6001600160a01b03168152601060205260408120805460ff1916600117905580f35b503461028257608036600319011261028257610a6a611b7b565b610a72611b91565b906044356064359267ffffffffffffffff8411610abd5736602385011215610abd57610aab61024b943690602481600401359101611c65565b92610ab7838383611e65565b33612215565b8480fd5b50346102825760203660031901126102825760209060ff906040906001600160a01b03610aec611b7b565b168152601084522054166040519015158152f35b5034610282576020366003190112610282576004359067ffffffffffffffff8211610282576020610b3d610b373660048601611c9c565b3361239d565b604051908152f35b503461028257604036600319011261028257600435610b62611cba565b338352601060205260ff6040842054168015610c48575b610b8290612360565b818352600b602052600160408420610ba360ff600283015460201c16612ef9565b0190815460ff8083169160981c1610610c0e57610bd6610bf091610bc961024b956132ae565b60ff845460981c16613282565b825460ff60981b191660989190911b60ff60981b16178255565b805463ffffffff60a81b19164260a81b63ffffffff60a81b16179055565b60405162461bcd60e51b81526020600482015260126024820152714e6f7420656e6f756768207374616d696e6160701b6044820152606490fd5b50600a546001600160a01b03163314610b79565b503461028257604036600319011261028257610c76611b7b565b60243590811515809203610d01576001600160a01b0316908115610ce85733835260056020526040832082600052602052604060002060ff1981541660ff83161790556040519081527f17307eab39ab6107e8899845ad3d59bd9653f200f220920489ca2b5937696c3160203392a380f35b604051630b61174360e31b815260048101839052602490fd5b8280fd5b5034610282578060031936011261028257600f546040516001600160a01b039091168152602090f35b503461028257806003193601126102825760405160006001805490610d5282611d20565b80855291818116908115610de65750600114610d8d575b61095584610d7981860382611c27565b604051918291602083526020830190611b56565b600081815292507fb10e2d527612073b26eecdfd717e6a320cf44b4afac2b0732d9fcbe2b7fa0cf65b828410610dce575050508101602001610d7982610d69565b80546020858701810191909152909301928101610db6565b60ff191660208087019190915292151560051b85019092019250610d799150839050610d69565b5034610282576040366003190112610282576020610e34610e2c611cba565b600435613417565b6040519015158152f35b5034610282578060031936011261028257600a546040516001600160a01b039091168152602090f35b503461028257602036600319011261028257610e81611b7b565b610e89611e00565b6001600160a01b03168152601060205260408120805460ff1916905580f35b50346102825760203660031901126102825761024b600435610eee610ecc8261218d565b6001600160a01b039081163314908115610f01575b8115610ef3575b50612360565b6132ae565b9050600a5416331438610ee8565b3386526010602052604086205460ff169150610ee1565b5034610282576020366003190112610282576004358152600b60205260408120611034600260405192610f4a84611bd1565b610f5381611d5a565b845261ffff6001820154818116602087015263ffffffff8160101c166040870152818160301c166060870152818160401c166080870152818160501c1660a0870152818160601c1660c0870152818160701c1660e087015260ff8160801c16610100870152818160881c1661012087015260ff8160981c1661014087015260ff8160a01c1661016087015263ffffffff8160a81c16610180870152818160c81c166101a087015260d81c166101c0850152015463ffffffff81166101e084015260ff808260201c161515918261020086015260281c16610220840152612ef9565b61ffff60a0820151169061ffff60c0820151169161ffff60e0830151169261ffff61012060ff610100860151169401511692855b60ff8116600881101561119a576004358852600c6020526040882090600052602052604060002054806110a5575b506110a090613406565b611068565b919592938760018060a09894981b03600f54169360246040518096819363040ee97d60e51b835260048301525afa92831561118f57888094611147575b50506110a09161ffff61010061113661112761111961110b611140978660808c01511690612f8b565b9a8560a08b01511690612f8b565b988460c08a01511690612f8b565b9a60ff60e08901511690612fb3565b9501511690612f8b565b9490611096565b61114092945061010061113661112761111961110b61117f6110a0999761ffff973d8091833e6111778183611c27565b810190612c9a565b99975050505050505091886110e2565b6040513d8a823e3d90fd5b60a08561ffff8860ff87838d818c8160405199168952166020880152166040860152166060840152166080820152f35b50346102825780600319360112610282576111e3611e00565b600a80546001600160a01b031981169091556000906001600160a01b03167f8be0079c531659141344cd1fd0a4f28419497f9722a3daafe3b4186f6b6457e08280a380f35b5034610282576020366003190112610282576020610b3d611247611b7b565b611e2c565b5034610282576020366003190112610282576004359060ff82168092036112865760408160209360ff9352600d8452205416604051908152f35b600080fd5b50346102825760203660031901126102825760206112aa60043561218d565b6040516001600160a01b039091168152f35b5034610282576020366003190112610282576004356008548110156112f4576112e66020916121c8565b90546040519160031b1c8152f35b6044906040519063295f44f760e21b8252600060048301526024820152fd5b50346102825761024b61132536611ceb565b906040519261133384611bee565b858452610ab7838383611e65565b50346102825760403660031901126102825761135b611b7b565b906024359161136981611e2c565b83101561139a576001600160a01b031681526006602090815260408083209383529281529082902054915191825290f35b60405163295f44f760e21b81526001600160a01b03919091166004820152602481019290925250604490fd5b50346102825761024b6114556113db36611cca565b919091338552601060205260ff604086205416801561145a575b6113fe90612360565b828552600b60205261143861ffff60016040882061142560ff600283015460201c16612ef9565b01921663ffffffff835460101c16613296565b65ffffffff000082549160101b169065ffffffff00001916179055565b612fc7565b50600a546001600160a01b031633146113f5565b50346102825760403660031901126102825760243560043561148f8161218d565b6001600160a01b03906114a59082163314612c3f565b600f546040516331a9108f60e11b815260048101859052602092918216908381602481855afa9081156116a757879161166d575b50823391160361163357856024916040519283809263040ee97d60e51b82528960048301525afa80156115fb5760ff918791611619575b5051168552600d825260ff60408620541690838652600c8352604086208287528352604086205461160a575b600f5416803b1561160657604051632142170760e11b8152336004820152306024820152604481018690529086908290606490829084905af180156115fb576115c6575b50907f8d94725ef203830fe04c5b0385c53c6bfe550c5761b1ab4643041eb943cdaac791838652600c82526040862081600052825284604060002055604051908152a380f35b946115f37f8d94725ef203830fe04c5b0385c53c6bfe550c5761b1ab4643041eb943cdaac7939296611ba7565b949091611580565b6040513d88823e3d90fd5b8580fd5b6116148285612e10565b61153c565b61162d91503d8089833e6111778183611c27565b38611510565b60405162461bcd60e51b8152600481018490526012602482015271139bdd081e5bdd5c88195c5d5a5c1b595b9d60721b6044820152606490fd5b90508381813d83116116a0575b6116848183611c27565b8101031261169c5751828116810361169c57386114d9565b8680fd5b503d61167a565b6040513d89823e3d90fd5b50346102825761024b6116c436611ceb565b91611e65565b50346102825761024b6116dc36611cca565b906117096116e98261218d565b6001600160a01b039081163314908115611775578115610ef35750612360565b8352600b60205260016040842061172960ff600283015460201c16612ef9565b0161174181549261ffff918291828660301c16612f8b565b9360401c16809184161161176d575b509061ffff60301b82549160301b169061ffff60301b1916179055565b915038611750565b3387526010602052604087205460ff169150610ee1565b50346102825760403660031901126102825760406020916117ab611cba565b6004358252600c845260ff8383209116825283522054604051908152f35b5034610282576040366003190112610282576117e3611b7b565b906024359067ffffffffffffffff8211610282576020610b3d8461180a3660048701611c9c565b9061239d565b50346102825780600319360112610282576020600854604051908152f35b503461028257608036600319011261028257611848611b7b565b50611851611b91565b5060643567ffffffffffffffff808211610d015736602383011215610d01578160040135908111610d01573691016024011161028257604051630a85bd0160e11b8152602090f35b50346102825760203660031901126102825761024b600435611455610ecc8261218d565b5034610282576040366003190112610282576118d7611b7b565b6024356118e38161218d565b3315158061198d575b80611962575b61194a576001600160a01b039283169282918491167f8c5be1e5ebec7d5bd14f71427d1e84f3dd0314c0f7b2291e5b200ac8c7c3b9258680a4825260046020526040822080546001600160a01b031916909117905580f35b60405163a9fbf51f60e01b8152336004820152602490fd5b506001600160a01b038116845260056020908152604080862033875290915284205460ff16156118f2565b506001600160a01b0381163314156118ec565b5034610282576020366003190112610282576020906004356119c18161218d565b50815260048252604060018060a01b0391205416604051908152f35b5034610282578060031936011261028257604051908080546119fe81611d20565b80855291600191808316908115611a825750600114611a28575b61095585610d7981870382611c27565b80809450527f290decd9548b62a8d60345a988386fc84ba6bc95484008f6362f93160ef3e5635b828410611a6a575050508101602001610d7982610955611a18565b80546020858701810191909152909301928101611a4f565b86955061095596935060209250610d7994915060ff191682840152151560051b8201019293611a18565b9050346107f55760203660031901126107f55760043563ffffffff60e01b8116809103610d01576020925063780e9d6360e01b8114908115611af0575b5015158152f35b6380ac58cd60e01b811491508115611b22575b8115611b11575b5038611ae9565b6301ffc9a760e01b14905038611b0a565b635b5e139f60e01b81149150611b03565b60005b838110611b465750506000910152565b8181015183820152602001611b36565b90602091611b6f81518092818552858086019101611b33565b601f01601f1916010190565b600435906001600160a01b038216820361128657565b602435906001600160a01b038216820361128657565b67ffffffffffffffff8111611bbb57604052565b634e487b7160e01b600052604160045260246000fd5b610240810190811067ffffffffffffffff821117611bbb57604052565b6020810190811067ffffffffffffffff821117611bbb57604052565b610100810190811067ffffffffffffffff821117611bbb57604052565b90601f8019910116810190811067ffffffffffffffff821117611bbb57604052565b67ffffffffffffffff8111611bbb57601f01601f191660200190565b929192611c7182611c49565b91611c7f6040519384611c27565b829481845281830111611286578281602093846000960137010152565b9080601f8301121561128657816020611cb793359101611c65565b90565b6024359060ff8216820361128657565b6040906003190112611286576004359060243561ffff811681036112865790565b6060906003190112611286576001600160a01b0390600435828116810361128657916024359081168103611286579060443590565b90600182811c92168015611d50575b6020831014611d3a57565b634e487b7160e01b600052602260045260246000fd5b91607f1691611d2f565b9060405191826000825492611d6e84611d20565b908184526001948581169081600014611ddd5750600114611d9a575b5050611d9892500383611c27565b565b9093915060005260209081600020936000915b818310611dc5575050611d9893508201013880611d8a565b85548884018501529485019487945091830191611dad565b915050611d9894506020925060ff191682840152151560051b8201013880611d8a565b600a546001600160a01b03163303611e1457565b60405163118cdaa760e01b8152336004820152602490fd5b6001600160a01b03168015611e4c57600052600360205260406000205490565b6040516322718ad960e21b815260006004820152602490fd5b6001600160a01b0382811693918415612174576000948386526020956002875260409684888320541615158061216c575b6121295785825260028152848883205416963315158061209b575b5087158015612068575b84845260038352898420805460010190558784526002835289842080546001600160a01b0319168617905587858a7fddf252ad1be2c89b69c2b068fc378daa952ba7f163c4a11628f55a4df523b3ef8780a415611ffc5760085487845260098352808a852055600160401b811015611fe85787611f41826001611f5a94016008556121c8565b90919082549060031b91821b91600019901b1916179055565b838803611f96575b505050501692838303611f755750505050565b6064945051926364283d7b60e01b8452600484015260248301526044820152fd5b611f9f90611e2c565b600019810193908411611fd45782916007918a9452600681528383208584528152878484205587835252205538808080611f62565b634e487b7160e01b83526011600452602483fd5b634e487b7160e01b84526041600452602484fd5b878414611f5a5761200c88611e2c565b878452600783528984205490898552600684528a852091818103612046575b5088855260078452848b812055845282528289812055611f5a565b8186528285528b862054818752808d8820558652600785528b8620553861202b565b600088815260046020526040902080546001600160a01b0319169055888452600383528984208054600019019055611ebb565b806120e8575b156120ac5738611eb1565b8887896120c9576024915190637e27328960e01b82526004820152fd5b905163177e802f60e01b81523360048201526024810191909152604490fd5b50338814801561210d575b806120a157508683526004825233868a85205416146120a1565b5087835260058252888320338452825260ff89842054166120f3565b60649088519062461bcd60e51b82526004820152601e60248201527f506c61796572204e4654206973206e6f6e2d7472616e7366657261626c6500006044820152fd5b506001611e96565b604051633250574960e11b815260006004820152602490fd5b6000818152600260205260409020546001600160a01b03169081156121b0575090565b60249060405190637e27328960e01b82526004820152fd5b6008548110156121ff5760086000527ff3f7a9fe364faab93b216da50a3214154f22a0a2b415b23a84c8169e8b636ee30190600090565b634e487b7160e01b600052603260045260246000fd5b909192833b612226575b5050505050565b604051630a85bd0160e11b8082526001600160a01b039384166004830152938316602482015260448101919091526080606482015260209591909316939091908390612276906084830190611b56565b039285816000958187895af1849181612320575b506122ea575050503d6000146122e2573d6122a481611c49565b906122b26040519283611c27565b81528091843d92013e5b805192836122dd57604051633250574960e11b815260048101849052602490fd5b019050fd5b5060606122bc565b919450915063ffffffff60e01b16036123085750388080808061221f565b60249060405190633250574960e11b82526004820152fd5b9091508681813d8311612359575b6123388183611c27565b81010312610abd57516001600160e01b031981168103610abd57903861228a565b503d61232e565b1561236757565b60405162461bcd60e51b815260206004820152600e60248201526d139bdd08185d5d1a1bdc9a5e995960921b6044820152606490fd5b909133600052601060205260ff604060002054168015612c2b575b6123c190612360565b825160028110159081612c1f575b5015612be4576123de82611e2c565b612ba757600e546000198114612a845760018101600e556040519361240285611bee565b600085526001600160a01b039484861615612174578260005260026020528560406000205416151580612b9f575b612b5a57826000526002602052856040600020541680159081159182612b23575b888816600052600360205260406000206001815401905585600052600260205260406000208989166bffffffffffffffffffffffff60a01b82541617905585898916837fddf252ad1be2c89b69c2b068fc378daa952ba7f163c4a11628f55a4df523b3ef600080a415612a9a5760085485600052600960205280604060002055600160401b811015611bbb5785611f418260016124f194016008556121c8565b87871603612a3d575b612a2457843b6128f9575b50909192936040519461251786611bd1565b82865260016020870152600060408701526064606087015260646080870152600f60a0870152600560c0870152600a60e0870152600561010087015260966101208701526018610140870152601861016087015263ffffffff421661018087015260016101a087015260006101c087015263ffffffff42166101e08701526001610200870152600061022087015283600052600b602052604060002095805196875167ffffffffffffffff8111611bbb576125d28254611d20565b601f81116128b5575b506020601f82116001146128235791816002927fd638e6f92ec16c0790259233d5dacd11383b19666d58ad5497a4ef1e2b2c1ccc979695948a9b9c600092612818575b50508160011b916000199060031b1c19161781555b60208301516001820180546040808701516060880151608089015161ffff60401b931b9290921660309290921b61ffff60301b1660109190911b65ffffffff00001661ffff90951669ffffffffffffffffffff1990931692909217939093171791909117905560a08381015160018301805460c087015160e08801516101008901516101208a01516101408b01516101608c01516101808d01516101a08e01516101c08f015161ffff60d81b60d89190911b1661ffff60c81b60c89290921b9190911660a89290921b63ffffffff60a81b1692909b1b60ff60a01b1660989390931b60ff60981b1660889490941b61ffff60881b1660809590951b60ff60801b1660709690961b61ffff60701b1660609790971b61ffff60601b1660509a909a1b61ffff60501b167fffffff00000000000000000000000000000000000000ffffffffffffffffffff9098169790971798909817949094179290921717171792909217919091179190911790556101e0830151910180546102008401516102209094015165ff000000000060289190911b1664ff00000000941515602090811b9590951663ffffffff90941665ffffffffffff199092169190911792909217919091179055604051818152929091169382916128129190830190611b56565b0390a390565b01519050388061261e565b8260005260206000209960005b601f198416811061289d575082899a9b7fd638e6f92ec16c0790259233d5dacd11383b19666d58ad5497a4ef1e2b2c1ccc9897969593600193600296601f19811610612884575b505050811b018155612633565b015160001960f88460031b161c19169055388080612877565b828201518c556001909b019a60209283019201612830565b826000526020600020601f830160051c8101602084106128f2575b601f830160051c820181106128e65750506125db565b600081556001016128d0565b50806128d0565b60405160208180612933630a85bd0160e11b9586835233600484015260006024840152886044840152608060648401526084830190611b56565b038160008b8b165af1600091816129df575b506129a75786863d1561299f573d9161295d83611c49565b9261296b6040519485611c27565b83523d6000602085013e5b8251928361299857604051633250574960e11b81528284166004820152602490fd5b8390602001fd5b606091612976565b63ffffffff60e09793949596971b16036129c5579392919038612505565b604051633250574960e11b81529085166004820152602490fd5b9091506020813d602011612a1c575b816129fb60209383611c27565b8101031261128657516001600160e01b031981168103611286579038612945565b3d91506129ee565b6040516339e3563760e11b815260006004820152602490fd5b612a4686611e2c565b6000198101908111612a84578787166000526006602052604060002081600052602052846040600020558460005260076020526040600020556124fa565b634e487b7160e01b600052601160045260246000fd5b86881681146124f157612aac81611e2c565b85600052600760205260406000205490826000526006602052604060002091818103612af6575b5086600052600760205260006040812055600052602052600060408120556124f1565b81600052826020526040600020548160005280604060002055600052600760205260406000205538612ad3565b600086815260046020526040902080546001600160a01b031916905581600052600360205260406000206000198154019055612451565b60405162461bcd60e51b815260206004820152601e60248201527f506c61796572204e4654206973206e6f6e2d7472616e7366657261626c6500006044820152606490fd5b506001612430565b60405162461bcd60e51b8152602060048201526015602482015274506c6179657220616c72656164792065786973747360581b6044820152606490fd5b60405162461bcd60e51b8152602060048201526013602482015272092dcecc2d8d2c840dcc2daca40d8cadccee8d606b1b6044820152606490fd5b601491501115386123cf565b50600a546001600160a01b031633146123b8565b15612c4657565b60405162461bcd60e51b815260206004820152600f60248201526e2737ba103cb7bab910383630bcb2b960891b6044820152606490fd5b519060ff8216820361128657565b519061ffff8216820361128657565b906020808383031261128657825167ffffffffffffffff938482116112865701906101409384838503126112865760405194850185811082821117611bbb57604052612ce583612c7d565b8552612cf2828401612c7d565b82860152612d0260408401612c7d565b6040860152612d1360608401612c7d565b6060860152612d2460808401612c8b565b6080860152612d3560a08401612c8b565b60a0860152612d4660c08401612c8b565b60c0860152612d5760e08401612c7d565b60e0860152610100612d6a818501612c8b565b908601526101209283810151918211611286570183601f8201121561128657805190612d9582611c49565b94612da36040519687611c27565b8286528383830101116112865782612dbe9386019101611b33565b82015290565b15612dcb57565b60405162461bcd60e51b815260206004820152601960248201527f4e6f2065717569706d656e7420696e207468697320736c6f74000000000000006044820152606490fd5b600091818352600c602052604060ff8185209216918285526020528084205493612e3b851515612dc4565b612e448461218d565b600f546001600160a01b031690813b15610d01578351632142170760e11b81523060048201526001600160a01b03919091166024820152604481018790529082908290606490829084905af18015612eef5791602093917fdd6c2917d1e02a67ec138d7256c5e5bd4ad336853326c7447c5e9df8962f64859593612ee0575b50858152600c8452818120836000528452816000205551908152a3565b612ee990611ba7565b38612ec3565b83513d84823e3d90fd5b15612f0057565b60405162461bcd60e51b8152602060048201526011602482015270506c61796572206e6f742065786973747360781b6044820152606490fd5b90606461ffff80931602918216918203612a8457565b63ffffffff9182169082160391908211612a8457565b90600a61ffff80931601918211612a8457565b90600161ffff80931601918211612a8457565b91909161ffff80809416911601918211612a8457565b60ff60029116019060ff8211612a8457565b9060ff8091169116019060ff8211612a8457565b6000818152600b60205260408082209160ff90600291612fee818487015460201c16612ef9565b60018095019161ffff93848454169680866130088a612f39565b16905b61305b575b50505050505416828111613025575b50505050565b7fcb87150b71232fb2a7e7963e74eabb8aae5af9bea6e40c788313d9a2fbfe37419282519182526020820152a23880808061301f565b855463ffffffff9088828260101c169284168310159182613275575b50501561326f576130a99161308b91612f4f565b865465ffffffff0000191660109190911b65ffffffff000016178655565b845486811687811461325b57876130f59281856130d49401169061ffff1916178089558a1c16612f65565b865469ffff0000000000000000191660409190911b61ffff60401b16178655565b61312661310787875460301c16612f65565b865467ffff000000000000191660309190911b61ffff60301b16178655565b8186865460501c160186811161324757855461ffff60501b191660509190911b61ffff60501b1617855561317e61316287875460601c16612f78565b865461ffff60601b191660609190911b61ffff60601b16178655565b6131ac61319087875460701c16612f78565b865461ffff60701b191660709190911b61ffff60701b16178655565b83855487600a81831606161580613238575b6131da575b505080866131d381885416612f39565b169061300b565b613205916131eb9160a01c16612fa1565b865460ff60a01b191660a09190911b60ff60a01b16178655565b61323161321785875460981c16612fa1565b865460ff60981b191660989190911b60ff60981b16178655565b83386131c3565b506032828260a01c16106131be565b634e487b7160e01b84526011600452602484fd5b634e487b7160e01b85526011600452602485fd5b50613010565b6064925016108838613077565b9060ff8091169116039060ff8211612a8457565b91909163ffffffff80809416911601918211612a8457565b80600052600b6020526040600020600160ff916132d383600283015460201c16612ef9565b0190815490610e1063ffffffff928282856132f5818560a81c16824216612f4f565b16041690811515806133f3575b613310575b50505050505050565b818480939281613326818360981c169485612fb3565b9160a01c1691829116116133d8575b506133438261335d92612fb3565b875460ff60981b191660989190911b60ff60981b16178755565b160292828416938403612a84576133c06133a07f9ecbaaa6d39a152e2d07216c668ca50812fc6ddbcceab06f01e22919aa6354e295602095845460a81c16613296565b825463ffffffff60a81b191660a89190911b63ffffffff60a81b16178255565b5460981c16604051908152a238808080808080613307565b8192506133eb61335d9261334392613282565b929150613335565b50838160a01c16848260981c1610613302565b60ff1660ff8114612a845760010190565b600052600b6020526040600020906040519061343282611bd1565b61343b83611d5a565b825260018301549261ffff93848116602085015263ffffffff808260101c166040860152858260301c166060860152858260401c166080860152858260501c1660a0860152858260601c1660c0860152858260701c1660e086015260ff94858360801c16610100820152868360881c166101208201526002610140820194878560981c168652610160830198888660a01c168a52848660a81c169586610180860152818160c81c166101a086015260d81c166101c08401520154908282166101e082015261022087808460201c161593841561020085015260281c1691015261359f57610e1081613530879485944216612f4f565b1604169151169381151580613593575b613550575b505081169116101590565b908392948361357793816135648585612fb3565b915116918291161161357f575b50612fb3565b929038613545565b8192509061358c91613282565b9038613571565b50838151168510613540565b50505050505060009056fea2646970667358221220e16bd950f921e6da920c655e394cc73875adcdaac27f14809978eccc3a710dd364736f6c63430008140033",
  "linkReferences": {},
  "deployedLinkReferences": {}
}