{
  "_format": "hh-sol-artifact-1",
  "contractName": "Player",
  "sourceName": "contracts/Player.sol",
  "abi": [
    {
      "inputs": [
        {
          "internalType": "address",
          "name": "_equipmentNFT",
          "type": "address"
        },
        {
          "internalType": "address",
          "name": "_goldToken",
          "type": "address"
        }
      ],
      "stateMutability": "nonpayable",
      "type": "constructor"
    },
    {
      "inputs": [],
      "name": "ERC721EnumerableForbiddenBatchMint",
      "type": "error"
    },
    {
      "inputs": [
        {
          "internalType": "address",
          "name": "sender",
          "type": "address"
        },
        {
          "internalType": "uint256",
          "name": "tokenId",
          "type": "uint256"
        },
        {
          "internalType": "address",
          "name": "owner",
          "type": "address"
        }
      ],
      "name": "ERC721IncorrectOwner",
      "type": "error"
    },
    {
      "inputs": [
        {
          "internalType": "address",
          "name": "operator",
          "type": "address"
        },
        {
          "internalType": "uint256",
          "name": "tokenId",
          "type": "uint256"
        }
      ],
      "name": "ERC721InsufficientApproval",
      "type": "error"
    },
    {
      "inputs": [
        {
          "internalType": "address",
          "name": "approver",
          "type": "address"
        }
      ],
      "name": "ERC721InvalidApprover",
      "type": "error"
    },
    {
      "inputs": [
        {
          "internalType": "address",
          "name": "operator",
          "type": "address"
        }
      ],
      "name": "ERC721InvalidOperator",
      "type": "error"
    },
    {
      "inputs": [
        {
          "internalType": "address",
          "name": "owner",
          "type": "address"
        }
      ],
      "name": "ERC721InvalidOwner",
      "type": "error"
    },
    {
      "inputs": [
        {
          "internalType": "address",
          "name": "receiver",
          "type": "address"
        }
      ],
      "name": "ERC721InvalidReceiver",
      "type": "error"
    },
    {
      "inputs": [
        {
          "internalType": "address",
          "name": "sender",
          "type": "address"
        }
      ],
      "name": "ERC721InvalidSender",
      "type": "error"
    },
    {
      "inputs": [
        {
          "internalType": "uint256",
          "name": "tokenId",
          "type": "uint256"
        }
      ],
      "name": "ERC721NonexistentToken",
      "type": "error"
    },
    {
      "inputs": [
        {
          "internalType": "address",
          "name": "owner",
          "type": "address"
        },
        {
          "internalType": "uint256",
          "name": "index",
          "type": "uint256"
        }
      ],
      "name": "ERC721OutOfBoundsIndex",
      "type": "error"
    },
    {
      "inputs": [
        {
          "internalType": "address",
          "name": "owner",
          "type": "address"
        }
      ],
      "name": "OwnableInvalidOwner",
      "type": "error"
    },
    {
      "inputs": [
        {
          "internalType": "address",
          "name": "account",
          "type": "address"
        }
      ],
      "name": "OwnableUnauthorizedAccount",
      "type": "error"
    },
    {
      "anonymous": false,
      "inputs": [
        {
          "indexed": true,
          "internalType": "address",
          "name": "owner",
          "type": "address"
        },
        {
          "indexed": true,
          "internalType": "address",
          "name": "approved",
          "type": "address"
        },
        {
          "indexed": true,
          "internalType": "uint256",
          "name": "tokenId",
          "type": "uint256"
        }
      ],
      "name": "Approval",
      "type": "event"
    },
    {
      "anonymous": false,
      "inputs": [
        {
          "indexed": true,
          "internalType": "address",
          "name": "owner",
          "type": "address"
        },
        {
          "indexed": true,
          "internalType": "address",
          "name": "operator",
          "type": "address"
        },
        {
          "indexed": false,
          "internalType": "bool",
          "name": "approved",
          "type": "bool"
        }
      ],
      "name": "ApprovalForAll",
      "type": "event"
    },
    {
      "anonymous": false,
      "inputs": [
        {
          "indexed": true,
          "internalType": "uint256",
          "name": "playerId",
          "type": "uint256"
        },
        {
          "indexed": false,
          "internalType": "uint256",
          "name": "equipmentId",
          "type": "uint256"
        }
      ],
      "name": "EquipmentAddedToInventory",
      "type": "event"
    },
    {
      "anonymous": false,
      "inputs": [
        {
          "indexed": true,
          "internalType": "uint256",
          "name": "playerId",
          "type": "uint256"
        },
        {
          "indexed": true,
          "internalType": "uint256",
          "name": "equipmentId",
          "type": "uint256"
        },
        {
          "indexed": false,
          "internalType": "uint8",
          "name": "slot",
          "type": "uint8"
        }
      ],
      "name": "EquipmentEquipped",
      "type": "event"
    },
    {
      "anonymous": false,
      "inputs": [
        {
          "indexed": true,
          "internalType": "uint256",
          "name": "playerId",
          "type": "uint256"
        },
        {
          "indexed": false,
          "internalType": "uint256",
          "name": "equipmentId",
          "type": "uint256"
        }
      ],
      "name": "EquipmentRemovedFromInventory",
      "type": "event"
    },
    {
      "anonymous": false,
      "inputs": [
        {
          "indexed": true,
          "internalType": "uint256",
          "name": "playerId",
          "type": "uint256"
        },
        {
          "indexed": true,
          "internalType": "uint256",
          "name": "equipmentId",
          "type": "uint256"
        },
        {
          "indexed": false,
          "internalType": "uint8",
          "name": "slot",
          "type": "uint8"
        }
      ],
      "name": "EquipmentUnequipped",
      "type": "event"
    },
    {
      "anonymous": false,
      "inputs": [
        {
          "indexed": true,
          "internalType": "uint256",
          "name": "playerId",
          "type": "uint256"
        },
        {
          "indexed": false,
          "internalType": "uint256",
          "name": "amount",
          "type": "uint256"
        }
      ],
      "name": "GoldAdded",
      "type": "event"
    },
    {
      "anonymous": false,
      "inputs": [
        {
          "indexed": true,
          "internalType": "address",
          "name": "previousOwner",
          "type": "address"
        },
        {
          "indexed": true,
          "internalType": "address",
          "name": "newOwner",
          "type": "address"
        }
      ],
      "name": "OwnershipTransferred",
      "type": "event"
    },
    {
      "anonymous": false,
      "inputs": [
        {
          "indexed": true,
          "internalType": "uint256",
          "name": "playerId",
          "type": "uint256"
        },
        {
          "indexed": false,
          "internalType": "uint16",
          "name": "newLevel",
          "type": "uint16"
        },
        {
          "indexed": false,
          "internalType": "uint16",
          "name": "oldLevel",
          "type": "uint16"
        }
      ],
      "name": "PlayerLevelUp",
      "type": "event"
    },
    {
      "anonymous": false,
      "inputs": [
        {
          "indexed": true,
          "internalType": "address",
          "name": "to",
          "type": "address"
        },
        {
          "indexed": true,
          "internalType": "uint256",
          "name": "playerId",
          "type": "uint256"
        },
        {
          "indexed": false,
          "internalType": "string",
          "name": "name",
          "type": "string"
        }
      ],
      "name": "PlayerMinted",
      "type": "event"
    },
    {
      "anonymous": false,
      "inputs": [
        {
          "indexed": true,
          "internalType": "uint256",
          "name": "playerId",
          "type": "uint256"
        },
        {
          "indexed": false,
          "internalType": "uint8",
          "name": "newStamina",
          "type": "uint8"
        }
      ],
      "name": "StaminaUpdated",
      "type": "event"
    },
    {
      "anonymous": false,
      "inputs": [
        {
          "indexed": true,
          "internalType": "address",
          "name": "from",
          "type": "address"
        },
        {
          "indexed": true,
          "internalType": "address",
          "name": "to",
          "type": "address"
        },
        {
          "indexed": true,
          "internalType": "uint256",
          "name": "tokenId",
          "type": "uint256"
        }
      ],
      "name": "Transfer",
      "type": "event"
    },
    {
      "inputs": [
        {
          "internalType": "uint256",
          "name": "playerId",
          "type": "uint256"
        },
        {
          "internalType": "uint256",
          "name": "equipmentId",
          "type": "uint256"
        }
      ],
      "name": "addEquipmentToInventory",
      "outputs": [],
      "stateMutability": "nonpayable",
      "type": "function"
    },
    {
      "inputs": [
        {
          "internalType": "uint256",
          "name": "playerId",
          "type": "uint256"
        },
        {
          "internalType": "uint16",
          "name": "experience",
          "type": "uint16"
        }
      ],
      "name": "addExperience",
      "outputs": [],
      "stateMutability": "nonpayable",
      "type": "function"
    },
    {
      "inputs": [
        {
          "internalType": "uint256",
          "name": "playerId",
          "type": "uint256"
        },
        {
          "internalType": "uint256",
          "name": "amount",
          "type": "uint256"
        }
      ],
      "name": "addGold",
      "outputs": [],
      "stateMutability": "nonpayable",
      "type": "function"
    },
    {
      "inputs": [
        {
          "internalType": "address",
          "name": "to",
          "type": "address"
        },
        {
          "internalType": "uint256",
          "name": "tokenId",
          "type": "uint256"
        }
      ],
      "name": "approve",
      "outputs": [],
      "stateMutability": "nonpayable",
      "type": "function"
    },
    {
      "inputs": [
        {
          "internalType": "address",
          "name": "systemContract",
          "type": "address"
        }
      ],
      "name": "authorizeSystem",
      "outputs": [],
      "stateMutability": "nonpayable",
      "type": "function"
    },
    {
      "inputs": [
        {
          "internalType": "address",
          "name": "",
          "type": "address"
        }
      ],
      "name": "authorizedSystems",
      "outputs": [
        {
          "internalType": "bool",
          "name": "",
          "type": "bool"
        }
      ],
      "stateMutability": "view",
      "type": "function"
    },
    {
      "inputs": [
        {
          "internalType": "address",
          "name": "owner",
          "type": "address"
        }
      ],
      "name": "balanceOf",
      "outputs": [
        {
          "internalType": "uint256",
          "name": "",
          "type": "uint256"
        }
      ],
      "stateMutability": "view",
      "type": "function"
    },
    {
      "inputs": [
        {
          "internalType": "uint256",
          "name": "playerId",
          "type": "uint256"
        },
        {
          "internalType": "uint8",
          "name": "staminaCost",
          "type": "uint8"
        }
      ],
      "name": "canBattle",
      "outputs": [
        {
          "internalType": "bool",
          "name": "",
          "type": "bool"
        }
      ],
      "stateMutability": "view",
      "type": "function"
    },
    {
      "inputs": [
        {
          "internalType": "uint256",
          "name": "playerId",
          "type": "uint256"
        },
        {
          "internalType": "uint8",
          "name": "amount",
          "type": "uint8"
        }
      ],
      "name": "consumeStamina",
      "outputs": [],
      "stateMutability": "nonpayable",
      "type": "function"
    },
    {
      "inputs": [
        {
          "internalType": "uint256",
          "name": "playerId",
          "type": "uint256"
        },
        {
          "internalType": "uint256",
          "name": "equipmentId",
          "type": "uint256"
        }
      ],
      "name": "equipItem",
      "outputs": [],
      "stateMutability": "nonpayable",
      "type": "function"
    },
    {
      "inputs": [],
      "name": "equipmentNFT",
      "outputs": [
        {
          "internalType": "contract Equipment",
          "name": "",
          "type": "address"
        }
      ],
      "stateMutability": "view",
      "type": "function"
    },
    {
      "inputs": [
        {
          "internalType": "uint8",
          "name": "",
          "type": "uint8"
        }
      ],
      "name": "equipmentTypeToSlot",
      "outputs": [
        {
          "internalType": "uint8",
          "name": "",
          "type": "uint8"
        }
      ],
      "stateMutability": "view",
      "type": "function"
    },
    {
      "inputs": [
        {
          "internalType": "uint256",
          "name": "",
          "type": "uint256"
        },
        {
          "internalType": "uint8",
          "name": "",
          "type": "uint8"
        }
      ],
      "name": "equippedItems",
      "outputs": [
        {
          "internalType": "uint256",
          "name": "",
          "type": "uint256"
        }
      ],
      "stateMutability": "view",
      "type": "function"
    },
    {
      "inputs": [
        {
          "internalType": "uint256",
          "name": "tokenId",
          "type": "uint256"
        }
      ],
      "name": "getApproved",
      "outputs": [
        {
          "internalType": "address",
          "name": "",
          "type": "address"
        }
      ],
      "stateMutability": "view",
      "type": "function"
    },
    {
      "inputs": [
        {
          "internalType": "uint256",
          "name": "playerId",
          "type": "uint256"
        }
      ],
      "name": "getEquippedItems",
      "outputs": [
        {
          "internalType": "uint256[8]",
          "name": "",
          "type": "uint256[8]"
        }
      ],
      "stateMutability": "view",
      "type": "function"
    },
    {
      "inputs": [
        {
          "internalType": "uint256",
          "name": "playerId",
          "type": "uint256"
        }
      ],
      "name": "getPlayer",
      "outputs": [
        {
          "components": [
            {
              "internalType": "string",
              "name": "name",
              "type": "string"
            },
            {
              "internalType": "uint16",
              "name": "level",
              "type": "uint16"
            },
            {
              "internalType": "uint32",
              "name": "experience",
              "type": "uint32"
            },
            {
              "internalType": "uint16",
              "name": "health",
              "type": "uint16"
            },
            {
              "internalType": "uint16",
              "name": "maxHealth",
              "type": "uint16"
            },
            {
              "internalType": "uint16",
              "name": "attack",
              "type": "uint16"
            },
            {
              "internalType": "uint16",
              "name": "defense",
              "type": "uint16"
            },
            {
              "internalType": "uint16",
              "name": "agility",
              "type": "uint16"
            },
            {
              "internalType": "uint8",
              "name": "criticalRate",
              "type": "uint8"
            },
            {
              "internalType": "uint16",
              "name": "criticalDamage",
              "type": "uint16"
            },
            {
              "internalType": "uint8",
              "name": "stamina",
              "type": "uint8"
            },
            {
              "internalType": "uint8",
              "name": "maxStamina",
              "type": "uint8"
            },
            {
              "internalType": "uint32",
              "name": "lastStaminaTime",
              "type": "uint32"
            },
            {
              "internalType": "uint16",
              "name": "currentForestLevel",
              "type": "uint16"
            },
            {
              "internalType": "uint16",
              "name": "currentForestProgress",
              "type": "uint16"
            },
            {
              "internalType": "uint256",
              "name": "lastTreasureBoxTime",
              "type": "uint256"
            },
            {
              "internalType": "bool",
              "name": "initialized",
              "type": "bool"
            },
            {
              "internalType": "uint8",
              "name": "job",
              "type": "uint8"
            },
            {
              "internalType": "uint256",
              "name": "goldBalance",
              "type": "uint256"
            },
            {
              "internalType": "uint256[]",
              "name": "inventory",
              "type": "uint256[]"
            }
          ],
          "internalType": "struct GameStructs.Player",
          "name": "",
          "type": "tuple"
        }
      ],
      "stateMutability": "view",
      "type": "function"
    },
    {
      "inputs": [
        {
          "internalType": "uint256",
          "name": "playerId",
          "type": "uint256"
        }
      ],
      "name": "getPlayerGold",
      "outputs": [
        {
          "internalType": "uint256",
          "name": "",
          "type": "uint256"
        }
      ],
      "stateMutability": "view",
      "type": "function"
    },
    {
      "inputs": [
        {
          "internalType": "uint256",
          "name": "playerId",
          "type": "uint256"
        }
      ],
      "name": "getPlayerInventory",
      "outputs": [
        {
          "internalType": "uint256[]",
          "name": "",
          "type": "uint256[]"
        }
      ],
      "stateMutability": "view",
      "type": "function"
    },
    {
      "inputs": [
        {
          "internalType": "uint256",
          "name": "playerId",
          "type": "uint256"
        }
      ],
      "name": "getPlayerTotalStats",
      "outputs": [
        {
          "internalType": "uint16",
          "name": "totalAttack",
          "type": "uint16"
        },
        {
          "internalType": "uint16",
          "name": "totalDefense",
          "type": "uint16"
        },
        {
          "internalType": "uint16",
          "name": "totalAgility",
          "type": "uint16"
        },
        {
          "internalType": "uint8",
          "name": "totalCritRate",
          "type": "uint8"
        },
        {
          "internalType": "uint16",
          "name": "totalCritDamage",
          "type": "uint16"
        }
      ],
      "stateMutability": "view",
      "type": "function"
    },
    {
      "inputs": [],
      "name": "goldToken",
      "outputs": [
        {
          "internalType": "contract AdventureGold",
          "name": "",
          "type": "address"
        }
      ],
      "stateMutability": "view",
      "type": "function"
    },
    {
      "inputs": [
        {
          "internalType": "uint256",
          "name": "playerId",
          "type": "uint256"
        },
        {
          "internalType": "uint256",
          "name": "equipmentId",
          "type": "uint256"
        }
      ],
      "name": "hasEquipmentInInventory",
      "outputs": [
        {
          "internalType": "bool",
          "name": "",
          "type": "bool"
        }
      ],
      "stateMutability": "view",
      "type": "function"
    },
    {
      "inputs": [
        {
          "internalType": "uint256",
          "name": "playerId",
          "type": "uint256"
        },
        {
          "internalType": "uint16",
          "name": "amount",
          "type": "uint16"
        }
      ],
      "name": "heal",
      "outputs": [],
      "stateMutability": "nonpayable",
      "type": "function"
    },
    {
      "inputs": [
        {
          "internalType": "address",
          "name": "owner",
          "type": "address"
        },
        {
          "internalType": "address",
          "name": "operator",
          "type": "address"
        }
      ],
      "name": "isApprovedForAll",
      "outputs": [
        {
          "internalType": "bool",
          "name": "",
          "type": "bool"
        }
      ],
      "stateMutability": "view",
      "type": "function"
    },
    {
      "inputs": [
        {
          "internalType": "uint256",
          "name": "playerId",
          "type": "uint256"
        }
      ],
      "name": "levelUp",
      "outputs": [],
      "stateMutability": "nonpayable",
      "type": "function"
    },
    {
      "inputs": [
        {
          "internalType": "address",
          "name": "to",
          "type": "address"
        },
        {
          "internalType": "string",
          "name": "name",
          "type": "string"
        }
      ],
      "name": "mintPlayer",
      "outputs": [
        {
          "internalType": "uint256",
          "name": "",
          "type": "uint256"
        }
      ],
      "stateMutability": "nonpayable",
      "type": "function"
    },
    {
      "inputs": [],
      "name": "name",
      "outputs": [
        {
          "internalType": "string",
          "name": "",
          "type": "string"
        }
      ],
      "stateMutability": "view",
      "type": "function"
    },
    {
      "inputs": [
        {
          "internalType": "address",
          "name": "operator",
          "type": "address"
        },
        {
          "internalType": "address",
          "name": "from",
          "type": "address"
        },
        {
          "internalType": "uint256",
          "name": "tokenId",
          "type": "uint256"
        },
        {
          "internalType": "bytes",
          "name": "data",
          "type": "bytes"
        }
      ],
      "name": "onERC721Received",
      "outputs": [
        {
          "internalType": "bytes4",
          "name": "",
          "type": "bytes4"
        }
      ],
      "stateMutability": "pure",
      "type": "function"
    },
    {
      "inputs": [],
      "name": "owner",
      "outputs": [
        {
          "internalType": "address",
          "name": "",
          "type": "address"
        }
      ],
      "stateMutability": "view",
      "type": "function"
    },
    {
      "inputs": [
        {
          "internalType": "uint256",
          "name": "tokenId",
          "type": "uint256"
        }
      ],
      "name": "ownerOf",
      "outputs": [
        {
          "internalType": "address",
          "name": "",
          "type": "address"
        }
      ],
      "stateMutability": "view",
      "type": "function"
    },
    {
      "inputs": [
        {
          "internalType": "uint256",
          "name": "",
          "type": "uint256"
        }
      ],
      "name": "players",
      "outputs": [
        {
          "internalType": "string",
          "name": "name",
          "type": "string"
        },
        {
          "internalType": "uint16",
          "name": "level",
          "type": "uint16"
        },
        {
          "internalType": "uint32",
          "name": "experience",
          "type": "uint32"
        },
        {
          "internalType": "uint16",
          "name": "health",
          "type": "uint16"
        },
        {
          "internalType": "uint16",
          "name": "maxHealth",
          "type": "uint16"
        },
        {
          "internalType": "uint16",
          "name": "attack",
          "type": "uint16"
        },
        {
          "internalType": "uint16",
          "name": "defense",
          "type": "uint16"
        },
        {
          "internalType": "uint16",
          "name": "agility",
          "type": "uint16"
        },
        {
          "internalType": "uint8",
          "name": "criticalRate",
          "type": "uint8"
        },
        {
          "internalType": "uint16",
          "name": "criticalDamage",
          "type": "uint16"
        },
        {
          "internalType": "uint8",
          "name": "stamina",
          "type": "uint8"
        },
        {
          "internalType": "uint8",
          "name": "maxStamina",
          "type": "uint8"
        },
        {
          "internalType": "uint32",
          "name": "lastStaminaTime",
          "type": "uint32"
        },
        {
          "internalType": "uint16",
          "name": "currentForestLevel",
          "type": "uint16"
        },
        {
          "internalType": "uint16",
          "name": "currentForestProgress",
          "type": "uint16"
        },
        {
          "internalType": "uint256",
          "name": "lastTreasureBoxTime",
          "type": "uint256"
        },
        {
          "internalType": "bool",
          "name": "initialized",
          "type": "bool"
        },
        {
          "internalType": "uint8",
          "name": "job",
          "type": "uint8"
        },
        {
          "internalType": "uint256",
          "name": "goldBalance",
          "type": "uint256"
        }
      ],
      "stateMutability": "view",
      "type": "function"
    },
    {
      "inputs": [
        {
          "internalType": "string",
          "name": "name",
          "type": "string"
        }
      ],
      "name": "registerPlayer",
      "outputs": [
        {
          "internalType": "uint256",
          "name": "",
          "type": "uint256"
        }
      ],
      "stateMutability": "nonpayable",
      "type": "function"
    },
    {
      "inputs": [
        {
          "internalType": "uint256",
          "name": "playerId",
          "type": "uint256"
        },
        {
          "internalType": "uint256",
          "name": "equipmentId",
          "type": "uint256"
        },
        {
          "internalType": "address",
          "name": "to",
          "type": "address"
        }
      ],
      "name": "removeEquipmentFromInventory",
      "outputs": [],
      "stateMutability": "nonpayable",
      "type": "function"
    },
    {
      "inputs": [],
      "name": "renounceOwnership",
      "outputs": [],
      "stateMutability": "nonpayable",
      "type": "function"
    },
    {
      "inputs": [
        {
          "internalType": "address",
          "name": "systemContract",
          "type": "address"
        }
      ],
      "name": "revokeSystemAuthorization",
      "outputs": [],
      "stateMutability": "nonpayable",
      "type": "function"
    },
    {
      "inputs": [
        {
          "internalType": "address",
          "name": "from",
          "type": "address"
        },
        {
          "internalType": "address",
          "name": "to",
          "type": "address"
        },
        {
          "internalType": "uint256",
          "name": "tokenId",
          "type": "uint256"
        }
      ],
      "name": "safeTransferFrom",
      "outputs": [],
      "stateMutability": "nonpayable",
      "type": "function"
    },
    {
      "inputs": [
        {
          "internalType": "address",
          "name": "from",
          "type": "address"
        },
        {
          "internalType": "address",
          "name": "to",
          "type": "address"
        },
        {
          "internalType": "uint256",
          "name": "tokenId",
          "type": "uint256"
        },
        {
          "internalType": "bytes",
          "name": "data",
          "type": "bytes"
        }
      ],
      "name": "safeTransferFrom",
      "outputs": [],
      "stateMutability": "nonpayable",
      "type": "function"
    },
    {
      "inputs": [
        {
          "internalType": "address",
          "name": "operator",
          "type": "address"
        },
        {
          "internalType": "bool",
          "name": "approved",
          "type": "bool"
        }
      ],
      "name": "setApprovalForAll",
      "outputs": [],
      "stateMutability": "nonpayable",
      "type": "function"
    },
    {
      "inputs": [
        {
          "internalType": "uint256",
          "name": "playerId",
          "type": "uint256"
        },
        {
          "internalType": "uint256",
          "name": "amount",
          "type": "uint256"
        },
        {
          "internalType": "address",
          "name": "to",
          "type": "address"
        }
      ],
      "name": "spendGold",
      "outputs": [],
      "stateMutability": "nonpayable",
      "type": "function"
    },
    {
      "inputs": [
        {
          "internalType": "bytes4",
          "name": "interfaceId",
          "type": "bytes4"
        }
      ],
      "name": "supportsInterface",
      "outputs": [
        {
          "internalType": "bool",
          "name": "",
          "type": "bool"
        }
      ],
      "stateMutability": "view",
      "type": "function"
    },
    {
      "inputs": [],
      "name": "symbol",
      "outputs": [
        {
          "internalType": "string",
          "name": "",
          "type": "string"
        }
      ],
      "stateMutability": "view",
      "type": "function"
    },
    {
      "inputs": [
        {
          "internalType": "uint256",
          "name": "index",
          "type": "uint256"
        }
      ],
      "name": "tokenByIndex",
      "outputs": [
        {
          "internalType": "uint256",
          "name": "",
          "type": "uint256"
        }
      ],
      "stateMutability": "view",
      "type": "function"
    },
    {
      "inputs": [
        {
          "internalType": "address",
          "name": "owner",
          "type": "address"
        },
        {
          "internalType": "uint256",
          "name": "index",
          "type": "uint256"
        }
      ],
      "name": "tokenOfOwnerByIndex",
      "outputs": [
        {
          "internalType": "uint256",
          "name": "",
          "type": "uint256"
        }
      ],
      "stateMutability": "view",
      "type": "function"
    },
    {
      "inputs": [
        {
          "internalType": "uint256",
          "name": "tokenId",
          "type": "uint256"
        }
      ],
      "name": "tokenURI",
      "outputs": [
        {
          "internalType": "string",
          "name": "",
          "type": "string"
        }
      ],
      "stateMutability": "view",
      "type": "function"
    },
    {
      "inputs": [],
      "name": "totalSupply",
      "outputs": [
        {
          "internalType": "uint256",
          "name": "",
          "type": "uint256"
        }
      ],
      "stateMutability": "view",
      "type": "function"
    },
    {
      "inputs": [
        {
          "internalType": "address",
          "name": "from",
          "type": "address"
        },
        {
          "internalType": "address",
          "name": "to",
          "type": "address"
        },
        {
          "internalType": "uint256",
          "name": "tokenId",
          "type": "uint256"
        }
      ],
      "name": "transferFrom",
      "outputs": [],
      "stateMutability": "nonpayable",
      "type": "function"
    },
    {
      "inputs": [
        {
          "internalType": "address",
          "name": "newOwner",
          "type": "address"
        }
      ],
      "name": "transferOwnership",
      "outputs": [],
      "stateMutability": "nonpayable",
      "type": "function"
    },
    {
      "inputs": [
        {
          "internalType": "uint256",
          "name": "playerId",
          "type": "uint256"
        },
        {
          "internalType": "uint8",
          "name": "slot",
          "type": "uint8"
        }
      ],
      "name": "unequipItem",
      "outputs": [],
      "stateMutability": "nonpayable",
      "type": "function"
    },
    {
      "inputs": [
        {
          "internalType": "uint256",
          "name": "playerId",
          "type": "uint256"
        }
      ],
      "name": "updateLastTreasureBoxTime",
      "outputs": [],
      "stateMutability": "nonpayable",
      "type": "function"
    },
    {
      "inputs": [
        {
          "internalType": "uint256",
          "name": "playerId",
          "type": "uint256"
        }
      ],
      "name": "updateStamina",
      "outputs": [],
      "stateMutability": "nonpayable",
      "type": "function"
    }
  ],
  "bytecode": "0x60803462000471576001600160401b0390601f906200470d90601f1990388390038481018316820190868211838310176200045b57808391604096879485528339810103126200047157620000548162000496565b9462000064602080930162000496565b906200006f62000476565b95601087526f20b23b32b73a3ab93290283630bcb2b960811b848801526200009662000476565b6006815265282620aca2a960d11b858201528751958387116200045b5760009687549960019a8b81811c9116801562000450575b898210146200043c57908186849311620003e9575b5088908683116001146200037f578a9262000373575b5050600019600383901b1c1916908a1b1787555b81519384116200035f5788548981811c9116801562000354575b8782101462000340579081848695949311620002e9575b508692841160011462000288575086926200027c575b5050600019600383901b1c191690861b1785555b33156200026457600a8054336001600160a01b031980831682179093558651986007979695600d959094936001600160a01b039391928492909183167f8be0079c531659141344cd1fd0a4f28419497f9722a3daafe3b4186f6b6457e08a80a31683600f541617600f551690601054161760105585600e55828052528181209360ff19948581541690558082528282209085825416179055600281528181206002858254161790556003815281812060038582541617905560048152818120600485825416179055600581528181206005858254161790556006815281812060068582541617905582815220918254161790556142619081620004ac8239f35b8351631e4fbdf760e01b815260048101849052602490fd5b01519050388062000150565b8988528688208a959093929116885b88828210620002d25750508411620002b8575b505050811b01855562000164565b015160001960f88460031b161c19169055388080620002aa565b8385015186558c9790950194938401930162000297565b90919293508988528688208480870160051c82019289881062000336575b9187968d92969594930160051c01915b828110620003275750506200013a565b8a81558796508c910162000317565b9250819262000307565b634e487b7160e01b88526022600452602488fd5b90607f169062000123565b634e487b7160e01b87526041600452602487fd5b015190503880620000f5565b90848d9416918b80528a8c20928c5b8c828210620003c95750508411620003af575b505050811b01875562000109565b015160001960f88460031b161c19169055388080620003a1565b91929395968291958786015181550195019301908e95949392916200038e565b909150898052888a208680850160051c8201928b861062000432575b918e91869594930160051c01915b82811062000423575050620000df565b8c81558594508e910162000413565b9250819262000405565b634e487b7160e01b8a52602260045260248afd5b90607f1690620000ca565b634e487b7160e01b600052604160045260246000fd5b600080fd5b60408051919082016001600160401b038111838210176200045b57604052565b51906001600160a01b0382168203620004715756fe608080604052600436101561001357600080fd5b60003560e01c90816301ffc9a714612904575080630652045a1461286357806306fdde03146127c0578063081812fc14612782578063095ea7b31461269b5780630c17f96a1461264f5780630ce90ec21461262c578063150b7a02146125c357806318160ddd146125a5578063185c3424146120345780631d3685d814611ff15780632227990014611f1f57806323b872dd14611f08578063262a8c3b14611d57578063268815d814611caf57806327b1cb5d14611c965780632f745c5914611c1257806342842e0e14611be45780634f6ccce714611b8e5780635b7966be14611b415780636352211e14611b115780636397629614611ad757806370a0823114611aac578063715018a614611a4f5780637b42608d146117ac5780637cb6ce031461173a578063869ae742146116f85780638a8bab1a146116865780638da5cb5b1461165d5780638e48059d1461162d57806394002b571461160457806395d89b4114611525578063962e0a16146114fc578063a22cb4651461144e578063adcc16e414611337578063b3446f8514610d18578063b5a9bef714610cd9578063b88d4fde14610c6e578063c058540414610c29578063c87b56dd14610bd6578063e1cb414814610b2b578063e55ae4e8146107ff578063e985e9c5146107a9578063ef75ef1014610745578063f2fde38b146106b7578063f54ba62214610575578063f71d96cb14610450578063f9b36473146102e95763fe80c55d1461023a57600080fd5b346102e45760403660031901126102e457600435610256612af7565b61027261026283612fca565b6001600160a01b03163314613301565b60ff81169160088310156102b0576102ae9281600052600c6020526040600020906000526020526102a960406000205415156134fa565b613546565b005b60405162461bcd60e51b815260206004820152600c60248201526b125b9d985b1a59081cdb1bdd60a21b6044820152606490fd5b600080fd5b346102e4576102f736612989565b3360005260206011815260ff60406000205416801561043c575b61031a9061329e565b82600052600b8152604060002061033760ff6003830154166135b0565b600f546040516331a9108f60e11b8152600481018590526001600160a01b03929184908290602490829087165afa80156104305760059361038392600092610401575b5016301461335e565b0191825492600160401b8410156103eb57816103c9856103e29360017fd47cf711b5175a3187ad04f45509c167d0637ee02794f7be6047bff6686cc69398018155613052565b90919082549060031b91821b91600019901b1916179055565b604051908152a2005b634e487b7160e01b600052604160045260246000fd5b610422919250863d8811610429575b61041a8183612a66565b81019061333f565b908861037a565b503d610410565b6040513d6000823e3d90fd5b50600a546001600160a01b03163314610311565b346102e45760203660031901126102e457600435600052600b6020526104ab604060002061047d81612bf5565b9060018101549060ff60028201549160046003820154910154926040519687966102608089528801906129c2565b9461ffff90818116602089015263ffffffff808260101c1660408a0152828260301c1660608a0152828260401c1660808a0152828260501c1660a08a0152828260601c1660c08a0152828260701c1660e08a0152858260801c166101008a0152828260881c166101208a0152858260981c166101408a0152858260a01c166101608a01528160a81c16610180890152818160c81c166101a089015260d81c166101c08701526101e0860152818116151561020086015260081c166102208401526102408301520390f35b346102e45761058336612b5d565b9190336000526020916011835260ff6040600020541680156106a3575b6105a99061329e565b600052600b8252600460406000206105c760ff6003830154166135b0565b019081549381851061066a57818503948511610654579390915560105460405163a9059cbb60e01b81526001600160a01b03948516600482015260248101929092529092829184916044918391600091165af180156104305761062657005b81813d831161064d575b61063a8183612a66565b810103126102e45751801515036102e457005b503d610630565b634e487b7160e01b600052601160045260246000fd5b60405162461bcd60e51b8152600481018590526011602482015270125b9cdd59999a58da595b9d0819dbdb19607a1b6044820152606490fd5b50600a546001600160a01b031633146105a0565b346102e45760203660031901126102e4576106d06129e7565b6106d8612c9b565b6001600160a01b0390811690811561072c57600a54826bffffffffffffffffffffffff60a01b821617600a55167f8be0079c531659141344cd1fd0a4f28419497f9722a3daafe3b4186f6b6457e0600080a3005b604051631e4fbdf760e01b815260006004820152602490fd5b346102e45760203660031901126102e45760043580600052600b60205261077660ff600360406000200154166135b0565b600052600b6020526107a56107916005604060002001613a9f565b604051918291602083526020830190612b87565b0390f35b346102e45760403660031901126102e4576107c26129e7565b6107ca6129fd565b9060018060a01b03809116600052600560205260406000209116600052602052602060ff604060002054166040519015158152f35b346102e45760203660031901126102e457606061026060405161082181612a13565b828152600060208201526000604082015260008382015260006080820152600060a0820152600060c0820152600060e08201526000610100820152600061012082015260006101408201526000610160820152600061018082015260006101a082015260006101c082015260006101e08201526000610200820152600061022082015260006102408201520152600435600052600b6020526108cd60ff600360406000200154166135b0565b600435600052600b6020526107a560406000206109e46005604051926108f284612a13565b6108fb81612bf5565b845261ffff6001820154818116602087015263ffffffff8160101c166040870152818160301c166060870152818160401c166080870152818160501c1660a0870152818160601c1660c0870152818160701c1660e087015260ff8160801c16610100870152818160881c1661012087015260ff8160981c1661014087015260ff8160a01c1661016087015263ffffffff8160a81c16610180870152818160c81c166101a087015260d81c166101c085015260028101546101e085015260ff6003820154818116151561020087015260081c16610220850152600481015461024085015201613a9f565b61026082015260405191829160208352610260610a0f825161028060208701526102a08601906129c2565b9161ffff602082015116604086015263ffffffff604082015116606086015261ffff606082015116608086015261ffff60808201511660a086015261ffff60a08201511660c086015261ffff60c08201511660e086015261ffff60e08201511661010086015260ff6101008201511661012086015261ffff6101208201511661014086015260ff6101408201511661016086015260ff6101608201511661018086015263ffffffff610180820151166101a086015261ffff6101a0820151166101c086015261ffff6101c0820151166101e08601526101e0810151610200860152610200810151151561022086015260ff61022082015116610240860152610240810151828601520151601f1984830301610280850152612b87565b346102e4576020806003193601126102e45760405190600435610b4d83612a4a565b610100809336903760405190610b6282612a4a565b8336833760005b60ff8116906008821015610ba957610ba49183600052600c86526040600020906000528552604060002054611fe08260051b16850152613aee565b610b69565b50505060405191826000905b60088210610bc1578585f35b82806001928651815201940191019092610bb5565b346102e45760203660031901126102e457610bf2600435612fca565b506000604051610c0181612a2f565b526107a5604051610c1181612a2f565b600081526040519182916020835260208301906129c2565b346102e45760203660031901126102e457610c426129e7565b610c4a612c9b565b6001600160a01b03166000908152601160205260409020805460ff19166001179055005b346102e45760803660031901126102e457610c876129e7565b610c8f6129fd565b90604435606435926001600160401b0384116102e457366023850112156102e457610cc76102ae943690602481600401359101612aa2565b92610cd3838383612d00565b336131b1565b346102e45760203660031901126102e4576001600160a01b03610cfa6129e7565b166000526011602052602060ff604060002054166040519015158152f35b346102e45760203660031901126102e4576004356001600160401b0381116102e457610d48903690600401612ad9565b33600052601160205260ff604060002054168015611323575b610d6a9061329e565b805160028110159081611317575b50156112dc57610d8733612cc7565b61129f57600e54610d97816132db565b600e55604051610da681612a2f565b600081523315611286576001600160a01b03610dc28333613cb3565b1661126d57610dd39082333361306a565b60405191610de083612a2f565b6000835260405192610df184612a13565b81845260016020850152600060408501526064606085015260646080850152600f60a0850152600560c0850152600a60e0850152600561010085015260966101208501526018610140850152601861016085015263ffffffff421661018085015260016101a085015260006101c0850152426101e085015260016102008501526000610220850152600061024085015261026084015281600052600b602052604060002083518051906001600160401b0382116103eb57610eb28354612bbb565b601f8111611230575b50602090601f83116001146111c057918061026094926005946000926111b5575b50508160011b916000199060031b1c19161781555b60208601516001820180546040808a015160608b015160808c015161ffff60401b931b9290921660309290921b61ffff60301b1660109190911b65ffffffff00001661ffff90951669ffffffffffffffffffff1990931692909217939093171791909117905560a086015160018201805461ffff60501b191660509290921b61ffff60501b1691909117905560c086015160018201805461ffff60601b191660609290921b61ffff60601b1691909117905560e086015160018201805461ffff60701b191660709290921b61ffff60701b169190911790556101008601516001820180546101208901516101408a015163ffffffff60801b1990921660809490941b60ff60801b169390931760889390931b61ffff60881b169290921760989290921b60ff60981b1691909117905561016086015160018201805460ff60a01b191660a09290921b60ff60a01b1691909117905561018086015160018201805463ffffffff60a81b191660a89290921b63ffffffff60a81b169190911790556101a0860151600182015461ffff60d81b6101c089015160d81b169161ffff60c81b9060c81b169063ffffffff60c81b1916171760018201556101e08601516002820155600381016110d56102008801511515829060ff801983541691151516179055565b61022087015161ff0082549160081b169061ff0019161790556102408601516004820155019301518051906001600160401b0382116103eb57600160401b82116103eb576020908554838755808410611198575b500193600052602060002060005b8281106111845760208580867fd638e6f92ec16c0790259233d5dacd11383b19666d58ad5497a4ef1e2b2c1ccc604051858152806111793394888301906129c2565b0390a3604051908152f35b600190602087519701968184015501611137565b6111af9087600052848460002091820191016132ea565b86611129565b015190508880610edc565b908360005260206000209160005b601f1985168110611218575092610260949260019260059583601f198116106111ff575b505050811b018155610ef1565b015160001960f88460031b161c191690558880806111f2565b919260206001819286850151815501940192016111ce565b61125d90846000526020600020601f850160051c81019160208610611263575b601f0160051c01906132ea565b86610ebb565b9091508190611250565b6040516339e3563760e11b815260006004820152602490fd5b604051633250574960e11b815260006004820152602490fd5b60405162461bcd60e51b8152602060048201526015602482015274506c6179657220616c72656164792065786973747360581b6044820152606490fd5b60405162461bcd60e51b8152602060048201526013602482015272092dcecc2d8d2c840dcc2daca40d8cadccee8d606b1b6044820152606490fd5b60149150111582610d78565b50600a546001600160a01b03163314610d61565b346102e45760403660031901126102e457600435611353612af7565b33600052601160205260ff60406000205416801561143a575b6113759061329e565b81600052600b6020526001604060002061139560ff6003830154166135b0565b0190815460ff8083169160981c1610611400576113c86113e2916113bb6102ae9561394a565b60ff845460981c1661391e565b825460ff60981b191660989190911b60ff60981b16178255565b805463ffffffff60a81b19164260a81b63ffffffff60a81b16179055565b60405162461bcd60e51b81526020600482015260126024820152714e6f7420656e6f756768207374616d696e6160701b6044820152606490fd5b50600a546001600160a01b0316331461136c565b346102e45760403660031901126102e4576114676129e7565b60243590811515908183036102e4576001600160a01b03169182156114e3576114b59033600052600560205260406000208460005260205260406000209060ff801983541691151516179055565b6040519081527f17307eab39ab6107e8899845ad3d59bd9653f200f220920489ca2b5937696c3160203392a3005b604051630b61174360e31b815260048101849052602490fd5b346102e45760003660031901126102e457600f546040516001600160a01b039091168152602090f35b346102e45760003660031901126102e4576040516000600180549061154982612bbb565b808552918181169081156115dd5750600114611584575b6107a58461157081860382612a66565b6040519182916020835260208301906129c2565b600081815292507fb10e2d527612073b26eecdfd717e6a320cf44b4afac2b0732d9fcbe2b7fa0cf65b8284106115c557505050810160200161157082611560565b805460208587018101919091529093019281016115ad565b60ff191660208087019190915292151560051b850190920192506115709150839050611560565b346102e45760003660031901126102e4576010546040516001600160a01b039091168152602090f35b346102e45760403660031901126102e457602061165361164b612af7565b600435613aff565b6040519015158152f35b346102e45760003660031901126102e457600a546040516001600160a01b039091168152602090f35b346102e45760203660031901126102e45733600052601160205260ff6040600020541680156116e4575b6116b99061329e565b600435600052600b60205260406000206116d960ff6003830154166135b0565b600242910155600080f35b50600a546001600160a01b031633146116b0565b346102e45760203660031901126102e4576117116129e7565b611719612c9b565b6001600160a01b03166000908152601160205260409020805460ff19169055005b346102e45760203660031901126102e4576102ae60043561177f61175d82612fca565b6001600160a01b039081163314908115611792575b8115611784575b5061329e565b61394a565b9050600a5416331484611779565b905033600052601160205260ff6040600020541690611772565b346102e45760203660031901126102e457600435600052600b60205260406000206118e5604051916117dd83612a13565b6117e681612bf5565b835261ffff6001820154818116602086015263ffffffff8160101c166040860152818160301c166060860152818160401c166080860152818160501c1660a0860152818160601c1660c0860152818160701c1660e086015260ff8160801c16610100860152818160881c1661012086015260ff8160981c1661014086015260ff8160a01c1661016086015263ffffffff8160a81c16610180860152818160c81c166101a086015260d81c166101c084015260028101546101e08401526118d7600560038301549260ff6102008701948181161515865260081c16610220870152600481015461024087015201613a9f565b6102608401525115156135b0565b61ffff60a08201511661ffff60c08301511661ffff60e0840151169061ffff61012060ff61010087015116950151169060005b60ff81166008811015611a1f57600435600052600c60205260406000209060005260205260406000205480611957575b5061195290613aee565b611918565b95939194600060018060a09694961b03600f5416976024604051809a819363040ee97d60e51b835260048301525afa968715610430576000976119fa575b50608087015161ffff166119a891613642565b9460a087015161ffff166119bb91613642565b9160c087015161ffff166119ce91613642565b9360e087015160ff166119e09161366a565b95610100015161ffff166119f391613642565b9186611948565b611a189197503d806000833e611a108183612a66565b8101906133d1565b9587611995565b505060a09461ffff80948160ff948160405199168952166020880152166040860152166060840152166080820152f35b346102e45760003660031901126102e457611a68612c9b565b600a80546001600160a01b031981169091556000906001600160a01b03167f8be0079c531659141344cd1fd0a4f28419497f9722a3daafe3b4186f6b6457e08280a3005b346102e45760203660031901126102e4576020611acf611aca6129e7565b612cc7565b604051908152f35b346102e45760203660031901126102e45760043560ff81168091036102e457600052600d602052602060ff60406000205416604051908152f35b346102e45760203660031901126102e4576020611b2f600435612fca565b6040516001600160a01b039091168152f35b346102e4576102ae611b5236612b5d565b9133600052601160205260ff604060002054168015611b7a575b611b759061329e565b613f84565b50600a546001600160a01b03163314611b6c565b346102e45760203660031901126102e457600435600854811015611bc557611bb7602091613005565b90546040519160031b1c8152f35b6044906040519063295f44f760e21b8252600060048301526024820152fd5b346102e4576102ae611bf536612b28565b9060405192611c0384612a2f565b60008452610cd3838383612d00565b346102e45760403660031901126102e457611c2b6129e7565b60243590611c3881612cc7565b821015611c6b5760018060a01b031660005260066020526040600020906000526020526020604060002054604051908152f35b60405163295f44f760e21b81526001600160a01b039190911660048201526024810191909152604490fd5b346102e4576020611653611ca936612989565b906141bd565b346102e4576102ae611d3e611cc336612b07565b91909133600052601160205260ff604060002054168015611d43575b611ce89061329e565b82600052600b602052611d2161ffff60016040600020611d0e60ff6003830154166135b0565b01921663ffffffff835460101c16613932565b65ffffffff000082549160101b169065ffffffff00001916179055565b61367e565b50600a546001600160a01b03163314611cdf565b346102e457611d6536612989565b90611d6f81612fca565b6001600160a01b0390611d859082163314613301565b611d8f83836141bd565b15611ec357600f546040516331a9108f60e11b8152600481018590529160209181168284602481845afa93841561043057602494600093611dd9928592611ea4575016301461335e565b6040519384809263040ee97d60e51b82528860048301525afa918215610430577f8d94725ef203830fe04c5b0385c53c6bfe550c5761b1ab4643041eb943cdaac79260ff91600091611e89575b505116600052600d815260ff6040600020541683600052600c82526040600020816000528252604060002054611e7a575b83600052600c8252604060002081600052825284604060002055604051908152a3005b611e848185613546565b611e57565b611e9e91503d806000833e611a108183612a66565b86611e26565b611ebc919250863d88116104295761041a8183612a66565b908961037a565b60405162461bcd60e51b815260206004820152601a60248201527f45717569706d656e74206e6f7420696e20696e76656e746f72790000000000006044820152606490fd5b346102e4576102ae611f1936612b28565b91612d00565b346102e4576102ae611f3036612b07565b90611f5e611f3d82612fca565b6001600160a01b039081163314908115611fd7575b8115611fc9575061329e565b600052600b60205260016040600020611f7d60ff6003830154166135b0565b01611f9581549261ffff918291828660301c16613642565b9360401c168091841611611fc1575b509061ffff60301b82549160301b169061ffff60301b1916179055565b915083611fa4565b9050600a5416331485611779565b905033600052601160205260ff6040600020541690611f52565b346102e45760403660031901126102e45761200a612af7565b600435600052600c60205260ff604060002091166000526020526020604060002054604051908152f35b346102e45760403660031901126102e45761204d6129e7565b6024356001600160401b0381116102e45761206c903690600401612ad9565b33600052601160205260ff604060002054168015612591575b61208e9061329e565b805160028110159081612585575b50156112dc576120ab82612cc7565b61129f57600e54906120bc826132db565b600e556040516120cb81612a2f565b600081526001600160a01b03908482161561128657816120eb8587613cb3565b1661126d576120fc9084863361306a565b6040519361210985612a2f565b600085526040519461211a86612a13565b83865260016020870152600060408701526064606087015260646080870152600f60a0870152600560c0870152600a60e0870152600561010087015260966101208701526018610140870152601861016087015263ffffffff421661018087015260016101a087015260006101c0870152426101e087015260016102008701526000610220870152600061024087015261026086015283600052600b602052604060002085518051906001600160401b0382116103eb576121db8354612bbb565b601f8111612553575b50602090601f83116001146124e357918061026094926005946000926124d8575b50508160011b916000199060031b1c19161781555b60208801516001820180546040808c015160608d015160808e015161ffff60401b931b9290921660309290921b61ffff60301b1660109190911b65ffffffff00001661ffff90951669ffffffffffffffffffff1990931692909217939093171791909117905560a088015160018201805461ffff60501b191660509290921b61ffff60501b1691909117905560c088015160018201805461ffff60601b191660609290921b61ffff60601b1691909117905560e088015160018201805461ffff60701b191660709290921b61ffff60701b169190911790556101008801516001820180546101208b01516101408c015163ffffffff60801b1990921660809490941b60ff60801b169390931760889390931b61ffff60881b169290921760989290921b60ff60981b1691909117905561016088015160018201805460ff60a01b191660a09290921b60ff60a01b1691909117905561018088015160018201805463ffffffff60a81b191660a89290921b63ffffffff60a81b169190911790556101a0880151600182015461ffff60d81b6101c08b015160d81b169161ffff60c81b9060c81b169063ffffffff60c81b1916171760018201556101e08801516002820155600381016123fe6102008a01511515829060ff801983541691151516179055565b61022089015161ff0082549160081b169061ff0019161790556102408801516004820155019501518051906001600160401b0382116103eb57600160401b82116103eb5760209087548389558084106124bb575b50019560005260206000209560005b8281106124a75760208780887fd638e6f92ec16c0790259233d5dacd11383b19666d58ad5497a4ef1e2b2c1ccc89896111796040519283928984521694888301906129c2565b60019060208351930192818a015501612461565b6124d29089600052848460002091820191016132ea565b88612452565b015190508a80612205565b908360005260206000209160005b601f198516811061253b575092610260949260019260059583601f19811610612522575b505050811b01815561221a565b015160001960f88460031b161c191690558a8080612515565b919260206001819286850151815501940192016124f1565b61257f90846000526020600020601f850160051c8101916020861061126357601f0160051c01906132ea565b886121e4565b6014915011158361209c565b50600a546001600160a01b03163314612085565b346102e45760003660031901126102e4576020600854604051908152f35b346102e45760803660031901126102e4576125dc6129e7565b506125e56129fd565b506064356001600160401b038082116102e457366023830112156102e45781600401359081116102e457369101602401116102e457604051630a85bd0160e11b8152602090f35b346102e45760203660031901126102e4576102ae600435611d3e61175d82612fca565b346102e45760203660031901126102e45760043580600052600b60205261268060ff600360406000200154166135b0565b600052600b6020526020600460406000200154604051908152f35b346102e45760403660031901126102e4576126b46129e7565b6024356126c081612fca565b3315158061276f575b80612742575b61272a576001600160a01b039283169282918491167f8c5be1e5ebec7d5bd14f71427d1e84f3dd0314c0f7b2291e5b200ac8c7c3b925600080a4600090815260046020526040902080546001600160a01b0319169091179055005b60405163a9fbf51f60e01b8152336004820152602490fd5b5060018060a01b038116600052600560205260406000203360005260205260ff60406000205416156126cf565b506001600160a01b0381163314156126c9565b346102e45760203660031901126102e45760043561279f81612fca565b506000526004602052602060018060a01b0360406000205416604051908152f35b346102e45760003660031901126102e457604051600080546127e181612bbb565b808452906001908181169081156115dd575060011461280a576107a58461157081860382612a66565b600080805292507f290decd9548b62a8d60345a988386fc84ba6bc95484008f6362f93160ef3e5635b82841061284b57505050810160200161157082611560565b80546020858701810191909152909301928101612833565b346102e45761287136612989565b33600052601160205260ff6040600020541680156128f0575b6128939061329e565b81600052600b602052600460406000206128b360ff6003830154166135b0565b01805491808301809311610654577fd5797dab595b44f56a7e57c5db78248d5e1a7d7b91842c5d0ac5326dec5fa2689260209255604051908152a2005b50600a546001600160a01b0316331461288a565b346102e45760203660031901126102e4576004359063ffffffff60e01b82168092036102e45760209163780e9d6360e01b8114908115612946575b5015158152f35b6380ac58cd60e01b811491508115612978575b8115612967575b508361293f565b6301ffc9a760e01b14905083612960565b635b5e139f60e01b81149150612959565b60409060031901126102e4576004359060243590565b60005b8381106129b25750506000910152565b81810151838201526020016129a2565b906020916129db8151809281855285808601910161299f565b601f01601f1916010190565b600435906001600160a01b03821682036102e457565b602435906001600160a01b03821682036102e457565b61028081019081106001600160401b038211176103eb57604052565b602081019081106001600160401b038211176103eb57604052565b61010081019081106001600160401b038211176103eb57604052565b90601f801991011681019081106001600160401b038211176103eb57604052565b6001600160401b0381116103eb57601f01601f191660200190565b929192612aae82612a87565b91612abc6040519384612a66565b8294818452818301116102e4578281602093846000960137010152565b9080601f830112156102e457816020612af493359101612aa2565b90565b6024359060ff821682036102e457565b60409060031901126102e4576004359060243561ffff811681036102e45790565b60609060031901126102e4576001600160a01b039060043582811681036102e4579160243590811681036102e4579060443590565b60609060031901126102e45760043590602435906044356001600160a01b03811681036102e45790565b90815180825260208080930193019160005b828110612ba7575050505090565b835185529381019392810192600101612b99565b90600182811c92168015612beb575b6020831014612bd557565b634e487b7160e01b600052602260045260246000fd5b91607f1691612bca565b9060405191826000825492612c0984612bbb565b908184526001948581169081600014612c785750600114612c35575b5050612c3392500383612a66565b565b9093915060005260209081600020936000915b818310612c60575050612c3393508201013880612c25565b85548884018501529485019487945091830191612c48565b915050612c3394506020925060ff191682840152151560051b8201013880612c25565b600a546001600160a01b03163303612caf57565b60405163118cdaa760e01b8152336004820152602490fd5b6001600160a01b03168015612ce757600052600360205260406000205490565b6040516322718ad960e21b815260006004820152602490fd5b6001600160a01b03828116939184156112865760009483865260209560028752604096848883205416151580612fc2575b612f7f57858252600281528488832054169633151580612ef1575b5087158015612ebe575b84845260038352898420805460010190558784526002835289842080546001600160a01b0319168617905587858a7fddf252ad1be2c89b69c2b068fc378daa952ba7f163c4a11628f55a4df523b3ef8780a415612e52576008548784526009835289842055612dc487613f61565b838803612e00575b505050501692838303612ddf5750505050565b6064945051926364283d7b60e01b8452600484015260248301526044820152fd5b612e0990612cc7565b600019810193908411612e3e5782916007918a9452600681528383208584528152878484205587835252205538808080612dcc565b634e487b7160e01b83526011600452602483fd5b878414612dc457612e6288612cc7565b878452600783528984205490898552600684528a852091818103612e9c575b5088855260078452848b812055845282528289812055612dc4565b8186528285528b862054818752808d8820558652600785528b86205538612e81565b600088815260046020526040902080546001600160a01b0319169055888452600383528984208054600019019055612d56565b80612f3e575b15612f025738612d4c565b888789612f1f576024915190637e27328960e01b82526004820152fd5b905163177e802f60e01b81523360048201526024810191909152604490fd5b503388148015612f63575b80612ef757508683526004825233868a8520541614612ef7565b5087835260058252888320338452825260ff8984205416612f49565b60649088519062461bcd60e51b82526004820152601e60248201527f506c61796572204e4654206973206e6f6e2d7472616e7366657261626c6500006044820152fd5b506001612d31565b6000818152600260205260409020546001600160a01b0316908115612fed575090565b60249060405190637e27328960e01b82526004820152fd5b60085481101561303c5760086000527ff3f7a9fe364faab93b216da50a3214154f22a0a2b415b23a84c8169e8b636ee30190600090565b634e487b7160e01b600052603260045260246000fd5b805482101561303c5760005260206000200190600090565b90803b613078575b50505050565b604051630a85bd0160e11b8082526001600160a01b03938416600483015260006024830181905260448301959095526080606483015260209693909216948690829081906130ca9060848301906129c2565b038187895af184918161316d575b50613138575050503d600014613130573d6130f281612a87565b906131006040519283612a66565b81528091843d92013e5b8051928361312b57604051633250574960e11b815260048101849052602490fd5b019050fd5b50606061310a565b919450915063ffffffff60e01b1603613155575038808080613072565b60249060405190633250574960e11b82526004820152fd5b9091508681813d83116131aa575b6131858183612a66565b810103126131a657516001600160e01b0319811681036131a65790386130d8565b8480fd5b503d61317b565b909192833b6131c2575b5050505050565b604051630a85bd0160e11b8082526001600160a01b0393841660048301529383166024820152604481019190915260806064820152602095919093169390919083906132129060848301906129c2565b039285816000958187895af184918161325e575b50613240575050503d600014613130573d6130f281612a87565b919450915063ffffffff60e01b1603613155575038808080806131bb565b9091508681813d8311613297575b6132768183612a66565b810103126131a657516001600160e01b0319811681036131a6579038613226565b503d61326c565b156132a557565b60405162461bcd60e51b815260206004820152600e60248201526d139bdd08185d5d1a1bdc9a5e995960921b6044820152606490fd5b60001981146106545760010190565b8181106132f5575050565b600081556001016132ea565b1561330857565b60405162461bcd60e51b815260206004820152600f60248201526e2737ba103cb7bab910383630bcb2b960891b6044820152606490fd5b908160209103126102e457516001600160a01b03811681036102e45790565b1561336557565b60405162461bcd60e51b815260206004820152602160248201527f45717569706d656e74206e6f74206f776e656420627920506c61796572204e466044820152601560fa1b6064820152608490fd5b519060ff821682036102e457565b519061ffff821682036102e457565b90602080838303126102e45782516001600160401b03938482116102e45701906101409384838503126102e457604051948501858110828211176103eb5760405261341b836133b4565b85526134288284016133b4565b82860152613438604084016133b4565b6040860152613449606084016133b4565b606086015261345a608084016133c2565b608086015261346b60a084016133c2565b60a086015261347c60c084016133c2565b60c086015261348d60e084016133b4565b60e08601526101006134a08185016133c2565b9086015261012092838101519182116102e4570183601f820112156102e4578051906134cb82612a87565b946134d96040519687612a66565b8286528383830101116102e457826134f4938601910161299f565b82015290565b1561350157565b60405162461bcd60e51b815260206004820152601960248201527f4e6f2065717569706d656e7420696e207468697320736c6f74000000000000006044820152606490fd5b7fdd6c2917d1e02a67ec138d7256c5e5bd4ad336853326c7447c5e9df8962f64856020600093838552600c825260ff6040862091169081865282526040852054946135928615156134fa565b848152600c83526040812082825283526040812055604051908152a3565b156135b757565b60405162461bcd60e51b8152602060048201526011602482015270506c61796572206e6f742065786973747360781b6044820152606490fd5b90606461ffff8093160291821691820361065457565b63ffffffff918216908216039190821161065457565b90600a61ffff8093160191821161065457565b90600161ffff8093160191821161065457565b91909161ffff8080941691160191821161065457565b60ff60029116019060ff821161065457565b9060ff8091169116019060ff821161065457565b6000818152600b60205260408082209160ff61369f816003860154166135b0565b60018094019061ffff92838354169580856136b9896135f0565b16905b61370a575b5050505054168281116136d45750505050565b7fcb87150b71232fb2a7e7963e74eabb8aae5af9bea6e40c788313d9a2fbfe37419282519182526020820152a238808080613072565b845463ffffffff9087828260101c169284168310159182613911575b50501561390b576137589161373a91613606565b855465ffffffff0000191660109190911b65ffffffff000016178555565b83548581168681146138f757866137a49281856137839401169061ffff191617808855891c1661361c565b855469ffff0000000000000000191660409190911b61ffff60401b16178555565b6137d56137b686865460301c1661361c565b855467ffff000000000000191660309190911b61ffff60301b16178555565b600285855460501c1601858111612e3e57845461ffff60501b191660509190911b61ffff60501b1617845561382e61381286865460601c1661362f565b855461ffff60601b191660609190911b61ffff60601b16178555565b61385c61384086865460701c1661362f565b855461ffff60701b191660709190911b61ffff60701b16178555565b82845486600a818316061615806138e8575b61388a575b50508085613883818754166135f0565b16906136bc565b6138b59161389b9160a01c16613658565b855460ff60a01b191660a09190911b60ff60a01b16178555565b6138e16138c784865460981c16613658565b855460ff60981b191660989190911b60ff60981b16178555565b8238613873565b506032828260a01c161061386e565b634e487b7160e01b84526011600452602484fd5b506136c1565b6064925016108738613726565b9060ff8091169116039060ff821161065457565b91909163ffffffff8080941691160191821161065457565b80600052600b6020526040600020600160ff9161396c836003830154166135b0565b0190815490610e1063ffffffff9282828561398e818560a81c16824216613606565b1604169081151580613a8c575b6139a9575b50505050505050565b8184809392816139bf818360981c16948561366a565b9160a01c169182911611613a71575b506139dc826139f69261366a565b875460ff60981b191660989190911b60ff60981b16178755565b16029282841693840361065457613a59613a397f9ecbaaa6d39a152e2d07216c668ca50812fc6ddbcceab06f01e22919aa6354e295602095845460a81c16613932565b825463ffffffff60a81b191660a89190911b63ffffffff60a81b16178255565b5460981c16604051908152a2388080808080806139a0565b819250613a846139f6926139dc9261391e565b9291506139ce565b50838160a01c16848260981c161061399b565b9060405191828154918282526020928383019160005283600020936000905b828210613ad457505050612c3392500383612a66565b855484526001958601958895509381019390910190613abe565b60ff1660ff81146106545760010190565b600052600b602052604060002060405191613b1983612a13565b613b2282612bf5565b835260018201549261ffff93848116602083015263ffffffff808260101c166040840152858260301c166060840152858260401c166080840152858260501c1660a0840152858260601c1660c0840152858260701c1660e084015260ff94858360801c16610100850152868360881c16610120850152610140840193868460981c168552610160810197878560a01c168952610180820194848160a81c168652818160c81c166101a084015260d81c166101c082015260028201546101e0820152610260613c1a60056003850154948a6102008601968181161515885260081c16610220860152600481015461024086015201613a9f565b9101525115613ca857610e1081613c3987949385945116824216613606565b1604169151169381151580613c9c575b613c59575b505081169116101590565b9083929483613c809381613c6d858561366a565b9151169182911611613c88575b5061366a565b929038613c4e565b81925090613c959161391e565b9038613c7a565b50838151168510613c49565b505050505050600090565b9060008181526020916002835260018060a01b0390604091808385205416151580613f56575b613f125781845260028552808385205416958615918215613edf575b8116918215908115613ec9575b8487526002885285872080546001600160a01b0319168517905584848a7fddf252ad1be2c89b69c2b068fc378daa952ba7f163c4a11628f55a4df523b3ef8a80a415613e5d576008548487526009885285872055613d5f84613f61565b15613e0857505060085460001994858201918211613df45790600983928695948652818152613d918587205493613005565b90549060031b1c613da5816103c986613005565b865252828420558252812055600854908115613de0575001613dda613dc982613005565b8154906000199060031b1b19169055565b60085590565b634e487b7160e01b81526031600452602490fd5b634e487b7160e01b85526011600452602485fd5b81879693929695949503613e20575b50505050505090565b613e2990612cc7565b6000198101959086116138f75783526006825283832085845282528383208190558252600790522055388080808080613e17565b878314613d5f57613e6d88612cc7565b8487526007885285872054908988526006895286882091818103613ea7575b50858852600789528787812055875287528585812055613d5f565b818952828a5287892054818a5280898b2055895260078a528789205538613e8c565b8387526003885285872060018154019055613d02565b600084815260046020526040902080546001600160a01b0319169055878652600387528486208054600019019055613cf5565b825162461bcd60e51b815260048101869052601e60248201527f506c61796572204e4654206973206e6f6e2d7472616e7366657261626c6500006044820152606490fd5b508086161515613cd9565b60085490600160401b8210156103eb576103c9826001612c339401600855613005565b92909192600092818452602090600b8252604080862095600397613fad60ff8a8a0154166135b0565b613fb686612fca565b6001600160a01b03918216999082168a90036141865797600501825b8154808210156141445786613fe78385613052565b9054908d1b1c146140015750613ffc906132db565b613fd2565b9192939495969798996000199283810190811161413057614036929161402a6103c99287613052565b9054911b1c9185613052565b8154801561411c57019061404d613dc98383613052565b55600f541690813b1561411957825191632142170760e11b8352818360648183600495308784015260249e8f8401528a60448401525af1801561410f576140be575b5050507fabe54a087d596431381f3d75fc2a553eb5cb2d1be3d22f671159a412780690849394955051908152a2565b6001600160401b0383116140fd575050815293945084937fabe54a087d596431381f3d75fc2a553eb5cb2d1be3d22f671159a41278069084388061408f565b634e487b7160e01b8252604190528790fd5b84513d84823e3d90fd5b80fd5b634e487b7160e01b85526031600452602485fd5b634e487b7160e01b87526011600452602487fd5b60648887519062461bcd60e51b825280600483015260248201527f45717569706d656e74206e6f7420666f756e6420696e20696e76656e746f72796044820152fd5b835162461bcd60e51b815260048101879052601060248201526f2737ba10383630bcb2b91037bbb732b960811b6044820152606490fd5b600052602090600b825260406000209160ff60038401541615614223576141e76005809401613a9f565b60005b815181101561421957838382871b840101511461420f5761420a906132db565b6141ea565b5050505050600190565b5050505050600090565b50505060009056fea2646970667358221220aedf9fc05764ad8b257e4eeb83d65f423ddb2942e0f5da46028b9d4fb7dd8fa964736f6c63430008140033",
  "linkReferences": {},
  "deployedLinkReferences": {}
}