{
  "_format": "hh-sol-artifact-1",
  "contractName": "EquipmentSystem",
  "sourceName": "contracts/EquipmentSystem.sol",
  "abi": [
    {
      "inputs": [
        {
          "internalType": "address",
          "name": "_equipmentNFT",
          "type": "address"
        },
        {
          "internalType": "address",
          "name": "_goldToken",
          "type": "address"
        }
      ],
      "stateMutability": "nonpayable",
      "type": "constructor"
    },
    {
      "inputs": [
        {
          "internalType": "address",
          "name": "owner",
          "type": "address"
        }
      ],
      "name": "OwnableInvalidOwner",
      "type": "error"
    },
    {
      "inputs": [
        {
          "internalType": "address",
          "name": "account",
          "type": "address"
        }
      ],
      "name": "OwnableUnauthorizedAccount",
      "type": "error"
    },
    {
      "anonymous": false,
      "inputs": [
        {
          "indexed": true,
          "internalType": "uint256",
          "name": "tokenId",
          "type": "uint256"
        },
        {
          "indexed": false,
          "internalType": "uint8",
          "name": "oldLevel",
          "type": "uint8"
        },
        {
          "indexed": false,
          "internalType": "uint8",
          "name": "newLevel",
          "type": "uint8"
        }
      ],
      "name": "EquipmentEnhanced",
      "type": "event"
    },
    {
      "anonymous": false,
      "inputs": [
        {
          "indexed": true,
          "internalType": "uint256",
          "name": "tokenId",
          "type": "uint256"
        },
        {
          "indexed": false,
          "internalType": "uint8",
          "name": "oldStars",
          "type": "uint8"
        },
        {
          "indexed": false,
          "internalType": "uint8",
          "name": "newStars",
          "type": "uint8"
        }
      ],
      "name": "EquipmentStarUpgraded",
      "type": "event"
    },
    {
      "anonymous": false,
      "inputs": [
        {
          "indexed": true,
          "internalType": "uint256",
          "name": "tokenId",
          "type": "uint256"
        },
        {
          "indexed": false,
          "internalType": "string",
          "name": "reason",
          "type": "string"
        }
      ],
      "name": "EquipmentUpgradeFailed",
      "type": "event"
    },
    {
      "anonymous": false,
      "inputs": [
        {
          "indexed": true,
          "internalType": "address",
          "name": "previousOwner",
          "type": "address"
        },
        {
          "indexed": true,
          "internalType": "address",
          "name": "newOwner",
          "type": "address"
        }
      ],
      "name": "OwnershipTransferred",
      "type": "event"
    },
    {
      "inputs": [
        {
          "internalType": "uint256[]",
          "name": "tokenIds",
          "type": "uint256[]"
        }
      ],
      "name": "batchEnhance",
      "outputs": [],
      "stateMutability": "nonpayable",
      "type": "function"
    },
    {
      "inputs": [
        {
          "internalType": "uint256",
          "name": "tokenId",
          "type": "uint256"
        }
      ],
      "name": "decomposeEquipment",
      "outputs": [],
      "stateMutability": "nonpayable",
      "type": "function"
    },
    {
      "inputs": [
        {
          "internalType": "uint8",
          "name": "",
          "type": "uint8"
        }
      ],
      "name": "enhanceConfigs",
      "outputs": [
        {
          "internalType": "uint256",
          "name": "goldCost",
          "type": "uint256"
        },
        {
          "internalType": "uint8",
          "name": "successRate",
          "type": "uint8"
        },
        {
          "internalType": "uint16",
          "name": "statBonus",
          "type": "uint16"
        }
      ],
      "stateMutability": "view",
      "type": "function"
    },
    {
      "inputs": [
        {
          "internalType": "uint256",
          "name": "tokenId",
          "type": "uint256"
        }
      ],
      "name": "enhanceEquipment",
      "outputs": [],
      "stateMutability": "nonpayable",
      "type": "function"
    },
    {
      "inputs": [
        {
          "internalType": "uint256",
          "name": "",
          "type": "uint256"
        }
      ],
      "name": "equipmentEnhanceLevel",
      "outputs": [
        {
          "internalType": "uint8",
          "name": "",
          "type": "uint8"
        }
      ],
      "stateMutability": "view",
      "type": "function"
    },
    {
      "inputs": [],
      "name": "equipmentNFT",
      "outputs": [
        {
          "internalType": "contract Equipment",
          "name": "",
          "type": "address"
        }
      ],
      "stateMutability": "view",
      "type": "function"
    },
    {
      "inputs": [
        {
          "internalType": "uint256",
          "name": "tokenId",
          "type": "uint256"
        }
      ],
      "name": "getEquipmentFullData",
      "outputs": [
        {
          "components": [
            {
              "internalType": "uint8",
              "name": "equipmentType",
              "type": "uint8"
            },
            {
              "internalType": "uint8",
              "name": "level",
              "type": "uint8"
            },
            {
              "internalType": "uint8",
              "name": "stars",
              "type": "uint8"
            },
            {
              "internalType": "uint8",
              "name": "rarity",
              "type": "uint8"
            },
            {
              "internalType": "uint16",
              "name": "attack",
              "type": "uint16"
            },
            {
              "internalType": "uint16",
              "name": "defense",
              "type": "uint16"
            },
            {
              "internalType": "uint16",
              "name": "agility",
              "type": "uint16"
            },
            {
              "internalType": "uint8",
              "name": "criticalRate",
              "type": "uint8"
            },
            {
              "internalType": "uint16",
              "name": "criticalDamage",
              "type": "uint16"
            },
            {
              "internalType": "string",
              "name": "name",
              "type": "string"
            }
          ],
          "internalType": "struct Equipment.EquipmentData",
          "name": "equipmentData",
          "type": "tuple"
        },
        {
          "internalType": "uint8",
          "name": "enhanceLevel",
          "type": "uint8"
        },
        {
          "internalType": "uint256",
          "name": "nextEnhanceCost",
          "type": "uint256"
        },
        {
          "internalType": "uint256",
          "name": "nextStarCost",
          "type": "uint256"
        }
      ],
      "stateMutability": "view",
      "type": "function"
    },
    {
      "inputs": [],
      "name": "goldToken",
      "outputs": [
        {
          "internalType": "contract AdventureGold",
          "name": "",
          "type": "address"
        }
      ],
      "stateMutability": "view",
      "type": "function"
    },
    {
      "inputs": [],
      "name": "owner",
      "outputs": [
        {
          "internalType": "address",
          "name": "",
          "type": "address"
        }
      ],
      "stateMutability": "view",
      "type": "function"
    },
    {
      "inputs": [],
      "name": "renounceOwnership",
      "outputs": [],
      "stateMutability": "nonpayable",
      "type": "function"
    },
    {
      "inputs": [
        {
          "internalType": "uint8",
          "name": "",
          "type": "uint8"
        }
      ],
      "name": "starConfigs",
      "outputs": [
        {
          "internalType": "uint256",
          "name": "goldCost",
          "type": "uint256"
        },
        {
          "internalType": "uint8",
          "name": "successRate",
          "type": "uint8"
        },
        {
          "internalType": "uint8",
          "name": "maxLevel",
          "type": "uint8"
        },
        {
          "internalType": "uint16",
          "name": "statMultiplier",
          "type": "uint16"
        }
      ],
      "stateMutability": "view",
      "type": "function"
    },
    {
      "inputs": [
        {
          "internalType": "address",
          "name": "newOwner",
          "type": "address"
        }
      ],
      "name": "transferOwnership",
      "outputs": [],
      "stateMutability": "nonpayable",
      "type": "function"
    },
    {
      "inputs": [
        {
          "internalType": "uint8",
          "name": "level",
          "type": "uint8"
        },
        {
          "components": [
            {
              "internalType": "uint256",
              "name": "goldCost",
              "type": "uint256"
            },
            {
              "internalType": "uint8",
              "name": "successRate",
              "type": "uint8"
            },
            {
              "internalType": "uint16",
              "name": "statBonus",
              "type": "uint16"
            }
          ],
          "internalType": "struct EquipmentSystem.EnhanceConfig",
          "name": "config",
          "type": "tuple"
        }
      ],
      "name": "updateEnhanceConfig",
      "outputs": [],
      "stateMutability": "nonpayable",
      "type": "function"
    },
    {
      "inputs": [
        {
          "internalType": "uint8",
          "name": "stars",
          "type": "uint8"
        },
        {
          "components": [
            {
              "internalType": "uint256",
              "name": "goldCost",
              "type": "uint256"
            },
            {
              "internalType": "uint8",
              "name": "successRate",
              "type": "uint8"
            },
            {
              "internalType": "uint8",
              "name": "maxLevel",
              "type": "uint8"
            },
            {
              "internalType": "uint16",
              "name": "statMultiplier",
              "type": "uint16"
            }
          ],
          "internalType": "struct EquipmentSystem.StarUpgradeConfig",
          "name": "config",
          "type": "tuple"
        }
      ],
      "name": "updateStarConfig",
      "outputs": [],
      "stateMutability": "nonpayable",
      "type": "function"
    },
    {
      "inputs": [
        {
          "internalType": "uint256",
          "name": "tokenId",
          "type": "uint256"
        }
      ],
      "name": "upgradeStars",
      "outputs": [],
      "stateMutability": "nonpayable",
      "type": "function"
    }
  ],
  "bytecode": "0x608034620003c357601f62001ee438819003918201601f19168301916001600160401b0383118484101762000384578084926040948552833981010312620003c3576200005a60206200005283620003e8565b9201620003e8565b903315620003aa5760008054336001600160a01b031980831682178455946001600160a01b0394909385939192918416907f8be0079c531659141344cd1fd0a4f28419497f9722a3daafe3b4186f6b6457e09080a31683600154161760015516906002541617600255620000cd620003c8565b683635c9adc5dea000008152602081019060508252604081016005815260ff60016060840193607885528160005260036020526040600020905181550193511661ff0063ffff000085549351945160101b169360081b169163ffffffff191617171790556200013b620003c8565b68878678326eac90000081526020810190604682526040810190600a825260ff6001606083019260968452600260005260036020526040600020905181550193511663ffff000061ff008554945160081b16925160101b169263ffffffff19161717179055620001aa620003c8565b69010f0cf064dd5920000081526020810190603c82526040810190600f825260ff6001606083019260c88452600360005260036020526040600020905181550193511663ffff000061ff008554945160081b16925160101b169263ffffffff191617171790556200021a620003c8565b69021e19e0c9bab24000008152603260208201526014604082015261012c6060820152600460005260036020526001604060002082518155019060ff6020820151169082549163ffff0000606061ff00604085015160081b1693015160101b169263ffffffff1916171717905560015b601460ff8216116200039a5768056bc75e2d631000009060ff81168083028190048314901517156200036e578060011b6101fe60fe8216911681036200036e5760ff81605f03116200036e57600560ff8316028060ff8116036200036e576040516001600160401b036060820190811190821117620003845760018160ff966060889401604052838716028152826020820195605f0316855282604082019416845282861660005260046020526040600020905181550192511662ffff008354925160081b169162ffffff1916171790551660ff81146200036e576001016200028a565b634e487b7160e01b600052601160045260246000fd5b634e487b7160e01b600052604160045260246000fd5b604051611ae69081620003fe8239f35b604051631e4fbdf760e01b815260006004820152602490fd5b600080fd5b60405190608082016001600160401b038111838210176200038457604052565b51906001600160a01b0382168203620003c35756fe608060408181526004908136101561001657600080fd5b60009260e08435811c918263093526cc146111c3575081631599622514610fc257816337e4bc4314610f685781634d39114f14610aea57816354f971a714610a9d578163715018a614610a4357816389eb68811461098b5781638da5cb5b1461096357816394002b571461093a578163962e0a1614610911578163aea17a2c146106b7578163b6d8b08114610620578163db363ec3146105f4578163ece40c9314610165575063f2fde38b146100cb57600080fd5b34610161576020366003190112610161576001600160a01b0382358181169391929084900361015d576100fc611470565b8315610147575050600054826bffffffffffffffffffffffff60a01b821617600055167f8be0079c531659141344cd1fd0a4f28419497f9722a3daafe3b4186f6b6457e0600080a380f35b51631e4fbdf760e01b8152908101849052602490fd5b8480fd5b8280fd5b9050839134610161576020806003193601126105f05784359260018060a01b03918260015416968451976331a9108f60e11b895286828a015260249883818b81855afa9081156105e657916101ca8a928c96959484916105b9575b50881633146114bb565b87519485809263040ee97d60e51b82528b868301525afa9283156105af57889361058b575b508583019060ff93600585845116101561055557848351168a5260038452878a209288519361021d8561141e565b6001815491828752015494868101918887168352888760081c168c83015261ffff809760101c1660608301521561051d578d908a6002541691888d5180926370a0823160e01b8252338a83015281865afa8015610511578f906104dd575b610289915082511115611641565b51813b156104d9578b51632770a7eb60e21b8152338782019081526020810192909252918e9183919082908490829060400103925af180156104cf57908d916104b7575b50508660646102dd8d4290611a6c565b069151161160001461045e57518516956102f687611681565b978689168c5260038652848a8d20968b51976103118961141e565b80548952600101549089821690890152888160081c168c89015260101c166060819701528480878160808701511690610349916116a9565b1660649004978180898160a08901511690610363916116a9565b1660649004988160c0880151169061037a916116a9565b1660649004938501511661038d90611681565b9361010001511660190194851161044a578b9c5060019b9798999a9b541692833b15610446576103d98a958d948a989489958f519b8c9a8b998a98630adf8aeb60e11b8a5289016116d8565b03925af1801561043c57610428575b5050915160ff9283168152911660208201527f75826579c86b7d5acc732de725eac005dddc341a0e9edd0b8de67b8d7c87971c9080604081015b0390a280f35b6104319061143a565b61015d5784866103e8565b85513d84823e3d90fd5b8780fd5b8c601185634e487b7160e01b600052526000fd5b50505050925050507f6b693c36f495de0da0fb0f1b5544b1b48aa5cf2f7e4c54c09df5055e11b8b6d0929394507214dd185c881d5c19dc9859194819985a5b1959606a1b8260136060945193808552840152820152a280f35b6104c09061143a565b6104cb578b8e6102cd565b8b80fd5b8b513d8f823e3d90fd5b8d80fd5b508881813d831161050a575b6104f3818361144e565b8101031261050557610289905161027b565b600080fd5b503d6104e9565b8f8e51903d90823e3d90fd5b50895162461bcd60e51b81528085018790526012818f015271125b9d985b1a59081cdd185c881b195d995b60721b6044820152606490fd5b875162461bcd60e51b81528083018590526011818d015270416c7265616479206d617820737461727360781b6044820152606490fd5b6105a89193503d808a833e6105a0818361144e565b810190611519565b91896101ef565b86513d8a823e3d90fd5b6105d99150863d88116105df575b6105d1818361144e565b81019061149c565b8d6101c0565b503d6105c7565b87513d8b823e3d90fd5b8380fd5b50509034610161576020366003190112610161578160209360ff92358152600585522054169051908152f35b5050346101615760803660031901126101615761063b6113af565b9160603660231901126105f05781519261065484611402565b60243584526106616113bf565b93602081019485526064359361ffff851685036105055760ff938460019483850197885261068d611470565b1688526020528620905181550192511662ffff008354925160081b169162ffffff19161717905580f35b8385843461090d57602090816003193601126101615760015481516331a9108f60e11b81528535818701819052602496926001600160a01b03929083169086818a81855afa9081156105af579161071d89928b959484916108f0575b50861633146114bb565b8651998a809263040ee97d60e51b825285898301525afa9788156108e65787986108ca575b508087526005865260ff85882054169760ff87820151169068056bc75e2d63100000918281029281840414901517156108a4578660ff9101511690818002918083048114901517156108b657681b1ae4d6e2ef500000918281029281840414901517156108a457680ad78ebc5ac6200000998a81029a818c0414901517156108a45788996107d56005936107da93611717565b611717565b8289529652848720805460ff191690556001548316803b15610446578792839287519485938492630852cd8d60e31b8452898401525af1801561089a57908691610886575b50506002541692833b1561015d5782516340c10f1960e01b815233928101928352602083019190915292849184919082908490829060400103925af190811561087d575061086a5750f35b6108739061143a565b61087a5780f35b80fd5b513d84823e3d90fd5b61088f9061143a565b61015d57848761081f565b84513d88823e3d90fd5b634e487b7160e01b8952601186528389fd5b83601187634e487b7160e01b600052526000fd5b6108df9198503d8089833e6105a0818361144e565b9688610742565b85513d89823e3d90fd5b61090791508a3d8c116105df576105d1818361144e565b8c610713565b5080fd5b84833461090d578160031936011261090d5760015490516001600160a01b039091168152602090f35b84833461090d578160031936011261090d5760025490516001600160a01b039091168152602090f35b84833461090d578160031936011261090d57905490516001600160a01b039091168152602090f35b84833461090d5760a036600319011261090d576109a66113af565b60803660231901126101615781516109bd8161141e565b60243581526109ca6113bf565b92602082019384526064359260ff84168403610505578183019384526084359261ffff841684036105055760ff928360019360608401968752610a0b611470565b16885260036020528720905181550193511663ffff000061ff008554945160081b16925160101b169263ffffffff1916171717905580f35b843461087a578060031936011261087a57610a5c611470565b600080546001600160a01b0319811682556001600160a01b03167f8be0079c531659141344cd1fd0a4f28419497f9722a3daafe3b4186f6b6457e08280a380f35b5050903461016157602036600319011261016157606092829160ff610ac06113af565b168252602052209061ffff60018354930154825193845260ff8116602085015260081c1690820152f35b84848434610161576020806003193601126105f05782359260018060a01b03958660015416928451976331a9108f60e11b895286848a015260249882818b81895afa9081156105e65790610b49918a91610f4b575b50821633146114bb565b8688526005825260ff9384878a205416956014871015610f095790898b939289519485809263040ee97d60e51b82528d868301525afa928315610eff578a93610ee3575b5087830193868551168b5260038152888b209060018a5192610bae8461141e565b8054845201549188831682820152888360081c1690818c820152606061ffff809560101c16910152891015610ea2578b9c88610bee8b9c9d9e9a9b611681565b1689528382528b89209060018d5192610c0684611402565b805484520154998d848401938d8d168552868282019d60081c168d52886002541691516370a0823160e01b8152338982015286818681865afa8015610e93578490610e64575b610c5a915082511115611641565b51813b15610161578f51632770a7eb60e21b81523389820190815260208101929092529291839182908490829060400103925af18015610e5757610e44575b506001420190814211610e335750918e99979593918b8f9d9c9a989694610cc38f91606492611a6c565b0691511611600014610dd257600590610cdb8c611681565b9c8b52528b8920888c1660ff19825416179055610100610d0582608087015116838a5116906116c2565b9880610d30610d1e8560a08a015116868d5116906116c2565b9a858060c08b015116915116906116c2565b956001541697511697860151169401511695843b15610dce5788968d948894610d6d938f519b8c9a8b998a98630adf8aeb60e11b8a5289016116d8565b03925af1801561043c57610dba575b5050915160ff9283168152911660208201527fd1d738edc10bd8c584da49bac05635dfbcea7ab9ed1809fbd55f543a52b37f4f908060408101610422565b610dc39061143a565b61015d578486610d7c565b8880fd5b5050505050505050505050507f6b693c36f495de0da0fb0f1b5544b1b48aa5cf2f7e4c54c09df5055e11b8b6d090518061042281606090602081526012602082015271115b9a185b98d95b595b9d0819985a5b195960721b60408201520190565b8f601187634e487b7160e01b835252fd5b909e90610e509061143a565b9d8f610c99565b508f8e51903d90823e3d90fd5b508681813d8311610e8c575b610e7a818361144e565b810103126105f057610c5a9051610c4c565b503d610e70565b505050508d51903d90823e3d90fd5b82601e8e6064938d519362461bcd60e51b85528401528201527f456e68616e6365206c6576656c206c696d6974656420627920737461727300006044820152fd5b610ef89193503d808c833e6105a0818361144e565b918b610b8d565b88513d8c823e3d90fd5b875162461bcd60e51b81528083018590526019818d01527f416c7265616479206d617820656e68616e6365206c6576656c000000000000006044820152606490fd5b610f629150843d86116105df576105d1818361144e565b8b610b3f565b84833461090d57602036600319011261090d5761ffff8160809360ff610f8c6113af565b168152600360205220916001835493015490805193845260ff8216602085015260ff8260081c169084015260101c166060820152f35b5050903461016157602090816003193601126105f05767ffffffffffffffff81358181116111bf57366023820112156111bf57808301359182116111bf576024948582019160059087369186841b01011161044657875b848110611024578880f35b600180546001600160a01b039081168961103f858a8a611724565b358c8b895194859384926331a9108f60e11b84528301525afa908c82156111b457918c9493918c9391611197575b508116331461109e575b50505050600019811461108c57600101611019565b634e487b7160e01b8952601186528789fd5b6110a9858a8a611724565b358d528582528c60ff8881818420541692601484106110cc575b50505050611077565b826110d961ffff95611681565b1681528d865220948951956110ed87611402565b8054875201549081168486015260081c1687840152600254168651938480926370a0823160e01b8252338d8301525afa91821561118d578b9261115a575b50511115611141575b873888818080888f6110c3565b61115561114f828787611724565b3561174a565b611134565b9091508881813d8311611186575b611172818361144e565b810103126111825751903861112b565b8a80fd5b503d611168565b85513d8d823e3d90fd5b6111ae9150833d85116105df576105d1818361144e565b3861106d565b8751903d90823e3d90fd5b8580fd5b91509293913461016157602091826003193601126105f0578535916111e7826113cf565b848252848483015284818301528460608301528460808301528460a08301528460c083015284868301526101009685888401526060610120809401528592602487958860018060a01b036001541686519384809263040ee97d60e51b825285898301525afa918215611382578992611366575b5088526005875260ff809a81868b2054169460148610611348575b5085830199828b511660058110611335575b505085519b8c9a60808c528185511660808d0152818b8601511660a08d0152511660c08b0152816060840151168b8b015261ffff9182608085015116828c01528260a085015116858c01528260c0850151169b6101409c8d8d0152840151166101608b0152820151166101808901520151966101a0870152865194856101c088015261131c866101e099838b8b01910161138c565b8601528401526060830152601f01601f19168101030190f35b815260038a528690205497503880611287565b9190965061135585611681565b168952875289848920549538611275565b61137b9192503d808b833e6105a0818361144e565b903861125a565b85513d8b823e3d90fd5b60005b83811061139f5750506000910152565b818101518382015260200161138f565b6004359060ff8216820361050557565b6044359060ff8216820361050557565b610140810190811067ffffffffffffffff8211176113ec57604052565b634e487b7160e01b600052604160045260246000fd5b6060810190811067ffffffffffffffff8211176113ec57604052565b6080810190811067ffffffffffffffff8211176113ec57604052565b67ffffffffffffffff81116113ec57604052565b90601f8019910116810190811067ffffffffffffffff8211176113ec57604052565b6000546001600160a01b0316330361148457565b60405163118cdaa760e01b8152336004820152602490fd5b9081602091031261050557516001600160a01b03811681036105055790565b156114c257565b60405162461bcd60e51b8152602060048201526012602482015271139bdd081e5bdd5c88195c5d5a5c1b595b9d60721b6044820152606490fd5b519060ff8216820361050557565b519061ffff8216820361050557565b906020808383031261050557825167ffffffffffffffff93848211610505570190610140828403126105055760405193611552856113cf565b61155b836114fc565b85526115688284016114fc565b82860152611578604084016114fc565b6040860152611589606084016114fc565b606086015261159a6080840161150a565b60808601526115ab60a0840161150a565b60a08601526115bc60c0840161150a565b60c08601526115cd60e084016114fc565b60e08601526101006115e081850161150a565b90860152610120928381015190828211610505570184601f820112156105055780519182116113ec5760405194611620601f8401601f191685018761144e565b828652838383010111610505578261163b938601910161138c565b82015290565b1561164857565b60405162461bcd60e51b8152602060048201526011602482015270125b9cdd59999a58da595b9d0819dbdb19607a1b6044820152606490fd5b60ff60019116019060ff821161169357565b634e487b7160e01b600052601160045260246000fd5b91909161ffff8080941691160291821691820361169357565b91909161ffff8080941691160191821161169357565b959097969260c09560ff809460e08a019b8a5216602089015261ffff80968180941660408b01521660608901521660808701521660a085015216910152565b9190820180921161169357565b91908110156117345760051b0190565b634e487b7160e01b600052603260045260246000fd5b60008181526020906005825260ff9060409260248385842054169360018060a01b039084826001541688519485809263040ee97d60e51b82528c60048301525afa928315611a62578593611a46575b5086830191818351168652600385528786209360018951956117ba8761141e565b8054875201549483861687820152838660081c1690818b820152606061ffff809860101c16910152881015611a3a57826117f389611681565b1687526004865288872095895161180981611402565b6001885498898352015497878c84840193888c168552019960081c168952846002541690813b15611182578c51632770a7eb60e21b81523360048201526024810191909152908a908290604490829084905af18015611a30578d918c91611a10575b50611883879261187d60649342611717565b90611a6c565b06915116116000146119b257600561189a8a611681565b918c8a5252838a8920911660ff198254161790556118c28560808301511686885116906116c2565b94610100846118f06118de8460a087015116858c5116906116c2565b99848060c088015116915116906116c2565b94600154169651169460e0840151169201511691843b1561044657611933889695949387938d938d519a8b998a988997630adf8aeb60e11b8952600489016116d8565b03925af180156119a857611994575b5050908161198f6119737fd1d738edc10bd8c584da49bac05635dfbcea7ab9ed1809fbd55f543a52b37f4f94611681565b925160ff92831681529190921660208201529081906040820190565b0390a2565b61199e829161143a565b61087a5780611942565b84513d84823e3d90fd5b5050505050505050507f6b693c36f495de0da0fb0f1b5544b1b48aa5cf2f7e4c54c09df5055e11b8b6d090518061198f81606090602081526012602082015271115b9a185b98d95b595b9d0819985a5b195960721b60408201520190565b879261187d6064939d611a256118839461143a565b9d935050925061186b565b8c513d8c823e3d90fd5b50505050505050505050565b611a5b9193503d8087833e6105a0818361144e565b9138611799565b87513d87823e3d90fd5b906040519060208201924284523360601b6040840152605483015260748201526074815260a0810181811067ffffffffffffffff8211176113ec576040525190209056fea26469706673582212204526b7cd4568de9109c0ed32f5d4b17bcb1b944850f0833a21bcdcc8e6fc2fc164736f6c63430008140033",
  "linkReferences": {},
  "deployedLinkReferences": {}
}