{
  "_format": "hh-sol-artifact-1",
  "contractName": "TreasureBoxSystem",
  "sourceName": "contracts/TreasureBoxSystem.sol",
  "abi": [
    {
      "inputs": [
        {
          "internalType": "address",
          "name": "_goldToken",
          "type": "address"
        },
        {
          "internalType": "address",
          "name": "_equipmentNFT",
          "type": "address"
        }
      ],
      "stateMutability": "nonpayable",
      "type": "constructor"
    },
    {
      "inputs": [
        {
          "internalType": "address",
          "name": "owner",
          "type": "address"
        }
      ],
      "name": "OwnableInvalidOwner",
      "type": "error"
    },
    {
      "inputs": [
        {
          "internalType": "address",
          "name": "account",
          "type": "address"
        }
      ],
      "name": "OwnableUnauthorizedAccount",
      "type": "error"
    },
    {
      "anonymous": false,
      "inputs": [
        {
          "indexed": true,
          "internalType": "address",
          "name": "player",
          "type": "address"
        },
        {
          "indexed": false,
          "internalType": "uint8",
          "name": "boxCount",
          "type": "uint8"
        }
      ],
      "name": "OfflineBoxesClaimed",
      "type": "event"
    },
    {
      "anonymous": false,
      "inputs": [
        {
          "indexed": true,
          "internalType": "address",
          "name": "previousOwner",
          "type": "address"
        },
        {
          "indexed": true,
          "internalType": "address",
          "name": "newOwner",
          "type": "address"
        }
      ],
      "name": "OwnershipTransferred",
      "type": "event"
    },
    {
      "anonymous": false,
      "inputs": [
        {
          "indexed": true,
          "internalType": "address",
          "name": "player",
          "type": "address"
        },
        {
          "indexed": false,
          "internalType": "uint8",
          "name": "level",
          "type": "uint8"
        },
        {
          "indexed": false,
          "internalType": "uint8",
          "name": "rarity",
          "type": "uint8"
        }
      ],
      "name": "TreasureBoxAdded",
      "type": "event"
    },
    {
      "anonymous": false,
      "inputs": [
        {
          "indexed": true,
          "internalType": "address",
          "name": "player",
          "type": "address"
        },
        {
          "indexed": false,
          "internalType": "uint256",
          "name": "boxIndex",
          "type": "uint256"
        },
        {
          "indexed": false,
          "internalType": "uint8",
          "name": "rewardType",
          "type": "uint8"
        },
        {
          "indexed": false,
          "internalType": "uint256",
          "name": "goldAmount",
          "type": "uint256"
        },
        {
          "indexed": false,
          "internalType": "uint256[]",
          "name": "equipmentIds",
          "type": "uint256[]"
        }
      ],
      "name": "TreasureBoxOpened",
      "type": "event"
    },
    {
      "inputs": [],
      "name": "EQUIPMENT_PROBABILITY",
      "outputs": [
        {
          "internalType": "uint16",
          "name": "",
          "type": "uint16"
        }
      ],
      "stateMutability": "view",
      "type": "function"
    },
    {
      "inputs": [],
      "name": "GOLD_PROBABILITY",
      "outputs": [
        {
          "internalType": "uint16",
          "name": "",
          "type": "uint16"
        }
      ],
      "stateMutability": "view",
      "type": "function"
    },
    {
      "inputs": [],
      "name": "MULTIPLE_PROBABILITY",
      "outputs": [
        {
          "internalType": "uint16",
          "name": "",
          "type": "uint16"
        }
      ],
      "stateMutability": "view",
      "type": "function"
    },
    {
      "inputs": [
        {
          "internalType": "address",
          "name": "player",
          "type": "address"
        },
        {
          "internalType": "uint8",
          "name": "level",
          "type": "uint8"
        }
      ],
      "name": "addBattleTreasureBox",
      "outputs": [],
      "stateMutability": "nonpayable",
      "type": "function"
    },
    {
      "inputs": [
        {
          "internalType": "address",
          "name": "systemContract",
          "type": "address"
        }
      ],
      "name": "authorizeSystem",
      "outputs": [],
      "stateMutability": "nonpayable",
      "type": "function"
    },
    {
      "inputs": [
        {
          "internalType": "address",
          "name": "",
          "type": "address"
        }
      ],
      "name": "authorizedSystems",
      "outputs": [
        {
          "internalType": "bool",
          "name": "",
          "type": "bool"
        }
      ],
      "stateMutability": "view",
      "type": "function"
    },
    {
      "inputs": [],
      "name": "claimOfflineTreasureBoxes",
      "outputs": [
        {
          "internalType": "uint8",
          "name": "",
          "type": "uint8"
        }
      ],
      "stateMutability": "nonpayable",
      "type": "function"
    },
    {
      "inputs": [
        {
          "internalType": "address",
          "name": "playerAddress",
          "type": "address"
        }
      ],
      "name": "claimOfflineTreasureBoxesForPlayer",
      "outputs": [
        {
          "internalType": "uint8",
          "name": "",
          "type": "uint8"
        }
      ],
      "stateMutability": "nonpayable",
      "type": "function"
    },
    {
      "inputs": [],
      "name": "equipmentNFT",
      "outputs": [
        {
          "internalType": "contract Equipment",
          "name": "",
          "type": "address"
        }
      ],
      "stateMutability": "view",
      "type": "function"
    },
    {
      "inputs": [
        {
          "internalType": "address",
          "name": "player",
          "type": "address"
        }
      ],
      "name": "getClaimableOfflineBoxes",
      "outputs": [
        {
          "internalType": "uint8",
          "name": "",
          "type": "uint8"
        }
      ],
      "stateMutability": "view",
      "type": "function"
    },
    {
      "inputs": [
        {
          "internalType": "address",
          "name": "player",
          "type": "address"
        },
        {
          "internalType": "uint256",
          "name": "boxIndex",
          "type": "uint256"
        }
      ],
      "name": "getPlayerTreasureBox",
      "outputs": [
        {
          "components": [
            {
              "internalType": "uint8",
              "name": "level",
              "type": "uint8"
            },
            {
              "internalType": "uint8",
              "name": "rarity",
              "type": "uint8"
            },
            {
              "internalType": "uint32",
              "name": "createdTime",
              "type": "uint32"
            },
            {
              "internalType": "bool",
              "name": "opened",
              "type": "bool"
            }
          ],
          "internalType": "struct TreasureBoxSystem.TreasureBox",
          "name": "",
          "type": "tuple"
        }
      ],
      "stateMutability": "view",
      "type": "function"
    },
    {
      "inputs": [
        {
          "internalType": "address",
          "name": "player",
          "type": "address"
        }
      ],
      "name": "getPlayerTreasureBoxCount",
      "outputs": [
        {
          "internalType": "uint256",
          "name": "",
          "type": "uint256"
        }
      ],
      "stateMutability": "view",
      "type": "function"
    },
    {
      "inputs": [
        {
          "internalType": "address",
          "name": "player",
          "type": "address"
        }
      ],
      "name": "getPlayerTreasureBoxes",
      "outputs": [
        {
          "components": [
            {
              "internalType": "uint8",
              "name": "level",
              "type": "uint8"
            },
            {
              "internalType": "uint8",
              "name": "rarity",
              "type": "uint8"
            },
            {
              "internalType": "uint32",
              "name": "createdTime",
              "type": "uint32"
            },
            {
              "internalType": "bool",
              "name": "opened",
              "type": "bool"
            }
          ],
          "internalType": "struct TreasureBoxSystem.TreasureBox[]",
          "name": "",
          "type": "tuple[]"
        }
      ],
      "stateMutability": "view",
      "type": "function"
    },
    {
      "inputs": [
        {
          "internalType": "address",
          "name": "player",
          "type": "address"
        }
      ],
      "name": "getUnopenedBoxCount",
      "outputs": [
        {
          "internalType": "uint256",
          "name": "",
          "type": "uint256"
        }
      ],
      "stateMutability": "view",
      "type": "function"
    },
    {
      "inputs": [],
      "name": "goldToken",
      "outputs": [
        {
          "internalType": "contract AdventureGold",
          "name": "",
          "type": "address"
        }
      ],
      "stateMutability": "view",
      "type": "function"
    },
    {
      "inputs": [
        {
          "internalType": "address",
          "name": "",
          "type": "address"
        }
      ],
      "name": "lastOfflineBoxTime",
      "outputs": [
        {
          "internalType": "uint32",
          "name": "",
          "type": "uint32"
        }
      ],
      "stateMutability": "view",
      "type": "function"
    },
    {
      "inputs": [
        {
          "internalType": "uint256[]",
          "name": "boxIndices",
          "type": "uint256[]"
        }
      ],
      "name": "openMultipleTreasureBoxes",
      "outputs": [
        {
          "components": [
            {
              "internalType": "uint8",
              "name": "rewardType",
              "type": "uint8"
            },
            {
              "internalType": "uint256",
              "name": "goldAmount",
              "type": "uint256"
            },
            {
              "internalType": "uint256[]",
              "name": "equipmentIds",
              "type": "uint256[]"
            }
          ],
          "internalType": "struct TreasureBoxSystem.BoxReward",
          "name": "",
          "type": "tuple"
        }
      ],
      "stateMutability": "nonpayable",
      "type": "function"
    },
    {
      "inputs": [
        {
          "internalType": "uint256",
          "name": "boxIndex",
          "type": "uint256"
        }
      ],
      "name": "openTreasureBox",
      "outputs": [
        {
          "components": [
            {
              "internalType": "uint8",
              "name": "rewardType",
              "type": "uint8"
            },
            {
              "internalType": "uint256",
              "name": "goldAmount",
              "type": "uint256"
            },
            {
              "internalType": "uint256[]",
              "name": "equipmentIds",
              "type": "uint256[]"
            }
          ],
          "internalType": "struct TreasureBoxSystem.BoxReward",
          "name": "",
          "type": "tuple"
        }
      ],
      "stateMutability": "nonpayable",
      "type": "function"
    },
    {
      "inputs": [],
      "name": "owner",
      "outputs": [
        {
          "internalType": "address",
          "name": "",
          "type": "address"
        }
      ],
      "stateMutability": "view",
      "type": "function"
    },
    {
      "inputs": [
        {
          "internalType": "address",
          "name": "",
          "type": "address"
        },
        {
          "internalType": "uint256",
          "name": "",
          "type": "uint256"
        }
      ],
      "name": "playerTreasureBoxes",
      "outputs": [
        {
          "internalType": "uint8",
          "name": "level",
          "type": "uint8"
        },
        {
          "internalType": "uint8",
          "name": "rarity",
          "type": "uint8"
        },
        {
          "internalType": "uint32",
          "name": "createdTime",
          "type": "uint32"
        },
        {
          "internalType": "bool",
          "name": "opened",
          "type": "bool"
        }
      ],
      "stateMutability": "view",
      "type": "function"
    },
    {
      "inputs": [],
      "name": "renounceOwnership",
      "outputs": [],
      "stateMutability": "nonpayable",
      "type": "function"
    },
    {
      "inputs": [
        {
          "internalType": "address",
          "name": "systemContract",
          "type": "address"
        }
      ],
      "name": "revokeSystemAuthorization",
      "outputs": [],
      "stateMutability": "nonpayable",
      "type": "function"
    },
    {
      "inputs": [
        {
          "internalType": "address",
          "name": "newOwner",
          "type": "address"
        }
      ],
      "name": "transferOwnership",
      "outputs": [],
      "stateMutability": "nonpayable",
      "type": "function"
    }
  ],
  "bytecode": "0x608034620000ec57601f62001d3138819003918201601f19168301916001600160401b03831184841017620000f1578084926040948552833981010312620000ec576200005a6020620000528362000107565b920162000107565b3315620000d35760008054336001600160a01b0319808316821784556040519590946001600160a01b03949093859391908416907f8be0079c531659141344cd1fd0a4f28419497f9722a3daafe3b4186f6b6457e09080a31683600154161760015516906002541617600255611c1490816200011d8239f35b604051631e4fbdf760e01b815260006004820152602490fd5b600080fd5b634e487b7160e01b600052604160045260246000fd5b51906001600160a01b0382168203620000ec5756fe608080604052600436101561001357600080fd5b600090813560e01c908163032384e014610e2f575080630416d57014610db3578063085033d314610d8f5780630cdf918014610cbf5780630ea25e5f14610c9b57806321da13cc14610aee578063242717f114610a3a5780633ffb0a1a14610a1d5780636a09690014610673578063715018a61461061957806381f79e9c146105f2578063869ae742146105b15780638da5cb5b1461058a5780638f4f8cd01461056e57806394002b5714610545578063962e0a161461051c578063afaccc09146104dc578063b5a9bef71461049d578063baf89c2514610464578063c058540414610420578063e08e656c14610324578063f2fde38b146102945763f91c5c501461011e57600080fd5b3461029157604036600319011261029157610137610e4b565b60243560ff81169182820361028d57338452600560205260ff604085205416801561027a575b1561024457600183101580610239575b1561020057816101e76101a07f34a279094a12dd79d988f2260f0c82466a18f281802743702ec289334c28411594611390565b6001600160a01b0390931680875260036020526040808820905191966101c583610f43565b825260ff8516602083015263ffffffff42166040830152876060830152610fd5565b6040805160ff928316815292909116602083015290a280f35b60405162461bcd60e51b8152602060048201526011602482015270125b9d985b1a5908189bde081b195d995b607a1b6044820152606490fd5b50600a83111561016d565b60405162461bcd60e51b815260206004820152600e60248201526d139bdd08185d5d1a1bdc9a5e995960921b6044820152606490fd5b5083546001600160a01b0316331461015d565b8380fd5b80fd5b5034610291576020366003190112610291576102ae610e4b565b6102b6610eed565b6001600160a01b0390811690811561030b57600054826bffffffffffffffffffffffff60a01b821617600055167f8be0079c531659141344cd1fd0a4f28419497f9722a3daafe3b4186f6b6457e0600080a380f35b604051631e4fbdf760e01b815260048101849052602490fd5b5034610291576020908160031936011261029157906001600160a01b03610349610e4b565b1682526003815260408220805461035f81611368565b9061036d6040519283610fb3565b8082528382018093865284862086915b8383106103fa57505050506040519280840191818552518092526040840192945b8281106103ab5784840385f35b909192826080826103eb6001948a516060809160ff815116845260ff602082015116602085015263ffffffff604082015116604085015201511515910152565b0196019101949291909461039e565b600187819261040d859b9a98999b611b5f565b815201920192019190969493959661037d565b50346102915760203660031901126102915761043a610e4b565b610442610eed565b6001600160a01b03168152600560205260408120805460ff1916600117905580f35b5034610291576020366003190112610291576020906040906001600160a01b0361048c610e4b565b168152600383522054604051908152f35b50346102915760203660031901126102915760209060ff906040906001600160a01b036104c8610e4b565b168152600584522054166040519015158152f35b50346102915760203660031901126102915760209063ffffffff906040906001600160a01b0361050a610e4b565b16815260048452205416604051908152f35b50346102915780600319360112610291576002546040516001600160a01b039091168152602090f35b50346102915780600319360112610291576001546040516001600160a01b039091168152602090f35b5034610291578060031936011261029157602060405160968152f35b5034610291578060031936011261029157546040516001600160a01b039091168152602090f35b5034610291576020366003190112610291576105cb610e4b565b6105d3610eed565b6001600160a01b03168152600560205260408120805460ff1916905580f35b5034610291578060031936011261029157602061060e336110bd565b60ff60405191168152f35b5034610291578060031936011261029157610632610eed565b600080546001600160a01b0319811682556001600160a01b03167f8be0079c531659141344cd1fd0a4f28419497f9722a3daafe3b4186f6b6457e08280a380f35b5034610291576020366003190112610291576004359067ffffffffffffffff808311610a195736602384011215610a195782600401351161029157366024836004013560051b84010111610291576106c9611242565b508160040135151580610a0a575b156109d157604051906106e982610f7b565b808252604051916106f983610f5f565b600283528160208401526040830152805b8360040135821061072757604051806107238582610e94565b0390f35b909161073b83856004013560248701611380565b3533835261075460039182602052604085205411611263565b33835260205261077a6040832061077385876004013560248901611380565b3590610e66565b50906107b6825461079160ff8260301c16156112a3565b60ff80660100000000000066ff0000000000001984161780875560081c1691166114b2565b9160208301518061095d575b506107d56020840151602084015161109e565b6020830152604083015151610910575b506107fb6040820151516040840151519061109e565b9461080586611368565b956108136040519788610fb3565b808752610822601f1991611368565b01366020880137835b6040830151805182101561085d57906108478161085893611300565b51610852828a611300565b526112e4565b61082b565b505091939092805b6040860151805182101561089f57906108818161089a93611300565b516108526108948360408a01515161109e565b8a611300565b610865565b5050929361090a929560408601527f64ceffd217ffea3dc96012e37d7478c7c170f73838d5668f328b7dafe83306f26108e083886004013560248a01611380565b359160ff81511661090260406020840151930151604051938493339785611314565b0390a26112e4565b9061070a565b949192809491945b6040850151518110156109515761094c9061093e885460ff808260081c16911633611674565b610852826040890151611300565b610918565b509291945092386107e5565b6001546001600160a01b031690813b156109cd576040516340c10f1960e01b815233600482015260248101919091529085908290604490829084905af180156109c2579085916109ae575b506107c2565b6109b790610f19565b61028d5783386109a8565b6040513d87823e3d90fd5b8580fd5b60405162461bcd60e51b8152602060048201526011602482015270125b9d985b1a5908189bde0818dbdd5b9d607a1b6044820152606490fd5b50600a826004013511156106d7565b5080fd5b5034610291578060031936011261029157602060405161015e8152f35b503461029157604036600319011261029157610ab3610aad6080926040610a5f610e4b565b91602435928160608451610a7281610f43565b8281528260208201528286820152015260018060a01b03168082526003602052610aa0838320548510611263565b8152600360205220610e66565b50611b5f565b610aec60405180926060809160ff815116845260ff602082015116602085015263ffffffff604082015116604085015201511515910152565bf35b50346102915760203660031901126102915760043590610b0c611242565b503381526003602052610b2460408220548310611263565b3381526003602052610b398260408320610e66565b509081549160ff610b4f818560301c16156112a3565b66ff000000000000198416660100000000000017808355600894610b7991861c83169083166114b2565b936020850192835180610c31575b506040860194855151610be5575b61072387897f64ceffd217ffea3dc96012e37d7478c7c170f73838d5668f328b7dafe83306f28989610bd68a86511691519251604051938493339785611314565b0390a260405191829182610e94565b969092939591965b855151811015610c1e57610c1990610c0e85548780828d1c16911633611674565b610852828951611300565b610bed565b5095509391905081610bd6610723610b95565b6001546001600160a01b031690813b15610c97576040516340c10f1960e01b815233600482015260248101919091529086908290604490829084905af18015610c8c5715610b8757610c8590959195610f19565b9338610b87565b6040513d88823e3d90fd5b8680fd5b503461029157602036600319011261029157602061060e610cba610e4b565b6110bd565b503461029157602080600319360112610a1957610cda610e4b565b6001600160a01b03168252600381526040822080549092908190610cfd81611368565b94610d0b6040519687610fb3565b81865282528382208290858088015b848410610d715750505050505b8351811015610d68576060610d3c8286611300565b51015115610d53575b610d4e906112e4565b610d27565b90610d60610d4e916112e4565b919050610d45565b50604051908152f35b6001918291610d7f85611b5f565b8152019201920191908690610d1a565b503461029157602036600319011261029157602061060e610dae610e4b565b611b9d565b503461029157604036600319011261029157610dcd610e4b565b6001600160a01b0316815260036020526040812080546024359290831015610291576080610dfb8484610e66565b505460ff604051918181168352818160081c16602084015263ffffffff8160101c16604084015260301c1615156060820152f35b905034610a195781600319360112610a1957806101f460209252f35b600435906001600160a01b0382168203610e6157565b600080fd5b8054821015610e7e5760005260206000200190600090565b634e487b7160e01b600052603260045260246000fd5b906020908183528160a06040608086019360ff81511684880152838101518288015201519460608082015285518094520193019160005b828110610ed9575050505090565b835185529381019392810192600101610ecb565b6000546001600160a01b03163303610f0157565b60405163118cdaa760e01b8152336004820152602490fd5b67ffffffffffffffff8111610f2d57604052565b634e487b7160e01b600052604160045260246000fd5b6080810190811067ffffffffffffffff821117610f2d57604052565b6060810190811067ffffffffffffffff821117610f2d57604052565b6020810190811067ffffffffffffffff821117610f2d57604052565b6040810190811067ffffffffffffffff821117610f2d57604052565b90601f8019910116810190811067ffffffffffffffff821117610f2d57604052565b805468010000000000000000811015610f2d57610ff791600182018155610e66565b91909161105c57805182546020830151604084015160609094015166ffffffffffffff1990921660ff939093169290921760089290921b61ff00169190911760109290921b65ffffffff0000169190911790151560301b66ff00000000000016179055565b634e487b7160e01b600052600060045260246000fd5b63ffffffff918216908216039190821161108857565b634e487b7160e01b600052601160045260246000fd5b9190820180921161108857565b60ff60019116019060ff821161108857565b63ffffffff8042169160018060a01b031660009080825260049060209382855260ff9485610e106040936110f681868a2054168b611072565b1604169660648811611239575b86881680611117575b505050505050505090565b9091929394969885879997528784528489208363ffffffff19825416179055885b8a8116838110156111f95790877f34a279094a12dd79d988f2260f0c82466a18f281802743702ec289334c2841156111818d8f958a8c611188896111c29460039788914261109e565b06166110ab565b9361119285611390565b9588825283528c828220928051946111a986610f43565b8c881686528c8916908601528401526060830152610fd5565b8a5160ff918216815291166020820152604090a2168a81146111e657600101611138565b634e487b7160e01b8a526011895260248afd5b505098509291939550507fb21215581f2bf02817b3df357af23d42a65b54fbd0901349e2e63ab178165fe093955051908152a2388080808080808061110c565b60649750611103565b6040519061124f82610f5f565b606060408360008152600060208201520152565b1561126a57565b60405162461bcd60e51b8152602060048201526011602482015270092dcecc2d8d2c840c4def040d2dcc8caf607b1b6044820152606490fd5b156112aa57565b60405162461bcd60e51b8152602060048201526012602482015271109bde08185b1c9958591e481bdc195b995960721b6044820152606490fd5b60001981146110885760010190565b805115610e7e5760200190565b8051821015610e7e5760209160051b010190565b60a09060ff94939293608082019482526020958694168483015260408201526080606082015285518094520193019160005b828110611354575050505090565b835185529381019392810192600101611346565b67ffffffffffffffff8111610f2d5760051b60200190565b9190811015610e7e5760051b0190565b6040805142602082019081523360601b6bffffffffffffffffffffffff19169282019290925260f883901b6001600160f81b031916605482015260ff916103e8916113e881605581015b03601f198101835282610fb3565b5190200691166002811161140a5750610320111561140557600090565b600190565b6005811161143657506101f48110156114235750600090565b610352111561143157600190565b600290565b6008106114705761012c81101561144d5750600090565b6102bc81101561145d5750600190565b6103b6111561146b57600290565b600390565b60c881101561147f5750600090565b6101f481101561148f5750600190565b61032081101561149f5750600290565b6103b611156114ad57600390565b600490565b906114bb611242565b506040908151926103e8602094858101904282523360601b8682015260ff60f81b808560f81b1660548301528560f81b166055820152603681526114fe81610f5f565b519020066101f4811015611541575090611517916115d7565b9080519161152483610f7b565b6000835281519361153485610f5f565b6000855284015282015290565b929392610352111561158d5750509080519061155c82610f97565b600182528236818401376000611571836112f3565b52600081519361158085610f5f565b6001855284015282015290565b90611597916115d7565b918051916115a483610f97565b6001835280368185013760006115b9846112f3565b528151936115c685610f5f565b6002855260011c9084015282015290565b60ff1690600a820290828204600a148315171561108857678ac7230489e80000830291808304670de0b6b3a764000014901517156110885760ff169160018301809311611088576096830292808404609614811517156110885702685150ae84a8cdf0000002918115918304141715611088576064900490565b60005b8381106116645750506000910152565b8181015183820152602001611654565b604080514260208201908152606084901b6bffffffffffffffffffffffff19169282019290925260f884901b6001600160f81b03191660548201526116bc81605581016113da565b51902092600360ff84160260ff81169081036110885760ff6116dd85611b31565b169060ff6116ea86611b31565b1690603260ff85160261ffff81169081036110885760640161ffff81116110885780600360ff87161015611b15575b5061174581606461ffff61173d8383836117358199839b611b46565b160499611b46565b160494611b46565b1604611750846110ab565b91601960ff8616029361ffff85169485036110885761ffff85609601116110885760405195610100870187811067ffffffffffffffff821117610f2d578060405261179a81610f97565b600681526512195b1b595d60d21b61012089015287526040516117bc81610f97565b600581526420b936b7b960d91b602082015260208801526040516117df81610f97565b600581526453686f657360d81b6020820152604088015260405161180281610f97565b60068152652bb2b0b837b760d11b6020820152606088015260405161182681610f97565b600681526514da1a595b1960d21b6020820152608088015260405161184a81610f97565b60098152684163636573736f727960b81b602082015260a088015260405161187181610f97565b600481526352696e6760e01b602082015260c088015260405161189381610f97565b600381526214195d60ea1b602082015260e08801526040518060a081011067ffffffffffffffff60a083011117610f2d5760a081016040526118d760a08201610f97565b600660a082019081526521b7b6b6b7b760d11b60c083015281526040516118fd81610f97565b60088152672ab731b7b6b6b7b760c11b6020820152602082015260405161192381610f97565b60048152635261726560e01b6020820152604082015260405161194581610f97565b60048152634570696360e01b6020820152606082015260405161196781610f97565b60098152684c6567656e6461727960b81b60208201526080820152600560ff83161015610e7e57611fe08260051b16015196600860078c161015610e7e578a60051b60e016015196604051978189925190816020850191602001916119cb92611651565b820160208101600160fd1b9052815191826021830191602001916119ee92611651565b0103600181018852602101611a039088610fb3565b6002546001600160a01b031698611a19826110ab565b906040519b8c9a630150d33d60e21b8c52600160a01b600190031660048c015260071660248b015260ff1660448a015260ff16606489015260ff16608488015261ffff1660a487015261ffff1660c486015261ffff1660e485015260ff1661010484015260960161ffff16610124830152610144820161016090528181518061016483015261018492818484019160200191611ab492611651565b601f01601f191681010301815a602094600091f1908115611b0957600091611ada575090565b906020823d602011611b01575b81611af460209383610fb3565b8101031261029157505190565b3d9150611ae7565b6040513d6000823e3d90fd5b6064915061ffff16019061ffff82116110885790611745611719565b60011b906101fe60fe83169216820361108857565b91909161ffff8080941691160291821691820361108857565b90604051611b6c81610f43565b606060ff8294548181168452818160081c16602085015263ffffffff8160101c16604085015260301c161515910152565b60018060a01b0316600052600460205260ff610e1063ffffffff611bca8160406000205416824216611072565b16041660648111611bd85790565b5060649056fea2646970667358221220c76e1e73818dd3cd307aba6210193c4e7cb21c6644467ca95ea953e5b4c9554064736f6c63430008140033",
  "linkReferences": {},
  "deployedLinkReferences": {}
}