{
  "_format": "hh-sol-artifact-1",
  "contractName": "TreasureBoxSystem",
  "sourceName": "contracts/TreasureBoxSystem.sol",
  "abi": [
    {
      "inputs": [
        {
          "internalType": "address",
          "name": "_goldToken",
          "type": "address"
        },
        {
          "internalType": "address",
          "name": "_equipmentNFT",
          "type": "address"
        },
        {
          "internalType": "address",
          "name": "_playerNFT",
          "type": "address"
        }
      ],
      "stateMutability": "nonpayable",
      "type": "constructor"
    },
    {
      "inputs": [
        {
          "internalType": "address",
          "name": "owner",
          "type": "address"
        }
      ],
      "name": "OwnableInvalidOwner",
      "type": "error"
    },
    {
      "inputs": [
        {
          "internalType": "address",
          "name": "account",
          "type": "address"
        }
      ],
      "name": "OwnableUnauthorizedAccount",
      "type": "error"
    },
    {
      "anonymous": false,
      "inputs": [
        {
          "indexed": true,
          "internalType": "uint256",
          "name": "playerId",
          "type": "uint256"
        },
        {
          "indexed": false,
          "internalType": "uint256",
          "name": "boxCount",
          "type": "uint256"
        }
      ],
      "name": "OfflineBoxesClaimed",
      "type": "event"
    },
    {
      "anonymous": false,
      "inputs": [
        {
          "indexed": true,
          "internalType": "address",
          "name": "previousOwner",
          "type": "address"
        },
        {
          "indexed": true,
          "internalType": "address",
          "name": "newOwner",
          "type": "address"
        }
      ],
      "name": "OwnershipTransferred",
      "type": "event"
    },
    {
      "anonymous": false,
      "inputs": [
        {
          "indexed": true,
          "internalType": "uint256",
          "name": "playerId",
          "type": "uint256"
        },
        {
          "indexed": false,
          "internalType": "uint8",
          "name": "level",
          "type": "uint8"
        },
        {
          "indexed": false,
          "internalType": "uint8",
          "name": "rarity",
          "type": "uint8"
        }
      ],
      "name": "TreasureBoxAdded",
      "type": "event"
    },
    {
      "anonymous": false,
      "inputs": [
        {
          "indexed": true,
          "internalType": "uint256",
          "name": "playerId",
          "type": "uint256"
        },
        {
          "indexed": false,
          "internalType": "uint256",
          "name": "boxIndex",
          "type": "uint256"
        },
        {
          "indexed": false,
          "internalType": "uint8",
          "name": "rewardType",
          "type": "uint8"
        },
        {
          "indexed": false,
          "internalType": "uint256",
          "name": "goldAmount",
          "type": "uint256"
        },
        {
          "indexed": false,
          "internalType": "uint256[]",
          "name": "equipmentIds",
          "type": "uint256[]"
        },
        {
          "indexed": false,
          "internalType": "uint256",
          "name": "itemId",
          "type": "uint256"
        },
        {
          "indexed": false,
          "internalType": "string",
          "name": "itemName",
          "type": "string"
        },
        {
          "indexed": false,
          "internalType": "uint256",
          "name": "itemLevel",
          "type": "uint256"
        },
        {
          "indexed": false,
          "internalType": "uint256",
          "name": "healAmount",
          "type": "uint256"
        }
      ],
      "name": "TreasureBoxOpened",
      "type": "event"
    },
    {
      "inputs": [],
      "name": "COMMON_RARITY",
      "outputs": [
        {
          "internalType": "uint8",
          "name": "",
          "type": "uint8"
        }
      ],
      "stateMutability": "view",
      "type": "function"
    },
    {
      "inputs": [],
      "name": "CURRENT_LEVEL_PROBABILITY",
      "outputs": [
        {
          "internalType": "uint8",
          "name": "",
          "type": "uint8"
        }
      ],
      "stateMutability": "view",
      "type": "function"
    },
    {
      "inputs": [],
      "name": "EPIC_RARITY",
      "outputs": [
        {
          "internalType": "uint8",
          "name": "",
          "type": "uint8"
        }
      ],
      "stateMutability": "view",
      "type": "function"
    },
    {
      "inputs": [],
      "name": "GOLD_PROBABILITY",
      "outputs": [
        {
          "internalType": "uint8",
          "name": "",
          "type": "uint8"
        }
      ],
      "stateMutability": "view",
      "type": "function"
    },
    {
      "inputs": [],
      "name": "HEALTH_POTION_PROBABILITY",
      "outputs": [
        {
          "internalType": "uint8",
          "name": "",
          "type": "uint8"
        }
      ],
      "stateMutability": "view",
      "type": "function"
    },
    {
      "inputs": [],
      "name": "JOB_BOOK_PROBABILITY",
      "outputs": [
        {
          "internalType": "uint8",
          "name": "",
          "type": "uint8"
        }
      ],
      "stateMutability": "view",
      "type": "function"
    },
    {
      "inputs": [],
      "name": "LEGENDARY_RARITY",
      "outputs": [
        {
          "internalType": "uint8",
          "name": "",
          "type": "uint8"
        }
      ],
      "stateMutability": "view",
      "type": "function"
    },
    {
      "inputs": [],
      "name": "NEXT_LEVEL_PROBABILITY",
      "outputs": [
        {
          "internalType": "uint8",
          "name": "",
          "type": "uint8"
        }
      ],
      "stateMutability": "view",
      "type": "function"
    },
    {
      "inputs": [],
      "name": "PET_EGG_PROBABILITY",
      "outputs": [
        {
          "internalType": "uint8",
          "name": "",
          "type": "uint8"
        }
      ],
      "stateMutability": "view",
      "type": "function"
    },
    {
      "inputs": [],
      "name": "RARE_RARITY",
      "outputs": [
        {
          "internalType": "uint8",
          "name": "",
          "type": "uint8"
        }
      ],
      "stateMutability": "view",
      "type": "function"
    },
    {
      "inputs": [],
      "name": "UNCOMMON_RARITY",
      "outputs": [
        {
          "internalType": "uint8",
          "name": "",
          "type": "uint8"
        }
      ],
      "stateMutability": "view",
      "type": "function"
    },
    {
      "inputs": [
        {
          "internalType": "uint256",
          "name": "playerId",
          "type": "uint256"
        },
        {
          "internalType": "uint8",
          "name": "level",
          "type": "uint8"
        }
      ],
      "name": "addBattleTreasureBox",
      "outputs": [],
      "stateMutability": "nonpayable",
      "type": "function"
    },
    {
      "inputs": [
        {
          "internalType": "address",
          "name": "systemContract",
          "type": "address"
        }
      ],
      "name": "authorizeSystem",
      "outputs": [],
      "stateMutability": "nonpayable",
      "type": "function"
    },
    {
      "inputs": [
        {
          "internalType": "address",
          "name": "",
          "type": "address"
        }
      ],
      "name": "authorizedSystems",
      "outputs": [
        {
          "internalType": "bool",
          "name": "",
          "type": "bool"
        }
      ],
      "stateMutability": "view",
      "type": "function"
    },
    {
      "inputs": [
        {
          "internalType": "uint256",
          "name": "playerId",
          "type": "uint256"
        }
      ],
      "name": "claimOfflineTreasureBoxes",
      "outputs": [
        {
          "internalType": "uint256",
          "name": "",
          "type": "uint256"
        }
      ],
      "stateMutability": "nonpayable",
      "type": "function"
    },
    {
      "inputs": [
        {
          "internalType": "uint256",
          "name": "playerId",
          "type": "uint256"
        }
      ],
      "name": "claimOfflineTreasureBoxesForPlayer",
      "outputs": [
        {
          "internalType": "uint256",
          "name": "",
          "type": "uint256"
        }
      ],
      "stateMutability": "nonpayable",
      "type": "function"
    },
    {
      "inputs": [],
      "name": "equipmentNFT",
      "outputs": [
        {
          "internalType": "contract Equipment",
          "name": "",
          "type": "address"
        }
      ],
      "stateMutability": "view",
      "type": "function"
    },
    {
      "inputs": [
        {
          "internalType": "uint256",
          "name": "playerId",
          "type": "uint256"
        }
      ],
      "name": "getClaimableOfflineBoxes",
      "outputs": [
        {
          "internalType": "uint256",
          "name": "",
          "type": "uint256"
        }
      ],
      "stateMutability": "view",
      "type": "function"
    },
    {
      "inputs": [
        {
          "internalType": "uint256",
          "name": "playerId",
          "type": "uint256"
        },
        {
          "internalType": "uint256",
          "name": "boxIndex",
          "type": "uint256"
        }
      ],
      "name": "getPlayerTreasureBox",
      "outputs": [
        {
          "components": [
            {
              "internalType": "uint8",
              "name": "level",
              "type": "uint8"
            },
            {
              "internalType": "uint8",
              "name": "rarity",
              "type": "uint8"
            },
            {
              "internalType": "uint32",
              "name": "createdTime",
              "type": "uint32"
            },
            {
              "internalType": "bool",
              "name": "opened",
              "type": "bool"
            }
          ],
          "internalType": "struct TreasureBoxSystem.TreasureBox",
          "name": "",
          "type": "tuple"
        }
      ],
      "stateMutability": "view",
      "type": "function"
    },
    {
      "inputs": [
        {
          "internalType": "uint256",
          "name": "playerId",
          "type": "uint256"
        }
      ],
      "name": "getPlayerTreasureBoxCount",
      "outputs": [
        {
          "internalType": "uint256",
          "name": "",
          "type": "uint256"
        }
      ],
      "stateMutability": "view",
      "type": "function"
    },
    {
      "inputs": [
        {
          "internalType": "uint256",
          "name": "playerId",
          "type": "uint256"
        }
      ],
      "name": "getPlayerTreasureBoxes",
      "outputs": [
        {
          "components": [
            {
              "internalType": "uint8",
              "name": "level",
              "type": "uint8"
            },
            {
              "internalType": "uint8",
              "name": "rarity",
              "type": "uint8"
            },
            {
              "internalType": "uint32",
              "name": "createdTime",
              "type": "uint32"
            },
            {
              "internalType": "bool",
              "name": "opened",
              "type": "bool"
            }
          ],
          "internalType": "struct TreasureBoxSystem.TreasureBox[]",
          "name": "",
          "type": "tuple[]"
        }
      ],
      "stateMutability": "view",
      "type": "function"
    },
    {
      "inputs": [
        {
          "internalType": "uint256",
          "name": "playerId",
          "type": "uint256"
        }
      ],
      "name": "getUnopenedBoxCount",
      "outputs": [
        {
          "internalType": "uint256",
          "name": "",
          "type": "uint256"
        }
      ],
      "stateMutability": "view",
      "type": "function"
    },
    {
      "inputs": [],
      "name": "goldToken",
      "outputs": [
        {
          "internalType": "contract AdventureGold",
          "name": "",
          "type": "address"
        }
      ],
      "stateMutability": "view",
      "type": "function"
    },
    {
      "inputs": [
        {
          "internalType": "uint256",
          "name": "",
          "type": "uint256"
        }
      ],
      "name": "lastOfflineBoxTime",
      "outputs": [
        {
          "internalType": "uint256",
          "name": "",
          "type": "uint256"
        }
      ],
      "stateMutability": "view",
      "type": "function"
    },
    {
      "inputs": [
        {
          "internalType": "uint256",
          "name": "playerId",
          "type": "uint256"
        },
        {
          "internalType": "uint256",
          "name": "boxIndex",
          "type": "uint256"
        }
      ],
      "name": "openTreasureBox",
      "outputs": [
        {
          "components": [
            {
              "internalType": "uint8",
              "name": "rewardType",
              "type": "uint8"
            },
            {
              "internalType": "uint256",
              "name": "goldAmount",
              "type": "uint256"
            },
            {
              "internalType": "uint256[]",
              "name": "equipmentIds",
              "type": "uint256[]"
            },
            {
              "internalType": "uint256",
              "name": "itemId",
              "type": "uint256"
            },
            {
              "internalType": "string",
              "name": "itemName",
              "type": "string"
            },
            {
              "internalType": "uint8",
              "name": "itemLevel",
              "type": "uint8"
            },
            {
              "internalType": "uint256",
              "name": "healAmount",
              "type": "uint256"
            }
          ],
          "internalType": "struct TreasureBoxSystem.BoxReward",
          "name": "",
          "type": "tuple"
        }
      ],
      "stateMutability": "nonpayable",
      "type": "function"
    },
    {
      "inputs": [],
      "name": "owner",
      "outputs": [
        {
          "internalType": "address",
          "name": "",
          "type": "address"
        }
      ],
      "stateMutability": "view",
      "type": "function"
    },
    {
      "inputs": [],
      "name": "playerNFT",
      "outputs": [
        {
          "internalType": "contract Player",
          "name": "",
          "type": "address"
        }
      ],
      "stateMutability": "view",
      "type": "function"
    },
    {
      "inputs": [
        {
          "internalType": "uint256",
          "name": "",
          "type": "uint256"
        },
        {
          "internalType": "uint256",
          "name": "",
          "type": "uint256"
        }
      ],
      "name": "playerTreasureBoxes",
      "outputs": [
        {
          "internalType": "uint8",
          "name": "level",
          "type": "uint8"
        },
        {
          "internalType": "uint8",
          "name": "rarity",
          "type": "uint8"
        },
        {
          "internalType": "uint32",
          "name": "createdTime",
          "type": "uint32"
        },
        {
          "internalType": "bool",
          "name": "opened",
          "type": "bool"
        }
      ],
      "stateMutability": "view",
      "type": "function"
    },
    {
      "inputs": [],
      "name": "renounceOwnership",
      "outputs": [],
      "stateMutability": "nonpayable",
      "type": "function"
    },
    {
      "inputs": [
        {
          "internalType": "address",
          "name": "systemContract",
          "type": "address"
        }
      ],
      "name": "revokeSystemAuthorization",
      "outputs": [],
      "stateMutability": "nonpayable",
      "type": "function"
    },
    {
      "inputs": [
        {
          "internalType": "address",
          "name": "newOwner",
          "type": "address"
        }
      ],
      "name": "transferOwnership",
      "outputs": [],
      "stateMutability": "nonpayable",
      "type": "function"
    }
  ],
  "bytecode": "0x6080346200010957601f6200230c38819003918201601f19168301916001600160401b038311848410176200010e5780849260609460405283398101031262000109576200004d8162000124565b620000696040620000616020850162000124565b930162000124565b903315620000f057600080546001600160a01b03198082163390811784556040519691956001600160a01b039590948694859391908416907f8be0079c531659141344cd1fd0a4f28419497f9722a3daafe3b4186f6b6457e09080a31685600154161760015516836002541617600255169060035416176003556121d290816200013a8239f35b604051631e4fbdf760e01b815260006004820152602490fd5b600080fd5b634e487b7160e01b600052604160045260246000fd5b51906001600160a01b0382168203620001095756fe608080604052600436101561001357600080fd5b600090813560e01c908163032384e0146113645750806308456026146112fe5780630b783bce146112605780631077d072146111db5780631954035b146111b15780632704ed3c1461119557806329db60f11461117957806335f02b17146110485780633ced44de14611029578063405957b2146102975780634242d2b11461100d578063715018a614610fb35780637c755b5314610f97578063854b852d14610ed8578063869ae74214610e9357806388850d5f14610e6a5780638da5cb5b14610e4357806394002b5714610e1a578063962e0a1614610df1578063a9cd80ce14610450578063ac73b0bc14610362578063b5a9bef714610320578063bd71a52114610304578063bd7c40c7146102e8578063c05854041461029c578063cb338ea814610297578063cbc1e60f1461026d578063d4d8395114610246578063db2c0b911461022a578063f1a681031461020e5763f2fde38b1461017657600080fd5b3461020b57602036600319011261020b576004356001600160a01b0381811691829003610207576101a561142c565b81156101ee57600054826bffffffffffffffffffffffff60a01b821617600055167f8be0079c531659141344cd1fd0a4f28419497f9722a3daafe3b4186f6b6457e0600080a380f35b604051631e4fbdf760e01b815260048101849052602490fd5b8280fd5b80fd5b503461020b578060031936011261020b576020604051600d8152f35b503461020b578060031936011261020b576020604051600a8152f35b503461020b57602036600319011261020b576020610265600435612171565b604051908152f35b503461020b57602036600319011261020b5760406020916004358152600483522054604051908152f35b6113c8565b503461020b57602036600319011261020b576004356001600160a01b038116908190036102e4576102cb61142c565b8152600660205260408120805460ff1916600117905580f35b5080fd5b503461020b578060031936011261020b57602060405160028152f35b503461020b578060031936011261020b576020604051603c8152f35b503461020b57602036600319011261020b576004356001600160a01b038116908190036102e45760408260ff9260209452600684522054166040519015158152f35b503461020b576020908160031936011261020b579060043582526004815260408220805461038f816119d6565b9061039d6040519283611521565b8082528382018093865284862086915b83831061042a57505050506040519280840191818552518092526040840192945b8281106103db5784840385f35b9091928260808261041b6001948a516060809160ff815116845260ff602082015116602085015263ffffffff604082015116604085015201511515910152565b019601910194929190946103ce565b600187819261043d859b9a98999b612133565b81520192019201919096949395966103ad565b503461020b5761045f3661137f565b90610468611822565b506003546040516331a9108f60e11b81526004810183905290602090829060249082906001600160a01b03165afa8015610de6576104b8918591610db7575b506001600160a01b031633146115ff565b80835260046020526104cf6040842054831061185b565b80835260046020526104e4826040852061139a565b50805460ff8160301c16610d7d5760ff8061051b93660100000000000066ff0000000000001985161780915560081c169116611a0a565b9183602084015180610cfa575b5050604083015151610697575b60ff8351169060208401516040850151606086015160808701519060ff60a0890151169460c0890151946040519761010089019289526020890152604088015261010060608801528351809152602061012088019401908a5b818110610681575050508594928594926105d59260807fe1a1ef9d7d16c11a1bb78d12c1a168902e13569a0a5cc15cdbbf5106e333f28899015285820360a0870152611407565b9160c084015260e08301520390a2604051906020825261010082019260ff82511660208401526020820151604084015260408201519360e060608501528451809152602061012085019501915b81811061066b5750505060c06106538394606084015160808601526080840151601f198683030160a0870152611407565b9160ff60a08201511682850152015160e08301520390f35b8251865260209586019590920191600101610622565b825186526020958601959092019160010161058e565b839290915b604082015151851015610cf05760a0820151604080514260208201523360601b6bffffffffffffffffffffffff19169181019190915260f882901b6001600160f81b031916605482015290959061070081605581015b03601f198101835282611521565b6020815191012095610710611fd0565b9596879691908780808060ff8716610cad576064925b60078616600303610b525750505061ffff61075860649260ff61075261074d828a16612040565b6117ff565b16612055565b16049961076a607f8560011c166117ee565b60ff61077a61074d828816612040565b16905b6040519c8d67ffffffffffffffff610100828181011092011117610b3c576512195b1b595d60d21b6101208f61010081016040526107be61010082016114cd565b600661010082015201528d610100810190528d6020604051916107e0836114cd565b600583526420b936b7b960d91b8284015201528d6040805191610802836114cd565b600583526453686f657360d81b6020840152015260405160608f610825836114cd565b60068352652bb2b0b837b760d11b6020840152015260405160808f610849836114cd565b600683526514da1a595b1960d21b6020840152015260405160a08f61086d836114cd565b60098352684163636573736f727960b81b6020840152015260405160c08f610894836114cd565b600483526352696e6760e01b6020840152015260405160e08f6108b6836114cd565b600383526214195d60ea1b602084015201526040518060a081011067ffffffffffffffff60a083011117610b3c5760a081016040526108f760a082016114cd565b600660a082019081526521b7b6b6b7b760d11b60c0830152815260405161091d816114cd565b60088152672ab731b7b6b6b7b760c11b60208201526020820152604051610943816114cd565b60048152635261726560e01b60208201526040820152604051610965816114cd565b60048152634570696360e01b60208201526060820152604051610987816114cd565b60098152684c6567656e6461727960b81b60208201526080820152600560ff8a161015610b2857611fe08960051b160151946008600788161015610b28578d9e879d9e9b9c9d60051b60e01601516040518781985190816020840191602001916109f0926113e4565b810160208101600160fd1b9052825190602193828583019160200191610a15926113e4565b010360018101885201610a289087611521565b600160a01b6001900360025416986040519b8c998a99630150d33d60e21b8b523360048c015260071660248b015260ff1660448a0152606489015260ff16608488015261ffff80958180941660a48a01521660c48801521660e486015260ff1661010485015216610124830152610144820161016090526101648201610aad91611407565b0381895a94602095f18015610b1d578690610ae5575b610adc9250610ad68260408701516118aa565b5261189b565b9392919061069c565b506020823d602011610b15575b81610aff60209383611521565b81010312610b1157610adc9151610ac3565b8580fd5b3d9150610af2565b6040513d88823e3d90fd5b634e487b7160e01b8e52603260045260248efd5b634e487b7160e01b600052604160045260246000fd5b90919c9260016007871614809481159182610ca2575b8015610c95575b15610c08575060ff80891660030111610be557606461ffff610b998460ff808d1660030116612055565b16049490610bfb575b610bae575b505b61077d565b600360ff881602908160ff811603610be55760ff808316600a0111610be55760ff80610bde9316600a0116612055565b5038610ba7565b634e487b7160e01b600052601160045260246000fd5b5060046007871614610ba2565b945050600294919491826007881614600014610c49575060ff808816830111610be557610c4161ffff9160ff606494818b160116612055565b16049261077d565b94915050600560078616148015610c88575b15610ba9575050610c71607f8560011c166117ee565b60ff610c8161074d828816612040565b169061077d565b5060066007861614610c5b565b5060046007891614610b6f565b506007881615610b68565b60ff8716600103610cc057609692610726565b60ff8716600203610cd35760c892610726565b60ff8716600303610ce75761012c92610726565b6101f492610726565b9190929350610535565b6001546001600160a01b0316803b15610207576044839260405194859384926340c10f1960e01b845233600485015260248401525af18015610d7257610d42575b8490610528565b67ffffffffffffffff8195929511610d5e576040529238610d3b565b634e487b7160e01b82526041600452602482fd5b6040513d87823e3d90fd5b60405162461bcd60e51b8152602060048201526012602482015271109bde08185b1c9958591e481bdc195b995960721b6044820152606490fd5b610dd9915060203d602011610ddf575b610dd18183611521565b8101906115e0565b386104a7565b503d610dc7565b6040513d86823e3d90fd5b503461020b578060031936011261020b576002546040516001600160a01b039091168152602090f35b503461020b578060031936011261020b576001546040516001600160a01b039091168152602090f35b503461020b578060031936011261020b57546040516001600160a01b039091168152602090f35b503461020b578060031936011261020b576003546040516001600160a01b039091168152602090f35b503461020b57602036600319011261020b576004356001600160a01b038116908190036102e457610ec261142c565b8152600660205260408120805460ff1916905580f35b503461020b576020806003193601126102e4578160043583526004825260408320928354610f05816119d6565b94610f136040519687611521565b81865282528382208290858088015b848410610f795750505050505b8351811015610f70576060610f4482866118aa565b51015115610f5b575b610f569061189b565b610f2f565b90610f68610f569161189b565b919050610f4d565b50604051908152f35b6001918291610f8785612133565b8152019201920191908690610f22565b503461020b578060031936011261020b57602060405160178152f35b503461020b578060031936011261020b57610fcc61142c565b80546001600160a01b03198116825581906001600160a01b03167f8be0079c531659141344cd1fd0a4f28419497f9722a3daafe3b4186f6b6457e08280a380f35b503461020b578060031936011261020b57602060405160078152f35b503461020b57602036600319011261020b57602061026560043561164b565b503461020b57604036600319011261020b5760043560243560ff811680820361117557338452600660205260ff6040852054168015611162575b61108b90611458565b600181101580611157575b1561111e57816111056110c97f90459f2cee169c6d1d2f1f69c3d316192c0092e3bdd8c4e540cc906ce5ff1f4a946118be565b92858752600460205260408720604051916110e383611495565b825260ff8516602083015263ffffffff42166040830152876060830152611543565b6040805160ff928316815292909116602083015290a280f35b60405162461bcd60e51b8152602060048201526011602482015270125b9d985b1a5908189bde081b195d995b607a1b6044820152606490fd5b50600a811115611096565b5083546001600160a01b03163314611082565b8380fd5b503461020b578060031936011261020b576020604051605f8152f35b503461020b578060031936011261020b57602060405160088152f35b503461020b57602036600319011261020b5760406020916004358152600583522054604051908152f35b503461020b57602036600319011261020b57600435602460018060a01b0360208160035416604051938480926331a9108f60e11b82528760048301525afa918215610de6579161123c91610265949360209692611241575b501633146115ff565b61164b565b611259919250863d8111610ddf57610dd18183611521565b9038611233565b503461020b576112c36112bd608092604061127a3661137f565b9290816060845161128a81611495565b8281528260208201528286820152015280825260046020526112b083832054851061185b565b815260046020522061139a565b50612133565b6112fc60405180926060809160ff815116845260ff602082015116602085015263ffffffff604082015116604085015201511515910152565bf35b503461020b5761130d3661137f565b9190815260046020526040812090815483101561020b576080611330848461139a565b505460ff604051918181168352818160081c16602084015263ffffffff8160101c16604084015260301c1615156060820152f35b9050346102e457816003193601126102e45780600160209252f35b6040906003190112611395576004359060243590565b600080fd5b80548210156113b25760005260206000200190600090565b634e487b7160e01b600052603260045260246000fd5b3461139557600036600319011261139557602060405160058152f35b60005b8381106113f75750506000910152565b81810151838201526020016113e7565b90602091611420815180928185528580860191016113e4565b601f01601f1916010190565b6000546001600160a01b0316330361144057565b60405163118cdaa760e01b8152336004820152602490fd5b1561145f57565b60405162461bcd60e51b815260206004820152600e60248201526d139bdd08185d5d1a1bdc9a5e995960921b6044820152606490fd5b6080810190811067ffffffffffffffff821117610b3c57604052565b60e0810190811067ffffffffffffffff821117610b3c57604052565b6040810190811067ffffffffffffffff821117610b3c57604052565b6060810190811067ffffffffffffffff821117610b3c57604052565b6020810190811067ffffffffffffffff821117610b3c57604052565b90601f8019910116810190811067ffffffffffffffff821117610b3c57604052565b805468010000000000000000811015610b3c576115659160018201815561139a565b9190916115ca57805182546020830151604084015160609094015166ffffffffffffff1990921660ff939093169290921760089290921b61ff00169190911760109290921b65ffffffff0000169190911790151560301b66ff00000000000016179055565b634e487b7160e01b600052600060045260246000fd5b9081602091031261139557516001600160a01b03811681036113955790565b1561160657565b60405162461bcd60e51b815260206004820152601760248201527f4e6f74206f776e6572206f6620706c61796572204e46540000000000000000006044820152606490fd5b6000903382526020916006835260ff9160409383858420541680156117c1575b61167490611458565b81835260058152601461168a86852054426117d4565b0494606486116117b8575b856116a3575b505050505090565b828496939497959752600582524281872055859263ffffffff4216935b8881168281101561177d5790867f90459f2cee169c6d1d2f1f69c3d316192c0092e3bdd8c4e540cc906ce5ff1f4a6117068c60036116ff8297426117e1565b0616611810565b61170f816118be565b90838d52600489526117458d8981208a519161172a83611495565b89851683528986168d8401528d8c8401526060830152611543565b875160ff918216815291166020820152604090a216888114611769576001016116c0565b634e487b7160e01b88526011600452602488fd5b505095509091507f47e0615895c3ba400273ed4da20954209009ffbd1511b299fb5f3d029777343b9293955051848152a2388080808061169b565b60649550611695565b5082546001600160a01b0316331461166b565b91908203918211610be557565b91908201809211610be557565b60ff166001019060ff8211610be557565b60ff166005019060ff8211610be557565b60ff60019116019060ff8211610be557565b6040519061182f826114b1565b600060c08382815282602082015260606040820152826060820152606060808201528260a08201520152565b1561186257565b60405162461bcd60e51b8152602060048201526011602482015270092dcecc2d8d2c840c4def040d2dcc8caf607b1b6044820152606490fd5b6000198114610be55760010190565b80518210156113b25760209160051b010190565b6040805142602082019081523360601b6bffffffffffffffffffffffff19169282019290925260f883901b6001600160f81b031916605482015260ff916103e89161190c81605581016106f2565b5190200691166002811161192e5750610320111561192957600090565b600190565b6005811161195a57506101f48110156119475750600090565b610352111561195557600190565b600290565b6008106119945761012c8110156119715750600090565b6102bc8110156119815750600190565b6103b6111561198f57600290565b600390565b60c88110156119a35750600090565b6101f48110156119b35750600190565b6103208110156119c35750600290565b6103b611156119d157600390565b600490565b67ffffffffffffffff8111610b3c5760051b60200190565b67ffffffffffffffff8111610b3c57601f01601f191660200190565b611a12611822565b50611a1c81611f5e565b60409081519260209485850142815260609533871b928387830152606460ff938487169360ff60f81b80809960f81b169485605484015260f81b16605582015260368152611a69816114e9565b519020066001811015611b4457505050831692601984029380850460191490151715610be557603292855191888301934285528784015260f81b1660548201526319dbdb1960e21b605582015260398152611ac3816114e9565b51902006906032019081603211610be557611add916117e1565b670de0b6b3a764000090818102918183041490151715610be557815192611b0384611505565b6000938492838252845196611b17886114b1565b8488528701528386015284015251611b2e81611505565b81815260808301528060a083015260c082015290565b909192969495979350600e8110600014611c5457505050848416936000198501818111610be55716601981029080820460191490151715610be5576032019485603211610be557611b948561206e565b93611be360308551809761263b60f11b8c830152611bbc8c82519283916022860191016113e4565b81016d102432b0b63a34102837ba34b7b760911b6022820152036010810188520186611521565b835190888201926c3432b0b63a342fb837ba34b7b760991b845260f81b16602d820152600e8152611c13816114cd565b51902091805190611c2382611505565b600082526000815198611c358a6114b1565b60028a52890152870152850152608084015260a083015260c082015290565b601681979495969710600014611d2857505050841693611c738561206e565b93611cbb602a8551809761263b60f11b8b830152611c9a815180928d6022860191016113e4565b810167205065742045676760c01b602282015203600a810188520186611521565b83519087820192667065745f65676760c81b845260f81b16602782015260088152611ce5816114cd565b51902091805190611cf582611505565b600082526000815197611d07896114b1565b60038952880152860152840152608083015260a0820152600060c082015290565b601d91965096919610600014611ef857505060028411611de1578151611d4d816114cd565b601881527f47726561742053776f7264736d616e204a6f6220426f6f6b000000000000000086820152925b825186810191676a6f625f626f6f6b60c01b8352602882015260098152611d9e816114cd565b51902091805190611dae82611505565b600082526000815197611dc0896114b1565b60048952880152860152840152608083015260a0820152600060c082015290565b60048411611e1c578151611df4816114cd565b601681527554656d706c65204b6e69676874204a6f6220426f6f6b60501b8682015292611d78565b60068411611e57578151611e2f816114cd565b6016815275447261676f6e204b6e69676874204a6f6220426f6f6b60501b8682015292611d78565b60088411611e91578151611e6a816114cd565b601581527453776f7264204d6173746572204a6f6220426f6f6b60581b8682015292611d78565b600a8411611ec8578151611ea4816114cd565b601281527153776f726420476f64204a6f6220426f6f6b60701b8682015292611d78565b8151611ed3816114cd565b6013815272506c616e65204c6f7264204a6f6220426f6f6b60681b8682015292611d78565b93509350815190611f08826114cd565b6001825285820191863684378051156113b257600080935282845197611f2d896114b1565b600189528801528387015285015251611f4581611505565b6000815260808401521660a0820152600060c082015290565b605f606460405160208101904282523360601b604082015260ff60f81b8560f81b1660548201526a1c995dd85c9913195d995b60aa1b605582015260408152611fa6816114e9565b519020061015611fb35790565b600a60ff821610611fc45750600a90565b611fcd90611810565b90565b606460405160208101904282523360601b60408201526572617269747960d01b6054820152603a8152612002816114e9565b51902006603c8110156120155750600090565b60538110156120245750600190565b605d8110156120335750600290565b606211156119d157600390565b60011b906101fe60fe831692168203610be557565b91909161ffff80809416911602918216918203610be557565b801561211557600081805b6121015750612087816119ee565b906120956040519283611521565b808252601f196120a4826119ee565b013660208401375b809280156120fa576000198201918211610be5578193600a926030908484068201809211610be557855111156113b25760f81b6001600160f81b03191660001a908401601f015304916120ac565b5050905090565b9061210d600a9161189b565b910480612079565b50604051612122816114cd565b60018152600360fc1b602082015290565b9060405161214081611495565b606060ff8294548181168452818160081c16602085015263ffffffff8160101c16604085015260301c161515910152565b6000526005602052601461218a604060002054426117d4565b04606481116121965790565b5060649056fea26469706673582212208e9696b35aba4dd5357da404a7132a1540f652f3f6f9b8ac3c303d474947eff364736f6c63430008140033",
  "linkReferences": {},
  "deployedLinkReferences": {}
}