{
  "_format": "hh-sol-artifact-1",
  "contractName": "TreasureBoxSystem",
  "sourceName": "contracts/TreasureBoxSystem.sol",
  "abi": [
    {
      "inputs": [
        {
          "internalType": "address",
          "name": "_goldToken",
          "type": "address"
        },
        {
          "internalType": "address",
          "name": "_equipmentNFT",
          "type": "address"
        }
      ],
      "stateMutability": "nonpayable",
      "type": "constructor"
    },
    {
      "inputs": [
        {
          "internalType": "address",
          "name": "owner",
          "type": "address"
        }
      ],
      "name": "OwnableInvalidOwner",
      "type": "error"
    },
    {
      "inputs": [
        {
          "internalType": "address",
          "name": "account",
          "type": "address"
        }
      ],
      "name": "OwnableUnauthorizedAccount",
      "type": "error"
    },
    {
      "anonymous": false,
      "inputs": [
        {
          "indexed": true,
          "internalType": "address",
          "name": "player",
          "type": "address"
        },
        {
          "indexed": false,
          "internalType": "uint8",
          "name": "boxCount",
          "type": "uint8"
        }
      ],
      "name": "OfflineBoxesClaimed",
      "type": "event"
    },
    {
      "anonymous": false,
      "inputs": [
        {
          "indexed": true,
          "internalType": "address",
          "name": "previousOwner",
          "type": "address"
        },
        {
          "indexed": true,
          "internalType": "address",
          "name": "newOwner",
          "type": "address"
        }
      ],
      "name": "OwnershipTransferred",
      "type": "event"
    },
    {
      "anonymous": false,
      "inputs": [
        {
          "indexed": true,
          "internalType": "address",
          "name": "player",
          "type": "address"
        },
        {
          "indexed": false,
          "internalType": "uint8",
          "name": "level",
          "type": "uint8"
        },
        {
          "indexed": false,
          "internalType": "uint8",
          "name": "rarity",
          "type": "uint8"
        }
      ],
      "name": "TreasureBoxAdded",
      "type": "event"
    },
    {
      "anonymous": false,
      "inputs": [
        {
          "indexed": true,
          "internalType": "address",
          "name": "player",
          "type": "address"
        },
        {
          "indexed": false,
          "internalType": "uint256",
          "name": "boxIndex",
          "type": "uint256"
        },
        {
          "indexed": false,
          "internalType": "uint8",
          "name": "rewardType",
          "type": "uint8"
        },
        {
          "indexed": false,
          "internalType": "uint256",
          "name": "goldAmount",
          "type": "uint256"
        },
        {
          "indexed": false,
          "internalType": "uint256[]",
          "name": "equipmentIds",
          "type": "uint256[]"
        }
      ],
      "name": "TreasureBoxOpened",
      "type": "event"
    },
    {
      "inputs": [],
      "name": "EQUIPMENT_PROBABILITY",
      "outputs": [
        {
          "internalType": "uint16",
          "name": "",
          "type": "uint16"
        }
      ],
      "stateMutability": "view",
      "type": "function"
    },
    {
      "inputs": [],
      "name": "GOLD_PROBABILITY",
      "outputs": [
        {
          "internalType": "uint16",
          "name": "",
          "type": "uint16"
        }
      ],
      "stateMutability": "view",
      "type": "function"
    },
    {
      "inputs": [],
      "name": "MULTIPLE_PROBABILITY",
      "outputs": [
        {
          "internalType": "uint16",
          "name": "",
          "type": "uint16"
        }
      ],
      "stateMutability": "view",
      "type": "function"
    },
    {
      "inputs": [
        {
          "internalType": "address",
          "name": "player",
          "type": "address"
        },
        {
          "internalType": "uint8",
          "name": "level",
          "type": "uint8"
        }
      ],
      "name": "addBattleTreasureBox",
      "outputs": [],
      "stateMutability": "nonpayable",
      "type": "function"
    },
    {
      "inputs": [
        {
          "internalType": "address",
          "name": "systemContract",
          "type": "address"
        }
      ],
      "name": "authorizeSystem",
      "outputs": [],
      "stateMutability": "nonpayable",
      "type": "function"
    },
    {
      "inputs": [
        {
          "internalType": "address",
          "name": "",
          "type": "address"
        }
      ],
      "name": "authorizedSystems",
      "outputs": [
        {
          "internalType": "bool",
          "name": "",
          "type": "bool"
        }
      ],
      "stateMutability": "view",
      "type": "function"
    },
    {
      "inputs": [],
      "name": "claimOfflineTreasureBoxes",
      "outputs": [
        {
          "internalType": "uint8",
          "name": "",
          "type": "uint8"
        }
      ],
      "stateMutability": "nonpayable",
      "type": "function"
    },
    {
      "inputs": [
        {
          "internalType": "address",
          "name": "playerAddress",
          "type": "address"
        }
      ],
      "name": "claimOfflineTreasureBoxesForPlayer",
      "outputs": [
        {
          "internalType": "uint8",
          "name": "",
          "type": "uint8"
        }
      ],
      "stateMutability": "nonpayable",
      "type": "function"
    },
    {
      "inputs": [],
      "name": "equipmentNFT",
      "outputs": [
        {
          "internalType": "contract Equipment",
          "name": "",
          "type": "address"
        }
      ],
      "stateMutability": "view",
      "type": "function"
    },
    {
      "inputs": [
        {
          "internalType": "address",
          "name": "player",
          "type": "address"
        }
      ],
      "name": "getClaimableOfflineBoxes",
      "outputs": [
        {
          "internalType": "uint8",
          "name": "",
          "type": "uint8"
        }
      ],
      "stateMutability": "view",
      "type": "function"
    },
    {
      "inputs": [
        {
          "internalType": "address",
          "name": "player",
          "type": "address"
        },
        {
          "internalType": "uint256",
          "name": "boxIndex",
          "type": "uint256"
        }
      ],
      "name": "getPlayerTreasureBox",
      "outputs": [
        {
          "components": [
            {
              "internalType": "uint8",
              "name": "level",
              "type": "uint8"
            },
            {
              "internalType": "uint8",
              "name": "rarity",
              "type": "uint8"
            },
            {
              "internalType": "uint32",
              "name": "createdTime",
              "type": "uint32"
            },
            {
              "internalType": "bool",
              "name": "opened",
              "type": "bool"
            }
          ],
          "internalType": "struct TreasureBoxSystem.TreasureBox",
          "name": "",
          "type": "tuple"
        }
      ],
      "stateMutability": "view",
      "type": "function"
    },
    {
      "inputs": [
        {
          "internalType": "address",
          "name": "player",
          "type": "address"
        }
      ],
      "name": "getPlayerTreasureBoxCount",
      "outputs": [
        {
          "internalType": "uint256",
          "name": "",
          "type": "uint256"
        }
      ],
      "stateMutability": "view",
      "type": "function"
    },
    {
      "inputs": [
        {
          "internalType": "address",
          "name": "player",
          "type": "address"
        }
      ],
      "name": "getPlayerTreasureBoxes",
      "outputs": [
        {
          "components": [
            {
              "internalType": "uint8",
              "name": "level",
              "type": "uint8"
            },
            {
              "internalType": "uint8",
              "name": "rarity",
              "type": "uint8"
            },
            {
              "internalType": "uint32",
              "name": "createdTime",
              "type": "uint32"
            },
            {
              "internalType": "bool",
              "name": "opened",
              "type": "bool"
            }
          ],
          "internalType": "struct TreasureBoxSystem.TreasureBox[]",
          "name": "",
          "type": "tuple[]"
        }
      ],
      "stateMutability": "view",
      "type": "function"
    },
    {
      "inputs": [
        {
          "internalType": "address",
          "name": "player",
          "type": "address"
        }
      ],
      "name": "getUnopenedBoxCount",
      "outputs": [
        {
          "internalType": "uint256",
          "name": "",
          "type": "uint256"
        }
      ],
      "stateMutability": "view",
      "type": "function"
    },
    {
      "inputs": [],
      "name": "goldToken",
      "outputs": [
        {
          "internalType": "contract AdventureGold",
          "name": "",
          "type": "address"
        }
      ],
      "stateMutability": "view",
      "type": "function"
    },
    {
      "inputs": [
        {
          "internalType": "address",
          "name": "",
          "type": "address"
        }
      ],
      "name": "lastOfflineBoxTime",
      "outputs": [
        {
          "internalType": "uint32",
          "name": "",
          "type": "uint32"
        }
      ],
      "stateMutability": "view",
      "type": "function"
    },
    {
      "inputs": [
        {
          "internalType": "uint256[]",
          "name": "boxIndices",
          "type": "uint256[]"
        }
      ],
      "name": "openMultipleTreasureBoxes",
      "outputs": [
        {
          "components": [
            {
              "internalType": "uint8",
              "name": "rewardType",
              "type": "uint8"
            },
            {
              "internalType": "uint256",
              "name": "goldAmount",
              "type": "uint256"
            },
            {
              "internalType": "uint256[]",
              "name": "equipmentIds",
              "type": "uint256[]"
            }
          ],
          "internalType": "struct TreasureBoxSystem.BoxReward",
          "name": "",
          "type": "tuple"
        }
      ],
      "stateMutability": "nonpayable",
      "type": "function"
    },
    {
      "inputs": [
        {
          "internalType": "uint256",
          "name": "boxIndex",
          "type": "uint256"
        }
      ],
      "name": "openTreasureBox",
      "outputs": [
        {
          "components": [
            {
              "internalType": "uint8",
              "name": "rewardType",
              "type": "uint8"
            },
            {
              "internalType": "uint256",
              "name": "goldAmount",
              "type": "uint256"
            },
            {
              "internalType": "uint256[]",
              "name": "equipmentIds",
              "type": "uint256[]"
            }
          ],
          "internalType": "struct TreasureBoxSystem.BoxReward",
          "name": "",
          "type": "tuple"
        }
      ],
      "stateMutability": "nonpayable",
      "type": "function"
    },
    {
      "inputs": [],
      "name": "owner",
      "outputs": [
        {
          "internalType": "address",
          "name": "",
          "type": "address"
        }
      ],
      "stateMutability": "view",
      "type": "function"
    },
    {
      "inputs": [
        {
          "internalType": "address",
          "name": "",
          "type": "address"
        },
        {
          "internalType": "uint256",
          "name": "",
          "type": "uint256"
        }
      ],
      "name": "playerTreasureBoxes",
      "outputs": [
        {
          "internalType": "uint8",
          "name": "level",
          "type": "uint8"
        },
        {
          "internalType": "uint8",
          "name": "rarity",
          "type": "uint8"
        },
        {
          "internalType": "uint32",
          "name": "createdTime",
          "type": "uint32"
        },
        {
          "internalType": "bool",
          "name": "opened",
          "type": "bool"
        }
      ],
      "stateMutability": "view",
      "type": "function"
    },
    {
      "inputs": [],
      "name": "renounceOwnership",
      "outputs": [],
      "stateMutability": "nonpayable",
      "type": "function"
    },
    {
      "inputs": [
        {
          "internalType": "address",
          "name": "systemContract",
          "type": "address"
        }
      ],
      "name": "revokeSystemAuthorization",
      "outputs": [],
      "stateMutability": "nonpayable",
      "type": "function"
    },
    {
      "inputs": [
        {
          "internalType": "address",
          "name": "newOwner",
          "type": "address"
        }
      ],
      "name": "transferOwnership",
      "outputs": [],
      "stateMutability": "nonpayable",
      "type": "function"
    }
  ],
  "bytecode": "0x608034620000ec57601f62001eee38819003918201601f19168301916001600160401b03831184841017620000f1578084926040948552833981010312620000ec576200005a6020620000528362000107565b920162000107565b3315620000d35760008054336001600160a01b0319808316821784556040519590946001600160a01b03949093859391908416907f8be0079c531659141344cd1fd0a4f28419497f9722a3daafe3b4186f6b6457e09080a31683600154161760015516906002541617600255611dd190816200011d8239f35b604051631e4fbdf760e01b815260006004820152602490fd5b600080fd5b634e487b7160e01b600052604160045260246000fd5b51906001600160a01b0382168203620000ec5756fe608080604052600436101561001357600080fd5b600090813560e01c908163032384e014611134575080630416d570146110b8578063085033d3146110895780630cdf918014610fb95780630ea25e5f14610dff57806321da13cc14610c52578063242717f114610b9e5780633ffb0a1a14610b815780636a096900146107d7578063715018a61461077d57806381f79e9c146105c0578063869ae7421461057f5780638da5cb5b146105585780638f4f8cd01461053c57806394002b5714610513578063962e0a16146104ea578063afaccc09146104aa578063b5a9bef71461046b578063baf89c2514610432578063c0585404146103ee578063e08e656c146102f2578063f2fde38b146102625763f91c5c501461011e57600080fd5b3461025f57604036600319011261025f57610137611150565b60243560ff81169182820361025b57338452600560205260ff6040852054168015610248575b6101669061121e565b60018310158061023d575b1561020457816101eb6101a47f34a279094a12dd79d988f2260f0c82466a18f281802743702ec289334c2841159461154d565b6001600160a01b0390931680875260036020526040808820905191966101c98361125b565b825260ff8516602083015263ffffffff42166040830152876060830152611317565b6040805160ff928316815292909116602083015290a280f35b60405162461bcd60e51b8152602060048201526011602482015270125b9d985b1a5908189bde081b195d995b607a1b6044820152606490fd5b50600a831115610171565b5083546001600160a01b0316331461015d565b8380fd5b80fd5b503461025f57602036600319011261025f5761027c611150565b6102846111f2565b6001600160a01b039081169081156102d957600054826bffffffffffffffffffffffff60a01b821617600055167f8be0079c531659141344cd1fd0a4f28419497f9722a3daafe3b4186f6b6457e0600080a380f35b604051631e4fbdf760e01b815260048101849052602490fd5b503461025f576020908160031936011261025f57906001600160a01b03610317611150565b1682526003815260408220805461032d81611525565b9061033b60405192836112f5565b8082528382018093865284862086915b8383106103c857505050506040519280840191818552518092526040840192945b8281106103795784840385f35b909192826080826103b96001948a516060809160ff815116845260ff602082015116602085015263ffffffff604082015116604085015201511515910152565b0196019101949291909461036c565b60018781926103db859b9a98999b611d1c565b815201920192019190969493959661034b565b503461025f57602036600319011261025f57610408611150565b6104106111f2565b6001600160a01b03168152600560205260408120805460ff1916600117905580f35b503461025f57602036600319011261025f576020906040906001600160a01b0361045a611150565b168152600383522054604051908152f35b503461025f57602036600319011261025f5760209060ff906040906001600160a01b03610496611150565b168152600584522054166040519015158152f35b503461025f57602036600319011261025f5760209063ffffffff906040906001600160a01b036104d8611150565b16815260048452205416604051908152f35b503461025f578060031936011261025f576002546040516001600160a01b039091168152602090f35b503461025f578060031936011261025f576001546040516001600160a01b039091168152602090f35b503461025f578060031936011261025f57602060405160968152f35b503461025f578060031936011261025f57546040516001600160a01b039091168152602090f35b503461025f57602036600319011261025f57610599611150565b6105a16111f2565b6001600160a01b03168152600560205260408120805460ff1916905580f35b503461025f578060031936011261025f573381526020906005825260ff80604083205416801561076a575b6105f49061121e565b63ffffffff918180610e10854216953385526004885261061a81604087205416886113b4565b16041660648111610762575b169283610639575b505050604051908152f35b9092919333845260048152604084208263ffffffff19825416179055835b85811684811015610728579061069b7f34a279094a12dd79d988f2260f0c82466a18f281802743702ec289334c2841156107016106a28a80966003958691426113e0565b06166113ed565b926106ac8461154d565b90338b5287526106e360408b20604051906106c68261125b565b88871682528884168a8301528a60408301528c6060830152611317565b6040805160ff95861681529490911660208501523393918291820190565b0390a21685811461071457600101610657565b634e487b7160e01b85526011600452602485fd5b505093505090506040518181527fb21215581f2bf02817b3df357af23d42a65b54fbd0901349e2e63ab178165fe0833392a238808061062e565b506064610626565b5081546001600160a01b031633146105eb565b503461025f578060031936011261025f576107966111f2565b600080546001600160a01b0319811682556001600160a01b03167f8be0079c531659141344cd1fd0a4f28419497f9722a3daafe3b4186f6b6457e08280a380f35b503461025f57602036600319011261025f576004359067ffffffffffffffff808311610b7d5736602384011215610b7d5782600401351161025f57366024836004013560051b8401011161025f5761082d6113ff565b508160040135151580610b6e575b15610b35576040519061084d826112bd565b8082526040519161085d836112a1565b600283528160208401526040830152805b8360040135821061088b57604051806108878582611199565b0390f35b909161089f8385600401356024870161153d565b353383526108b860039182602052604085205411611420565b3383526020526108de604083206108d78587600401356024890161153d565b359061116b565b509061091a82546108f560ff8260301c1615611460565b60ff80660100000000000066ff0000000000001984161780875560081c16911661166f565b91602083015180610ac1575b50610939602084015160208401516113e0565b6020830152604083015151610a74575b5061095f604082015151604084015151906113e0565b9461096986611525565b9561097760405197886112f5565b808752610986601f1991611525565b01366020880137835b604083015180518210156109c157906109ab816109bc936114bd565b516109b6828a6114bd565b526114a1565b61098f565b505091939092805b60408601518051821015610a0357906109e5816109fe936114bd565b516109b66109f88360408a0151516113e0565b8a6114bd565b6109c9565b50509293610a6e929560408601527f64ceffd217ffea3dc96012e37d7478c7c170f73838d5668f328b7dafe83306f2610a4483886004013560248a0161153d565b359160ff815116610a66604060208401519301516040519384933397856114d1565b0390a26114a1565b9061086e565b949192809491945b604085015151811015610ab557610ab090610aa2885460ff808260081c16911633611831565b6109b68260408901516114bd565b610a7c565b50929194509238610949565b6001546001600160a01b031690813b15610b31576040516340c10f1960e01b815233600482015260248101919091529085908290604490829084905af18015610b2657908591610b12575b50610926565b610b1b9061128d565b61025b578338610b0c565b6040513d87823e3d90fd5b8580fd5b60405162461bcd60e51b8152602060048201526011602482015270125b9d985b1a5908189bde0818dbdd5b9d607a1b6044820152606490fd5b50600a8260040135111561083b565b5080fd5b503461025f578060031936011261025f57602060405161015e8152f35b503461025f57604036600319011261025f57610c17610c116080926040610bc3611150565b91602435928160608451610bd68161125b565b8281528260208201528286820152015260018060a01b03168082526003602052610c04838320548510611420565b815260036020522061116b565b50611d1c565b610c5060405180926060809160ff815116845260ff602082015116602085015263ffffffff604082015116604085015201511515910152565bf35b503461025f57602036600319011261025f5760043590610c706113ff565b503381526003602052610c8860408220548310611420565b3381526003602052610c9d826040832061116b565b509081549160ff610cb3818560301c1615611460565b66ff000000000000198416660100000000000017808355600894610cdd91861c831690831661166f565b936020850192835180610d95575b506040860194855151610d49575b61088787897f64ceffd217ffea3dc96012e37d7478c7c170f73838d5668f328b7dafe83306f28989610d3a8a865116915192516040519384933397856114d1565b0390a260405191829182611199565b969092939591965b855151811015610d8257610d7d90610d7285548780828d1c16911633611831565b6109b68289516114bd565b610d51565b5095509391905081610d3a610887610cf9565b6001546001600160a01b031690813b15610dfb576040516340c10f1960e01b815233600482015260248101919091529086908290604490829084905af18015610df05715610ceb57610de99095919561128d565b9338610ceb565b6040513d88823e3d90fd5b8680fd5b503461025f576020908160031936011261025f57610e1b611150565b903381526005835260ff90816040822054168015610fa6575b610e3d9061121e565b63ffffffff8280610e108342169660018060a01b03169384865260048952610e6b81604088205416896113b4565b16041660648111610f9e575b169384610e89575b8585604051908152f35b909193929482855260048152604085208263ffffffff19825416179055845b86811685811015610f645790847f34a279094a12dd79d988f2260f0c82466a18f281802743702ec289334c28411561069b610eea8b80966003938491426113e0565b610ef38161154d565b91848c528752610f2a60408c2060405190610f0d8261125b565b88841682528885168a8301528a60408301528d6060830152611317565b6040805160ff928316815292909116602083015290a216868114610f5057600101610ea8565b634e487b7160e01b86526011600452602486fd5b50509450509091507fb21215581f2bf02817b3df357af23d42a65b54fbd0901349e2e63ab178165fe083604051848152a238808080610e7f565b506064610e77565b5080546001600160a01b03163314610e34565b503461025f57602080600319360112610b7d57610fd4611150565b6001600160a01b03168252600381526040822080549092908190610ff781611525565b9461100560405196876112f5565b81865282528382208290858088015b84841061106b5750505050505b835181101561106257606061103682866114bd565b5101511561104d575b611048906114a1565b611021565b9061105a611048916114a1565b91905061103f565b50604051908152f35b600191829161107985611d1c565b8152019201920191908690611014565b503461025f57602036600319011261025f5760206110ad6110a8611150565b611d5a565b60ff60405191168152f35b503461025f57604036600319011261025f576110d2611150565b6001600160a01b031681526003602052604081208054602435929083101561025f576080611100848461116b565b505460ff604051918181168352818160081c16602084015263ffffffff8160101c16604084015260301c1615156060820152f35b905034610b7d5781600319360112610b7d57806101f460209252f35b600435906001600160a01b038216820361116657565b600080fd5b80548210156111835760005260206000200190600090565b634e487b7160e01b600052603260045260246000fd5b906020908183528160a06040608086019360ff81511684880152838101518288015201519460608082015285518094520193019160005b8281106111de575050505090565b8351855293810193928101926001016111d0565b6000546001600160a01b0316330361120657565b60405163118cdaa760e01b8152336004820152602490fd5b1561122557565b60405162461bcd60e51b815260206004820152600e60248201526d139bdd08185d5d1a1bdc9a5e995960921b6044820152606490fd5b6080810190811067ffffffffffffffff82111761127757604052565b634e487b7160e01b600052604160045260246000fd5b67ffffffffffffffff811161127757604052565b6060810190811067ffffffffffffffff82111761127757604052565b6020810190811067ffffffffffffffff82111761127757604052565b6040810190811067ffffffffffffffff82111761127757604052565b90601f8019910116810190811067ffffffffffffffff82111761127757604052565b805468010000000000000000811015611277576113399160018201815561116b565b91909161139e57805182546020830151604084015160609094015166ffffffffffffff1990921660ff939093169290921760089290921b61ff00169190911760109290921b65ffffffff0000169190911790151560301b66ff00000000000016179055565b634e487b7160e01b600052600060045260246000fd5b63ffffffff91821690821603919082116113ca57565b634e487b7160e01b600052601160045260246000fd5b919082018092116113ca57565b60ff60019116019060ff82116113ca57565b6040519061140c826112a1565b606060408360008152600060208201520152565b1561142757565b60405162461bcd60e51b8152602060048201526011602482015270092dcecc2d8d2c840c4def040d2dcc8caf607b1b6044820152606490fd5b1561146757565b60405162461bcd60e51b8152602060048201526012602482015271109bde08185b1c9958591e481bdc195b995960721b6044820152606490fd5b60001981146113ca5760010190565b8051156111835760200190565b80518210156111835760209160051b010190565b60a09060ff94939293608082019482526020958694168483015260408201526080606082015285518094520193019160005b828110611511575050505090565b835185529381019392810192600101611503565b67ffffffffffffffff81116112775760051b60200190565b91908110156111835760051b0190565b6040805142602082019081523360601b6bffffffffffffffffffffffff19169282019290925260f883901b6001600160f81b031916605482015260ff916103e8916115a581605581015b03601f1981018352826112f5565b519020069116600281116115c7575061032011156115c257600090565b600190565b600581116115f357506101f48110156115e05750600090565b61035211156115ee57600190565b600290565b60081061162d5761012c81101561160a5750600090565b6102bc81101561161a5750600190565b6103b6111561162857600290565b600390565b60c881101561163c5750600090565b6101f481101561164c5750600190565b61032081101561165c5750600290565b6103b6111561166a57600390565b600490565b906116786113ff565b506040908151926103e8602094858101904282523360601b8682015260ff60f81b808560f81b1660548301528560f81b166055820152603681526116bb816112a1565b519020066101f48110156116fe5750906116d491611794565b908051916116e1836112bd565b600083528151936116f1856112a1565b6000855284015282015290565b929392610352111561174a57505090805190611719826112d9565b60018252823681840137600061172e836114b0565b52600081519361173d856112a1565b6001855284015282015290565b9061175491611794565b91805191611761836112d9565b600183528036818501376000611776846114b0565b52815193611783856112a1565b6002855260011c9084015282015290565b60ff1690600a820290828204600a14831517156113ca57678ac7230489e80000830291808304670de0b6b3a764000014901517156113ca5760ff1691600183018093116113ca576096830292808404609614811517156113ca5702685150ae84a8cdf00000029181159183041417156113ca576064900490565b60005b8381106118215750506000910152565b8181015183820152602001611811565b604080514260208201908152606084901b6bffffffffffffffffffffffff19169282019290925260f884901b6001600160f81b03191660548201526118798160558101611597565b51902092600360ff84160260ff81169081036113ca5760ff61189a85611cee565b169060ff6118a786611cee565b1690603260ff85160261ffff81169081036113ca5760640161ffff81116113ca5780600360ff87161015611cd2575b5061190281606461ffff6118fa8383836118f28199839b611d03565b160499611d03565b160494611d03565b160461190d846113ed565b91601960ff8616029361ffff85169485036113ca5761ffff85609601116113ca5760405195610100870187811067ffffffffffffffff8211176112775780604052611957816112d9565b600681526512195b1b595d60d21b6101208901528752604051611979816112d9565b600581526420b936b7b960d91b6020820152602088015260405161199c816112d9565b600581526453686f657360d81b602082015260408801526040516119bf816112d9565b60068152652bb2b0b837b760d11b602082015260608801526040516119e3816112d9565b600681526514da1a595b1960d21b60208201526080880152604051611a07816112d9565b60098152684163636573736f727960b81b602082015260a0880152604051611a2e816112d9565b600481526352696e6760e01b602082015260c0880152604051611a50816112d9565b600381526214195d60ea1b602082015260e08801526040518060a081011067ffffffffffffffff60a0830111176112775760a08101604052611a9460a082016112d9565b600660a082019081526521b7b6b6b7b760d11b60c08301528152604051611aba816112d9565b60088152672ab731b7b6b6b7b760c11b60208201526020820152604051611ae0816112d9565b60048152635261726560e01b60208201526040820152604051611b02816112d9565b60048152634570696360e01b60208201526060820152604051611b24816112d9565b60098152684c6567656e6461727960b81b60208201526080820152600560ff8316101561118357611fe08260051b16015196600860078c161015611183578a60051b60e01601519660405197818992519081602085019160200191611b889261180e565b820160208101600160fd1b905281519182602183019160200191611bab9261180e565b0103600181018852602101611bc090886112f5565b6002546001600160a01b031698611bd6826113ed565b906040519b8c9a630150d33d60e21b8c52600160a01b600190031660048c015260071660248b015260ff1660448a015260ff16606489015260ff16608488015261ffff1660a487015261ffff1660c486015261ffff1660e485015260ff1661010484015260960161ffff16610124830152610144820161016090528181518061016483015261018492818484019160200191611c719261180e565b601f01601f191681010301815a602094600091f1908115611cc657600091611c97575090565b906020823d602011611cbe575b81611cb1602093836112f5565b8101031261025f57505190565b3d9150611ca4565b6040513d6000823e3d90fd5b6064915061ffff16019061ffff82116113ca57906119026118d6565b60011b906101fe60fe8316921682036113ca57565b91909161ffff808094169116029182169182036113ca57565b90604051611d298161125b565b606060ff8294548181168452818160081c16602085015263ffffffff8160101c16604085015260301c161515910152565b60018060a01b0316600052600460205260ff610e1063ffffffff611d8781604060002054168242166113b4565b16041660648111611d955790565b5060649056fea26469706673582212203988d718399202c61fd78a27cfd05348bb1943432fafb546531c145f65e2ca9664736f6c63430008140033",
  "linkReferences": {},
  "deployedLinkReferences": {}
}