{
  "_format": "hh-sol-artifact-1",
  "contractName": "TreasureBoxSystem",
  "sourceName": "contracts/TreasureBoxSystem.sol",
  "abi": [
    {
      "inputs": [
        {
          "internalType": "address",
          "name": "_goldToken",
          "type": "address"
        },
        {
          "internalType": "address",
          "name": "_equipmentNFT",
          "type": "address"
        },
        {
          "internalType": "address",
          "name": "_playerNFT",
          "type": "address"
        }
      ],
      "stateMutability": "nonpayable",
      "type": "constructor"
    },
    {
      "inputs": [
        {
          "internalType": "address",
          "name": "owner",
          "type": "address"
        }
      ],
      "name": "OwnableInvalidOwner",
      "type": "error"
    },
    {
      "inputs": [
        {
          "internalType": "address",
          "name": "account",
          "type": "address"
        }
      ],
      "name": "OwnableUnauthorizedAccount",
      "type": "error"
    },
    {
      "anonymous": false,
      "inputs": [
        {
          "indexed": true,
          "internalType": "uint256",
          "name": "playerId",
          "type": "uint256"
        },
        {
          "indexed": false,
          "internalType": "uint256",
          "name": "boxCount",
          "type": "uint256"
        }
      ],
      "name": "OfflineBoxesClaimed",
      "type": "event"
    },
    {
      "anonymous": false,
      "inputs": [
        {
          "indexed": true,
          "internalType": "address",
          "name": "previousOwner",
          "type": "address"
        },
        {
          "indexed": true,
          "internalType": "address",
          "name": "newOwner",
          "type": "address"
        }
      ],
      "name": "OwnershipTransferred",
      "type": "event"
    },
    {
      "anonymous": false,
      "inputs": [
        {
          "indexed": true,
          "internalType": "uint256",
          "name": "playerId",
          "type": "uint256"
        },
        {
          "indexed": false,
          "internalType": "uint8",
          "name": "level",
          "type": "uint8"
        },
        {
          "indexed": false,
          "internalType": "uint8",
          "name": "rarity",
          "type": "uint8"
        }
      ],
      "name": "TreasureBoxAdded",
      "type": "event"
    },
    {
      "anonymous": false,
      "inputs": [
        {
          "indexed": true,
          "internalType": "uint256",
          "name": "playerId",
          "type": "uint256"
        },
        {
          "indexed": false,
          "internalType": "uint256",
          "name": "boxIndex",
          "type": "uint256"
        },
        {
          "indexed": false,
          "internalType": "uint8",
          "name": "rewardType",
          "type": "uint8"
        },
        {
          "indexed": false,
          "internalType": "uint256",
          "name": "goldAmount",
          "type": "uint256"
        },
        {
          "indexed": false,
          "internalType": "uint256[]",
          "name": "equipmentIds",
          "type": "uint256[]"
        },
        {
          "indexed": false,
          "internalType": "uint256",
          "name": "itemId",
          "type": "uint256"
        },
        {
          "indexed": false,
          "internalType": "string",
          "name": "itemName",
          "type": "string"
        },
        {
          "indexed": false,
          "internalType": "uint256",
          "name": "itemLevel",
          "type": "uint256"
        },
        {
          "indexed": false,
          "internalType": "uint256",
          "name": "healAmount",
          "type": "uint256"
        }
      ],
      "name": "TreasureBoxOpened",
      "type": "event"
    },
    {
      "inputs": [],
      "name": "COMMON_RARITY",
      "outputs": [
        {
          "internalType": "uint8",
          "name": "",
          "type": "uint8"
        }
      ],
      "stateMutability": "view",
      "type": "function"
    },
    {
      "inputs": [],
      "name": "CURRENT_LEVEL_PROBABILITY",
      "outputs": [
        {
          "internalType": "uint8",
          "name": "",
          "type": "uint8"
        }
      ],
      "stateMutability": "view",
      "type": "function"
    },
    {
      "inputs": [],
      "name": "EPIC_RARITY",
      "outputs": [
        {
          "internalType": "uint8",
          "name": "",
          "type": "uint8"
        }
      ],
      "stateMutability": "view",
      "type": "function"
    },
    {
      "inputs": [],
      "name": "GOLD_PROBABILITY",
      "outputs": [
        {
          "internalType": "uint8",
          "name": "",
          "type": "uint8"
        }
      ],
      "stateMutability": "view",
      "type": "function"
    },
    {
      "inputs": [],
      "name": "HEALTH_POTION_PROBABILITY",
      "outputs": [
        {
          "internalType": "uint8",
          "name": "",
          "type": "uint8"
        }
      ],
      "stateMutability": "view",
      "type": "function"
    },
    {
      "inputs": [],
      "name": "JOB_BOOK_PROBABILITY",
      "outputs": [
        {
          "internalType": "uint8",
          "name": "",
          "type": "uint8"
        }
      ],
      "stateMutability": "view",
      "type": "function"
    },
    {
      "inputs": [],
      "name": "LEGENDARY_RARITY",
      "outputs": [
        {
          "internalType": "uint8",
          "name": "",
          "type": "uint8"
        }
      ],
      "stateMutability": "view",
      "type": "function"
    },
    {
      "inputs": [],
      "name": "NEXT_LEVEL_PROBABILITY",
      "outputs": [
        {
          "internalType": "uint8",
          "name": "",
          "type": "uint8"
        }
      ],
      "stateMutability": "view",
      "type": "function"
    },
    {
      "inputs": [],
      "name": "PET_EGG_PROBABILITY",
      "outputs": [
        {
          "internalType": "uint8",
          "name": "",
          "type": "uint8"
        }
      ],
      "stateMutability": "view",
      "type": "function"
    },
    {
      "inputs": [],
      "name": "RARE_RARITY",
      "outputs": [
        {
          "internalType": "uint8",
          "name": "",
          "type": "uint8"
        }
      ],
      "stateMutability": "view",
      "type": "function"
    },
    {
      "inputs": [],
      "name": "UNCOMMON_RARITY",
      "outputs": [
        {
          "internalType": "uint8",
          "name": "",
          "type": "uint8"
        }
      ],
      "stateMutability": "view",
      "type": "function"
    },
    {
      "inputs": [
        {
          "internalType": "uint256",
          "name": "playerId",
          "type": "uint256"
        },
        {
          "internalType": "uint8",
          "name": "level",
          "type": "uint8"
        }
      ],
      "name": "addBattleTreasureBox",
      "outputs": [],
      "stateMutability": "nonpayable",
      "type": "function"
    },
    {
      "inputs": [
        {
          "internalType": "address",
          "name": "systemContract",
          "type": "address"
        }
      ],
      "name": "authorizeSystem",
      "outputs": [],
      "stateMutability": "nonpayable",
      "type": "function"
    },
    {
      "inputs": [
        {
          "internalType": "address",
          "name": "",
          "type": "address"
        }
      ],
      "name": "authorizedSystems",
      "outputs": [
        {
          "internalType": "bool",
          "name": "",
          "type": "bool"
        }
      ],
      "stateMutability": "view",
      "type": "function"
    },
    {
      "inputs": [
        {
          "internalType": "uint256",
          "name": "playerId",
          "type": "uint256"
        }
      ],
      "name": "claimOfflineTreasureBoxes",
      "outputs": [
        {
          "internalType": "uint256",
          "name": "",
          "type": "uint256"
        }
      ],
      "stateMutability": "nonpayable",
      "type": "function"
    },
    {
      "inputs": [
        {
          "internalType": "uint256",
          "name": "playerId",
          "type": "uint256"
        }
      ],
      "name": "claimOfflineTreasureBoxesForPlayer",
      "outputs": [
        {
          "internalType": "uint256",
          "name": "",
          "type": "uint256"
        }
      ],
      "stateMutability": "nonpayable",
      "type": "function"
    },
    {
      "inputs": [],
      "name": "equipmentNFT",
      "outputs": [
        {
          "internalType": "contract Equipment",
          "name": "",
          "type": "address"
        }
      ],
      "stateMutability": "view",
      "type": "function"
    },
    {
      "inputs": [
        {
          "internalType": "uint256",
          "name": "playerId",
          "type": "uint256"
        }
      ],
      "name": "getClaimableOfflineBoxes",
      "outputs": [
        {
          "internalType": "uint256",
          "name": "",
          "type": "uint256"
        }
      ],
      "stateMutability": "view",
      "type": "function"
    },
    {
      "inputs": [
        {
          "internalType": "uint256",
          "name": "playerId",
          "type": "uint256"
        },
        {
          "internalType": "uint256",
          "name": "boxIndex",
          "type": "uint256"
        }
      ],
      "name": "getPlayerTreasureBox",
      "outputs": [
        {
          "components": [
            {
              "internalType": "uint8",
              "name": "level",
              "type": "uint8"
            },
            {
              "internalType": "uint8",
              "name": "rarity",
              "type": "uint8"
            },
            {
              "internalType": "uint32",
              "name": "createdTime",
              "type": "uint32"
            },
            {
              "internalType": "bool",
              "name": "opened",
              "type": "bool"
            }
          ],
          "internalType": "struct TreasureBoxSystem.TreasureBox",
          "name": "",
          "type": "tuple"
        }
      ],
      "stateMutability": "view",
      "type": "function"
    },
    {
      "inputs": [
        {
          "internalType": "uint256",
          "name": "playerId",
          "type": "uint256"
        }
      ],
      "name": "getPlayerTreasureBoxCount",
      "outputs": [
        {
          "internalType": "uint256",
          "name": "",
          "type": "uint256"
        }
      ],
      "stateMutability": "view",
      "type": "function"
    },
    {
      "inputs": [
        {
          "internalType": "uint256",
          "name": "playerId",
          "type": "uint256"
        }
      ],
      "name": "getPlayerTreasureBoxes",
      "outputs": [
        {
          "components": [
            {
              "internalType": "uint8",
              "name": "level",
              "type": "uint8"
            },
            {
              "internalType": "uint8",
              "name": "rarity",
              "type": "uint8"
            },
            {
              "internalType": "uint32",
              "name": "createdTime",
              "type": "uint32"
            },
            {
              "internalType": "bool",
              "name": "opened",
              "type": "bool"
            }
          ],
          "internalType": "struct TreasureBoxSystem.TreasureBox[]",
          "name": "",
          "type": "tuple[]"
        }
      ],
      "stateMutability": "view",
      "type": "function"
    },
    {
      "inputs": [
        {
          "internalType": "uint256",
          "name": "playerId",
          "type": "uint256"
        }
      ],
      "name": "getUnopenedBoxCount",
      "outputs": [
        {
          "internalType": "uint256",
          "name": "",
          "type": "uint256"
        }
      ],
      "stateMutability": "view",
      "type": "function"
    },
    {
      "inputs": [],
      "name": "goldToken",
      "outputs": [
        {
          "internalType": "contract AdventureGold",
          "name": "",
          "type": "address"
        }
      ],
      "stateMutability": "view",
      "type": "function"
    },
    {
      "inputs": [
        {
          "internalType": "uint256",
          "name": "playerId",
          "type": "uint256"
        },
        {
          "internalType": "uint256",
          "name": "boxIndex",
          "type": "uint256"
        }
      ],
      "name": "openTreasureBox",
      "outputs": [
        {
          "components": [
            {
              "internalType": "uint8",
              "name": "rewardType",
              "type": "uint8"
            },
            {
              "internalType": "uint256",
              "name": "goldAmount",
              "type": "uint256"
            },
            {
              "internalType": "uint256[]",
              "name": "equipmentIds",
              "type": "uint256[]"
            },
            {
              "internalType": "uint256",
              "name": "itemId",
              "type": "uint256"
            },
            {
              "internalType": "string",
              "name": "itemName",
              "type": "string"
            },
            {
              "internalType": "uint8",
              "name": "itemLevel",
              "type": "uint8"
            },
            {
              "internalType": "uint256",
              "name": "healAmount",
              "type": "uint256"
            }
          ],
          "internalType": "struct TreasureBoxSystem.BoxReward",
          "name": "",
          "type": "tuple"
        }
      ],
      "stateMutability": "nonpayable",
      "type": "function"
    },
    {
      "inputs": [],
      "name": "owner",
      "outputs": [
        {
          "internalType": "address",
          "name": "",
          "type": "address"
        }
      ],
      "stateMutability": "view",
      "type": "function"
    },
    {
      "inputs": [],
      "name": "playerNFT",
      "outputs": [
        {
          "internalType": "contract Player",
          "name": "",
          "type": "address"
        }
      ],
      "stateMutability": "view",
      "type": "function"
    },
    {
      "inputs": [
        {
          "internalType": "uint256",
          "name": "",
          "type": "uint256"
        },
        {
          "internalType": "uint256",
          "name": "",
          "type": "uint256"
        }
      ],
      "name": "playerTreasureBoxes",
      "outputs": [
        {
          "internalType": "uint8",
          "name": "level",
          "type": "uint8"
        },
        {
          "internalType": "uint8",
          "name": "rarity",
          "type": "uint8"
        },
        {
          "internalType": "uint32",
          "name": "createdTime",
          "type": "uint32"
        },
        {
          "internalType": "bool",
          "name": "opened",
          "type": "bool"
        }
      ],
      "stateMutability": "view",
      "type": "function"
    },
    {
      "inputs": [],
      "name": "renounceOwnership",
      "outputs": [],
      "stateMutability": "nonpayable",
      "type": "function"
    },
    {
      "inputs": [
        {
          "internalType": "address",
          "name": "systemContract",
          "type": "address"
        }
      ],
      "name": "revokeSystemAuthorization",
      "outputs": [],
      "stateMutability": "nonpayable",
      "type": "function"
    },
    {
      "inputs": [
        {
          "internalType": "address",
          "name": "newOwner",
          "type": "address"
        }
      ],
      "name": "transferOwnership",
      "outputs": [],
      "stateMutability": "nonpayable",
      "type": "function"
    }
  ],
  "bytecode": "0x6080346200010957601f620026af38819003918201601f19168301916001600160401b038311848410176200010e5780849260609460405283398101031262000109576200004d8162000124565b620000696040620000616020850162000124565b930162000124565b903315620000f057600080546001600160a01b03198082163390811784556040519691956001600160a01b039590948694859391908416907f8be0079c531659141344cd1fd0a4f28419497f9722a3daafe3b4186f6b6457e09080a316856001541617600155168360025416176002551690600354161760035561257590816200013a8239f35b604051631e4fbdf760e01b815260006004820152602490fd5b600080fd5b634e487b7160e01b600052604160045260246000fd5b51906001600160a01b0382168203620001095756fe608080604052600436101561001357600080fd5b600090813560e01c908163032384e0146113aa5750806308456026146113445780630b783bce146112a65780631077d072146112215780632704ed3c1461120557806329db60f1146111e957806335f02b17146110bc5780633ced44de1461109d578063405957b21461028c5780634242d2b114611081578063715018a6146110275780637c755b531461100b578063854b852d14610f4c578063869ae74214610f0757806388850d5f14610ede5780638da5cb5b14610eb757806394002b5714610e8e578063962e0a1614610e65578063a9cd80ce14610445578063ac73b0bc14610357578063b5a9bef714610315578063bd71a521146102f9578063bd7c40c7146102dd578063c058540414610291578063cb338ea81461028c578063cbc1e60f14610262578063d4d839511461023b578063db2c0b911461021f578063f1a68103146102035763f2fde38b1461016b57600080fd5b34610200576020366003190112610200576004356001600160a01b03818116918290036101fc5761019a611472565b81156101e357600054826bffffffffffffffffffffffff60a01b821617600055167f8be0079c531659141344cd1fd0a4f28419497f9722a3daafe3b4186f6b6457e0600080a380f35b604051631e4fbdf760e01b815260048101849052602490fd5b8280fd5b80fd5b50346102005780600319360112610200576020604051600d8152f35b50346102005780600319360112610200576020604051600a8152f35b503461020057602036600319011261020057602061025a6004356124c1565b604051908152f35b50346102005760203660031901126102005760406020916004358152600483522054604051908152f35b61140e565b5034610200576020366003190112610200576004356001600160a01b038116908190036102d9576102c0611472565b8152600560205260408120805460ff1916600117905580f35b5080fd5b5034610200578060031936011261020057602060405160028152f35b50346102005780600319360112610200576020604051603c8152f35b5034610200576020366003190112610200576004356001600160a01b038116908190036102d95760408260ff9260209452600584522054166040519015158152f35b5034610200576020908160031936011261020057906004358252600481526040822080546103848161192e565b90610392604051928361157b565b8082528382018093865284862086915b83831061041f57505050506040519280840191818552518092526040840192945b8281106103d05784840385f35b909192826080826104106001948a516060809160ff815116845260ff602082015116602085015263ffffffff604082015116604085015201511515910152565b019601910194929190946103c3565b6001878192610432859b9a98999b612483565b81520192019201919096949395966103a2565b503461020057610454366113c5565b9061045d611bbd565b506003546040516331a9108f60e11b81526004810183905290602090829060249082906001600160a01b03165afa8015610b07576104ad918591610e36575b506001600160a01b03163314611659565b80835260046020526104c460408420548310611bf6565b80835260046020526104d982604085206113e0565b50805460ff8160301c16610dfc5760ff8061051093660100000000000066ff0000000000001985161780915560081c169116611d5a565b91602083015180610d22575b5060408301515161068a575b60ff8351169060208401516040850151606086015160808701519060ff60a0890151169460c0890151946040519761010089019289526020890152604088015261010060608801528351809152602061012088019401908a5b818110610674575050508594928594926105c89260807fe1a1ef9d7d16c11a1bb78d12c1a168902e13569a0a5cc15cdbbf5106e333f28899015285820360a087015261144d565b9160c084015260e08301520390a2604051906020825261010082019260ff82511660208401526020820151604084015260408201519360e060608501528451809152602061012085019501915b81811061065e5750505060c06106468394606084015160808601526080840151601f198683030160a087015261144d565b9160ff60a08201511682850152015160e08301520390f35b8251865260209586019590920191600101610615565b8251865260209586019590920191600101610581565b9192805b604085015151811015610d1a5760a0850151604051602081019042825285604082015260ff60f81b8360f81b166060820152604181526106cd816114db565b5190206106d8612320565b8491908280808060ff8516610cd7576064935b60078716600303610b7d57505050606461ffff61071f60ff89169460ff61071961071488612390565b611b9a565b166123a5565b16049160ff61073f610714610739607f8b60011c16611b89565b93612390565b16905b604051938461010081011067ffffffffffffffff61010087011117610b675761010085016040526107766101008601611527565b600661010086019081526512195b1b595d60d21b610120870152855260405161079e81611527565b600581526420b936b7b960d91b602082015260208601526040516107c181611527565b600581526453686f657360d81b602082015260408601526040516107e481611527565b60068152652bb2b0b837b760d11b6020820152606086015260405161080881611527565b600681526514da1a595b1960d21b6020820152608086015260405161082c81611527565b60098152684163636573736f727960b81b602082015260a086015260405161085381611527565b600481526352696e6760e01b602082015260c086015260405161087581611527565b600381526214195d60ea1b602082015260e08601526040518060a081011067ffffffffffffffff60a083011117610b675760a081016040526108b960a08201611527565b600660a082019081526521b7b6b6b7b760d11b60c083015281526040516108df81611527565b60088152672ab731b7b6b6b7b760c11b6020820152602082015260405161090581611527565b60048152635261726560e01b6020820152604082015260405161092781611527565b60048152634570696360e01b6020820152606082015260405161094981611527565b60098152684c6567656e6461727960b81b60208201526080820152600560ff88161015610b5357611fe08760051b160151946008600789161015610b53578760051b60e01601516040518681975190816020840191602001916109ab9261142a565b810160208101600160fd1b90528251906021938285830191602001916109d09261142a565b0103600181018752016109e3908661157b565b600160a01b600190036002541697600160a01b6001900360035416966040519a8b998a99630150d33d60e21b8b5260048b015260071660248a015260ff1660448901528c606489015260ff16608488015261ffff80958180941660a48a01521660c48801521660e486015260ff1661010485015216610124830152610144820161016090526101648201610a769161144d565b0381865a94602095f1908115610b48578391610b16575b506003546001600160a01b0316803b15610b125783809160446040518094819363f9b3647360e01b83528a60048401528760248401525af18015610b0757908491610af3575b505090610aee91610ae8826040890151611c45565b52611c36565b61068e565b610afc906114f7565b6101fc578238610ad3565b6040513d86823e3d90fd5b8380fd5b90506020813d602011610b40575b81610b316020938361157b565b810103126101fc575138610a8d565b3d9150610b24565b6040513d85823e3d90fd5b634e487b7160e01b8c52603260045260248cfd5b634e487b7160e01b600052604160045260246000fd5b90919360016007881614809481159182610ccc575b8015610cbf575b15610c32575060ff808b1660030111610c0f57606461ffff610bc38460ff808f16600301166123a5565b16049490610c25575b610bd8575b505b610742565b600360ff8a1602908160ff811603610c0f5760ff808316600a0111610c0f5760ff80610c089316600a01166123a5565b5038610bd1565b634e487b7160e01b600052601160045260246000fd5b5060046007881614610bcc565b945050600297919791826007891614600014610c73575060ff808a16830111610c0f57610c6b61ffff9160ff606494818d1601166123a5565b160495610742565b97915050600560078716148015610cb2575b15610bd3575050610c9b607f8760011c16611b89565b60ff610cab610714828a16612390565b1690610742565b5060066007871614610c85565b50600460078a1614610b99565b506007891615610b92565b60ff8516600103610cea576096936106eb565b60ff8516600203610cfd5760c8936106eb565b60ff8516600303610d115761012c936106eb565b6101f4936106eb565b509291610528565b6001546003546001600160a01b03918216928792909116833b156101fc576044908360405195869485936340c10f1960e01b8552600485015260248401525af18015610df157610dde575b50600354602084015185916001600160a01b031690813b156101fc578291604483926040519485938492630329022d60e11b84528a600485015260248401525af18015610dd357610dbf575b5061051c565b610dc8906114f7565b610b12578338610db9565b6040513d84823e3d90fd5b610dea909491946114f7565b9238610d6d565b6040513d87823e3d90fd5b60405162461bcd60e51b8152602060048201526012602482015271109bde08185b1c9958591e481bdc195b995960721b6044820152606490fd5b610e58915060203d602011610e5e575b610e50818361157b565b81019061163a565b3861049c565b503d610e46565b50346102005780600319360112610200576002546040516001600160a01b039091168152602090f35b50346102005780600319360112610200576001546040516001600160a01b039091168152602090f35b5034610200578060031936011261020057546040516001600160a01b039091168152602090f35b50346102005780600319360112610200576003546040516001600160a01b039091168152602090f35b5034610200576020366003190112610200576004356001600160a01b038116908190036102d957610f36611472565b8152600560205260408120805460ff1916905580f35b5034610200576020806003193601126102d9578160043583526004825260408320928354610f798161192e565b94610f87604051968761157b565b81865282528382208290858088015b848410610fed5750505050505b8351811015610fe4576060610fb88286611c45565b51015115610fcf575b610fca90611c36565b610fa3565b90610fdc610fca91611c36565b919050610fc1565b50604051908152f35b6001918291610ffb85612483565b8152019201920191908690610f96565b5034610200578060031936011261020057602060405160178152f35b5034610200578060031936011261020057611040611472565b80546001600160a01b03198116825581906001600160a01b03167f8be0079c531659141344cd1fd0a4f28419497f9722a3daafe3b4186f6b6457e08280a380f35b5034610200578060031936011261020057602060405160078152f35b503461020057602036600319011261020057602061025a6004356116a5565b50346102005760403660031901126102005760043560243560ff8116808203610b1257338452600560205260ff60408520541680156111d6575b6110ff9061149e565b6001811015806111cb575b15611192578161117961113d7f90459f2cee169c6d1d2f1f69c3d316192c0092e3bdd8c4e540cc906ce5ff1f4a94611c59565b9285875260046020526040872060405191611157836114db565b825260ff8516602083015263ffffffff4216604083015287606083015261159d565b6040805160ff928316815292909116602083015290a280f35b60405162461bcd60e51b8152602060048201526011602482015270125b9d985b1a5908189bde081b195d995b607a1b6044820152606490fd5b50600a81111561110a565b5083546001600160a01b031633146110f6565b50346102005780600319360112610200576020604051605f8152f35b5034610200578060031936011261020057602060405160088152f35b503461020057602036600319011261020057600435602460018060a01b0360208160035416604051938480926331a9108f60e11b82528760048301525afa918215610b0757916112829161025a949360209692611287575b50163314611659565b6116a5565b61129f919250863d8111610e5e57610e50818361157b565b9038611279565b50346102005761130961130360809260406112c0366113c5565b929081606084516112d0816114db565b8281528260208201528286820152015280825260046020526112f6838320548510611bf6565b81526004602052206113e0565b50612483565b61134260405180926060809160ff815116845260ff602082015116602085015263ffffffff604082015116604085015201511515910152565bf35b503461020057611353366113c5565b9190815260046020526040812090815483101561020057608061137684846113e0565b505460ff604051918181168352818160081c16602084015263ffffffff8160101c16604084015260301c1615156060820152f35b9050346102d957816003193601126102d95780600160209252f35b60409060031901126113db576004359060243590565b600080fd5b80548210156113f85760005260206000200190600090565b634e487b7160e01b600052603260045260246000fd5b346113db5760003660031901126113db57602060405160058152f35b60005b83811061143d5750506000910152565b818101518382015260200161142d565b906020916114668151809281855285808601910161142a565b601f01601f1916010190565b6000546001600160a01b0316330361148657565b60405163118cdaa760e01b8152336004820152602490fd5b156114a557565b60405162461bcd60e51b815260206004820152600e60248201526d139bdd08185d5d1a1bdc9a5e995960921b6044820152606490fd5b6080810190811067ffffffffffffffff821117610b6757604052565b67ffffffffffffffff8111610b6757604052565b60e0810190811067ffffffffffffffff821117610b6757604052565b6040810190811067ffffffffffffffff821117610b6757604052565b6060810190811067ffffffffffffffff821117610b6757604052565b6020810190811067ffffffffffffffff821117610b6757604052565b90601f8019910116810190811067ffffffffffffffff821117610b6757604052565b805468010000000000000000811015610b67576115bf916001820181556113e0565b91909161162457805182546020830151604084015160609094015166ffffffffffffff1990921660ff939093169290921760089290921b61ff00169190911760109290921b65ffffffff0000169190911790151560301b66ff00000000000016179055565b634e487b7160e01b600052600060045260246000fd5b908160209103126113db57516001600160a01b03811681036113db5790565b1561166057565b60405162461bcd60e51b815260206004820152601760248201527f4e6f74206f776e6572206f6620706c61796572204e46540000000000000000006044820152606490fd5b6000903382526020916005835260ff9060409282848320541680156118d1575b6116ce9061149e565b60039060018060a01b0382541695855195631cab5c9d60e31b8752600493838589015260249786818a818d5afa9081156118c7576101e060149261171c928a916118a5575b50015142611b6f565b049860648a1161189c575b89611739575b50505050505050505090565b809a9495979996989a3b156118985788868c8a8387519586948593634545d58d60e11b85528401525af1801561188e5761187b575b5092944263ffffffff169390885b8a8116828110156118395790877f90459f2cee169c6d1d2f1f69c3d316192c0092e3bdd8c4e540cc906ce5ff1f4a8b8d8f958a8c6117c9898c6117c26118039642611b7c565b0616611bab565b936117d385611c59565b9588825283528c8120918d51936117e9856114db565b8b871685528b8816908501528d840152606083015261159d565b885160ff918216815291166020820152604090a2168a81146118275760010161177c565b634e487b7160e01b8a52601189528b8afd5b5050985050929550929650507f47e0615895c3ba400273ed4da20954209009ffbd1511b299fb5f3d029777343b925051848152a238808080808080808061172d565b611887909891986114f7565b963861176e565b83513d8b823e3d90fd5b8880fd5b60649950611727565b6118c191503d808c833e6118b9818361157b565b810190611946565b38611713565b83513d89823e3d90fd5b5081546001600160a01b031633146116c5565b67ffffffffffffffff8111610b6757601f01601f191660200190565b519061ffff821682036113db57565b519063ffffffff821682036113db57565b519060ff821682036113db57565b67ffffffffffffffff8111610b675760051b60200190565b602080828403126113db57815167ffffffffffffffff928382116113db5701906102809384838203126113db57604093845195860186811082821117610b6757855283518181116113db57840182601f820112156113db578051906119aa826118e4565b916119b78851938461157b565b808352848682840101116113db576119d49186808501910161142a565b86526119e1838501611900565b838701526119f085850161190f565b85870152611a0060608501611900565b6060870152611a1160808501611900565b6080870152611a2260a08501611900565b60a0870152611a3360c08501611900565b60c0870152611a4460e08501611900565b60e0870152610100611a57818601611920565b90870152610120611a69818601611900565b90870152610140611a7b818601611920565b90870152610160611a8d818601611920565b90870152610180611a9f81860161190f565b908701526101a0611ab1818601611900565b908701526101c0611ac3818601611900565b908701526101e08085015190870152610200808501519081151582036113db57870152610220611af4818601611920565b90870152610240808501519087015261026093848101519182116113db570181601f820112156113db57805190611b36611b2d8361192e565b9651968761157b565b818652838087019260051b8201019283116113db578301905b828210611b60575050505082015290565b81518152908301908301611b4f565b91908203918211610c0f57565b91908201809211610c0f57565b60ff166001019060ff8211610c0f57565b60ff166005019060ff8211610c0f57565b60ff60019116019060ff8211610c0f57565b60405190611bca8261150b565b600060c08382815282602082015260606040820152826060820152606060808201528260a08201520152565b15611bfd57565b60405162461bcd60e51b8152602060048201526011602482015270092dcecc2d8d2c840c4def040d2dcc8caf607b1b6044820152606490fd5b6000198114610c0f5760010190565b80518210156113f85760209160051b010190565b6103e860405160208101904282523360601b604082015260ff84169360ff60f81b9060f81b16605482015260358152611c9181611543565b519020069060028111611cb257506103201115611cad57600090565b600190565b60058111611cde57506101f4811015611ccb5750600090565b6103521115611cd957600190565b600290565b600810611d185761012c811015611cf55750600090565b6102bc811015611d055750600190565b6103b61115611d1357600290565b600390565b60c8811015611d275750600090565b6101f4811015611d375750600190565b610320811015611d475750600290565b6103b61115611d5557600390565b600490565b611d62611bbd565b50611d6c816122ae565b60409081519260209485850142815260609533871b928387830152606460ff938487169360ff60f81b80809960f81b169485605484015260f81b16605582015260368152611db981611543565b519020066001811015611e9457505050831692601984029380850460191490151715610c0f57603292855191888301934285528784015260f81b1660548201526319dbdb1960e21b605582015260398152611e1381611543565b51902006906032019081603211610c0f57611e2d91611b7c565b670de0b6b3a764000090818102918183041490151715610c0f57815192611e538461155f565b6000938492838252845196611e678861150b565b8488528701528386015284015251611e7e8161155f565b81815260808301528060a083015260c082015290565b909192969495979350600e8110600014611fa457505050848416936000198501818111610c0f5716601981029080820460191490151715610c0f576032019485603211610c0f57611ee4856123be565b93611f3360308551809761263b60f11b8c830152611f0c8c825192839160228601910161142a565b81016d102432b0b63a34102837ba34b7b760911b602282015203601081018852018661157b565b835190888201926c3432b0b63a342fb837ba34b7b760991b845260f81b16602d820152600e8152611f6381611527565b51902091805190611f738261155f565b600082526000815198611f858a61150b565b60028a52890152870152850152608084015260a083015260c082015290565b60168197949596971060001461207857505050841693611fc3856123be565b9361200b602a8551809761263b60f11b8b830152611fea815180928d60228601910161142a565b810167205065742045676760c01b602282015203600a81018852018661157b565b83519087820192667065745f65676760c81b845260f81b1660278201526008815261203581611527565b519020918051906120458261155f565b6000825260008151976120578961150b565b60038952880152860152840152608083015260a0820152600060c082015290565b601d919650969196106000146122485750506002841161213157815161209d81611527565b601881527f47726561742053776f7264736d616e204a6f6220426f6f6b000000000000000086820152925b825186810191676a6f625f626f6f6b60c01b83526028820152600981526120ee81611527565b519020918051906120fe8261155f565b6000825260008151976121108961150b565b60048952880152860152840152608083015260a0820152600060c082015290565b6004841161216c57815161214481611527565b601681527554656d706c65204b6e69676874204a6f6220426f6f6b60501b86820152926120c8565b600684116121a757815161217f81611527565b6016815275447261676f6e204b6e69676874204a6f6220426f6f6b60501b86820152926120c8565b600884116121e15781516121ba81611527565b601581527453776f7264204d6173746572204a6f6220426f6f6b60581b86820152926120c8565b600a84116122185781516121f481611527565b601281527153776f726420476f64204a6f6220426f6f6b60701b86820152926120c8565b815161222381611527565b6013815272506c616e65204c6f7264204a6f6220426f6f6b60681b86820152926120c8565b9350935081519061225882611527565b6001825285820191863684378051156113f85760008093528284519761227d8961150b565b6001895288015283870152850152516122958161155f565b6000815260808401521660a0820152600060c082015290565b605f606460405160208101904282523360601b604082015260ff60f81b8560f81b1660548201526a1c995dd85c9913195d995b60aa1b6055820152604081526122f681611543565b5190200610156123035790565b600a60ff8216106123145750600a90565b61231d90611bab565b90565b606460405160208101904282523360601b60408201526572617269747960d01b6054820152603a815261235281611543565b51902006603c8110156123655750600090565b60538110156123745750600190565b605d8110156123835750600290565b60621115611d5557600390565b60011b906101fe60fe831692168203610c0f57565b91909161ffff80809416911602918216918203610c0f57565b801561246557600081805b61245157506123d7816118e4565b906123e5604051928361157b565b808252601f196123f4826118e4565b013660208401375b8092801561244a576000198201918211610c0f578193600a926030908484068201809211610c0f57855111156113f85760f81b6001600160f81b03191660001a908401601f015304916123fc565b5050905090565b9061245d600a91611c36565b9104806123c9565b5060405161247281611527565b60018152600360fc1b602082015290565b90604051612490816114db565b606060ff8294548181168452818160081c16602085015263ffffffff8160101c16604085015260301c161515910152565b600354604051631cab5c9d60e31b81526004810192909252600090829060249082906001600160a01b03165afa8015612533576101e061250e916014936000916125205750015142611b6f565b046064811161251a5790565b50606490565b6118c1913d8091833e6118b9818361157b565b6040513d6000823e3d90fdfea264697066735822122097fcdba87baab4cdd3164930cb0440509bdee48e9a8397eb14297a9855ff1b8164736f6c63430008140033",
  "linkReferences": {},
  "deployedLinkReferences": {}
}