{
  "_format": "hh-sol-artifact-1",
  "contractName": "AdventureGold",
  "sourceName": "contracts/AdventureGold.sol",
  "abi": [
    {
      "inputs": [],
      "stateMutability": "nonpayable",
      "type": "constructor"
    },
    {
      "inputs": [
        {
          "internalType": "address",
          "name": "spender",
          "type": "address"
        },
        {
          "internalType": "uint256",
          "name": "allowance",
          "type": "uint256"
        },
        {
          "internalType": "uint256",
          "name": "needed",
          "type": "uint256"
        }
      ],
      "name": "ERC20InsufficientAllowance",
      "type": "error"
    },
    {
      "inputs": [
        {
          "internalType": "address",
          "name": "sender",
          "type": "address"
        },
        {
          "internalType": "uint256",
          "name": "balance",
          "type": "uint256"
        },
        {
          "internalType": "uint256",
          "name": "needed",
          "type": "uint256"
        }
      ],
      "name": "ERC20InsufficientBalance",
      "type": "error"
    },
    {
      "inputs": [
        {
          "internalType": "address",
          "name": "approver",
          "type": "address"
        }
      ],
      "name": "ERC20InvalidApprover",
      "type": "error"
    },
    {
      "inputs": [
        {
          "internalType": "address",
          "name": "receiver",
          "type": "address"
        }
      ],
      "name": "ERC20InvalidReceiver",
      "type": "error"
    },
    {
      "inputs": [
        {
          "internalType": "address",
          "name": "sender",
          "type": "address"
        }
      ],
      "name": "ERC20InvalidSender",
      "type": "error"
    },
    {
      "inputs": [
        {
          "internalType": "address",
          "name": "spender",
          "type": "address"
        }
      ],
      "name": "ERC20InvalidSpender",
      "type": "error"
    },
    {
      "inputs": [
        {
          "internalType": "address",
          "name": "owner",
          "type": "address"
        }
      ],
      "name": "OwnableInvalidOwner",
      "type": "error"
    },
    {
      "inputs": [
        {
          "internalType": "address",
          "name": "account",
          "type": "address"
        }
      ],
      "name": "OwnableUnauthorizedAccount",
      "type": "error"
    },
    {
      "anonymous": false,
      "inputs": [
        {
          "indexed": true,
          "internalType": "address",
          "name": "owner",
          "type": "address"
        },
        {
          "indexed": true,
          "internalType": "address",
          "name": "spender",
          "type": "address"
        },
        {
          "indexed": false,
          "internalType": "uint256",
          "name": "value",
          "type": "uint256"
        }
      ],
      "name": "Approval",
      "type": "event"
    },
    {
      "anonymous": false,
      "inputs": [
        {
          "indexed": true,
          "internalType": "address",
          "name": "previousOwner",
          "type": "address"
        },
        {
          "indexed": true,
          "internalType": "address",
          "name": "newOwner",
          "type": "address"
        }
      ],
      "name": "OwnershipTransferred",
      "type": "event"
    },
    {
      "anonymous": false,
      "inputs": [
        {
          "indexed": true,
          "internalType": "address",
          "name": "from",
          "type": "address"
        },
        {
          "indexed": true,
          "internalType": "address",
          "name": "to",
          "type": "address"
        },
        {
          "indexed": false,
          "internalType": "uint256",
          "name": "value",
          "type": "uint256"
        }
      ],
      "name": "Transfer",
      "type": "event"
    },
    {
      "inputs": [
        {
          "internalType": "address",
          "name": "owner",
          "type": "address"
        },
        {
          "internalType": "address",
          "name": "spender",
          "type": "address"
        }
      ],
      "name": "allowance",
      "outputs": [
        {
          "internalType": "uint256",
          "name": "",
          "type": "uint256"
        }
      ],
      "stateMutability": "view",
      "type": "function"
    },
    {
      "inputs": [
        {
          "internalType": "address",
          "name": "spender",
          "type": "address"
        },
        {
          "internalType": "uint256",
          "name": "value",
          "type": "uint256"
        }
      ],
      "name": "approve",
      "outputs": [
        {
          "internalType": "bool",
          "name": "",
          "type": "bool"
        }
      ],
      "stateMutability": "nonpayable",
      "type": "function"
    },
    {
      "inputs": [
        {
          "internalType": "address",
          "name": "account",
          "type": "address"
        }
      ],
      "name": "balanceOf",
      "outputs": [
        {
          "internalType": "uint256",
          "name": "",
          "type": "uint256"
        }
      ],
      "stateMutability": "view",
      "type": "function"
    },
    {
      "inputs": [
        {
          "internalType": "address",
          "name": "from",
          "type": "address"
        },
        {
          "internalType": "uint256",
          "name": "amount",
          "type": "uint256"
        }
      ],
      "name": "burn",
      "outputs": [],
      "stateMutability": "nonpayable",
      "type": "function"
    },
    {
      "inputs": [],
      "name": "decimals",
      "outputs": [
        {
          "internalType": "uint8",
          "name": "",
          "type": "uint8"
        }
      ],
      "stateMutability": "view",
      "type": "function"
    },
    {
      "inputs": [
        {
          "internalType": "address",
          "name": "to",
          "type": "address"
        },
        {
          "internalType": "uint256",
          "name": "amount",
          "type": "uint256"
        }
      ],
      "name": "mint",
      "outputs": [],
      "stateMutability": "nonpayable",
      "type": "function"
    },
    {
      "inputs": [],
      "name": "name",
      "outputs": [
        {
          "internalType": "string",
          "name": "",
          "type": "string"
        }
      ],
      "stateMutability": "view",
      "type": "function"
    },
    {
      "inputs": [],
      "name": "owner",
      "outputs": [
        {
          "internalType": "address",
          "name": "",
          "type": "address"
        }
      ],
      "stateMutability": "view",
      "type": "function"
    },
    {
      "inputs": [],
      "name": "renounceOwnership",
      "outputs": [],
      "stateMutability": "nonpayable",
      "type": "function"
    },
    {
      "inputs": [],
      "name": "symbol",
      "outputs": [
        {
          "internalType": "string",
          "name": "",
          "type": "string"
        }
      ],
      "stateMutability": "view",
      "type": "function"
    },
    {
      "inputs": [],
      "name": "totalSupply",
      "outputs": [
        {
          "internalType": "uint256",
          "name": "",
          "type": "uint256"
        }
      ],
      "stateMutability": "view",
      "type": "function"
    },
    {
      "inputs": [
        {
          "internalType": "address",
          "name": "to",
          "type": "address"
        },
        {
          "internalType": "uint256",
          "name": "value",
          "type": "uint256"
        }
      ],
      "name": "transfer",
      "outputs": [
        {
          "internalType": "bool",
          "name": "",
          "type": "bool"
        }
      ],
      "stateMutability": "nonpayable",
      "type": "function"
    },
    {
      "inputs": [
        {
          "internalType": "address",
          "name": "from",
          "type": "address"
        },
        {
          "internalType": "address",
          "name": "to",
          "type": "address"
        },
        {
          "internalType": "uint256",
          "name": "value",
          "type": "uint256"
        }
      ],
      "name": "transferFrom",
      "outputs": [
        {
          "internalType": "bool",
          "name": "",
          "type": "bool"
        }
      ],
      "stateMutability": "nonpayable",
      "type": "function"
    },
    {
      "inputs": [
        {
          "internalType": "address",
          "name": "newOwner",
          "type": "address"
        }
      ],
      "name": "transferOwnership",
      "outputs": [],
      "stateMutability": "nonpayable",
      "type": "function"
    }
  ],
  "bytecode": "0x608034620003a1576040906001600160401b0390808301828111828210176200038b578352600e81526020916d10591d995b9d1d5c994811dbdb1960921b83830152835192848401848110838211176200038b5785526004938481526311d3d31160e21b8282015283519083821162000376576003928354926001968785811c951680156200036b575b8386101462000356578190601f9586811162000300575b50839086831160011462000299576000926200028d575b505060001982871b1c191690871b1784555b8151948511620002785786548681811c911680156200026d575b8282101462000258578381116200020d575b50809285116001146200019f575093839491849260009562000193575b50501b92600019911b1c19161781555b33156200017d575060058054336001600160a01b0319821681179092559151916001600160a01b03167f8be0079c531659141344cd1fd0a4f28419497f9722a3daafe3b4186f6b6457e0600080a36109be9081620003a78239f35b60006024925191631e4fbdf760e01b8352820152fd5b01519350388062000112565b92919084601f1981168860005285600020956000905b89838310620001f25750505010620001d7575b50505050811b01815562000122565b01519060f884600019921b161c1916905538808080620001c8565b858701518955909701969485019488935090810190620001b5565b87600052816000208480880160051c8201928489106200024e575b0160051c019087905b82811062000241575050620000f5565b6000815501879062000231565b9250819262000228565b602288634e487b7160e01b6000525260246000fd5b90607f1690620000e3565b604187634e487b7160e01b6000525260246000fd5b015190503880620000b7565b90899350601f1983169188600052856000209260005b87828210620002e95750508411620002d0575b505050811b018455620000c9565b015160001983891b60f8161c19169055388080620002c2565b8385015186558d97909501949384019301620002af565b90915086600052836000208680850160051c8201928686106200034c575b918b91869594930160051c01915b8281106200033c575050620000a0565b600081558594508b91016200032c565b925081926200031e565b602289634e487b7160e01b6000525260246000fd5b94607f169462000089565b604186634e487b7160e01b6000525260246000fd5b634e487b7160e01b600052604160045260246000fd5b600080fdfe6080604081815260048036101561001557600080fd5b600092833560e01c90816306fdde031461070f57508063095ea7b31461066657806318160ddd1461064757806323b872dd14610554578063313ce5671461053857806340c10f191461048957806370a0823114610452578063715018a6146103f25780638da5cb5b146103c957806395d89b41146102a95780639dc29fac146101cd578063a9059cbb1461019c578063dd62ed3e1461014f5763f2fde38b146100bd57600080fd5b3461014b57602036600319011261014b576100d661084d565b906100df61087e565b6001600160a01b03918216928315610135575050600554826bffffffffffffffffffffffff60a01b821617600555167f8be0079c531659141344cd1fd0a4f28419497f9722a3daafe3b4186f6b6457e08380a380f35b51631e4fbdf760e01b8152908101849052602490fd5b8280fd5b5050346101985780600319360112610198578060209261016d61084d565b610175610868565b6001600160a01b0391821683526001865283832091168252845220549051908152f35b5080fd5b5050346101985780600319360112610198576020906101c66101bc61084d565b60243590336108aa565b5160018152f35b508290346101985782600319360112610198576101e861084d565b90602435906101f561087e565b6001600160a01b0383169283156102925783855284602052858520549183831061025e5750508184957fddf252ad1be2c89b69c2b068fc378daa952ba7f163c4a11628f55a4df523b3ef936020938688528785520381872055816002540360025551908152a380f35b865163391434e360e21b81526001600160a01b03909216908201908152602081018390526040810184905281906060010390fd5b8551634b637e8f60e11b8152808301869052602490fd5b50919034610198578160031936011261019857805190828454600181811c908083169283156103bf575b60209384841081146103ac57838852908115610390575060011461033b575b505050829003601f01601f191682019267ffffffffffffffff8411838510176103285750829182610324925282610804565b0390f35b634e487b7160e01b815260418552602490fd5b8787529192508591837f8a35acfbc15ff81a39ae7d344fd709f28e8600b4aa8c65c6b64bfe7fe36bd19b5b83851061037c57505050508301013880806102f2565b805488860183015293019284908201610366565b60ff1916878501525050151560051b84010190503880806102f2565b634e487b7160e01b895260228a52602489fd5b91607f16916102d3565b50503461019857816003193601126101985760055490516001600160a01b039091168152602090f35b833461044f578060031936011261044f5761040b61087e565b600580546001600160a01b0319811690915581906001600160a01b03167f8be0079c531659141344cd1fd0a4f28419497f9722a3daafe3b4186f6b6457e08280a380f35b80fd5b5050346101985760203660031901126101985760209181906001600160a01b0361047a61084d565b16815280845220549051908152f35b50903461014b578060031936011261014b576104a361084d565b90602435916104b061087e565b6001600160a01b03169283156105235760025490838201809211610510575084927fddf252ad1be2c89b69c2b068fc378daa952ba7f163c4a11628f55a4df523b3ef9260209260025585855284835280852082815401905551908152a380f35b634e487b7160e01b865260119052602485fd5b84602492519163ec442f0560e01b8352820152fd5b5050346101985781600319360112610198576020905160128152f35b50823461044f57606036600319011261044f5761056f61084d565b610577610868565b916044359360018060a01b0383168083526001602052868320338452602052868320549160001983106105b3575b6020886101c68989896108aa565b86831061061b5781156106045733156105ed575082526001602090815286832033845281529186902090859003905582906101c6876105a5565b8751634a1406b160e11b8152908101849052602490fd5b875163e602df0560e01b8152908101849052602490fd5b8751637dc7a0d960e11b8152339181019182526020820193909352604081018790528291506060010390fd5b5050346101985781600319360112610198576020906002549051908152f35b503461014b578160031936011261014b5761067f61084d565b6024359033156106f8576001600160a01b03169182156106e157508083602095338152600187528181208582528752205582519081527f8c5be1e5ebec7d5bd14f71427d1e84f3dd0314c0f7b2291e5b200ac8c7c3b925843392a35160018152f35b8351634a1406b160e11b8152908101859052602490fd5b835163e602df0560e01b8152808401869052602490fd5b849150833461014b578260031936011261014b5782600354600181811c908083169283156107fa575b60209384841081146103ac578388529081156107de575060011461078857505050829003601f01601f191682019267ffffffffffffffff8411838510176103285750829182610324925282610804565b600387529192508591837fc2575a0e9e593c00f959f8c92f12db2869c3395a3b0502d05e2516446f71f85b5b8385106107ca57505050508301018580806102f2565b8054888601830152930192849082016107b4565b60ff1916878501525050151560051b84010190508580806102f2565b91607f1691610738565b6020808252825181830181905290939260005b82811061083957505060409293506000838284010152601f8019910116010190565b818101860151848201604001528501610817565b600435906001600160a01b038216820361086357565b600080fd5b602435906001600160a01b038216820361086357565b6005546001600160a01b0316330361089257565b60405163118cdaa760e01b8152336004820152602490fd5b916001600160a01b0380841692831561096f57169283156109565760009083825281602052604082205490838210610924575091604082827fddf252ad1be2c89b69c2b068fc378daa952ba7f163c4a11628f55a4df523b3ef958760209652828652038282205586815220818154019055604051908152a3565b60405163391434e360e21b81526001600160a01b03919091166004820152602481019190915260448101839052606490fd5b60405163ec442f0560e01b815260006004820152602490fd5b604051634b637e8f60e11b815260006004820152602490fdfea2646970667358221220cd1e7d3b03af812f8378a51c3302a5b3965be75c028ecd5782ec70c0f16048f064736f6c63430008140033",
  "linkReferences": {},
  "deployedLinkReferences": {}
}