{
  "_format": "hh-sol-artifact-1",
  "contractName": "Equipment",
  "sourceName": "contracts/TreasureAdventure.sol",
  "abi": [
    {
      "inputs": [],
      "stateMutability": "nonpayable",
      "type": "constructor"
    },
    {
      "inputs": [
        {
          "internalType": "address",
          "name": "sender",
          "type": "address"
        },
        {
          "internalType": "uint256",
          "name": "tokenId",
          "type": "uint256"
        },
        {
          "internalType": "address",
          "name": "owner",
          "type": "address"
        }
      ],
      "name": "ERC721IncorrectOwner",
      "type": "error"
    },
    {
      "inputs": [
        {
          "internalType": "address",
          "name": "operator",
          "type": "address"
        },
        {
          "internalType": "uint256",
          "name": "tokenId",
          "type": "uint256"
        }
      ],
      "name": "ERC721InsufficientApproval",
      "type": "error"
    },
    {
      "inputs": [
        {
          "internalType": "address",
          "name": "approver",
          "type": "address"
        }
      ],
      "name": "ERC721InvalidApprover",
      "type": "error"
    },
    {
      "inputs": [
        {
          "internalType": "address",
          "name": "operator",
          "type": "address"
        }
      ],
      "name": "ERC721InvalidOperator",
      "type": "error"
    },
    {
      "inputs": [
        {
          "internalType": "address",
          "name": "owner",
          "type": "address"
        }
      ],
      "name": "ERC721InvalidOwner",
      "type": "error"
    },
    {
      "inputs": [
        {
          "internalType": "address",
          "name": "receiver",
          "type": "address"
        }
      ],
      "name": "ERC721InvalidReceiver",
      "type": "error"
    },
    {
      "inputs": [
        {
          "internalType": "address",
          "name": "sender",
          "type": "address"
        }
      ],
      "name": "ERC721InvalidSender",
      "type": "error"
    },
    {
      "inputs": [
        {
          "internalType": "uint256",
          "name": "tokenId",
          "type": "uint256"
        }
      ],
      "name": "ERC721NonexistentToken",
      "type": "error"
    },
    {
      "inputs": [
        {
          "internalType": "address",
          "name": "owner",
          "type": "address"
        }
      ],
      "name": "OwnableInvalidOwner",
      "type": "error"
    },
    {
      "inputs": [
        {
          "internalType": "address",
          "name": "account",
          "type": "address"
        }
      ],
      "name": "OwnableUnauthorizedAccount",
      "type": "error"
    },
    {
      "anonymous": false,
      "inputs": [
        {
          "indexed": true,
          "internalType": "address",
          "name": "owner",
          "type": "address"
        },
        {
          "indexed": true,
          "internalType": "address",
          "name": "approved",
          "type": "address"
        },
        {
          "indexed": true,
          "internalType": "uint256",
          "name": "tokenId",
          "type": "uint256"
        }
      ],
      "name": "Approval",
      "type": "event"
    },
    {
      "anonymous": false,
      "inputs": [
        {
          "indexed": true,
          "internalType": "address",
          "name": "owner",
          "type": "address"
        },
        {
          "indexed": true,
          "internalType": "address",
          "name": "operator",
          "type": "address"
        },
        {
          "indexed": false,
          "internalType": "bool",
          "name": "approved",
          "type": "bool"
        }
      ],
      "name": "ApprovalForAll",
      "type": "event"
    },
    {
      "anonymous": false,
      "inputs": [
        {
          "indexed": true,
          "internalType": "address",
          "name": "previousOwner",
          "type": "address"
        },
        {
          "indexed": true,
          "internalType": "address",
          "name": "newOwner",
          "type": "address"
        }
      ],
      "name": "OwnershipTransferred",
      "type": "event"
    },
    {
      "anonymous": false,
      "inputs": [
        {
          "indexed": true,
          "internalType": "address",
          "name": "from",
          "type": "address"
        },
        {
          "indexed": true,
          "internalType": "address",
          "name": "to",
          "type": "address"
        },
        {
          "indexed": true,
          "internalType": "uint256",
          "name": "tokenId",
          "type": "uint256"
        }
      ],
      "name": "Transfer",
      "type": "event"
    },
    {
      "inputs": [
        {
          "internalType": "address",
          "name": "to",
          "type": "address"
        },
        {
          "internalType": "uint256",
          "name": "tokenId",
          "type": "uint256"
        }
      ],
      "name": "approve",
      "outputs": [],
      "stateMutability": "nonpayable",
      "type": "function"
    },
    {
      "inputs": [
        {
          "internalType": "address",
          "name": "owner",
          "type": "address"
        }
      ],
      "name": "balanceOf",
      "outputs": [
        {
          "internalType": "uint256",
          "name": "",
          "type": "uint256"
        }
      ],
      "stateMutability": "view",
      "type": "function"
    },
    {
      "inputs": [
        {
          "internalType": "uint256",
          "name": "",
          "type": "uint256"
        }
      ],
      "name": "equipmentData",
      "outputs": [
        {
          "internalType": "uint8",
          "name": "equipmentType",
          "type": "uint8"
        },
        {
          "internalType": "uint8",
          "name": "level",
          "type": "uint8"
        },
        {
          "internalType": "uint8",
          "name": "stars",
          "type": "uint8"
        },
        {
          "internalType": "uint8",
          "name": "rarity",
          "type": "uint8"
        },
        {
          "internalType": "uint16",
          "name": "attack",
          "type": "uint16"
        },
        {
          "internalType": "uint16",
          "name": "defense",
          "type": "uint16"
        },
        {
          "internalType": "uint16",
          "name": "agility",
          "type": "uint16"
        },
        {
          "internalType": "uint8",
          "name": "criticalRate",
          "type": "uint8"
        },
        {
          "internalType": "uint16",
          "name": "criticalDamage",
          "type": "uint16"
        },
        {
          "internalType": "string",
          "name": "name",
          "type": "string"
        }
      ],
      "stateMutability": "view",
      "type": "function"
    },
    {
      "inputs": [
        {
          "internalType": "uint256",
          "name": "tokenId",
          "type": "uint256"
        }
      ],
      "name": "getApproved",
      "outputs": [
        {
          "internalType": "address",
          "name": "",
          "type": "address"
        }
      ],
      "stateMutability": "view",
      "type": "function"
    },
    {
      "inputs": [
        {
          "internalType": "address",
          "name": "owner",
          "type": "address"
        },
        {
          "internalType": "address",
          "name": "operator",
          "type": "address"
        }
      ],
      "name": "isApprovedForAll",
      "outputs": [
        {
          "internalType": "bool",
          "name": "",
          "type": "bool"
        }
      ],
      "stateMutability": "view",
      "type": "function"
    },
    {
      "inputs": [
        {
          "internalType": "address",
          "name": "to",
          "type": "address"
        },
        {
          "internalType": "uint8",
          "name": "equipmentType",
          "type": "uint8"
        },
        {
          "internalType": "uint8",
          "name": "level",
          "type": "uint8"
        },
        {
          "internalType": "uint8",
          "name": "stars",
          "type": "uint8"
        },
        {
          "internalType": "uint8",
          "name": "rarity",
          "type": "uint8"
        },
        {
          "internalType": "uint16",
          "name": "attack",
          "type": "uint16"
        },
        {
          "internalType": "uint16",
          "name": "defense",
          "type": "uint16"
        },
        {
          "internalType": "uint16",
          "name": "agility",
          "type": "uint16"
        },
        {
          "internalType": "uint8",
          "name": "criticalRate",
          "type": "uint8"
        },
        {
          "internalType": "uint16",
          "name": "criticalDamage",
          "type": "uint16"
        },
        {
          "internalType": "string",
          "name": "name",
          "type": "string"
        }
      ],
      "name": "mintEquipment",
      "outputs": [
        {
          "internalType": "uint256",
          "name": "",
          "type": "uint256"
        }
      ],
      "stateMutability": "nonpayable",
      "type": "function"
    },
    {
      "inputs": [],
      "name": "name",
      "outputs": [
        {
          "internalType": "string",
          "name": "",
          "type": "string"
        }
      ],
      "stateMutability": "view",
      "type": "function"
    },
    {
      "inputs": [],
      "name": "owner",
      "outputs": [
        {
          "internalType": "address",
          "name": "",
          "type": "address"
        }
      ],
      "stateMutability": "view",
      "type": "function"
    },
    {
      "inputs": [
        {
          "internalType": "uint256",
          "name": "tokenId",
          "type": "uint256"
        }
      ],
      "name": "ownerOf",
      "outputs": [
        {
          "internalType": "address",
          "name": "",
          "type": "address"
        }
      ],
      "stateMutability": "view",
      "type": "function"
    },
    {
      "inputs": [],
      "name": "renounceOwnership",
      "outputs": [],
      "stateMutability": "nonpayable",
      "type": "function"
    },
    {
      "inputs": [
        {
          "internalType": "address",
          "name": "from",
          "type": "address"
        },
        {
          "internalType": "address",
          "name": "to",
          "type": "address"
        },
        {
          "internalType": "uint256",
          "name": "tokenId",
          "type": "uint256"
        }
      ],
      "name": "safeTransferFrom",
      "outputs": [],
      "stateMutability": "nonpayable",
      "type": "function"
    },
    {
      "inputs": [
        {
          "internalType": "address",
          "name": "from",
          "type": "address"
        },
        {
          "internalType": "address",
          "name": "to",
          "type": "address"
        },
        {
          "internalType": "uint256",
          "name": "tokenId",
          "type": "uint256"
        },
        {
          "internalType": "bytes",
          "name": "data",
          "type": "bytes"
        }
      ],
      "name": "safeTransferFrom",
      "outputs": [],
      "stateMutability": "nonpayable",
      "type": "function"
    },
    {
      "inputs": [
        {
          "internalType": "address",
          "name": "operator",
          "type": "address"
        },
        {
          "internalType": "bool",
          "name": "approved",
          "type": "bool"
        }
      ],
      "name": "setApprovalForAll",
      "outputs": [],
      "stateMutability": "nonpayable",
      "type": "function"
    },
    {
      "inputs": [
        {
          "internalType": "bytes4",
          "name": "interfaceId",
          "type": "bytes4"
        }
      ],
      "name": "supportsInterface",
      "outputs": [
        {
          "internalType": "bool",
          "name": "",
          "type": "bool"
        }
      ],
      "stateMutability": "view",
      "type": "function"
    },
    {
      "inputs": [],
      "name": "symbol",
      "outputs": [
        {
          "internalType": "string",
          "name": "",
          "type": "string"
        }
      ],
      "stateMutability": "view",
      "type": "function"
    },
    {
      "inputs": [
        {
          "internalType": "uint256",
          "name": "tokenId",
          "type": "uint256"
        }
      ],
      "name": "tokenURI",
      "outputs": [
        {
          "internalType": "string",
          "name": "",
          "type": "string"
        }
      ],
      "stateMutability": "view",
      "type": "function"
    },
    {
      "inputs": [
        {
          "internalType": "address",
          "name": "from",
          "type": "address"
        },
        {
          "internalType": "address",
          "name": "to",
          "type": "address"
        },
        {
          "internalType": "uint256",
          "name": "tokenId",
          "type": "uint256"
        }
      ],
      "name": "transferFrom",
      "outputs": [],
      "stateMutability": "nonpayable",
      "type": "function"
    },
    {
      "inputs": [
        {
          "internalType": "address",
          "name": "newOwner",
          "type": "address"
        }
      ],
      "name": "transferOwnership",
      "outputs": [],
      "stateMutability": "nonpayable",
      "type": "function"
    }
  ],
  "bytecode": "0x6080346200038b576001600160401b039060408181018381118382101762000375578152601382526020917f416476656e747572652045717569706d656e74000000000000000000000000008382015281519382850185811082821117620003755783526005855264045515549560dc1b84860152815181811162000375576000948554916001948584811c941680156200036a575b8385101462000356578190601f9485811162000303575b5083908583116001146200029f57899262000293575b5050600019600383901b1c191690851b1786555b86519283116200027f5783548481811c9116801562000274575b82821014620002605782811162000218575b5080918311600114620001b1575084958293949592620001a5575b5050600019600383901b1c191690821b1790555b33156200018d5760068054336001600160a01b03198216811790925591519290916001600160a01b0316907f8be0079c531659141344cd1fd0a4f28419497f9722a3daafe3b4186f6b6457e09080a36112439081620003918239f35b51631e4fbdf760e01b81526004810191909152602490fd5b0151905038806200011d565b90601f198316968487528287209287905b89821062000200575050838596979810620001e6575b505050811b01905562000131565b015160001960f88460031b161c19169055388080620001d8565b808785968294968601518155019501930190620001c2565b8487528187208380860160051c82019284871062000256575b0160051c019085905b8281106200024a57505062000102565b8881550185906200023a565b9250819262000231565b634e487b7160e01b87526022600452602487fd5b90607f1690620000f0565b634e487b7160e01b86526041600452602486fd5b015190503880620000c2565b898052848a208894509190601f1984168b5b87828210620002ec5750508411620002d2575b505050811b018655620000d6565b015160001960f88460031b161c19169055388080620002c4565b8385015186558b97909501949384019301620002b1565b9091508880528389208580850160051c8201928686106200034c575b918991869594930160051c01915b8281106200033d575050620000ac565b8b81558594508991016200032d565b925081926200031f565b634e487b7160e01b88526022600452602488fd5b93607f169362000095565b634e487b7160e01b600052604160045260246000fd5b600080fdfe608080604052600436101561001357600080fd5b60003560e01c90816301ffc9a714610cf65750806305434cf41461087357806306fdde03146107d0578063081812fc14610792578063095ea7b3146106ab57806323b872dd1461069457806342842e0e1461066c5780636352211e1461063c57806370a08231146105e3578063715018a6146105865780638da5cb5b1461055d57806395d89b411461047e578063a22cb465146103d9578063b88d4fde14610377578063c6452e1314610225578063c87b56dd146101ce578063e985e9c5146101785763f2fde38b146100e557600080fd5b34610173576020366003190112610173576100fe610d61565b610106610ecd565b6001600160a01b0390811690811561015a57600654826bffffffffffffffffffffffff60a01b821617600655167f8be0079c531659141344cd1fd0a4f28419497f9722a3daafe3b4186f6b6457e0600080a3005b604051631e4fbdf760e01b815260006004820152602490fd5b600080fd5b3461017357604036600319011261017357610191610d61565b610199610d77565b9060018060a01b03809116600052600560205260406000209116600052602052602060ff604060002054166040519015158152f35b34610173576020366003190112610173576101ea6004356111d2565b5060006040516101f981610d8d565b5261022160405161020981610d8d565b60008152604051918291602083526020830190610e1e565b0390f35b346101735760208060031936011261017357600435600052600881526040600020908154916001809101906040519160009181549161026383610e93565b9283865286838216918260001461035057505060011461030c575b5050509061029181610221930382610da9565b8360405194859460ff8216865260ff8260081c168187015260ff8260101c16604087015260ff8260181c16606087015261ffff9283911c166080860152818160301c1660a0860152818160401c1660c086015260ff8160501c1660e086015260581c1661010084015261014080610120850152830190610e1e565b859294935060005281600020936000915b818310610339575092935083010190506102918261022161027e565b85548584018501529485019486939092019161031d565b60ff19168782015293151560051b860190930193506102919250849150610221905061027e565b3461017357608036600319011261017357610390610d61565b610398610d77565b6064359167ffffffffffffffff83116101735736602384011215610173576103cd6103d7933690602481600401359101610de7565b916044359161107f565b005b34610173576040366003190112610173576103f2610d61565b60243590811515809203610173576001600160a01b031690811561046557336000526005602052604060002082600052602052604060002060ff1981541660ff83161790556040519081527f17307eab39ab6107e8899845ad3d59bd9653f200f220920489ca2b5937696c3160203392a3005b604051630b61174360e31b815260048101839052602490fd5b3461017357600036600319011261017357604051600060018054906104a282610e93565b8085529181811690811561053657506001146104dd575b610221846104c981860382610da9565b604051918291602083526020830190610e1e565b600081815292507fb10e2d527612073b26eecdfd717e6a320cf44b4afac2b0732d9fcbe2b7fa0cf65b82841061051e5750505081016020016104c9826104b9565b80546020858701810191909152909301928101610506565b60ff191660208087019190915292151560051b850190920192506104c991508390506104b9565b34610173576000366003190112610173576006546040516001600160a01b039091168152602090f35b346101735760003660031901126101735761059f610ecd565b600680546001600160a01b031981169091556000906001600160a01b03167f8be0079c531659141344cd1fd0a4f28419497f9722a3daafe3b4186f6b6457e08280a3005b34610173576020366003190112610173576001600160a01b03610604610d61565b1680156106235760005260036020526020604060002054604051908152f35b6040516322718ad960e21b815260006004820152602490fd5b3461017357602036600319011261017357602061065a6004356111d2565b6040516001600160a01b039091168152f35b34610173576103d761067d36610e5e565b906040519261068b84610d8d565b6000845261107f565b34610173576103d76106a536610e5e565b91610ef9565b34610173576040366003190112610173576106c4610d61565b6024356106d0816111d2565b3315158061077f575b80610752575b61073a576001600160a01b039283169282918491167f8c5be1e5ebec7d5bd14f71427d1e84f3dd0314c0f7b2291e5b200ac8c7c3b925600080a4600090815260046020526040902080546001600160a01b0319169091179055005b60405163a9fbf51f60e01b8152336004820152602490fd5b5060018060a01b038116600052600560205260406000203360005260205260ff60406000205416156106df565b506001600160a01b0381163314156106d9565b34610173576020366003190112610173576004356107af816111d2565b506000526004602052602060018060a01b0360406000205416604051908152f35b3461017357600036600319011261017357604051600080546107f181610e93565b80845290600190818116908115610536575060011461081a57610221846104c981860382610da9565b600080805292507f290decd9548b62a8d60345a988386fc84ba6bc95484008f6362f93160ef3e5635b82841061085b5750505081016020016104c9826104b9565b80546020858701810191909152909301928101610843565b34610173576101603660031901126101735761088d610d61565b6024359060ff82168203610173576044359160ff83168303610173576064359060ff82168203610173576084359160ff831683036101735760a4359461ffff9283871687036101735760c4359284841684036101735760e435858116810361017357610104359260ff841684036101735761012435958787168703610173576101443567ffffffffffffffff811161017357366023820112156101735761093e903690602481600401359101610de7565b98610947610ecd565b6007549a6000198c14610ce05760018c016007556001600160a01b03811615610cc75760018c016000908152600260205260409020546001600160a01b0316908c82610c8c575b5060018060a01b038116600052600360205260406000206001815401905560018d016000526002602052604060002060018060a01b0382166bffffffffffffffffffffffff60a01b82541617905560018d019060018060a01b0316827fddf252ad1be2c89b69c2b068fc378daa952ba7f163c4a11628f55a4df523b3ef600080a4610c73576040519b8c67ffffffffffffffff610140828181011092011117610c5d578c606060ff8c9894818a989681809e818c9a6101408a01604052168852166020870152166040850152169101521660808c01521660a08a01521660c08801521660e0860152166101008401526101208301526001810160005260086020526101206001604060002060ff85511681549061ff00602088015160081b1662ff0000604089015160101b1663ff00000060608a015160181b1665ffff0000000060808b015160201b169067ffff00000000000060a08c015160301b169269ffff000000000000000060c08d015160401b16948c60e060ff60501b91015160501b16968d61010061ffff60581b91015160581b16986cffffffffffffffffffffffffff19161717171717171717178155019201519081519267ffffffffffffffff8411610c5d57610b5f8154610e93565b93601f8511610c15575b602094508493601f8211600114610bb2579381929394600092610ba7575b50508160011b916000199060031b1c19161790555b600160405191018152f35b015190508580610b87565b601f1982169483600052866000209160005b878110610bfe575083600195969710610be5575b505050811b019055610b9c565b015160001960f88460031b161c19169055858080610bd8565b919288600181928685015181550194019201610bc4565b816000526020600020601f820160051c81019560208310610c53575b601f0160051c01945b858110610c475750610b69565b60008155600101610c3a565b9095508590610c31565b634e487b7160e01b600052604160045260246000fd5b6040516339e3563760e11b815260006004820152602490fd5b600101600090815260046020526040902080546001600160a01b0319169055816000526003602052604060002060001981540190558c61098e565b604051633250574960e11b815260006004820152602490fd5b634e487b7160e01b600052601160045260246000fd5b34610173576020366003190112610173576004359063ffffffff60e01b8216809203610173576020916380ac58cd60e01b8114908115610d50575b8115610d3f575b5015158152f35b6301ffc9a760e01b14905083610d38565b635b5e139f60e01b81149150610d31565b600435906001600160a01b038216820361017357565b602435906001600160a01b038216820361017357565b6020810190811067ffffffffffffffff821117610c5d57604052565b90601f8019910116810190811067ffffffffffffffff821117610c5d57604052565b67ffffffffffffffff8111610c5d57601f01601f191660200190565b929192610df382610dcb565b91610e016040519384610da9565b829481845281830111610173578281602093846000960137010152565b919082519283825260005b848110610e4a575050826000602080949584010152601f8019910116010190565b602081830181015184830182015201610e29565b6060906003190112610173576001600160a01b0390600435828116810361017357916024359081168103610173579060443590565b90600182811c92168015610ec3575b6020831014610ead57565b634e487b7160e01b600052602260045260246000fd5b91607f1691610ea2565b6006546001600160a01b03163303610ee157565b60405163118cdaa760e01b8152336004820152602490fd5b6001600160a01b039182169290918315610cc757600092828452826020956002875260409684888820541696879133151580610fe9575b509060027fddf252ad1be2c89b69c2b068fc378daa952ba7f163c4a11628f55a4df523b3ef9284610fb6575b858352600381528b8320805460010190558683525289812080546001600160a01b0319168517905580a41692838303610f955750505050565b6064945051926364283d7b60e01b8452600484015260248301526044820152fd5b600087815260046020526040902080546001600160a01b0319169055848352600381528b83208054600019019055610f5c565b9193945091508061103e575b1561100557859291879138610f30565b878688611022576024915190637e27328960e01b82526004820152fd5b604491519063177e802f60e01b82523360048301526024820152fd5b503387148015611063575b80610ff55750858252600481523385898420541614610ff5565b5086825260058152878220338352815260ff8883205416611049565b61108a838383610ef9565b813b611097575b50505050565b604051630a85bd0160e11b8082523360048301526001600160a01b039283166024830152604482019490945260806064820152602095929091169390929083906110e5906084830190610e1e565b039285816000958187895af184918161118e575b50611159575050503d600014611151573d61111381610dcb565b906111216040519283610da9565b81528091843d92013e5b8051928361114c57604051633250574960e11b815260048101849052602490fd5b019050fd5b50606061112b565b919450915063ffffffff60e01b1603611176575038808080611091565b60249060405190633250574960e11b82526004820152fd5b9091508681813d83116111cb575b6111a68183610da9565b810103126111c757516001600160e01b0319811681036111c75790386110f9565b8480fd5b503d61119c565b6000818152600260205260409020546001600160a01b03169081156111f5575090565b60249060405190637e27328960e01b82526004820152fdfea26469706673582212209b1d5fd114af819e15f8dd487b245981ce8ee145e3c827e4c3f775748251ea4964736f6c63430008140033",
  "linkReferences": {},
  "deployedLinkReferences": {}
}