{
  "_format": "hh-sol-artifact-1",
  "contractName": "TreasureAdventure",
  "sourceName": "contracts/TreasureAdventure.sol",
  "abi": [
    {
      "inputs": [],
      "stateMutability": "nonpayable",
      "type": "constructor"
    },
    {
      "inputs": [
        {
          "internalType": "address",
          "name": "owner",
          "type": "address"
        }
      ],
      "name": "OwnableInvalidOwner",
      "type": "error"
    },
    {
      "inputs": [
        {
          "internalType": "address",
          "name": "account",
          "type": "address"
        }
      ],
      "name": "OwnableUnauthorizedAccount",
      "type": "error"
    },
    {
      "anonymous": false,
      "inputs": [
        {
          "indexed": true,
          "internalType": "address",
          "name": "player",
          "type": "address"
        },
        {
          "indexed": false,
          "internalType": "uint16",
          "name": "experience",
          "type": "uint16"
        },
        {
          "indexed": false,
          "internalType": "uint256",
          "name": "gold",
          "type": "uint256"
        }
      ],
      "name": "BattleCompleted",
      "type": "event"
    },
    {
      "anonymous": false,
      "inputs": [
        {
          "indexed": true,
          "internalType": "address",
          "name": "player",
          "type": "address"
        },
        {
          "indexed": false,
          "internalType": "uint256",
          "name": "tokenId",
          "type": "uint256"
        },
        {
          "indexed": false,
          "internalType": "uint8",
          "name": "slot",
          "type": "uint8"
        }
      ],
      "name": "EquipmentEquipped",
      "type": "event"
    },
    {
      "anonymous": false,
      "inputs": [
        {
          "indexed": true,
          "internalType": "address",
          "name": "player",
          "type": "address"
        },
        {
          "indexed": false,
          "internalType": "uint16",
          "name": "newLevel",
          "type": "uint16"
        }
      ],
      "name": "LevelUp",
      "type": "event"
    },
    {
      "anonymous": false,
      "inputs": [
        {
          "indexed": true,
          "internalType": "address",
          "name": "previousOwner",
          "type": "address"
        },
        {
          "indexed": true,
          "internalType": "address",
          "name": "newOwner",
          "type": "address"
        }
      ],
      "name": "OwnershipTransferred",
      "type": "event"
    },
    {
      "anonymous": false,
      "inputs": [
        {
          "indexed": true,
          "internalType": "address",
          "name": "player",
          "type": "address"
        },
        {
          "indexed": false,
          "internalType": "string",
          "name": "name",
          "type": "string"
        }
      ],
      "name": "PlayerRegistered",
      "type": "event"
    },
    {
      "anonymous": false,
      "inputs": [
        {
          "indexed": true,
          "internalType": "address",
          "name": "player",
          "type": "address"
        },
        {
          "indexed": false,
          "internalType": "uint256[]",
          "name": "rewards",
          "type": "uint256[]"
        }
      ],
      "name": "TreasureBoxOpened",
      "type": "event"
    },
    {
      "inputs": [],
      "name": "MAX_OFFLINE_BOXES",
      "outputs": [
        {
          "internalType": "uint8",
          "name": "",
          "type": "uint8"
        }
      ],
      "stateMutability": "view",
      "type": "function"
    },
    {
      "inputs": [],
      "name": "MAX_STAMINA",
      "outputs": [
        {
          "internalType": "uint8",
          "name": "",
          "type": "uint8"
        }
      ],
      "stateMutability": "view",
      "type": "function"
    },
    {
      "inputs": [],
      "name": "STAMINA_RECOVERY_INTERVAL",
      "outputs": [
        {
          "internalType": "uint32",
          "name": "",
          "type": "uint32"
        }
      ],
      "stateMutability": "view",
      "type": "function"
    },
    {
      "inputs": [],
      "name": "TREASURE_BOX_INTERVAL",
      "outputs": [
        {
          "internalType": "uint32",
          "name": "",
          "type": "uint32"
        }
      ],
      "stateMutability": "view",
      "type": "function"
    },
    {
      "inputs": [],
      "name": "claimTreasureBoxes",
      "outputs": [
        {
          "internalType": "uint8",
          "name": "",
          "type": "uint8"
        }
      ],
      "stateMutability": "nonpayable",
      "type": "function"
    },
    {
      "inputs": [
        {
          "internalType": "uint16",
          "name": "experienceGained",
          "type": "uint16"
        },
        {
          "internalType": "uint256",
          "name": "goldGained",
          "type": "uint256"
        },
        {
          "internalType": "uint8",
          "name": "staminaCost",
          "type": "uint8"
        }
      ],
      "name": "completeBattle",
      "outputs": [],
      "stateMutability": "nonpayable",
      "type": "function"
    },
    {
      "inputs": [
        {
          "internalType": "uint256",
          "name": "tokenId",
          "type": "uint256"
        },
        {
          "internalType": "uint8",
          "name": "slot",
          "type": "uint8"
        }
      ],
      "name": "equipItem",
      "outputs": [],
      "stateMutability": "nonpayable",
      "type": "function"
    },
    {
      "inputs": [],
      "name": "equipmentNFT",
      "outputs": [
        {
          "internalType": "contract Equipment",
          "name": "",
          "type": "address"
        }
      ],
      "stateMutability": "view",
      "type": "function"
    },
    {
      "inputs": [
        {
          "internalType": "address",
          "name": "",
          "type": "address"
        }
      ],
      "name": "equippedItems",
      "outputs": [
        {
          "internalType": "uint256",
          "name": "helmet",
          "type": "uint256"
        },
        {
          "internalType": "uint256",
          "name": "armor",
          "type": "uint256"
        },
        {
          "internalType": "uint256",
          "name": "shoes",
          "type": "uint256"
        },
        {
          "internalType": "uint256",
          "name": "weapon",
          "type": "uint256"
        },
        {
          "internalType": "uint256",
          "name": "shield",
          "type": "uint256"
        },
        {
          "internalType": "uint256",
          "name": "accessory",
          "type": "uint256"
        },
        {
          "internalType": "uint256",
          "name": "ring",
          "type": "uint256"
        },
        {
          "internalType": "uint256",
          "name": "pet",
          "type": "uint256"
        }
      ],
      "stateMutability": "view",
      "type": "function"
    },
    {
      "inputs": [
        {
          "internalType": "address",
          "name": "playerAddress",
          "type": "address"
        }
      ],
      "name": "getEquippedItems",
      "outputs": [
        {
          "components": [
            {
              "internalType": "uint256",
              "name": "helmet",
              "type": "uint256"
            },
            {
              "internalType": "uint256",
              "name": "armor",
              "type": "uint256"
            },
            {
              "internalType": "uint256",
              "name": "shoes",
              "type": "uint256"
            },
            {
              "internalType": "uint256",
              "name": "weapon",
              "type": "uint256"
            },
            {
              "internalType": "uint256",
              "name": "shield",
              "type": "uint256"
            },
            {
              "internalType": "uint256",
              "name": "accessory",
              "type": "uint256"
            },
            {
              "internalType": "uint256",
              "name": "ring",
              "type": "uint256"
            },
            {
              "internalType": "uint256",
              "name": "pet",
              "type": "uint256"
            }
          ],
          "internalType": "struct TreasureAdventure.EquippedItems",
          "name": "",
          "type": "tuple"
        }
      ],
      "stateMutability": "view",
      "type": "function"
    },
    {
      "inputs": [
        {
          "internalType": "address",
          "name": "playerAddress",
          "type": "address"
        }
      ],
      "name": "getGoldBalance",
      "outputs": [
        {
          "internalType": "uint256",
          "name": "",
          "type": "uint256"
        }
      ],
      "stateMutability": "view",
      "type": "function"
    },
    {
      "inputs": [
        {
          "internalType": "address",
          "name": "playerAddress",
          "type": "address"
        }
      ],
      "name": "getPlayer",
      "outputs": [
        {
          "components": [
            {
              "internalType": "string",
              "name": "name",
              "type": "string"
            },
            {
              "internalType": "uint16",
              "name": "level",
              "type": "uint16"
            },
            {
              "internalType": "uint32",
              "name": "experience",
              "type": "uint32"
            },
            {
              "internalType": "uint16",
              "name": "health",
              "type": "uint16"
            },
            {
              "internalType": "uint16",
              "name": "maxHealth",
              "type": "uint16"
            },
            {
              "internalType": "uint16",
              "name": "attack",
              "type": "uint16"
            },
            {
              "internalType": "uint16",
              "name": "defense",
              "type": "uint16"
            },
            {
              "internalType": "uint16",
              "name": "agility",
              "type": "uint16"
            },
            {
              "internalType": "uint8",
              "name": "criticalRate",
              "type": "uint8"
            },
            {
              "internalType": "uint16",
              "name": "criticalDamage",
              "type": "uint16"
            },
            {
              "internalType": "uint8",
              "name": "stamina",
              "type": "uint8"
            },
            {
              "internalType": "uint8",
              "name": "maxStamina",
              "type": "uint8"
            },
            {
              "internalType": "uint32",
              "name": "lastStaminaTime",
              "type": "uint32"
            },
            {
              "internalType": "uint16",
              "name": "currentForestLevel",
              "type": "uint16"
            },
            {
              "internalType": "uint16",
              "name": "currentForestProgress",
              "type": "uint16"
            },
            {
              "internalType": "uint32",
              "name": "lastTreasureBoxTime",
              "type": "uint32"
            },
            {
              "internalType": "bool",
              "name": "initialized",
              "type": "bool"
            },
            {
              "internalType": "uint8",
              "name": "job",
              "type": "uint8"
            }
          ],
          "internalType": "struct TreasureAdventure.Player",
          "name": "",
          "type": "tuple"
        }
      ],
      "stateMutability": "view",
      "type": "function"
    },
    {
      "inputs": [],
      "name": "goldToken",
      "outputs": [
        {
          "internalType": "contract AdventureGold",
          "name": "",
          "type": "address"
        }
      ],
      "stateMutability": "view",
      "type": "function"
    },
    {
      "inputs": [],
      "name": "owner",
      "outputs": [
        {
          "internalType": "address",
          "name": "",
          "type": "address"
        }
      ],
      "stateMutability": "view",
      "type": "function"
    },
    {
      "inputs": [
        {
          "internalType": "address",
          "name": "",
          "type": "address"
        },
        {
          "internalType": "uint256",
          "name": "",
          "type": "uint256"
        }
      ],
      "name": "playerTreasureBoxes",
      "outputs": [
        {
          "internalType": "uint256",
          "name": "",
          "type": "uint256"
        }
      ],
      "stateMutability": "view",
      "type": "function"
    },
    {
      "inputs": [
        {
          "internalType": "address",
          "name": "",
          "type": "address"
        }
      ],
      "name": "players",
      "outputs": [
        {
          "internalType": "string",
          "name": "name",
          "type": "string"
        },
        {
          "internalType": "uint16",
          "name": "level",
          "type": "uint16"
        },
        {
          "internalType": "uint32",
          "name": "experience",
          "type": "uint32"
        },
        {
          "internalType": "uint16",
          "name": "health",
          "type": "uint16"
        },
        {
          "internalType": "uint16",
          "name": "maxHealth",
          "type": "uint16"
        },
        {
          "internalType": "uint16",
          "name": "attack",
          "type": "uint16"
        },
        {
          "internalType": "uint16",
          "name": "defense",
          "type": "uint16"
        },
        {
          "internalType": "uint16",
          "name": "agility",
          "type": "uint16"
        },
        {
          "internalType": "uint8",
          "name": "criticalRate",
          "type": "uint8"
        },
        {
          "internalType": "uint16",
          "name": "criticalDamage",
          "type": "uint16"
        },
        {
          "internalType": "uint8",
          "name": "stamina",
          "type": "uint8"
        },
        {
          "internalType": "uint8",
          "name": "maxStamina",
          "type": "uint8"
        },
        {
          "internalType": "uint32",
          "name": "lastStaminaTime",
          "type": "uint32"
        },
        {
          "internalType": "uint16",
          "name": "currentForestLevel",
          "type": "uint16"
        },
        {
          "internalType": "uint16",
          "name": "currentForestProgress",
          "type": "uint16"
        },
        {
          "internalType": "uint32",
          "name": "lastTreasureBoxTime",
          "type": "uint32"
        },
        {
          "internalType": "bool",
          "name": "initialized",
          "type": "bool"
        },
        {
          "internalType": "uint8",
          "name": "job",
          "type": "uint8"
        }
      ],
      "stateMutability": "view",
      "type": "function"
    },
    {
      "inputs": [
        {
          "internalType": "string",
          "name": "name",
          "type": "string"
        }
      ],
      "name": "registerPlayer",
      "outputs": [],
      "stateMutability": "nonpayable",
      "type": "function"
    },
    {
      "inputs": [],
      "name": "renounceOwnership",
      "outputs": [],
      "stateMutability": "nonpayable",
      "type": "function"
    },
    {
      "inputs": [
        {
          "internalType": "address",
          "name": "newOwner",
          "type": "address"
        }
      ],
      "name": "transferOwnership",
      "outputs": [],
      "stateMutability": "nonpayable",
      "type": "function"
    },
    {
      "inputs": [],
      "name": "updateStamina",
      "outputs": [],
      "stateMutability": "nonpayable",
      "type": "function"
    }
  ],
  "bytecode": "0x60806040908082523461012c573315610116575060008054336001600160a01b031980831682178455845190936001600160a01b039390929084167f8be0079c531659141344cd1fd0a4f28419497f9722a3daafe3b4186f6b6457e08480a36001600160401b0390610c7e81810190838211838310176101025790829162001c128339039083f080156100f85783168460015416176001558451906115d480830191838310908311176100e457908291620028908339039082f09081156100d957501690600254161760025551611ae09081620001328239f35b8451903d90823e3d90fd5b634e487b7160e01b84526041600452602484fd5b85513d84823e3d90fd5b634e487b7160e01b85526041600452602485fd5b631e4fbdf760e01b815260006004820152602490fd5b600080fdfe608080604052600436101561001357600080fd5b600090813560e01c9081630416d570146117935750806314ad01bc146116585780631ac001201461163c57806336ee864614610ed45780633707caf21461159f5780633d44021a146115835780635c12cd4b146112c7578063715018a61461126d5780637e14a4d514610f525780638da5cb5b14610f2b57806394002b5714610f02578063962e0a1614610ed95780639aef84bf14610ed45780639cf7102114610dd4578063a296b15114610c91578063b3446f85146106f2578063d5dd620e1461033c578063e2eb41ff14610216578063ecfb80ef1461018f5763f2fde38b146100fd57600080fd5b3461018c57602036600319011261018c576101166117e2565b61011e6119bb565b6001600160a01b0390811690811561017357600054826bffffffffffffffffffffffff60a01b821617600055167f8be0079c531659141344cd1fd0a4f28419497f9722a3daafe3b4186f6b6457e0600080a380f35b604051631e4fbdf760e01b815260048101849052602490fd5b80fd5b503461018c57602036600319011261018c57610100906040906001600160a01b036101b86117e2565b168152600460205220805490600181015490600281015460038201546004830154906005840154926007600686015495015495604051978852602088015260408701526060860152608085015260a084015260c083015260e0820152f35b503461018c57602036600319011261018c57610272906040906001600160a01b0361023f6117e2565b16815260036020522061025181611915565b9060ff60026001830154920154604051948594610240808752860190611815565b9261ffff808216602087015263ffffffff91828160101c166040880152818160301c166060880152818160401c166080880152818160501c1660a0880152818160601c1660c0880152818160701c1660e0880152848160801c16610100880152818160881c16610120880152848160981c16610140880152848160a01c16610160880152828160a81c16610180880152818160c81c166101a088015260d81c166101c086015281166101e0850152818160201c16151561020085015260281c166102208301520390f35b503461018c57606036600319011261018c5760043561ffff80821680920361069d576024908135916044359060ff8216918281036106ed57338752600360205260016040882061039560ff600283015460201c166119e7565b019260ff845460981c169081106106b4576103cd916103b391611a6b565b835460ff60981b191660989190911b60ff60981b16178355565b815463ffffffff60a81b19164260a81b63ffffffff60a81b1617825563ffffffff61041f6104018783865460101c16611a7f565b845465ffffffff0000191660109190911b65ffffffff000016178455565b600154670de0b6b3a7640000868102916001600160a01b03169087830414871517156106a157908189923b1561069d576040516340c10f1960e01b8152336004820152602481019290925282908290604490829084905af180156106925761067a575b50508254908482169160648302928684169384036106675783838360101c1610156104df575b89898960405191825260208201527f15adef7dea7098c20a32df7e2aea172206b6c6bbc2fa401fd08c38d50eb3555d60403392a280f35b868114610667579161052693918760016105089501169061ffff19161780875560101c16611a2b565b835465ffffffff0000191660109190911b65ffffffff000016178355565b600a83835460401c160183811161065257825467ffff00000000000061ffff60401b604093841b1669ffff0000000000000000198316811790931c861660301b1669ffffffff000000000000199091169091171780835560501c83166002019083821161063e5750815461ffff60501b191660509190911b61ffff60501b161781556105d66105ba83835460601c16611a97565b825461ffff60601b191660609190911b61ffff60601b16178255565b6106046105e883835460701c16611a97565b825461ffff60701b191660709190911b61ffff60701b16178255565b54166040519081527f544e2df6bb9ef7416b348b09833618e722751066f5f219dcd35b9403ab23add260203392a2388080808080806104a8565b634e487b7160e01b60009081526011600452fd5b50634e487b7160e01b60009081526011600452fd5b634e487b7160e01b8a526011600452848afd5b61068390611855565b61068e578638610482565b8680fd5b6040513d84823e3d90fd5b8280fd5b634e487b7160e01b895260116004528389fd5b60405162461bcd60e51b815260206004820152601281850152714e6f7420656e6f756768207374616d696e6160701b6044820152606490fd5b600080fd5b503461018c57602036600319011261018c576004359067ffffffffffffffff821161018c573660238301121561018c57816004013567ffffffffffffffff8111610c7d576040519261074e601f8301601f1916602001856118b9565b818452366024838301011161069d578183926024602093018387013784010152338152600360205260ff600260408320015460201c16610c3857815160028110159081610c2c575b5015610bf1576040516107a88161187f565b828152600160208201528160408201526064606082015260646080820152600f60a0820152600560c0820152600a60e0820152600561010082015260966101208201526018610140820152601861016082015263ffffffff421661018082015260016101a0820152816101c082015263ffffffff42166101e0820152600161020082015281610220820152338252600360205260408220815180519067ffffffffffffffff8211610bdd5761085d83546118db565b601f8111610b9c575b50602090601f8311600114610b32576002939291869183610b27575b50508160011b916000199060031b1c19161781555b60208301516001820180546040808701516060880151608089015161ffff60401b931b9290921660309290921b67ffff0000000000001660109190911b65ffffffff00001661ffff90951669ffffffffffffffffffff1990931692909217939093171791909117905560a083015160018201805461ffff60501b191660509290921b61ffff60501b1691909117905560c083015160018201805461ffff60601b191660609290921b61ffff60601b1691909117905560e083015160018201805461ffff60701b191660709290921b61ffff60701b1691909117905561010083015160018201805461012086015161014087015163ffffffff60801b1990921660809490941b60ff60801b169390931760889390931b61ffff60881b169290921760989290921b60ff60981b1691909117905561016083015160018201805461018086015164ffffffffff60a01b1990911660a09390931b60ff60a01b169290921760a89290921b63ffffffff60a81b169190911790556101a0830151600182015461ffff60d81b6101c086015160d81b169161ffff60c81b9060c81b169063ffffffff60c81b191617176001820155019063ffffffff6101e0820151169082549165ff000000000061022064ff00000000610200850151151560201b1693015160281b169265ffffffffffff1916171717905560018060a01b0360015416803b15610b23578180916044604051809481936340c10f1960e01b835233600484015268056bc75e2d6310000060248401525af1801561069257610b14575b50907fe04d23b73ae3d3b27074da9719b5a4cd521395aaf86bfe7e374933ecb567731a6040516020815280610b0e33946020830190611815565b0390a280f35b610b1d90611855565b38610ad4565b5080fd5b015190503880610882565b908386526020862091865b601f1985168110610b84575091839160019360029695601f19811610610b6b575b505050811b018155610897565b015160001960f88460031b161c19169055388080610b5e565b91926020600181928685015181550194019201610b3d565b83865260208620601f840160051c810160208510610bd6575b601f830160051c82018110610bcb575050610866565b878155600101610bb5565b5080610bb5565b634e487b7160e01b85526041600452602485fd5b60405162461bcd60e51b8152602060048201526013602482015272092dcecc2d8d2c840dcc2daca40d8cadccee8d606b1b6044820152606490fd5b60149150111538610796565b60405162461bcd60e51b815260206004820152601960248201527f506c6179657220616c72656164792072656769737465726564000000000000006044820152606490fd5b634e487b7160e01b82526041600452602482fd5b503461018c578060031936011261018c57338152600360205260408120600160ff91610cc583600283015460201c166119e7565b0190815490610e109063ffffffff92818385610ce8818560a81c16824216611a2b565b16041680151580610dc1575b610cfc578680f35b82819281610d10818360981c169485611a57565b9160a01c169182911611610da6575b50610d2d82610d4792611a57565b865460ff60981b191660989190911b60ff60981b16178655565b160290808216918203610d92578291610d6891610d88945460a81c16611a7f565b815463ffffffff60a81b191660a89190911b63ffffffff60a81b16179055565b3880808080808680f35b634e487b7160e01b84526011600452602484fd5b819250610db9610d4792610d2d92611a6b565b929150610d1f565b50828260a01c16838360981c1610610cf4565b503461018c57602036600319011261018c57604061010091610df46117e2565b8160e08451610e028161189c565b82815282602082015282868201528260608201528260808201528260a08201528260c0820152015260018060a01b03168152600460205220604051610e468161189c565b8154918282526001810154602083019081526002820154604084019081526003830154606085019081526004840154916080860192835260058501549360a0870194855260e0600760068801549760c08a01988952015497019687526040519788525160208801525160408701525160608601525160808501525160a08401525160c08301525160e0820152f35b6117f8565b503461018c578060031936011261018c576002546040516001600160a01b039091168152602090f35b503461018c578060031936011261018c576001546040516001600160a01b039091168152602090f35b503461018c578060031936011261018c57546040516001600160a01b039091168152602090f35b503461018c57604036600319011261018c5760043560243560ff811680910361069d57600280546040516331a9108f60e11b815260048101859052602092916001600160a01b039084908390602490829085165afa91821561126257879261122a575b50339116036111f05760088310156111bc5733855260048252604085208491841580806111b2575b156110a3578783555b156110205750555b6040519283528201527f214e0152f4574ee944aa3d0ff8ac0b124158386c8d50392576d28cb3f77f0d8760403392a280f35b906001850361103457600191500155610fee565b848203611042570155610fee565b9050600384036110555760030155610fee565b600484036110665760040155610fee565b600584036110775760050155610fee565b600684036110885760060155610fee565b60078414611098575b5050610fee565b600701558238611091565b60018614806111a5575b156110bd57876001840155610fe6565b81861480611199575b156110d5578782840155610fe6565b600386148061118c575b156110ef57876003840155610fe6565b600486148061117f575b1561110957876004840155610fe6565b6005861480611172575b15611124578760058401555b610fe6565b6006861480611165575b1561113e57876006840155610fe6565b6007861480611158575b1561111f57876007840155610fe6565b5060078301541515611148565b506006830154151561112e565b5060058301541515611113565b50600483015415156110f9565b50600383015415156110df565b508183015415156110c6565b50600183015415156110ad565b5082541515610fdd565b60405162461bcd60e51b815260048101839052600c60248201526b125b9d985b1a59081cdb1bdd60a21b6044820152606490fd5b60405162461bcd60e51b8152600481018390526012602482015271139bdd081e5bdd5c88195c5d5a5c1b595b9d60721b6044820152606490fd5b9091508381813d831161125b575b61124281836118b9565b8101031261068e5751818116810361068e579038610fb5565b503d611238565b6040513d89823e3d90fd5b503461018c578060031936011261018c576112866119bb565b80546001600160a01b03198116825581906001600160a01b03167f8be0079c531659141344cd1fd0a4f28419497f9722a3daafe3b4186f6b6457e08280a380f35b503461018c57602036600319011261018c576040906112e46117e2565b8161022084516112f38161187f565b6060815282602082015282868201528260608201528260808201528260a08201528260c08201528260e08201528261010082015282610120820152826101408201528261016082015282610180820152826101a0820152826101c0820152826101e082015282610200820152015260018060a01b0316815260036020522060ff6002604051926113828461187f565b61138b81611915565b845261ffff6001820154818116602087015263ffffffff8160101c166040870152818160301c166060870152818160401c166080870152818160501c1660a0870152818160601c1660c0870152818160701c1660e0870152848160801c16610100870152818160881c16610120870152848160981c16610140870152848160a01c1661016087015263ffffffff8160a81c16610180870152818160c81c166101a087015260d81c166101c0850152015463ffffffff81166101e0840152818160201c16151561020084015260281c1661022082015260405180916020825260ff61022061148683516102406020870152610260860190611815565b9261ffff602082015116604086015263ffffffff604082015116606086015261ffff606082015116608086015261ffff60808201511660a086015261ffff60a08201511660c086015261ffff60c08201511660e086015261ffff60e082015116610100860152826101008201511661012086015261ffff610120820151166101408601528261014082015116610160860152826101608201511661018086015263ffffffff610180820151166101a086015261ffff6101a0820151166101c086015261ffff6101c0820151166101e086015263ffffffff6101e0820151166102008601526102008101511515828601520151166102408301520390f35b503461018c578060031936011261018c57602060405160188152f35b503461018c576020908160031936011261018c576115bb6117e2565b6001546040516370a0823160e01b81526001600160a01b03928316600482015291849183916024918391165afa918215611630578092611600575b5050604051908152f35b9091508282813d8311611629575b61161881836118b9565b8101031261018c57505138806115f6565b503d61160e565b604051903d90823e3d90fd5b503461018c578060031936011261018c57602060405160648152f35b503461018c578060031936011261018c57338152600360205260026040822001805461168960ff8260201c166119e7565b63ffffffff9160ff610e10844216946116a481861687611a2b565b1604166064811161178b575b60ff169283159283156116c9575b602085604051908152f35b63ffffffff191617905560328202908282046032141715611777576802b5e3af16b1880000820290808204670de0b6b3a764000014901517156117775760015483916001600160a01b0390911690813b1561069d576040516340c10f1960e01b8152336004820152602481019190915291908290604490829084905af1801561176c576020935061175d575b8080806116be565b61176690611855565b38611755565b6040513d85823e3d90fd5b634e487b7160e01b83526011600452602483fd5b5060646116b0565b905034610b23576040366003190112610b23576117ae6117e2565b6001600160a01b03168252600560205260408220805460243591908210156117de57835260209283902001548152f35b8380fd5b600435906001600160a01b03821682036106ed57565b346106ed5760003660031901126106ed576020604051610e108152f35b919082519283825260005b848110611841575050826000602080949584010152601f8019910116010190565b602081830181015184830182015201611820565b67ffffffffffffffff811161186957604052565b634e487b7160e01b600052604160045260246000fd5b610240810190811067ffffffffffffffff82111761186957604052565b610100810190811067ffffffffffffffff82111761186957604052565b90601f8019910116810190811067ffffffffffffffff82111761186957604052565b90600182811c9216801561190b575b60208310146118f557565b634e487b7160e01b600052602260045260246000fd5b91607f16916118ea565b9060405191826000825492611929846118db565b9081845260019485811690816000146119985750600114611955575b5050611953925003836118b9565b565b9093915060005260209081600020936000915b81831061198057505061195393508201013880611945565b85548884018501529485019487945091830191611968565b91505061195394506020925060ff191682840152151560051b8201013880611945565b6000546001600160a01b031633036119cf57565b60405163118cdaa760e01b8152336004820152602490fd5b156119ee57565b60405162461bcd60e51b8152602060048201526015602482015274141b185e595c881b9bdd081c9959da5cdd195c9959605a1b6044820152606490fd5b63ffffffff9182169082160391908211611a4157565b634e487b7160e01b600052601160045260246000fd5b9060ff8091169116019060ff8211611a4157565b9060ff8091169116039060ff8211611a4157565b91909163ffffffff80809416911601918211611a4157565b90600161ffff80931601918211611a415756fea2646970667358221220391224382a3f8e303ad778a7b0fabeabd3094226d8d309986ec86c672788c5fe64736f6c63430008140033608034620003a1576040906001600160401b0390808301828111828210176200038b578352600e81526020916d10591d995b9d1d5c994811dbdb1960921b83830152835192848401848110838211176200038b5785526004938481526311d3d31160e21b8282015283519083821162000376576003928354926001968785811c951680156200036b575b8386101462000356578190601f9586811162000300575b50839086831160011462000299576000926200028d575b505060001982871b1c191690871b1784555b8151948511620002785786548681811c911680156200026d575b8282101462000258578381116200020d575b50809285116001146200019f575093839491849260009562000193575b50501b92600019911b1c19161781555b33156200017d575060058054336001600160a01b0319821681179092559151916001600160a01b03167f8be0079c531659141344cd1fd0a4f28419497f9722a3daafe3b4186f6b6457e0600080a36108d79081620003a78239f35b60006024925191631e4fbdf760e01b8352820152fd5b01519350388062000112565b92919084601f1981168860005285600020956000905b89838310620001f25750505010620001d7575b50505050811b01815562000122565b01519060f884600019921b161c1916905538808080620001c8565b858701518955909701969485019488935090810190620001b5565b87600052816000208480880160051c8201928489106200024e575b0160051c019087905b82811062000241575050620000f5565b6000815501879062000231565b9250819262000228565b602288634e487b7160e01b6000525260246000fd5b90607f1690620000e3565b604187634e487b7160e01b6000525260246000fd5b015190503880620000b7565b90899350601f1983169188600052856000209260005b87828210620002e95750508411620002d0575b505050811b018455620000c9565b015160001983891b60f8161c19169055388080620002c2565b8385015186558d97909501949384019301620002af565b90915086600052836000208680850160051c8201928686106200034c575b918b91869594930160051c01915b8281106200033c575050620000a0565b600081558594508b91016200032c565b925081926200031e565b602289634e487b7160e01b6000525260246000fd5b94607f169462000089565b604186634e487b7160e01b6000525260246000fd5b634e487b7160e01b600052604160045260246000fd5b600080fdfe6080604081815260048036101561001557600080fd5b600092833560e01c90816306fdde031461062857508063095ea7b31461057f57806318160ddd1461056057806323b872dd1461046d578063313ce5671461045157806340c10f19146103a257806370a082311461036b578063715018a61461030b5780638da5cb5b146102e257806395d89b41146101c2578063a9059cbb14610191578063dd62ed3e146101445763f2fde38b146100b257600080fd5b34610140576020366003190112610140576100cb610766565b906100d4610797565b6001600160a01b0391821692831561012a575050600554826bffffffffffffffffffffffff60a01b821617600555167f8be0079c531659141344cd1fd0a4f28419497f9722a3daafe3b4186f6b6457e08380a380f35b51631e4fbdf760e01b8152908101849052602490fd5b8280fd5b50503461018d578060031936011261018d5780602092610162610766565b61016a610781565b6001600160a01b0391821683526001865283832091168252845220549051908152f35b5080fd5b50503461018d578060031936011261018d576020906101bb6101b1610766565b60243590336107c3565b5160018152f35b5091903461018d578160031936011261018d57805190828454600181811c908083169283156102d8575b60209384841081146102c5578388529081156102a95750600114610254575b505050829003601f01601f191682019267ffffffffffffffff841183851017610241575082918261023d92528261071d565b0390f35b634e487b7160e01b815260418552602490fd5b8787529192508591837f8a35acfbc15ff81a39ae7d344fd709f28e8600b4aa8c65c6b64bfe7fe36bd19b5b838510610295575050505083010138808061020b565b80548886018301529301928490820161027f565b60ff1916878501525050151560051b840101905038808061020b565b634e487b7160e01b895260228a52602489fd5b91607f16916101ec565b50503461018d578160031936011261018d5760055490516001600160a01b039091168152602090f35b8334610368578060031936011261036857610324610797565b600580546001600160a01b0319811690915581906001600160a01b03167f8be0079c531659141344cd1fd0a4f28419497f9722a3daafe3b4186f6b6457e08280a380f35b80fd5b50503461018d57602036600319011261018d5760209181906001600160a01b03610393610766565b16815280845220549051908152f35b5090346101405780600319360112610140576103bc610766565b90602435916103c9610797565b6001600160a01b031692831561043c5760025490838201809211610429575084927fddf252ad1be2c89b69c2b068fc378daa952ba7f163c4a11628f55a4df523b3ef9260209260025585855284835280852082815401905551908152a380f35b634e487b7160e01b865260119052602485fd5b84602492519163ec442f0560e01b8352820152fd5b50503461018d578160031936011261018d576020905160128152f35b50823461036857606036600319011261036857610488610766565b610490610781565b916044359360018060a01b0383168083526001602052868320338452602052868320549160001983106104cc575b6020886101bb8989896107c3565b86831061053457811561051d573315610506575082526001602090815286832033845281529186902090859003905582906101bb876104be565b8751634a1406b160e11b8152908101849052602490fd5b875163e602df0560e01b8152908101849052602490fd5b8751637dc7a0d960e11b8152339181019182526020820193909352604081018790528291506060010390fd5b50503461018d578160031936011261018d576020906002549051908152f35b5034610140578160031936011261014057610598610766565b602435903315610611576001600160a01b03169182156105fa57508083602095338152600187528181208582528752205582519081527f8c5be1e5ebec7d5bd14f71427d1e84f3dd0314c0f7b2291e5b200ac8c7c3b925843392a35160018152f35b8351634a1406b160e11b8152908101859052602490fd5b835163e602df0560e01b8152808401869052602490fd5b849150833461014057826003193601126101405782600354600181811c90808316928315610713575b60209384841081146102c5578388529081156106f757506001146106a157505050829003601f01601f191682019267ffffffffffffffff841183851017610241575082918261023d92528261071d565b600387529192508591837fc2575a0e9e593c00f959f8c92f12db2869c3395a3b0502d05e2516446f71f85b5b8385106106e3575050505083010185808061020b565b8054888601830152930192849082016106cd565b60ff1916878501525050151560051b840101905085808061020b565b91607f1691610651565b6020808252825181830181905290939260005b82811061075257505060409293506000838284010152601f8019910116010190565b818101860151848201604001528501610730565b600435906001600160a01b038216820361077c57565b600080fd5b602435906001600160a01b038216820361077c57565b6005546001600160a01b031633036107ab57565b60405163118cdaa760e01b8152336004820152602490fd5b916001600160a01b03808416928315610888571692831561086f576000908382528160205260408220549083821061083d575091604082827fddf252ad1be2c89b69c2b068fc378daa952ba7f163c4a11628f55a4df523b3ef958760209652828652038282205586815220818154019055604051908152a3565b60405163391434e360e21b81526001600160a01b03919091166004820152602481019190915260448101839052606490fd5b60405163ec442f0560e01b815260006004820152602490fd5b604051634b637e8f60e11b815260006004820152602490fdfea2646970667358221220d46d9a84d1702bc824952e626801dfdd15253c6823d3b8500af54c64002bdd5264736f6c634300081400336080346200038b576001600160401b039060408181018381118382101762000375578152601382526020917f416476656e747572652045717569706d656e74000000000000000000000000008382015281519382850185811082821117620003755783526005855264045515549560dc1b84860152815181811162000375576000948554916001948584811c941680156200036a575b8385101462000356578190601f9485811162000303575b5083908583116001146200029f57899262000293575b5050600019600383901b1c191690851b1786555b86519283116200027f5783548481811c9116801562000274575b82821014620002605782811162000218575b5080918311600114620001b1575084958293949592620001a5575b5050600019600383901b1c191690821b1790555b33156200018d5760068054336001600160a01b03198216811790925591519290916001600160a01b0316907f8be0079c531659141344cd1fd0a4f28419497f9722a3daafe3b4186f6b6457e09080a36112439081620003918239f35b51631e4fbdf760e01b81526004810191909152602490fd5b0151905038806200011d565b90601f198316968487528287209287905b89821062000200575050838596979810620001e6575b505050811b01905562000131565b015160001960f88460031b161c19169055388080620001d8565b808785968294968601518155019501930190620001c2565b8487528187208380860160051c82019284871062000256575b0160051c019085905b8281106200024a57505062000102565b8881550185906200023a565b9250819262000231565b634e487b7160e01b87526022600452602487fd5b90607f1690620000f0565b634e487b7160e01b86526041600452602486fd5b015190503880620000c2565b898052848a208894509190601f1984168b5b87828210620002ec5750508411620002d2575b505050811b018655620000d6565b015160001960f88460031b161c19169055388080620002c4565b8385015186558b97909501949384019301620002b1565b9091508880528389208580850160051c8201928686106200034c575b918991869594930160051c01915b8281106200033d575050620000ac565b8b81558594508991016200032d565b925081926200031f565b634e487b7160e01b88526022600452602488fd5b93607f169362000095565b634e487b7160e01b600052604160045260246000fd5b600080fdfe608080604052600436101561001357600080fd5b60003560e01c90816301ffc9a714610cf65750806305434cf41461087357806306fdde03146107d0578063081812fc14610792578063095ea7b3146106ab57806323b872dd1461069457806342842e0e1461066c5780636352211e1461063c57806370a08231146105e3578063715018a6146105865780638da5cb5b1461055d57806395d89b411461047e578063a22cb465146103d9578063b88d4fde14610377578063c6452e1314610225578063c87b56dd146101ce578063e985e9c5146101785763f2fde38b146100e557600080fd5b34610173576020366003190112610173576100fe610d61565b610106610ecd565b6001600160a01b0390811690811561015a57600654826bffffffffffffffffffffffff60a01b821617600655167f8be0079c531659141344cd1fd0a4f28419497f9722a3daafe3b4186f6b6457e0600080a3005b604051631e4fbdf760e01b815260006004820152602490fd5b600080fd5b3461017357604036600319011261017357610191610d61565b610199610d77565b9060018060a01b03809116600052600560205260406000209116600052602052602060ff604060002054166040519015158152f35b34610173576020366003190112610173576101ea6004356111d2565b5060006040516101f981610d8d565b5261022160405161020981610d8d565b60008152604051918291602083526020830190610e1e565b0390f35b346101735760208060031936011261017357600435600052600881526040600020908154916001809101906040519160009181549161026383610e93565b9283865286838216918260001461035057505060011461030c575b5050509061029181610221930382610da9565b8360405194859460ff8216865260ff8260081c168187015260ff8260101c16604087015260ff8260181c16606087015261ffff9283911c166080860152818160301c1660a0860152818160401c1660c086015260ff8160501c1660e086015260581c1661010084015261014080610120850152830190610e1e565b859294935060005281600020936000915b818310610339575092935083010190506102918261022161027e565b85548584018501529485019486939092019161031d565b60ff19168782015293151560051b860190930193506102919250849150610221905061027e565b3461017357608036600319011261017357610390610d61565b610398610d77565b6064359167ffffffffffffffff83116101735736602384011215610173576103cd6103d7933690602481600401359101610de7565b916044359161107f565b005b34610173576040366003190112610173576103f2610d61565b60243590811515809203610173576001600160a01b031690811561046557336000526005602052604060002082600052602052604060002060ff1981541660ff83161790556040519081527f17307eab39ab6107e8899845ad3d59bd9653f200f220920489ca2b5937696c3160203392a3005b604051630b61174360e31b815260048101839052602490fd5b3461017357600036600319011261017357604051600060018054906104a282610e93565b8085529181811690811561053657506001146104dd575b610221846104c981860382610da9565b604051918291602083526020830190610e1e565b600081815292507fb10e2d527612073b26eecdfd717e6a320cf44b4afac2b0732d9fcbe2b7fa0cf65b82841061051e5750505081016020016104c9826104b9565b80546020858701810191909152909301928101610506565b60ff191660208087019190915292151560051b850190920192506104c991508390506104b9565b34610173576000366003190112610173576006546040516001600160a01b039091168152602090f35b346101735760003660031901126101735761059f610ecd565b600680546001600160a01b031981169091556000906001600160a01b03167f8be0079c531659141344cd1fd0a4f28419497f9722a3daafe3b4186f6b6457e08280a3005b34610173576020366003190112610173576001600160a01b03610604610d61565b1680156106235760005260036020526020604060002054604051908152f35b6040516322718ad960e21b815260006004820152602490fd5b3461017357602036600319011261017357602061065a6004356111d2565b6040516001600160a01b039091168152f35b34610173576103d761067d36610e5e565b906040519261068b84610d8d565b6000845261107f565b34610173576103d76106a536610e5e565b91610ef9565b34610173576040366003190112610173576106c4610d61565b6024356106d0816111d2565b3315158061077f575b80610752575b61073a576001600160a01b039283169282918491167f8c5be1e5ebec7d5bd14f71427d1e84f3dd0314c0f7b2291e5b200ac8c7c3b925600080a4600090815260046020526040902080546001600160a01b0319169091179055005b60405163a9fbf51f60e01b8152336004820152602490fd5b5060018060a01b038116600052600560205260406000203360005260205260ff60406000205416156106df565b506001600160a01b0381163314156106d9565b34610173576020366003190112610173576004356107af816111d2565b506000526004602052602060018060a01b0360406000205416604051908152f35b3461017357600036600319011261017357604051600080546107f181610e93565b80845290600190818116908115610536575060011461081a57610221846104c981860382610da9565b600080805292507f290decd9548b62a8d60345a988386fc84ba6bc95484008f6362f93160ef3e5635b82841061085b5750505081016020016104c9826104b9565b80546020858701810191909152909301928101610843565b34610173576101603660031901126101735761088d610d61565b6024359060ff82168203610173576044359160ff83168303610173576064359060ff82168203610173576084359160ff831683036101735760a4359461ffff9283871687036101735760c4359284841684036101735760e435858116810361017357610104359260ff841684036101735761012435958787168703610173576101443567ffffffffffffffff811161017357366023820112156101735761093e903690602481600401359101610de7565b98610947610ecd565b6007549a6000198c14610ce05760018c016007556001600160a01b03811615610cc75760018c016000908152600260205260409020546001600160a01b0316908c82610c8c575b5060018060a01b038116600052600360205260406000206001815401905560018d016000526002602052604060002060018060a01b0382166bffffffffffffffffffffffff60a01b82541617905560018d019060018060a01b0316827fddf252ad1be2c89b69c2b068fc378daa952ba7f163c4a11628f55a4df523b3ef600080a4610c73576040519b8c67ffffffffffffffff610140828181011092011117610c5d578c606060ff8c9894818a989681809e818c9a6101408a01604052168852166020870152166040850152169101521660808c01521660a08a01521660c08801521660e0860152166101008401526101208301526001810160005260086020526101206001604060002060ff85511681549061ff00602088015160081b1662ff0000604089015160101b1663ff00000060608a015160181b1665ffff0000000060808b015160201b169067ffff00000000000060a08c015160301b169269ffff000000000000000060c08d015160401b16948c60e060ff60501b91015160501b16968d61010061ffff60581b91015160581b16986cffffffffffffffffffffffffff19161717171717171717178155019201519081519267ffffffffffffffff8411610c5d57610b5f8154610e93565b93601f8511610c15575b602094508493601f8211600114610bb2579381929394600092610ba7575b50508160011b916000199060031b1c19161790555b600160405191018152f35b015190508580610b87565b601f1982169483600052866000209160005b878110610bfe575083600195969710610be5575b505050811b019055610b9c565b015160001960f88460031b161c19169055858080610bd8565b919288600181928685015181550194019201610bc4565b816000526020600020601f820160051c81019560208310610c53575b601f0160051c01945b858110610c475750610b69565b60008155600101610c3a565b9095508590610c31565b634e487b7160e01b600052604160045260246000fd5b6040516339e3563760e11b815260006004820152602490fd5b600101600090815260046020526040902080546001600160a01b0319169055816000526003602052604060002060001981540190558c61098e565b604051633250574960e11b815260006004820152602490fd5b634e487b7160e01b600052601160045260246000fd5b34610173576020366003190112610173576004359063ffffffff60e01b8216809203610173576020916380ac58cd60e01b8114908115610d50575b8115610d3f575b5015158152f35b6301ffc9a760e01b14905083610d38565b635b5e139f60e01b81149150610d31565b600435906001600160a01b038216820361017357565b602435906001600160a01b038216820361017357565b6020810190811067ffffffffffffffff821117610c5d57604052565b90601f8019910116810190811067ffffffffffffffff821117610c5d57604052565b67ffffffffffffffff8111610c5d57601f01601f191660200190565b929192610df382610dcb565b91610e016040519384610da9565b829481845281830111610173578281602093846000960137010152565b919082519283825260005b848110610e4a575050826000602080949584010152601f8019910116010190565b602081830181015184830182015201610e29565b6060906003190112610173576001600160a01b0390600435828116810361017357916024359081168103610173579060443590565b90600182811c92168015610ec3575b6020831014610ead57565b634e487b7160e01b600052602260045260246000fd5b91607f1691610ea2565b6006546001600160a01b03163303610ee157565b60405163118cdaa760e01b8152336004820152602490fd5b6001600160a01b039182169290918315610cc757600092828452826020956002875260409684888820541696879133151580610fe9575b509060027fddf252ad1be2c89b69c2b068fc378daa952ba7f163c4a11628f55a4df523b3ef9284610fb6575b858352600381528b8320805460010190558683525289812080546001600160a01b0319168517905580a41692838303610f955750505050565b6064945051926364283d7b60e01b8452600484015260248301526044820152fd5b600087815260046020526040902080546001600160a01b0319169055848352600381528b83208054600019019055610f5c565b9193945091508061103e575b1561100557859291879138610f30565b878688611022576024915190637e27328960e01b82526004820152fd5b604491519063177e802f60e01b82523360048301526024820152fd5b503387148015611063575b80610ff55750858252600481523385898420541614610ff5565b5086825260058152878220338352815260ff8883205416611049565b61108a838383610ef9565b813b611097575b50505050565b604051630a85bd0160e11b8082523360048301526001600160a01b039283166024830152604482019490945260806064820152602095929091169390929083906110e5906084830190610e1e565b039285816000958187895af184918161118e575b50611159575050503d600014611151573d61111381610dcb565b906111216040519283610da9565b81528091843d92013e5b8051928361114c57604051633250574960e11b815260048101849052602490fd5b019050fd5b50606061112b565b919450915063ffffffff60e01b1603611176575038808080611091565b60249060405190633250574960e11b82526004820152fd5b9091508681813d83116111cb575b6111a68183610da9565b810103126111c757516001600160e01b0319811681036111c75790386110f9565b8480fd5b503d61119c565b6000818152600260205260409020546001600160a01b03169081156111f5575090565b60249060405190637e27328960e01b82526004820152fdfea26469706673582212209b1d5fd114af819e15f8dd487b245981ce8ee145e3c827e4c3f775748251ea4964736f6c63430008140033",
  "linkReferences": {},
  "deployedLinkReferences": {}
}