{
  "_format": "hh-sol-artifact-1",
  "contractName": "BattleSystemV2",
  "sourceName": "contracts/BattleSystemV2.sol",
  "abi": [
    {
      "inputs": [
        {
          "internalType": "address",
          "name": "_playerNFT",
          "type": "address"
        },
        {
          "internalType": "address",
          "name": "_treasureBoxSystem",
          "type": "address"
        }
      ],
      "stateMutability": "nonpayable",
      "type": "constructor"
    },
    {
      "inputs": [
        {
          "internalType": "address",
          "name": "owner",
          "type": "address"
        }
      ],
      "name": "OwnableInvalidOwner",
      "type": "error"
    },
    {
      "inputs": [
        {
          "internalType": "address",
          "name": "account",
          "type": "address"
        }
      ],
      "name": "OwnableUnauthorizedAccount",
      "type": "error"
    },
    {
      "anonymous": false,
      "inputs": [
        {
          "indexed": true,
          "internalType": "uint256",
          "name": "playerId",
          "type": "uint256"
        },
        {
          "indexed": false,
          "internalType": "uint16",
          "name": "experienceGained",
          "type": "uint16"
        },
        {
          "indexed": false,
          "internalType": "bool",
          "name": "victory",
          "type": "bool"
        },
        {
          "indexed": false,
          "internalType": "uint8",
          "name": "monsterLevel",
          "type": "uint8"
        }
      ],
      "name": "BattleCompleted",
      "type": "event"
    },
    {
      "anonymous": false,
      "inputs": [
        {
          "indexed": true,
          "internalType": "address",
          "name": "previousOwner",
          "type": "address"
        },
        {
          "indexed": true,
          "internalType": "address",
          "name": "newOwner",
          "type": "address"
        }
      ],
      "name": "OwnershipTransferred",
      "type": "event"
    },
    {
      "inputs": [
        {
          "internalType": "uint256",
          "name": "playerId",
          "type": "uint256"
        },
        {
          "internalType": "uint8",
          "name": "staminaCost",
          "type": "uint8"
        }
      ],
      "name": "canBattle",
      "outputs": [
        {
          "internalType": "bool",
          "name": "",
          "type": "bool"
        }
      ],
      "stateMutability": "view",
      "type": "function"
    },
    {
      "inputs": [
        {
          "internalType": "uint256",
          "name": "playerId",
          "type": "uint256"
        },
        {
          "internalType": "uint16",
          "name": "experienceGained",
          "type": "uint16"
        },
        {
          "internalType": "uint8",
          "name": "staminaCost",
          "type": "uint8"
        },
        {
          "internalType": "bool",
          "name": "victory",
          "type": "bool"
        },
        {
          "internalType": "uint8",
          "name": "monsterLevel",
          "type": "uint8"
        }
      ],
      "name": "completeBattle",
      "outputs": [],
      "stateMutability": "nonpayable",
      "type": "function"
    },
    {
      "inputs": [
        {
          "internalType": "uint256",
          "name": "playerId",
          "type": "uint256"
        }
      ],
      "name": "getBattleStats",
      "outputs": [
        {
          "internalType": "uint32",
          "name": "totalBattlesCount",
          "type": "uint32"
        },
        {
          "internalType": "uint32",
          "name": "totalVictoriesCount",
          "type": "uint32"
        },
        {
          "internalType": "uint8",
          "name": "winRate",
          "type": "uint8"
        },
        {
          "internalType": "uint32",
          "name": "lastBattle",
          "type": "uint32"
        }
      ],
      "stateMutability": "view",
      "type": "function"
    },
    {
      "inputs": [
        {
          "internalType": "uint256",
          "name": "",
          "type": "uint256"
        }
      ],
      "name": "lastBattleTime",
      "outputs": [
        {
          "internalType": "uint32",
          "name": "",
          "type": "uint32"
        }
      ],
      "stateMutability": "view",
      "type": "function"
    },
    {
      "inputs": [],
      "name": "owner",
      "outputs": [
        {
          "internalType": "address",
          "name": "",
          "type": "address"
        }
      ],
      "stateMutability": "view",
      "type": "function"
    },
    {
      "inputs": [],
      "name": "playerNFT",
      "outputs": [
        {
          "internalType": "contract Player",
          "name": "",
          "type": "address"
        }
      ],
      "stateMutability": "view",
      "type": "function"
    },
    {
      "inputs": [],
      "name": "renounceOwnership",
      "outputs": [],
      "stateMutability": "nonpayable",
      "type": "function"
    },
    {
      "inputs": [
        {
          "internalType": "uint256",
          "name": "",
          "type": "uint256"
        }
      ],
      "name": "totalBattles",
      "outputs": [
        {
          "internalType": "uint32",
          "name": "",
          "type": "uint32"
        }
      ],
      "stateMutability": "view",
      "type": "function"
    },
    {
      "inputs": [
        {
          "internalType": "uint256",
          "name": "",
          "type": "uint256"
        }
      ],
      "name": "totalVictories",
      "outputs": [
        {
          "internalType": "uint32",
          "name": "",
          "type": "uint32"
        }
      ],
      "stateMutability": "view",
      "type": "function"
    },
    {
      "inputs": [
        {
          "internalType": "address",
          "name": "newOwner",
          "type": "address"
        }
      ],
      "name": "transferOwnership",
      "outputs": [],
      "stateMutability": "nonpayable",
      "type": "function"
    },
    {
      "inputs": [],
      "name": "treasureBoxSystem",
      "outputs": [
        {
          "internalType": "contract TreasureBoxSystem",
          "name": "",
          "type": "address"
        }
      ],
      "stateMutability": "view",
      "type": "function"
    },
    {
      "inputs": [
        {
          "internalType": "address",
          "name": "_playerNFT",
          "type": "address"
        }
      ],
      "name": "updatePlayerNFT",
      "outputs": [],
      "stateMutability": "nonpayable",
      "type": "function"
    },
    {
      "inputs": [
        {
          "internalType": "address",
          "name": "_treasureBoxSystem",
          "type": "address"
        }
      ],
      "name": "updateTreasureBoxSystem",
      "outputs": [],
      "stateMutability": "nonpayable",
      "type": "function"
    }
  ],
  "bytecode": "0x6080346100e257601f610e6f38819003918201601f19168301916001600160401b038311848410176100e75780849260409485528339810103126100e257610052602061004b836100fd565b92016100fd565b33156100c95760008054336001600160a01b0319808316821784556040519590946001600160a01b03949093859391908416907f8be0079c531659141344cd1fd0a4f28419497f9722a3daafe3b4186f6b6457e09080a31683600154161760015516906002541617600255610d5d90816101128239f35b604051631e4fbdf760e01b815260006004820152602490fd5b600080fd5b634e487b7160e01b600052604160045260246000fd5b51906001600160a01b03821682036100e25756fe6080604052600436101561001257600080fd5b6000803560e01c80632734617414610c305780632a7b5ed21461046c5780632f6f343a146103ab578063356281a914610382578063674e43b41461033957806370ea9f6814610309578063715018a6146102af57806388850d5f146102865780638da5cb5b1461025f5780638e48059d1461019f578063c71d39c91461016f578063f2fde38b146100de5763fbe29e33146100ac57600080fd5b346100db5760203660031901126100db5763ffffffff6040602092600435815260038452205416604051908152f35b80fd5b50346100db5760203660031901126100db576004356001600160a01b038181169182900361016b5761010e610c75565b811561015257600054826001600160601b0360a01b821617600055167f8be0079c531659141344cd1fd0a4f28419497f9722a3daafe3b4186f6b6457e0600080a380f35b604051631e4fbdf760e01b815260048101849052602490fd5b8280fd5b50346100db5760203660031901126100db5763ffffffff6040602092600435815260048452205416604051908152f35b50346100db5760403660031901126100db576024359060ff8216820361025a57600154604051638e48059d60e01b8152600480359082015260ff939093166024840152602090839060449082906001600160a01b03165afa90811561024e578091610212575b6020826040519015158152f35b90506020823d8211610246575b8161022c60209383610cb5565b810103126100db5750610240602091610cd7565b38610205565b3d915061021f565b604051903d90823e3d90fd5b600080fd5b50346100db57806003193601126100db57546040516001600160a01b039091168152602090f35b50346100db57806003193601126100db576001546040516001600160a01b039091168152602090f35b50346100db57806003193601126100db576102c8610c75565b600080546001600160a01b0319811682556001600160a01b03167f8be0079c531659141344cd1fd0a4f28419497f9722a3daafe3b4186f6b6457e08280a380f35b50346100db5760203660031901126100db5763ffffffff6040602092600435815260058452205416604051908152f35b50346100db5760203660031901126100db576004356001600160a01b0381169081900361037e57610368610c75565b6001600160601b0360a01b600254161760025580f35b5080fd5b50346100db57806003193601126100db576002546040516001600160a01b039091168152602090f35b50346100db5760203660031901126100db57600435808252600360205263ffffffff8060408420541691600460205281604085205416918315801560001461045b576064840290828216918203610447576104335790604060809660ff878196950416935b815260056020522054169260405194855260208501521660408301526060820152f35b634e487b7160e01b86526012600452602486fd5b634e487b7160e01b87526011600452602487fd5b509060ff9160408660809793610410565b50346100db5760a03660031901126100db576024359061ffff821682036100db5760ff60443516604435036100db576064351515606435036100db5760ff60843516608435036100db576001546040516331a9108f60e11b815260048035908201526001600160a01b0390911690602081602481855afa908115610ae4578391610bee575b50336001600160a01b0390911603610bb757604051638e48059d60e01b815260048035908201526044803560ff166024830152602090829081855afa908115610ae4578391610b7d575b5015610b1257803b1561037e57816040518092632b7305b960e21b825281838161057d6044356004356004840190929160ff6020916040840195845216910152565b03925af180156107e557610b03575b5090600435825260036020526040822080549063ffffffff90816105b1818516610ce4565b1663ffffffff1980941617905560043584526005602052604084208142168382541617905560643561062a575b505061ffff604051911681526064351515602082015260ff6084351660408201527feaacd2d72679f824ce3aa3ac7dfcec3de68b279cac5683210d8a23ac246c74a7606060043592a280f35b60046020526040842091825491610642818416610ce4565b1691161790558160018060a01b0360015416803b1561037e578180916044604051809481936304d102bb60e31b8352600435600484015261ffff891660248401525af180156107e557610aef575b50600154604051631cab5c9d60e31b815260048035908201529190829060249082906001600160a01b03165afa908115610ae457839161088e575b5061ffff6001816101c084015116011161080c57602061ffff91015116600260ff608435160160ff81116108785760ff600391160490600560ff608435160160ff81116108785760ff1610610843575b604051906020820191428352600435604082015260ff60f81b60843560f81b166060820152604181526080810181811067ffffffffffffffff82111761082d578593600a92606492604052519020061080610820575b6107f5575b600a60ff821611156107f05750600a5b6002546001600160a01b0316803b1561016b576040516335f02b1760e01b8152600480359082015260ff92909216602483015282908290604490829084905af180156107e557156105de576107da90610ca1565b61037e5781386105de565b6040513d84823e3d90fd5b610786565b60ff91501660ff811461080c576001839101610776565b634e487b7160e01b83526011600452602483fd5b50600a60ff821610610771565b634e487b7160e01b600052604160045260246000fd5b60ff166001811115610870576000190160ff81111561071b57634e487b7160e01b83526011600452602483fd5b50600161071b565b634e487b7160e01b600052601160045260246000fd5b3d91508184823e61089f8282610cb5565b6020818381010312610ae05780519067ffffffffffffffff92838311610adc5761024093848484018385010312610ad8576040519485018581108282111761082d5760405283830151818111610ac057828401601f8287870101011215610ac057808585010151918211610ac45760405192610925601f8401601f191660200185610cb5565b82845284016020838388880101010111610ac057908791825b828110610aa55750509060208392610a9b95940101528452610964602084830101610cf9565b6020850152610977604084830101610d08565b604085015261098a606084830101610cf9565b606085015261099d608084830101610cf9565b60808501526109b060a084830101610cf9565b60a08501526109c360c084830101610cf9565b60c08501526109d660e084830101610cf9565b60e08501526101006109eb8185840101610d19565b908501526101206109ff8185840101610cf9565b90850152610140610a138185840101610d19565b90850152610160610a278185840101610d19565b90850152610180610a3b8185840101610d08565b908501526101a0610a4f8185840101610cf9565b908501526101c0610a638185840101610cf9565b908501526101e0610a778185840101610d08565b90850152610200610a8b8185840101610cd7565b9085015261022092018201610d19565b90820152386106cb565b6020878701830182018101518683018201528a94500161093e565b8780fd5b634e487b7160e01b88526041600452602488fd5b8680fd5b8580fd5b8380fd5b6040513d85823e3d90fd5b610af890610ca1565b61037e578138610690565b610b0c90610ca1565b3861058c565b60405162461bcd60e51b815260206004820152603960248201527f43616e6e6f7420626174746c65202d20696e73756666696369656e742073746160448201527f6d696e61206f7220706c61796572206e6f7420657869737473000000000000006064820152608490fd5b90506020813d602011610baf575b81610b9860209383610cb5565b8101031261016b57610ba990610cd7565b3861053b565b3d9150610b8b565b60405162461bcd60e51b815260206004820152600f60248201526e2737ba103cb7bab910383630bcb2b960891b6044820152606490fd5b90506020813d602011610c28575b81610c0960209383610cb5565b8101031261016b57516001600160a01b038116810361016b57386104f1565b3d9150610bfc565b50346100db5760203660031901126100db576004356001600160a01b0381169081900361037e57610c5f610c75565b6001600160601b0360a01b600154161760015580f35b6000546001600160a01b03163303610c8957565b60405163118cdaa760e01b8152336004820152602490fd5b67ffffffffffffffff811161082d57604052565b90601f8019910116810190811067ffffffffffffffff82111761082d57604052565b5190811515820361025a57565b63ffffffff8091169081146108785760010190565b519061ffff8216820361025a57565b519063ffffffff8216820361025a57565b519060ff8216820361025a5756fea26469706673582212205c5a7f4784149475f58d326dbf39928e1b4b1db7fbb2d77d1b44cfda53b24a5864736f6c63430008140033",
  "linkReferences": {},
  "deployedLinkReferences": {}
}