{
  "_format": "hh-sol-artifact-1",
  "contractName": "GameManager",
  "sourceName": "contracts/GameManager.sol",
  "abi": [
    {
      "inputs": [],
      "stateMutability": "nonpayable",
      "type": "constructor"
    },
    {
      "inputs": [
        {
          "internalType": "address",
          "name": "owner",
          "type": "address"
        }
      ],
      "name": "OwnableInvalidOwner",
      "type": "error"
    },
    {
      "inputs": [
        {
          "internalType": "address",
          "name": "account",
          "type": "address"
        }
      ],
      "name": "OwnableUnauthorizedAccount",
      "type": "error"
    },
    {
      "anonymous": false,
      "inputs": [
        {
          "indexed": true,
          "internalType": "address",
          "name": "player",
          "type": "address"
        },
        {
          "indexed": false,
          "internalType": "uint256",
          "name": "tokenId",
          "type": "uint256"
        },
        {
          "indexed": false,
          "internalType": "uint8",
          "name": "slot",
          "type": "uint8"
        }
      ],
      "name": "EquipmentEquipped",
      "type": "event"
    },
    {
      "anonymous": false,
      "inputs": [
        {
          "indexed": true,
          "internalType": "address",
          "name": "player",
          "type": "address"
        },
        {
          "indexed": false,
          "internalType": "uint256",
          "name": "tokenId",
          "type": "uint256"
        },
        {
          "indexed": false,
          "internalType": "uint8",
          "name": "slot",
          "type": "uint8"
        }
      ],
      "name": "EquipmentUnequipped",
      "type": "event"
    },
    {
      "anonymous": false,
      "inputs": [
        {
          "indexed": true,
          "internalType": "address",
          "name": "previousOwner",
          "type": "address"
        },
        {
          "indexed": true,
          "internalType": "address",
          "name": "newOwner",
          "type": "address"
        }
      ],
      "name": "OwnershipTransferred",
      "type": "event"
    },
    {
      "inputs": [],
      "name": "battleSystem",
      "outputs": [
        {
          "internalType": "contract BattleSystem",
          "name": "",
          "type": "address"
        }
      ],
      "stateMutability": "view",
      "type": "function"
    },
    {
      "inputs": [
        {
          "internalType": "address",
          "name": "playerAddress",
          "type": "address"
        },
        {
          "internalType": "uint8",
          "name": "staminaCost",
          "type": "uint8"
        }
      ],
      "name": "canBattle",
      "outputs": [
        {
          "internalType": "bool",
          "name": "",
          "type": "bool"
        }
      ],
      "stateMutability": "view",
      "type": "function"
    },
    {
      "inputs": [],
      "name": "claimOfflineTreasureBoxes",
      "outputs": [
        {
          "internalType": "uint8",
          "name": "",
          "type": "uint8"
        }
      ],
      "stateMutability": "nonpayable",
      "type": "function"
    },
    {
      "inputs": [
        {
          "internalType": "uint16",
          "name": "experienceGained",
          "type": "uint16"
        },
        {
          "internalType": "uint256",
          "name": "goldGained",
          "type": "uint256"
        },
        {
          "internalType": "uint8",
          "name": "staminaCost",
          "type": "uint8"
        },
        {
          "internalType": "bool",
          "name": "victory",
          "type": "bool"
        },
        {
          "internalType": "uint8",
          "name": "monsterLevel",
          "type": "uint8"
        }
      ],
      "name": "completeBattle",
      "outputs": [],
      "stateMutability": "nonpayable",
      "type": "function"
    },
    {
      "inputs": [
        {
          "internalType": "uint256",
          "name": "tokenId",
          "type": "uint256"
        },
        {
          "internalType": "uint8",
          "name": "slot",
          "type": "uint8"
        }
      ],
      "name": "equipItem",
      "outputs": [],
      "stateMutability": "nonpayable",
      "type": "function"
    },
    {
      "inputs": [],
      "name": "equipmentNFT",
      "outputs": [
        {
          "internalType": "contract Equipment",
          "name": "",
          "type": "address"
        }
      ],
      "stateMutability": "view",
      "type": "function"
    },
    {
      "inputs": [
        {
          "internalType": "address",
          "name": "",
          "type": "address"
        }
      ],
      "name": "equippedItems",
      "outputs": [
        {
          "internalType": "uint256",
          "name": "helmet",
          "type": "uint256"
        },
        {
          "internalType": "uint256",
          "name": "armor",
          "type": "uint256"
        },
        {
          "internalType": "uint256",
          "name": "shoes",
          "type": "uint256"
        },
        {
          "internalType": "uint256",
          "name": "weapon",
          "type": "uint256"
        },
        {
          "internalType": "uint256",
          "name": "shield",
          "type": "uint256"
        },
        {
          "internalType": "uint256",
          "name": "accessory",
          "type": "uint256"
        },
        {
          "internalType": "uint256",
          "name": "ring",
          "type": "uint256"
        },
        {
          "internalType": "uint256",
          "name": "pet",
          "type": "uint256"
        }
      ],
      "stateMutability": "view",
      "type": "function"
    },
    {
      "inputs": [
        {
          "internalType": "address",
          "name": "playerAddress",
          "type": "address"
        }
      ],
      "name": "getBattleStats",
      "outputs": [
        {
          "internalType": "uint32",
          "name": "totalBattlesCount",
          "type": "uint32"
        },
        {
          "internalType": "uint32",
          "name": "totalVictoriesCount",
          "type": "uint32"
        },
        {
          "internalType": "uint8",
          "name": "winRate",
          "type": "uint8"
        },
        {
          "internalType": "uint32",
          "name": "lastBattle",
          "type": "uint32"
        }
      ],
      "stateMutability": "view",
      "type": "function"
    },
    {
      "inputs": [
        {
          "internalType": "address",
          "name": "playerAddress",
          "type": "address"
        }
      ],
      "name": "getClaimableOfflineBoxes",
      "outputs": [
        {
          "internalType": "uint8",
          "name": "",
          "type": "uint8"
        }
      ],
      "stateMutability": "view",
      "type": "function"
    },
    {
      "inputs": [
        {
          "internalType": "address",
          "name": "playerAddress",
          "type": "address"
        }
      ],
      "name": "getEquippedItems",
      "outputs": [
        {
          "components": [
            {
              "internalType": "uint256",
              "name": "helmet",
              "type": "uint256"
            },
            {
              "internalType": "uint256",
              "name": "armor",
              "type": "uint256"
            },
            {
              "internalType": "uint256",
              "name": "shoes",
              "type": "uint256"
            },
            {
              "internalType": "uint256",
              "name": "weapon",
              "type": "uint256"
            },
            {
              "internalType": "uint256",
              "name": "shield",
              "type": "uint256"
            },
            {
              "internalType": "uint256",
              "name": "accessory",
              "type": "uint256"
            },
            {
              "internalType": "uint256",
              "name": "ring",
              "type": "uint256"
            },
            {
              "internalType": "uint256",
              "name": "pet",
              "type": "uint256"
            }
          ],
          "internalType": "struct GameStructs.EquippedItems",
          "name": "",
          "type": "tuple"
        }
      ],
      "stateMutability": "view",
      "type": "function"
    },
    {
      "inputs": [
        {
          "internalType": "address",
          "name": "playerAddress",
          "type": "address"
        }
      ],
      "name": "getGoldBalance",
      "outputs": [
        {
          "internalType": "uint256",
          "name": "",
          "type": "uint256"
        }
      ],
      "stateMutability": "view",
      "type": "function"
    },
    {
      "inputs": [
        {
          "internalType": "address",
          "name": "playerAddress",
          "type": "address"
        }
      ],
      "name": "getPlayer",
      "outputs": [
        {
          "components": [
            {
              "internalType": "string",
              "name": "name",
              "type": "string"
            },
            {
              "internalType": "uint16",
              "name": "level",
              "type": "uint16"
            },
            {
              "internalType": "uint32",
              "name": "experience",
              "type": "uint32"
            },
            {
              "internalType": "uint16",
              "name": "health",
              "type": "uint16"
            },
            {
              "internalType": "uint16",
              "name": "maxHealth",
              "type": "uint16"
            },
            {
              "internalType": "uint16",
              "name": "attack",
              "type": "uint16"
            },
            {
              "internalType": "uint16",
              "name": "defense",
              "type": "uint16"
            },
            {
              "internalType": "uint16",
              "name": "agility",
              "type": "uint16"
            },
            {
              "internalType": "uint8",
              "name": "criticalRate",
              "type": "uint8"
            },
            {
              "internalType": "uint16",
              "name": "criticalDamage",
              "type": "uint16"
            },
            {
              "internalType": "uint8",
              "name": "stamina",
              "type": "uint8"
            },
            {
              "internalType": "uint8",
              "name": "maxStamina",
              "type": "uint8"
            },
            {
              "internalType": "uint32",
              "name": "lastStaminaTime",
              "type": "uint32"
            },
            {
              "internalType": "uint16",
              "name": "currentForestLevel",
              "type": "uint16"
            },
            {
              "internalType": "uint16",
              "name": "currentForestProgress",
              "type": "uint16"
            },
            {
              "internalType": "uint32",
              "name": "lastTreasureBoxTime",
              "type": "uint32"
            },
            {
              "internalType": "bool",
              "name": "initialized",
              "type": "bool"
            },
            {
              "internalType": "uint8",
              "name": "job",
              "type": "uint8"
            }
          ],
          "internalType": "struct GameStructs.Player",
          "name": "",
          "type": "tuple"
        }
      ],
      "stateMutability": "view",
      "type": "function"
    },
    {
      "inputs": [
        {
          "internalType": "address",
          "name": "playerAddress",
          "type": "address"
        }
      ],
      "name": "getPlayerTreasureBoxCount",
      "outputs": [
        {
          "internalType": "uint256",
          "name": "",
          "type": "uint256"
        }
      ],
      "stateMutability": "view",
      "type": "function"
    },
    {
      "inputs": [
        {
          "internalType": "address",
          "name": "playerAddress",
          "type": "address"
        }
      ],
      "name": "getUnopenedBoxCount",
      "outputs": [
        {
          "internalType": "uint256",
          "name": "",
          "type": "uint256"
        }
      ],
      "stateMutability": "view",
      "type": "function"
    },
    {
      "inputs": [],
      "name": "goldToken",
      "outputs": [
        {
          "internalType": "contract AdventureGold",
          "name": "",
          "type": "address"
        }
      ],
      "stateMutability": "view",
      "type": "function"
    },
    {
      "inputs": [
        {
          "internalType": "address",
          "name": "to",
          "type": "address"
        },
        {
          "internalType": "uint8",
          "name": "equipmentType",
          "type": "uint8"
        },
        {
          "internalType": "uint8",
          "name": "level",
          "type": "uint8"
        },
        {
          "internalType": "uint8",
          "name": "stars",
          "type": "uint8"
        },
        {
          "internalType": "uint8",
          "name": "rarity",
          "type": "uint8"
        },
        {
          "internalType": "string",
          "name": "name",
          "type": "string"
        }
      ],
      "name": "mintEquipmentReward",
      "outputs": [
        {
          "internalType": "uint256",
          "name": "",
          "type": "uint256"
        }
      ],
      "stateMutability": "nonpayable",
      "type": "function"
    },
    {
      "inputs": [
        {
          "internalType": "uint256[]",
          "name": "boxIndices",
          "type": "uint256[]"
        }
      ],
      "name": "openMultipleTreasureBoxes",
      "outputs": [],
      "stateMutability": "nonpayable",
      "type": "function"
    },
    {
      "inputs": [
        {
          "internalType": "uint256",
          "name": "boxIndex",
          "type": "uint256"
        }
      ],
      "name": "openTreasureBox",
      "outputs": [],
      "stateMutability": "nonpayable",
      "type": "function"
    },
    {
      "inputs": [],
      "name": "owner",
      "outputs": [
        {
          "internalType": "address",
          "name": "",
          "type": "address"
        }
      ],
      "stateMutability": "view",
      "type": "function"
    },
    {
      "inputs": [
        {
          "internalType": "string",
          "name": "name",
          "type": "string"
        }
      ],
      "name": "registerPlayer",
      "outputs": [],
      "stateMutability": "nonpayable",
      "type": "function"
    },
    {
      "inputs": [],
      "name": "renounceOwnership",
      "outputs": [],
      "stateMutability": "nonpayable",
      "type": "function"
    },
    {
      "inputs": [
        {
          "internalType": "address",
          "name": "newOwner",
          "type": "address"
        }
      ],
      "name": "transferOwnership",
      "outputs": [],
      "stateMutability": "nonpayable",
      "type": "function"
    },
    {
      "inputs": [],
      "name": "treasureBoxSystem",
      "outputs": [
        {
          "internalType": "contract TreasureBoxSystem",
          "name": "",
          "type": "address"
        }
      ],
      "stateMutability": "view",
      "type": "function"
    },
    {
      "inputs": [
        {
          "internalType": "uint8",
          "name": "slot",
          "type": "uint8"
        }
      ],
      "name": "unequipItem",
      "outputs": [],
      "stateMutability": "nonpayable",
      "type": "function"
    },
    {
      "inputs": [],
      "name": "updateStamina",
      "outputs": [],
      "stateMutability": "nonpayable",
      "type": "function"
    }
  ],
  "bytecode": "0x608060409080825234620002a15760009033156200028d575080546001600160a01b031980821633908117845584516001600160a01b039390919084167f8be0079c531659141344cd1fd0a4f28419497f9722a3daafe3b4186f6b6457e08680a36001600160401b0390610d658181019083821183831017620002795790829162001ed08339039085f080156200023d57831682600154161760015584516121e58082019082821084831117620002795790829162004b5b8339039085f080156200023d57831680836002541617600255836001541690865191611d318084019084821086831117620002655791849391620001159362006d4086396001600160a01b0391821681529116602082015260400190565b039085f080156200023d578316808360045416176004558360015416865192611f268085019185831090831117620002515791849391620001709362002c3586396001600160a01b0391821681529116602082015260400190565b039084f0801562000247578216906003541617600355806001541690813b156200022357835183816024818363f2fde38b60e01b978883523060048401525af180156200023d5762000227575b506002541690813b1562000223578291602483928651948593849283523060048401525af180156200021957620001fe575b8251611bff9081620002d18239f35b6200020a8291620002a6565b620002165780620001ef565b80fd5b83513d84823e3d90fd5b8280fd5b6200023590939193620002a6565b9138620001bd565b85513d86823e3d90fd5b84513d85823e3d90fd5b634e487b7160e01b88526041600452602488fd5b634e487b7160e01b89526041600452602489fd5b634e487b7160e01b87526041600452602487fd5b602491631e4fbdf760e01b82526004820152fd5b600080fd5b6001600160401b038111620002ba57604052565b634e487b7160e01b600052604160045260246000fdfe608080604052600436101561001357600080fd5b600090813560e01c908163085033d3146117bc575080630cdf91801461172f5780630e08ab841461170657806321da13cc14611643578063356281a91461161a5780633707caf2146115bc5780633866a3951461130d578063398afc681461121a5780635c12cd4b14610e035780636a09690014610ce3578063715018a614610c895780637e14a4d514610a6d57806381f79e9c146109dc5780638266741c1461086257806389011c65146107b05780638da5cb5b1461078957806394002b5714610760578063962e0a16146107375780639cf7102114610637578063a296b151146105dc578063b3446f851461046a578063baf89c25146103d0578063c37652521461024d578063ecfb80ef146101c65763f2fde38b1461013457600080fd5b346101c35760203660031901126101c35761014d611853565b6101556119ca565b6001600160a01b039081169081156101aa57600054826bffffffffffffffffffffffff60a01b821617600055167f8be0079c531659141344cd1fd0a4f28419497f9722a3daafe3b4186f6b6457e0600080a380f35b604051631e4fbdf760e01b815260048101849052602490fd5b80fd5b50346101c35760203660031901126101c357610100906040906001600160a01b036101ef611853565b168152600560205220805490600181015490600281015460038201546004830154906005840154926007600686015495015495604051978852602088015260408701526060860152608085015260a084015260c083015260e0820152f35b50346101c35760a03660031901126101c3576004359061ffff82168092036101c3576024359161027b611879565b60643590811515928383036103cc57610292611889565b6003546001600160a01b03959086169190823b156103c8579287899360ff60c4948397826040519a8b998a98631082d70560e01b8a523360048b015260248a0152604489015216606487015260848601521660a48401525af180156103bd579084916103a5575b50508061039c575b61030a575b5080f35b6001541691670de0b6b3a764000090818102918183041490151715610388578282933b15610384576040516340c10f1960e01b8152336004820152602481019290925282908290604490829084905af1801561037957610368575080f35b61037190611899565b6101c3578080f35b6040513d84823e3d90fd5b5050fd5b634e487b7160e01b82526011600452602482fd5b50821515610301565b6103ae90611899565b6103b95782386102f9565b8280fd5b6040513d86823e3d90fd5b8780fd5b8480fd5b50346101c357602090816003193601126101c3576103ec611853565b8260018060a01b036024816004541693604051948593849263baf89c2560e01b84521660048301525afa91821561045e579161042c575b50604051908152f35b90508181813d8311610457575b61044381836118fd565b81010312610452575138610423565b600080fd5b503d610439565b604051903d90823e3d90fd5b50346101c35760203660031901126101c3578060043567ffffffffffffffff81116105b55761049d90369060040161193b565b6003546001600160a01b0391908216803b156105d7576104e584929183926040519485809481936302253d0f60e61b83523360048401526040602484015260448301906119a5565b03925af19081156105b85783916105c3575b50508060015416803b15610384578280916044604051809481936340c10f1960e01b8352336004840152683635c9adc5dea0000060248401525af19081156105b85783916105a1575b50506020906004541660046040518094819363207de7a760e21b83525af180156103795761056c575080f35b6020813d8211610599575b81610584602093836118fd565b8101031261059557610306906119f6565b5080fd5b3d9150610577565b6105aa90611899565b6105b5578138610540565b50fd5b6040513d85823e3d90fd5b6105cc90611899565b6105b55781386104f7565b505050fd5b50346101c357806003193601126101c35760035481906001600160a01b0316803b156105b55781809160046040518094819363a296b15160e01b83525af18015610379576106275750f35b61063090611899565b6101c35780f35b50346101c35760203660031901126101c357604061010091610657611853565b8160e08451610665816118e0565b82815282602082015282868201528260608201528260808201528260a08201528260c0820152015260018060a01b031681526005602052206040516106a9816118e0565b8154918282526001810154602083019081526002820154604084019081526003830154606085019081526004840154916080860192835260058501549360a0870194855260e0600760068801549760c08a01988952015497019687526040519788525160208801525160408701525160608601525160808501525160a08401525160c08301525160e0820152f35b50346101c357806003193601126101c3576002546040516001600160a01b039091168152602090f35b50346101c357806003193601126101c3576001546040516001600160a01b039091168152602090f35b50346101c357806003193601126101c357546040516001600160a01b039091168152602090f35b50346101c35760403660031901126101c3576107ca611853565b9060206107d5611869565b6003546040516389011c6560e01b81526001600160a01b03958616600482015260ff9092166024830152909384916044918391165afa90811561045e578091610826575b6020826040519015158152f35b90506020823d821161085a575b81610840602093836118fd565b810103126101c35750610854602091611bbc565b38610819565b3d9150610833565b50346101c35760203660031901126101c35760043560ff81168082036104525761088e60088210611ac5565b338352600560205260408320906108a58383611b19565b928315610997577ff83bb5153e09f5c8925dc8fd7d0d80011e99ce2ea9e611c4996eb5ad7de47fce926108f892806108fe5750600090555b6040805194855260ff90911660208501523393918291820190565b0390a280f35b600181036109135750600160009101556108dd565b600281036109285750600260009101556108dd565b6003810361093d5750600360009101556108dd565b600481036109525750600460009101556108dd565b600581036109675750600560009101556108dd565b6006810361097c5750600660009101556108dd565b60071461098a575b506108dd565b6007600091015538610984565b60405162461bcd60e51b815260206004820152601960248201527f4e6f2065717569706d656e7420696e207468697320736c6f74000000000000006044820152606490fd5b50346101c357806003193601126101c3576004805460405163207de7a760e21b81529291602091849190829085906001600160a01b03165af190811561045e578091610a31575b60208260ff60405191168152f35b90506020823d8211610a65575b81610a4b602093836118fd565b810103126101c35750610a5f6020916119f6565b38610a23565b3d9150610a3e565b50346101c35760403660031901126101c357600435610a8a611869565b6002546040516331a9108f60e11b8152600481018490526020916001600160a01b039083908390602490829085165afa918215610c7e578692610c42575b5033911603610c095781836108f892600560ff7f214e0152f4574ee944aa3d0ff8ac0b124158386c8d50392576d28cb3f77f0d87961691610b0b60088410611ac5565b338952526040872090610b1e8483611b19565b80610bcd575b5080610b475750556040805194855260ff90911660208501523393918291820190565b60018103610b595750600101556108dd565b60028103610b6b5750600201556108dd565b60038103610b7d5750600301556108dd565b60048103610b8f5750600401556108dd565b60058103610ba15750600501556108dd565b60068103610bb35750600601556108dd565b600714610bc2575b50506108dd565b600701558338610bbb565b6040805191825260ff8616602083015233917ff83bb5153e09f5c8925dc8fd7d0d80011e99ce2ea9e611c4996eb5ad7de47fce9190a238610b24565b6064906040519062461bcd60e51b825260048201526012602482015271139bdd081e5bdd5c88195c5d5a5c1b595b9d60721b6044820152fd5b9091508281813d8311610c77575b610c5a81836118fd565b81010312610c7357518181168103610c73579038610ac8565b8580fd5b503d610c50565b6040513d88823e3d90fd5b50346101c357806003193601126101c357610ca26119ca565b600080546001600160a01b0319811682556001600160a01b03167f8be0079c531659141344cd1fd0a4f28419497f9722a3daafe3b4186f6b6457e08280a380f35b50346101c35760203660031901126101c3578060043567ffffffffffffffff8082116103845736602383011215610384578160040135908111610384578060051b36602482850101116105d75760048054604051626a096960e81b8152602092810192909252602482018490526001600160a01b03949193908516906001600160fb1b0310610c7357838660448286839760248398018484013781010301925af180156105b8576020918491610de1575b5001519081610da1575050f35b60015416803b15610384576040516340c10f1960e01b8152336004820152602481019290925282908290604490829084905af18015610379576106275750f35b610dfd91503d8086833e610df581836118fd565b810190611a04565b38610d94565b50346101c35760203660031901126101c357610e1d611853565b9080610220604051610e2e816118c3565b606081528260208201528260408201528260608201528260808201528260a08201528260c08201528260e08201528261010082015282610120820152826101408201528261016082015282610180820152826101a0820152826101c0820152826101e08201528261020082015201528060018060a01b0360248160035416946040519586938492635c12cd4b60e01b84521660048301525afa91821561120d578192610ff9575b8260405180916020825260ff610220610efc835161024060208701526102608601906119a5565b9261ffff602082015116604086015263ffffffff604082015116606086015261ffff606082015116608086015261ffff60808201511660a086015261ffff60a08201511660c086015261ffff60c08201511660e086015261ffff60e082015116610100860152826101008201511661012086015261ffff610120820151166101408601528261014082015116610160860152826101608201511661018086015263ffffffff610180820151166101a086015261ffff6101a0820151166101c086015261ffff6101c0820151166101e086015263ffffffff6101e0820151166102008601526102008101511515828601520151166102408301520390f35b9091503d908183823e61100c82826118fd565b60208183810103126103b95780519167ffffffffffffffff938484116101c35761024084840183850103126101c35760405194611048866118c3565b8484015190811161059557828401601f828787010101121561059557808585010151916110748361191f565b9361108260405195866118fd565b838552850160208484898901010101116101c35750916110b5610220949261120096946020808501918787010101611982565b85526110c5602083830101611b9c565b60208601526110d8604083830101611bab565b60408601526110eb606083830101611b9c565b60608601526110fe608083830101611b9c565b608086015261111160a083830101611b9c565b60a086015261112460c083830101611b9c565b60c086015261113760e083830101611b9c565b60e086015261114b610100838301016119f6565b61010086015261116061012083830101611b9c565b610120860152611175610140838301016119f6565b61014086015261118a610160838301016119f6565b61016086015261119f61018083830101611bab565b6101808601526111b46101a083830101611b9c565b6101a08601526111c96101c083830101611b9c565b6101c08601526111de6101e083830101611bab565b6101e08601526111f361020083830101611bbc565b61020086015201016119f6565b6102208201523880610ed5565b50604051903d90823e3d90fd5b50346101c35760203660031901126101c357611234611853565b6003546040516307315f8d60e31b81526001600160a01b039283166004820152929160809184916024918391165afa90811561045e57809181809481926112a1575b505060ff6080946040519463ffffffff94858092168752166020860152166040840152166060820152f35b9350935050506080813d8211611305575b816112bf608093836118fd565b8101031261059557608091506112d481611bab565b906112e160208201611bab565b9160ff6112fc60606112f5604086016119f6565b9401611bab565b91939294611276565b3d91506112b2565b50346101c35760c03660031901126101c357611327611853565b90611330611869565b91611339611879565b926064359160ff8316830361045257611350611889565b60a43567ffffffffffffffff8111610c735761137090369060040161193b565b6004549091906001600160a01b03163303611565578660011b906101fe60fe83169216820361151c57603260ff82160261ffff811690810361151c5760640161ffff811161151c57889281600360ff85161015611546575b5061ffff6113fa6064826113ee8660ff84846113e584839b611b00565b16049a16611b00565b16049360ff8d16611b00565b16049060ff6001818516011161153257601960ff8416029361ffff851694850361151c5761ffff856096011161151c57600160a01b6001900360025416986040519b8c998a99630150d33d60e21b8b52600160a01b600190031660048b015260ff1660248a015260ff16604489015260ff16606488015260ff8416608488015261ffff1660a487015261ffff1660c486015261ffff1660e485015260ff1660010160ff1661010484015260960161ffff166101248301526101448201610160905261016482016114c9916119a5565b0381845a94602095f190811561045e57906114ea575b602090604051908152f35b506020813d8211611514575b81611503602093836118fd565b8101031261045257602090516114df565b3d91506114f6565b634e487b7160e01b600052601160045260246000fd5b634e487b7160e01b89526011600452602489fd5b61ffff91945060649250160161ffff811161151c57889261ffff6113c8565b60405162461bcd60e51b815260206004820152602960248201527f4f6e6c7920747265617375726520626f782073797374656d2063616e206d696e60448201526874207265776172647360b81b6064820152608490fd5b50346101c357602090816003193601126101c3576115d8611853565b6001546040516370a0823160e01b81526001600160a01b03928316600482015291849183916024918391165afa91821561045e579161042c5750604051908152f35b50346101c357806003193601126101c3576004546040516001600160a01b039091168152602090f35b50346101c35760203660031901126101c3578060018060a01b038180826004541660246040518094819363087684f360e21b835260043560048401525af180156105b85760209184916116ec575b500151908161169e575050f35b6001541690813b15610384576040516340c10f1960e01b8152336004820152602481019190915291908290604490829084905af18015610379576116e0575080f35b6116e990611899565b80f35b61170091503d8086833e610df581836118fd565b38611691565b50346101c357806003193601126101c3576003546040516001600160a01b039091168152602090f35b50346101c357602090816003193601126101c35761174b611853565b8260018060a01b03602481600454169360405194859384926219bf2360e71b84521660048301525afa91821561045e57809261178c575b5050604051908152f35b9091508282813d83116117b5575b6117a481836118fd565b810103126101c35750513880611782565b503d61179a565b82346101c357602091826003193601126105955782816024816117dd611853565b6004805463085033d360e01b84526001600160a01b0392831691840191909152165afa91821561045e57809261181b575b505060ff60405191168152f35b9091508282813d831161184c575b61183381836118fd565b810103126101c35750611845906119f6565b828061180e565b503d611829565b600435906001600160a01b038216820361045257565b6024359060ff8216820361045257565b6044359060ff8216820361045257565b6084359060ff8216820361045257565b67ffffffffffffffff81116118ad57604052565b634e487b7160e01b600052604160045260246000fd5b610240810190811067ffffffffffffffff8211176118ad57604052565b610100810190811067ffffffffffffffff8211176118ad57604052565b90601f8019910116810190811067ffffffffffffffff8211176118ad57604052565b67ffffffffffffffff81116118ad57601f01601f191660200190565b81601f82011215610452578035906119528261191f565b9261196060405194856118fd565b8284526020838301011161045257816000926020809301838601378301015290565b60005b8381106119955750506000910152565b8181015183820152602001611985565b906020916119be81518092818552858086019101611982565b601f01601f1916010190565b6000546001600160a01b031633036119de57565b60405163118cdaa760e01b8152336004820152602490fd5b519060ff8216820361045257565b6020808284031261045257815167ffffffffffffffff92838211610452570192606084820312610452576040519360608501858110858211176118ad57604052611a4d816119f6565b85528281015183860152604081015190848211610452570181601f820112156104525780519384116118ad578360051b9060405194611a8e858401876118fd565b85528380860192820101928311610452578301905b828210611ab65750505050604082015290565b81518152908301908301611aa3565b15611acc57565b60405162461bcd60e51b815260206004820152600c60248201526b125b9d985b1a59081cdb1bdd60a21b6044820152606490fd5b91909161ffff8080941691160291821691820361151c57565b9060ff168015611b975760018114611b8f5760028114611b875760038114611b7f5760048114611b775760058114611b6f5760068114611b6757600714611b605750600090565b6007015490565b506006015490565b506005015490565b506004015490565b506003015490565b506002015490565b506001015490565b505490565b519061ffff8216820361045257565b519063ffffffff8216820361045257565b519081151582036104525756fea264697066735822122077c2307bdbbe16ce709477a6e2f7bc75b7232ab7ba4894b6eccd52610d573f1764736f6c63430008140033608034620003a1576040906001600160401b0390808301828111828210176200038b578352600e81526020916d10591d995b9d1d5c994811dbdb1960921b83830152835192848401848110838211176200038b5785526004938481526311d3d31160e21b8282015283519083821162000376576003928354926001968785811c951680156200036b575b8386101462000356578190601f9586811162000300575b50839086831160011462000299576000926200028d575b505060001982871b1c191690871b1784555b8151948511620002785786548681811c911680156200026d575b8282101462000258578381116200020d575b50809285116001146200019f575093839491849260009562000193575b50501b92600019911b1c19161781555b33156200017d575060058054336001600160a01b0319821681179092559151916001600160a01b03167f8be0079c531659141344cd1fd0a4f28419497f9722a3daafe3b4186f6b6457e0600080a36109be9081620003a78239f35b60006024925191631e4fbdf760e01b8352820152fd5b01519350388062000112565b92919084601f1981168860005285600020956000905b89838310620001f25750505010620001d7575b50505050811b01815562000122565b01519060f884600019921b161c1916905538808080620001c8565b858701518955909701969485019488935090810190620001b5565b87600052816000208480880160051c8201928489106200024e575b0160051c019087905b82811062000241575050620000f5565b6000815501879062000231565b9250819262000228565b602288634e487b7160e01b6000525260246000fd5b90607f1690620000e3565b604187634e487b7160e01b6000525260246000fd5b015190503880620000b7565b90899350601f1983169188600052856000209260005b87828210620002e95750508411620002d0575b505050811b018455620000c9565b015160001983891b60f8161c19169055388080620002c2565b8385015186558d97909501949384019301620002af565b90915086600052836000208680850160051c8201928686106200034c575b918b91869594930160051c01915b8281106200033c575050620000a0565b600081558594508b91016200032c565b925081926200031e565b602289634e487b7160e01b6000525260246000fd5b94607f169462000089565b604186634e487b7160e01b6000525260246000fd5b634e487b7160e01b600052604160045260246000fd5b600080fdfe6080604081815260048036101561001557600080fd5b600092833560e01c90816306fdde031461070f57508063095ea7b31461066657806318160ddd1461064757806323b872dd14610554578063313ce5671461053857806340c10f191461048957806370a0823114610452578063715018a6146103f25780638da5cb5b146103c957806395d89b41146102a95780639dc29fac146101cd578063a9059cbb1461019c578063dd62ed3e1461014f5763f2fde38b146100bd57600080fd5b3461014b57602036600319011261014b576100d661084d565b906100df61087e565b6001600160a01b03918216928315610135575050600554826bffffffffffffffffffffffff60a01b821617600555167f8be0079c531659141344cd1fd0a4f28419497f9722a3daafe3b4186f6b6457e08380a380f35b51631e4fbdf760e01b8152908101849052602490fd5b8280fd5b5050346101985780600319360112610198578060209261016d61084d565b610175610868565b6001600160a01b0391821683526001865283832091168252845220549051908152f35b5080fd5b5050346101985780600319360112610198576020906101c66101bc61084d565b60243590336108aa565b5160018152f35b508290346101985782600319360112610198576101e861084d565b90602435906101f561087e565b6001600160a01b0383169283156102925783855284602052858520549183831061025e5750508184957fddf252ad1be2c89b69c2b068fc378daa952ba7f163c4a11628f55a4df523b3ef936020938688528785520381872055816002540360025551908152a380f35b865163391434e360e21b81526001600160a01b03909216908201908152602081018390526040810184905281906060010390fd5b8551634b637e8f60e11b8152808301869052602490fd5b50919034610198578160031936011261019857805190828454600181811c908083169283156103bf575b60209384841081146103ac57838852908115610390575060011461033b575b505050829003601f01601f191682019267ffffffffffffffff8411838510176103285750829182610324925282610804565b0390f35b634e487b7160e01b815260418552602490fd5b8787529192508591837f8a35acfbc15ff81a39ae7d344fd709f28e8600b4aa8c65c6b64bfe7fe36bd19b5b83851061037c57505050508301013880806102f2565b805488860183015293019284908201610366565b60ff1916878501525050151560051b84010190503880806102f2565b634e487b7160e01b895260228a52602489fd5b91607f16916102d3565b50503461019857816003193601126101985760055490516001600160a01b039091168152602090f35b833461044f578060031936011261044f5761040b61087e565b600580546001600160a01b0319811690915581906001600160a01b03167f8be0079c531659141344cd1fd0a4f28419497f9722a3daafe3b4186f6b6457e08280a380f35b80fd5b5050346101985760203660031901126101985760209181906001600160a01b0361047a61084d565b16815280845220549051908152f35b50903461014b578060031936011261014b576104a361084d565b90602435916104b061087e565b6001600160a01b03169283156105235760025490838201809211610510575084927fddf252ad1be2c89b69c2b068fc378daa952ba7f163c4a11628f55a4df523b3ef9260209260025585855284835280852082815401905551908152a380f35b634e487b7160e01b865260119052602485fd5b84602492519163ec442f0560e01b8352820152fd5b5050346101985781600319360112610198576020905160128152f35b50823461044f57606036600319011261044f5761056f61084d565b610577610868565b916044359360018060a01b0383168083526001602052868320338452602052868320549160001983106105b3575b6020886101c68989896108aa565b86831061061b5781156106045733156105ed575082526001602090815286832033845281529186902090859003905582906101c6876105a5565b8751634a1406b160e11b8152908101849052602490fd5b875163e602df0560e01b8152908101849052602490fd5b8751637dc7a0d960e11b8152339181019182526020820193909352604081018790528291506060010390fd5b5050346101985781600319360112610198576020906002549051908152f35b503461014b578160031936011261014b5761067f61084d565b6024359033156106f8576001600160a01b03169182156106e157508083602095338152600187528181208582528752205582519081527f8c5be1e5ebec7d5bd14f71427d1e84f3dd0314c0f7b2291e5b200ac8c7c3b925843392a35160018152f35b8351634a1406b160e11b8152908101859052602490fd5b835163e602df0560e01b8152808401869052602490fd5b849150833461014b578260031936011261014b5782600354600181811c908083169283156107fa575b60209384841081146103ac578388529081156107de575060011461078857505050829003601f01601f191682019267ffffffffffffffff8411838510176103285750829182610324925282610804565b600387529192508591837fc2575a0e9e593c00f959f8c92f12db2869c3395a3b0502d05e2516446f71f85b5b8385106107ca57505050508301018580806102f2565b8054888601830152930192849082016107b4565b60ff1916878501525050151560051b84010190508580806102f2565b91607f1691610738565b6020808252825181830181905290939260005b82811061083957505060409293506000838284010152601f8019910116010190565b818101860151848201604001528501610817565b600435906001600160a01b038216820361086357565b600080fd5b602435906001600160a01b038216820361086357565b6005546001600160a01b0316330361089257565b60405163118cdaa760e01b8152336004820152602490fd5b916001600160a01b0380841692831561096f57169283156109565760009083825281602052604082205490838210610924575091604082827fddf252ad1be2c89b69c2b068fc378daa952ba7f163c4a11628f55a4df523b3ef958760209652828652038282205586815220818154019055604051908152a3565b60405163391434e360e21b81526001600160a01b03919091166004820152602481019190915260448101839052606490fd5b60405163ec442f0560e01b815260006004820152602490fd5b604051634b637e8f60e11b815260006004820152602490fdfea2646970667358221220cd1e7d3b03af812f8378a51c3302a5b3965be75c028ecd5782ec70c0f16048f064736f6c63430008140033608034620000ec57601f62001f2638819003918201601f19168301916001600160401b03831184841017620000f1578084926040948552833981010312620000ec576200005a6020620000528362000107565b920162000107565b3315620000d35760008054336001600160a01b0319808316821784556040519590946001600160a01b03949093859391908416907f8be0079c531659141344cd1fd0a4f28419497f9722a3daafe3b4186f6b6457e09080a31683600154161760015516906002541617600255611e0990816200011d8239f35b604051631e4fbdf760e01b815260006004820152602490fd5b600080fd5b634e487b7160e01b600052604160045260246000fd5b51906001600160a01b0382168203620000ec5756fe6080604052600436101561001257600080fd5b6000803560e01c806303daf8bb1461159a5780631082d70514610e675780631f19565d14610e27578063356281a914610dfe578063398afc6814610d445780635c12cd4b14610a88578063611e1be414610a485780636bedfc2f14610a16578063715018a6146109bc5780637c21c8ed1461097c57806389011c6514610945578063894f43c0146103e15780638da5cb5b146103ba5780638fb341031461039857806394002b571461036f578063a296b15114610355578063a8039951146102a6578063e2eb41ff146101805763f2fde38b146100ee57600080fd5b3461017d57602036600319011261017d57610107611678565b61010f611813565b6001600160a01b0390811690811561016457600054826bffffffffffffffffffffffff60a01b821617600055167f8be0079c531659141344cd1fd0a4f28419497f9722a3daafe3b4186f6b6457e0600080a380f35b604051631e4fbdf760e01b815260048101849052602490fd5b80fd5b503461017d57602036600319011261017d576101dc906040906001600160a01b036101a9611678565b1681526003602052206101bb8161176d565b9060ff6002600183015492015460405194859461024080875286019061169e565b9261ffff808216602087015263ffffffff91828160101c166040880152818160301c166060880152818160401c166080880152818160501c1660a0880152818160601c1660c0880152818160701c1660e0880152848160801c16610100880152818160881c16610120880152848160981c16610140880152848160a01c16610160880152828160a81c16610180880152818160c81c166101a088015260d81c166101c086015281166101e0850152818160201c16151561020085015260281c166102208301520390f35b503461017d57602036600319011261017d5760043561ffff908181168091036103505733835260036020526001604084206102ea60ff600283015460201c1661183f565b01805491838360301c16019280841161033a57838161032f959460401c169182911611610332575b509061ffff60301b82549160301b169061ffff60301b1916179055565b80f35b915038610312565b634e487b7160e01b600052601160045260246000fd5b600080fd5b503461017d578060031936011261017d5761032f33611903565b503461017d578060031936011261017d576001546040516001600160a01b039091168152602090f35b503461017d57602036600319011261017d5761032f6103b5611678565b611903565b503461017d578060031936011261017d57546040516001600160a01b039091168152602090f35b503461017d57604036600319011261017d576103fb611678565b6024359067ffffffffffffffff821161092d573660238301121561092d5781600401359167ffffffffffffffff8311610931578390604051936104486020601f19601f8401160186611711565b808552366024828401011161092d578060246020930183870137840101526001600160a01b0381168352600360209081526040842060020154901c60ff166108e8578151600281101590816108dc575b50156108a1576040516104aa816116de565b828152600160208201528360408201526064606082015260646080820152600f60a0820152600560c0820152600a60e0820152600561010082015260966101208201526018610140820152601861016082015263ffffffff421661018082015260016101a0820152836101c082015263ffffffff42166101e082015260016102008201528361022082015260018060a01b0382168452600360205260408420815180519067ffffffffffffffff821161088d576105678354611733565b601f811161084c575b50602090601f83116001146107bc5792826107ab95936002937fe04d23b73ae3d3b27074da9719b5a4cd521395aaf86bfe7e374933ecb567731a98968b926107b1575b50508160011b916000199060031b1c19161781555b60208301516001820180546040808701516060880151608089015161ffff60401b931b9290921660309290921b61ffff60301b1660109190911b65ffffffff00001661ffff90951669ffffffffffffffffffff1990931692909217939093171791909117905560a08381015160018301805460c087015160e08801516101008901516101208a01516101408b01516101608c01516101808d01516101a08e01516101c08f015160c89190911b61ffff60c81b1660a89290921b63ffffffff60a81b1692909b1b60ff60a01b1660989390931b60ff60981b1660889490941b61ffff60881b1660809590951b60ff60801b1660709690961b61ffff60701b1660609790971b61ffff60601b1660509a909a1b61ffff60501b167fffffff00000000000000000000000000000000000000ffffffffffffffffffff90981697909717989098179490941792909217171717929092179190911760d89290921b61ffff60d81b169190911790556101e0830151910180546102008401516102209094015165ff000000000060289190911b1664ff00000000941515602090811b9590951663ffffffff90941665ffffffffffff1990921691909117929092179190911790556040518181526001600160a01b03929092169491928392909183019061169e565b0390a280f35b0151905038806105b3565b908388526020882091885b601f19851681106108345750836002937fe04d23b73ae3d3b27074da9719b5a4cd521395aaf86bfe7e374933ecb567731a9896936001936107ab9997601f1981161061081b575b505050811b0181556105c8565b015160001960f88460031b161c1916905538808061080e565b919260206001819286850151815501940192016107c7565b83885260208820601f840160051c810160208510610886575b601f830160051c8201811061087b575050610570565b898155600101610865565b5080610865565b634e487b7160e01b87526041600452602487fd5b60405162461bcd60e51b8152602060048201526013602482015272092dcecc2d8d2c840dcc2daca40d8cadccee8d606b1b6044820152606490fd5b60149150111538610498565b60405162461bcd60e51b815260206004820152601960248201527f506c6179657220616c72656164792072656769737465726564000000000000006044820152606490fd5b8280fd5b634e487b7160e01b84526041600452602484fd5b503461017d57604036600319011261017d576020610972610964611678565b61096c61168e565b90611af5565b6040519015158152f35b503461017d57602036600319011261017d5760209063ffffffff906040906001600160a01b036109aa611678565b16815260068452205416604051908152f35b503461017d578060031936011261017d576109d5611813565b600080546001600160a01b0319811682556001600160a01b03167f8be0079c531659141344cd1fd0a4f28419497f9722a3daafe3b4186f6b6457e08280a380f35b503461017d57602036600319011261017d576020610a3a610a35611678565b611c90565b63ffffffff60405191168152f35b503461017d57602036600319011261017d5760209063ffffffff906040906001600160a01b03610a76611678565b16815260058452205416604051908152f35b503461017d57602036600319011261017d57604090610aa5611678565b816102208451610ab4816116de565b6060815282602082015282868201528260608201528260808201528260a08201528260c08201528260e08201528261010082015282610120820152826101408201528261016082015282610180820152826101a0820152826101c0820152826101e082015282610200820152015260018060a01b0316815260036020522060ff600260405192610b43846116de565b610b4c8161176d565b845261ffff6001820154818116602087015263ffffffff8160101c166040870152818160301c166060870152818160401c166080870152818160501c1660a0870152818160601c1660c0870152818160701c1660e0870152848160801c16610100870152818160881c16610120870152848160981c16610140870152848160a01c1661016087015263ffffffff8160a81c16610180870152818160c81c166101a087015260d81c166101c0850152015463ffffffff81166101e0840152818160201c16151561020084015260281c1661022082015260405180916020825260ff610220610c478351610240602087015261026086019061169e565b9261ffff602082015116604086015263ffffffff604082015116606086015261ffff606082015116608086015261ffff60808201511660a086015261ffff60a08201511660c086015261ffff60c08201511660e086015261ffff60e082015116610100860152826101008201511661012086015261ffff610120820151166101408601528261014082015116610160860152826101608201511661018086015263ffffffff610180820151166101a086015261ffff6101a0820151166101c086015261ffff6101c0820151166101e086015263ffffffff6101e0820151166102008601526102008101511515828601520151166102408301520390f35b503461017d57602036600319011261017d576001600160a01b03610d66611678565b1690818152600560205263ffffffff918260408320541691600660205283604082205416918315948515600014610dee5780610da1856118d3565b1695610dd857604060ff9384876080990416935b815260046020522054169260405194855260208501521660408301526060820152f35b634e487b7160e01b600052601260045260246000fd5b6080955060408360ff9493610db5565b503461017d578060031936011261017d576002546040516001600160a01b039091168152602090f35b503461017d57602036600319011261017d5760209063ffffffff906040906001600160a01b03610e55611678565b16815260048452205416604051908152f35b503461017d5760c036600319011261017d57610e81611678565b6024359061ffff8216820361092d5760ff606435166064350361092d5760843515156084350361092d5760ff60a4351660a4350361092d5760018060a01b0381168352600360205260408320610ee060ff600283015460201c1661183f565b610efb600182015460ff80606435169160981c161015611a63565b610f0482611903565b610f3e610f1d60643560ff600185015460981c166118bf565b60018301805460ff60981b191660989290921b60ff60981b16919091179055565b60018101805463ffffffff60a81b19164260a881901b63ffffffff60a81b169190911790915563ffffffff166001600160a01b0383168552600560205260408520805463ffffffff610f91818316611aa4565b63ffffffff199283169116179091556001600160a01b038416865260046020526040862080549091169091179055608435611015575b5060607f1a91dc3c87151569f5f7a5f31fe285abbded8694ef4ce8ecd9365f23318a409b9161ffff6040519416845260443560208501526084351515604085015260018060a01b031692a280f35b9092600660205260408120805463ffffffff611032818316611aa4565b169063ffffffff191617905561ffff600183015461108061105e83871663ffffffff8460101c166118eb565b600186019065ffffffff000082549160101b169065ffffffff00001916179055565b169261109361ffff600185015416611ab9565b61ffff60018501549116908163ffffffff8260101c1610158061158c575b1561131b5761110a9163ffffffff8261ffff6110d1816110e89616611acf565b169061ffff19161780600189015560101c16611883565b600185019065ffffffff000082549160101b169065ffffffff00001916179055565b600a61ffff600185015460401c160161ffff81116113075761114690600185019061ffff60401b82549160401b169061ffff60401b1916179055565b60018301805467ffff00000000000019811660109190911c61ffff60301b16179055600261ffff600185015460501c160161ffff81116113075760018401805461ffff60501b191660509290921b61ffff60501b169190911790556111db6111b861ffff600186015460601c16611ae2565b60018501805461ffff60601b191660609290921b61ffff60601b16919091179055565b6112156111f261ffff600186015460701c16611ae2565b60018501805461ffff60701b191660709290921b61ffff60701b16919091179055565b600183015461ffff600a818316061615806112f7575b611287575b5061ffff6001840154169361ffff604051918683521660208201527fe1f82d33381d379c394289804d1e40e3e4ad7fb7cc8d6fb866d7ee513bc27fbe604060018060a01b03881692a261128284611ab9565b611093565b61129960ff6112ba9260a01c16611899565b60018501805460ff60a01b191660a09290921b60ff60a01b16919091179055565b6112f16112d060ff600186015460981c16611899565b60018501805460ff60981b191660989290921b60ff60981b16919091179055565b38611230565b50603260ff8260a01c161061122b565b634e487b7160e01b83526011600452602483fd5b505092509290600161ffff9161135d61133b848484015460d81c16611acf565b828401805461ffff60d81b191660d89290921b61ffff60d81b16919091179055565b81810154600a848260d81c161015611545575b50015416600360ff61138360a435611899565b16049060ff60058160a4351601116114db5760ff60058160a43516011610611510575b604051904260208301526bffffffffffffffffffffffff198360601b16604083015260ff60f81b60a43560f81b1660548301526035825281606081011067ffffffffffffffff6060840111176114fc57849060608301604052600a6064845160208601200610806114ef575b6114c2575b600a60ff821611156114bd5750600a5b6002546001600160a01b031690813b1561092d57630f91c5c560e41b606085019081526001600160a01b038616606486015260ff91909116608485015290604490829084905af180156114b25715610fc75767ffffffffffffffff606082959395011161149e576060908101604052909290610fc7565b634e487b7160e01b82526041600452602482fd5b6040513d86823e3d90fd5b611427565b905060ff808216146114db57600160ff86921601611417565b634e487b7160e01b85526011600452602485fd5b50600a60ff821610611412565b634e487b7160e01b85526041600452602485fd5b60ff16600181111561153d576000190160ff8111156113a657634e487b7160e01b84526011600452602484fd5b5060016113a6565b611556846115789260c81c16611acf565b828401805461ffff60c81b191660c89290921b61ffff60c81b16919091179055565b8260d81b1982820154168282015538611370565b50606461ffff8216106110b1565b503461017d57604036600319011261017d576115b4611678565b7f99d39aeae4b164c4a8ee6810092531613ea48028f3e8b995c22876b82bba736b602060ff6115e161168e565b936115ea611813565b60018060a01b0316938486526003835261164d611633600160408920611617866002830154891c1661183f565b019284845460981c1661162e868316821015611a63565b6118bf565b825460ff60981b191660989190911b60ff60981b16178255565b805463ffffffff60a81b19164260a81b63ffffffff60a81b161781555460981c16604051908152a280f35b600435906001600160a01b038216820361035057565b6024359060ff8216820361035057565b919082519283825260005b8481106116ca575050826000602080949584010152601f8019910116010190565b6020818301810151848301820152016116a9565b610240810190811067ffffffffffffffff8211176116fb57604052565b634e487b7160e01b600052604160045260246000fd5b90601f8019910116810190811067ffffffffffffffff8211176116fb57604052565b90600182811c92168015611763575b602083101461174d57565b634e487b7160e01b600052602260045260246000fd5b91607f1691611742565b906040519182600082549261178184611733565b9081845260019485811690816000146117f057506001146117ad575b50506117ab92500383611711565b565b9093915060005260209081600020936000915b8183106117d85750506117ab9350820101388061179d565b855488840185015294850194879450918301916117c0565b9150506117ab94506020925060ff191682840152151560051b820101388061179d565b6000546001600160a01b0316330361182757565b60405163118cdaa760e01b8152336004820152602490fd5b1561184657565b60405162461bcd60e51b8152602060048201526015602482015274141b185e595c881b9bdd081c9959da5cdd195c9959605a1b6044820152606490fd5b63ffffffff918216908216039190821161033a57565b60ff60029116019060ff821161033a57565b9060ff8091169116019060ff821161033a57565b9060ff8091169116039060ff821161033a57565b90606463ffffffff8093160291821691820361033a57565b91909163ffffffff8080941691160191821161033a57565b60018060a01b03168060005260036020526040600020600160ff9161193083600283015460201c1661183f565b0190815490610e1063ffffffff92828285611952818560a81c16824216611883565b1604169081151580611a50575b61196d575b50505050505050565b818480939281611983818360981c1694856118ab565b9160a01c169182911611611a35575b506119a0826119ba926118ab565b875460ff60981b191660989190911b60ff60981b16178755565b16029282841693840361033a57611a1d6119fd7f99d39aeae4b164c4a8ee6810092531613ea48028f3e8b995c22876b82bba736b95602095845460a81c166118eb565b825463ffffffff60a81b191660a89190911b63ffffffff60a81b16178255565b5460981c16604051908152a238808080808080611964565b819250611a486119ba926119a0926118bf565b929150611992565b50838160a01c16848260981c161061195f565b15611a6a57565b60405162461bcd60e51b81526020600482015260126024820152714e6f7420656e6f756768207374616d696e6160701b6044820152606490fd5b63ffffffff80911690811461033a5760010190565b90606461ffff8093160291821691820361033a57565b61ffff80911690811461033a5760010190565b90600161ffff8093160191821161033a57565b60018060a01b0316600052600360205260406000209060405190611b18826116de565b611b218361176d565b825260018301549261ffff93848116602085015263ffffffff808260101c166040860152858260301c166060860152858260401c166080860152858260501c1660a0860152858260601c1660c0860152858260701c1660e086015260ff94858360801c16610100820152868360881c166101208201526002610140820194878560981c168652610160830198888660a01c168a52848660a81c169586610180860152818160c81c166101a086015260d81c166101c08401520154908282166101e082015261022087808460201c161593841561020085015260281c16910152611c8557610e1081611c16879485944216611883565b1604169151169381151580611c79575b611c36575b505081169116101590565b9083929483611c5d9381611c4a85856118ab565b9151169182911611611c65575b506118ab565b929038611c2b565b81925090611c72916118bf565b9038611c57565b50838151168510611c26565b505050505050600090565b60018060a01b031660005260036020526040600020604051611cb1816116de565b611cba8261176d565b815260018201549161ffff91600283851692836020840152604083019463ffffffff96878160101c168752818160301c166060860152818160401c166080860152818160501c1660a0860152818160601c1660c0860152818160701c1660e086015260ff8160801c16610100860152818160881c1661012086015260ff8160981c1661014086015260ff8160a01c16610160860152878160a81c16610180860152818160c81c166101a086015260d81c166101c08401520154908482166101e082015261022060ff808460201c161593841561020085015260281c16910152611dcb57611da783916118d3565b9151169081600093821611600014611dc657611dc39250611883565b90565b505090565b50505060009056fea2646970667358221220fdf21bf80c199c94b07b405e54870cbdaa73cce716dc33574937f425afaf10a564736f6c634300081400336080346200038b576001600160401b039060408181018381118382101762000375578152601382526020917f416476656e747572652045717569706d656e74000000000000000000000000008382015281519382850185811082821117620003755783526005855264045515549560dc1b84860152815181811162000375576000948554916001948584811c941680156200036a575b8385101462000356578190601f9485811162000303575b5083908583116001146200029f57899262000293575b5050600019600383901b1c191690851b1786555b86519283116200027f5783548481811c9116801562000274575b82821014620002605782811162000218575b5080918311600114620001b1575084958293949592620001a5575b5050600019600383901b1c191690821b1790555b33156200018d57600a8054336001600160a01b03198216811790925591519290916001600160a01b0316907f8be0079c531659141344cd1fd0a4f28419497f9722a3daafe3b4186f6b6457e09080a3611e549081620003918239f35b51631e4fbdf760e01b81526004810191909152602490fd5b0151905038806200011d565b90601f198316968487528287209287905b89821062000200575050838596979810620001e6575b505050811b01905562000131565b015160001960f88460031b161c19169055388080620001d8565b808785968294968601518155019501930190620001c2565b8487528187208380860160051c82019284871062000256575b0160051c019085905b8281106200024a57505062000102565b8881550185906200023a565b9250819262000231565b634e487b7160e01b87526022600452602487fd5b90607f1690620000f0565b634e487b7160e01b86526041600452602486fd5b015190503880620000c2565b898052848a208894509190601f1984168b5b87828210620002ec5750508411620002d2575b505050811b018655620000d6565b015160001960f88460031b161c19169055388080620002c4565b8385015186558b97909501949384019301620002b1565b9091508880528389208580850160051c8201928686106200034c575b918991869594930160051c01915b8281106200033d575050620000ac565b8b81558594508991016200032d565b925081926200031f565b634e487b7160e01b88526022600452602488fd5b93607f169362000095565b634e487b7160e01b600052604160045260246000fd5b600080fdfe608080604052600436101561001357600080fd5b60003560e01c90816301ffc9a71461162c5750806305434cf414610f3857806306fdde0314610e95578063081812fc14610e57578063095ea7b314610d7057806315bf15d614610bd257806318160ddd14610bb457806323b872dd14610b9d5780632f745c5914610b1957806342842e0e14610af157806342966c681461080b5780634f6ccce7146107b55780636352211e1461078557806370a082311461075a578063715018a6146106fd5780637e1c0c09146106df57806381dd2fa0146105315780638da5cb5b1461050857806395d89b4114610429578063a22cb46514610384578063b88d4fde14610322578063c6452e1314610272578063c87b56dd1461021b578063e985e9c5146101c55763f2fde38b1461013257600080fd5b346101c05760203660031901126101c05761014b6116b1565b610153611901565b6001600160a01b039081169081156101a757600a54826bffffffffffffffffffffffff60a01b821617600a55167f8be0079c531659141344cd1fd0a4f28419497f9722a3daafe3b4186f6b6457e0600080a3005b604051631e4fbdf760e01b815260006004820152602490fd5b600080fd5b346101c05760403660031901126101c0576101de6116b1565b6101e66116c7565b9060018060a01b03809116600052600560205260406000209116600052602052602060ff604060002054166040519015158152f35b346101c05760203660031901126101c057610237600435611d4b565b5060006040516102468161171b565b5261026e6040516102568161171b565b600081526040519182916020835260208301906117ac565b0390f35b346101c05760203660031901126101c057600435600052600c60205260406000206102a160018254920161185b565b9061026e604051928260ff859416845260ff8160081c16602085015260ff8160101c16604085015260ff8160181c16606085015261ffff90818160201c166080860152818160301c1660a0860152818160401c1660c086015260ff8160501c1660e086015260581c16610100840152610140806101208501528301906117ac565b346101c05760803660031901126101c05761033b6116b1565b6103436116c7565b6064359167ffffffffffffffff83116101c057366023840112156101c057610378610382933690602481600401359101611775565b9160443591611bf8565b005b346101c05760403660031901126101c05761039d6116b1565b602435908115158092036101c0576001600160a01b031690811561041057336000526005602052604060002082600052602052604060002060ff1981541660ff83161790556040519081527f17307eab39ab6107e8899845ad3d59bd9653f200f220920489ca2b5937696c3160203392a3005b604051630b61174360e31b815260048101839052602490fd5b346101c05760003660031901126101c0576040516000600180549061044d82611821565b808552918181169081156104e15750600114610488575b61026e8461047481860382611737565b6040519182916020835260208301906117ac565b600081815292507fb10e2d527612073b26eecdfd717e6a320cf44b4afac2b0732d9fcbe2b7fa0cf65b8284106104c957505050810160200161047482610464565b805460208587018101919091529093019281016104b1565b60ff191660208087019190915292151560051b850190920192506104749150839050610464565b346101c05760003660031901126101c057600a546040516001600160a01b039091168152602090f35b346101c05760203660031901126101c0576004356060610120604051610556816116fe565b60008152600060208201526000604082015260008382015260006080820152600060a0820152600060c0820152600060e0820152600061010082015201528060005260026020526105b560018060a01b03604060002054161515611dd2565b600052600c60205261012060406000206106436001604051926105d7846116fe565b61ffff815460ff8116865260ff8160081c16602087015260ff8160101c16604087015260ff8160181c166060870152818160201c166080870152818160301c1660a0870152818160401c1660c087015260ff8160501c1660e087015260581c166101008501520161185b565b8282015261026e6040519283926020845260ff815116602085015260ff602082015116604085015260ff604082015116606085015260ff606082015116608085015261ffff60808201511660a085015261ffff60a08201511660c085015261ffff60c08201511660e085015260ff60e08201511661010085015261ffff61010082015116828501520151610140808401526101608301906117ac565b346101c05760003660031901126101c0576020600b54604051908152f35b346101c05760003660031901126101c057610716611901565b600a80546001600160a01b031981169091556000906001600160a01b03167f8be0079c531659141344cd1fd0a4f28419497f9722a3daafe3b4186f6b6457e08280a3005b346101c05760203660031901126101c057602061077d6107786116b1565b61192d565b604051908152f35b346101c05760203660031901126101c05760206107a3600435611d4b565b6040516001600160a01b039091168152f35b346101c05760203660031901126101c0576004356008548110156107ec576107de602091611d6e565b90546040519160031b1c8152f35b6044906040519063295f44f760e21b8252600060048301526024820152fd5b346101c0576020806003193601126101c05760043590610829611901565b60008281526002825260409020546001600160a01b039061084d9082161515611dd2565b82600052600c825260016040600020600081550161086b8154611821565b9081610ab4575b505082600052600282526040600020541690811591821580610a81575b6000858152600284526040812080546001600160a01b03191690558590837fddf252ad1be2c89b69c2b068fc378daa952ba7f163c4a11628f55a4df523b3ef8280a483156109fc575050600854836000526009825280604060002055600160401b8110156109e6578361090b8260016109249401600855611d6e565b90919082549060031b91821b91600019901b1916179055565b600854600019918282019182116109d0576009908560005281815261094e60406000205493611d6e565b90549060031b1c6109628161090b86611d6e565b60005252604060002055826000526000604081205560085480156109ba5781019061098c82611d6e565b909182549160031b1b191690556008556109a257005b60249060405190637e27328960e01b82526004820152fd5b634e487b7160e01b600052603160045260246000fd5b634e487b7160e01b600052601160045260246000fd5b634e487b7160e01b600052604160045260246000fd5b610a07575b50610924565b610a108161192d565b84600052600783526040600020549160005260068352604060002091818103610a56575b5084600052600783526000604081205560005281526000604081205583610a01565b8160005282845260406000205481600052806040600020556000526007845260406000205585610a34565b60008581526004602052604080822080546001600160a01b0319169055838252600385529020805460001901905561088f565b81601f60009311600114610acc5750555b8380610872565b908083918252610aea601f878420940160051c840160018501611dbb565b5555610ac5565b346101c057610382610b02366117ec565b9060405192610b108461171b565b60008452611bf8565b346101c05760403660031901126101c057610b326116b1565b60243590610b3f8161192d565b821015610b725760018060a01b031660005260066020526040600020906000526020526020604060002054604051908152f35b60405163295f44f760e21b81526001600160a01b039190911660048201526024810191909152604490fd5b346101c057610382610bae366117ec565b91611966565b346101c05760003660031901126101c0576020600854604051908152f35b346101c05760e03660031901126101c057600435610bee6116dd565b60443561ffff918282168083036101c05760643590848216908183036101c057608435958616928387036101c05760a4359060ff821682036101c05785610d36610d5593610d1c7f6b94a489f7c6af2bcdfb729e31f9dcca1ee53cc79ff6407251c28d2741b6ae0e9b610d008e96610cde60809e610c6a6116ed565b99610c73611901565b600081815260026020526040902054610c96906001600160a01b03161515611dd2565b600052600c602052610cc06040600020998a9062ff000082549160101b169062ff00001916179055565b885465ffff00000000191660209190911b65ffff0000000016178855565b865467ffff000000000000191660309190911b67ffff00000000000016178655565b845461ffff60401b191660409190911b61ffff60401b16178455565b825460ff60501b191660509190911b60ff60501b16178255565b805461ffff60581b191660589290921b61ffff60581b16919091179055565b60ff60405194168452602084015260408301526060820152a2005b346101c05760403660031901126101c057610d896116b1565b602435610d9581611d4b565b33151580610e44575b80610e17575b610dff576001600160a01b039283169282918491167f8c5be1e5ebec7d5bd14f71427d1e84f3dd0314c0f7b2291e5b200ac8c7c3b925600080a4600090815260046020526040902080546001600160a01b0319169091179055005b60405163a9fbf51f60e01b8152336004820152602490fd5b5060018060a01b038116600052600560205260406000203360005260205260ff6040600020541615610da4565b506001600160a01b038116331415610d9e565b346101c05760203660031901126101c057600435610e7481611d4b565b506000526004602052602060018060a01b0360406000205416604051908152f35b346101c05760003660031901126101c05760405160008054610eb681611821565b808452906001908181169081156104e15750600114610edf5761026e8461047481860382611737565b600080805292507f290decd9548b62a8d60345a988386fc84ba6bc95484008f6362f93160ef3e5635b828410610f2057505050810160200161047482610464565b80546020858701810191909152909301928101610f08565b346101c0576101603660031901126101c057610f526116b1565b610f5a6116dd565b6044359160ff831683036101c0576064359160ff831683036101c05760843560ff811681036101c05760a43561ffff811681036101c057610f996116ed565b60e43561ffff811681036101c057610104359060ff821682036101c057610124359261ffff841684036101c0576101443567ffffffffffffffff81116101c057366023820112156101c057610ff8903690602481600401359101611775565b94611001611901565b600860ff891610156115ee57600560ff881610156115b857600560ff8b161161158357600b54996000198b146109d05760018b01600b556001600160a01b038a161561156a5760018b016000908152600260205260409020546001600160a01b03168015908c821561152f575b5060018060a01b038c16600052600360205260406000206001815401905560018d016000526002602052604060002060018060a01b038d166bffffffffffffffffffffffff60a01b82541617905560018d0160018060a01b038d16827fddf252ad1be2c89b69c2b068fc378daa952ba7f163c4a11628f55a4df523b3ef600080a48115611499578c60016008549101600052600960205280604060002055600160401b8110156109e6578d600161112d83826111489501600855611d6e565b919092019082549060031b91821b91600019901b1916179055565b6001600160a01b038c160361143f575b15611426576040519b61116a8d6116fe565b60ff8a168d5260ff1660208d015260ff1660408c015260ff871660608c015261ffff1660808b015261ffff1660a08a015261ffff1660c089015260ff1660e088015261ffff1661010087015261012086015260018401600052600c6020526040600020855160ff16815490602088015160081b61ff00169161ffff191617178155604086015160ff1661121090829062ff000082549160101b169062ff00001916179055565b60608601518154608088015165ffff0000000060209190911b1660189290921b63ff0000001665ffffff000000199091161717815560a0860151815467ffff000000000000191660309190911b67ffff0000000000001617815560c0860151815461ffff60401b191660409190911b61ffff60401b1617815560e0860151815460ff60501b191660509190911b60ff60501b16178155610100860151815461ffff60581b191660589190911b61ffff60581b1617815560010194610120015194855167ffffffffffffffff81116109e6576020966112ee8354611821565b601f81116113eb575b508790601f83116001146113815760ff9493929160009183611376575b50508160011b916000199060031b1c19161790555b60408051938316845291168583015260018401926001600160a01b0316917ff515eca58b3efeb4afcd87d40357a4f90ed7b7e0833345d648f63f14df30f9e89190a3600160405191018152f35b015190508980611314565b90601f1983169184600052896000209260005b8181106113d4575091600193918560ff98979694106113bb575b505050811b019055611329565b015160001960f88460031b161c191690558980806113ae565b92938b600181928786015181550195019301611394565b611416908460005289600020601f850160051c8101918b861061141c575b601f0160051c0190611dbb565b886112f7565b9091508190611409565b6040516339e3563760e11b815260006004820152602490fd5b6114488b61192d565b806000198101116109d05760018060a01b038c1660005260066020526040600020600019820160005260205260018d0160406000205560018d01600052600760205260001901604060002055611158565b6001600160a01b038c168114611148578c6114b38261192d565b600182016000526007602052600160406000205492846000526006602052604060002093838103611502575b500160005260076020526000604081205560005260205260006040812055611148565b836000528460205260406000205481600052806040600020556000526007602052604060002055386114df565b600101600090815260046020526040902080546001600160a01b0319169055806000526003602052604060002060001981540190558c61106e565b604051633250574960e11b815260006004820152602490fd5b60405162461bcd60e51b815260206004820152600d60248201526c496e76616c696420737461727360981b6044820152606490fd5b60405162461bcd60e51b815260206004820152600e60248201526d496e76616c69642072617269747960901b6044820152606490fd5b60405162461bcd60e51b8152602060048201526016602482015275496e76616c69642065717569706d656e74207479706560501b6044820152606490fd5b346101c05760203660031901126101c0576004359063ffffffff60e01b82168092036101c05760209163780e9d6360e01b811490811561166e575b5015158152f35b6380ac58cd60e01b8114915081156116a0575b811561168f575b5083611667565b6301ffc9a760e01b14905083611688565b635b5e139f60e01b81149150611681565b600435906001600160a01b03821682036101c057565b602435906001600160a01b03821682036101c057565b6024359060ff821682036101c057565b60c4359061ffff821682036101c057565b610140810190811067ffffffffffffffff8211176109e657604052565b6020810190811067ffffffffffffffff8211176109e657604052565b90601f8019910116810190811067ffffffffffffffff8211176109e657604052565b67ffffffffffffffff81116109e657601f01601f191660200190565b92919261178182611759565b9161178f6040519384611737565b8294818452818301116101c0578281602093846000960137010152565b919082519283825260005b8481106117d8575050826000602080949584010152601f8019910116010190565b6020818301810151848301820152016117b7565b60609060031901126101c0576001600160a01b039060043582811681036101c0579160243590811681036101c0579060443590565b90600182811c92168015611851575b602083101461183b57565b634e487b7160e01b600052602260045260246000fd5b91607f1691611830565b906040519182600082549261186f84611821565b9081845260019485811690816000146118de575060011461189b575b505061189992500383611737565b565b9093915060005260209081600020936000915b8183106118c65750506118999350820101388061188b565b855488840185015294850194879450918301916118ae565b91505061189994506020925060ff191682840152151560051b820101388061188b565b600a546001600160a01b0316330361191557565b60405163118cdaa760e01b8152336004820152602490fd5b6001600160a01b0316801561194d57600052600360205260406000205490565b6040516322718ad960e21b815260006004820152602490fd5b6001600160a01b038281169391841561156a57600094838652602095600287526040968488832054169633151580611b6a575b5087158015611b37575b84845260038352898420805460010190558784526002835289842080546001600160a01b0319168617905587858a7fddf252ad1be2c89b69c2b068fc378daa952ba7f163c4a11628f55a4df523b3ef8780a415611acb5760085487845260098352808a852055600160401b811015611ab7578761090b826001611a299401600855611d6e565b838803611a65575b505050501692838303611a445750505050565b6064945051926364283d7b60e01b8452600484015260248301526044820152fd5b611a6e9061192d565b600019810193908411611aa35782916007918a9452600681528383208584528152878484205587835252205538808080611a31565b634e487b7160e01b83526011600452602483fd5b634e487b7160e01b84526041600452602484fd5b878414611a2957611adb8861192d565b878452600783528984205490898552600684528a852091818103611b15575b5088855260078452848b812055845282528289812055611a29565b8186528285528b862054818752808d8820558652600785528b86205538611afa565b600088815260046020526040902080546001600160a01b03191690558884526003835289842080546000190190556119a3565b80611bb7575b15611b7b5738611999565b888789611b98576024915190637e27328960e01b82526004820152fd5b905163177e802f60e01b81523360048201526024810191909152604490fd5b503388148015611bdc575b80611b7057508683526004825233868a8520541614611b70565b5087835260058252888320338452825260ff8984205416611bc2565b611c03838383611966565b813b611c10575b50505050565b604051630a85bd0160e11b8082523360048301526001600160a01b03928316602483015260448201949094526080606482015260209592909116939092908390611c5e9060848301906117ac565b039285816000958187895af1849181611d07575b50611cd2575050503d600014611cca573d611c8c81611759565b90611c9a6040519283611737565b81528091843d92013e5b80519283611cc557604051633250574960e11b815260048101849052602490fd5b019050fd5b506060611ca4565b919450915063ffffffff60e01b1603611cef575038808080611c0a565b60249060405190633250574960e11b82526004820152fd5b9091508681813d8311611d44575b611d1f8183611737565b81010312611d4057516001600160e01b031981168103611d40579038611c72565b8480fd5b503d611d15565b6000818152600260205260409020546001600160a01b03169081156109a2575090565b600854811015611da55760086000527ff3f7a9fe364faab93b216da50a3214154f22a0a2b415b23a84c8169e8b636ee30190600090565b634e487b7160e01b600052603260045260246000fd5b818110611dc6575050565b60008155600101611dbb565b15611dd957565b60405162461bcd60e51b815260206004820152601860248201527f45717569706d656e7420646f6573206e6f7420657869737400000000000000006044820152606490fdfea2646970667358221220c7ede7bd7b0364e55652e67f68afa0720988ae9ac5063146a5f298b42cd13cb864736f6c63430008140033608034620000ec57601f62001d3138819003918201601f19168301916001600160401b03831184841017620000f1578084926040948552833981010312620000ec576200005a6020620000528362000107565b920162000107565b3315620000d35760008054336001600160a01b0319808316821784556040519590946001600160a01b03949093859391908416907f8be0079c531659141344cd1fd0a4f28419497f9722a3daafe3b4186f6b6457e09080a31683600154161760015516906002541617600255611c1490816200011d8239f35b604051631e4fbdf760e01b815260006004820152602490fd5b600080fd5b634e487b7160e01b600052604160045260246000fd5b51906001600160a01b0382168203620000ec5756fe608080604052600436101561001357600080fd5b600090813560e01c908163032384e014610e2f575080630416d57014610db3578063085033d314610d8f5780630cdf918014610cbf5780630ea25e5f14610c9b57806321da13cc14610aee578063242717f114610a3a5780633ffb0a1a14610a1d5780636a09690014610673578063715018a61461061957806381f79e9c146105f2578063869ae742146105b15780638da5cb5b1461058a5780638f4f8cd01461056e57806394002b5714610545578063962e0a161461051c578063afaccc09146104dc578063b5a9bef71461049d578063baf89c2514610464578063c058540414610420578063e08e656c14610324578063f2fde38b146102945763f91c5c501461011e57600080fd5b3461029157604036600319011261029157610137610e4b565b60243560ff81169182820361028d57338452600560205260ff604085205416801561027a575b1561024457600183101580610239575b1561020057816101e76101a07f34a279094a12dd79d988f2260f0c82466a18f281802743702ec289334c28411594611390565b6001600160a01b0390931680875260036020526040808820905191966101c583610f43565b825260ff8516602083015263ffffffff42166040830152876060830152610fd5565b6040805160ff928316815292909116602083015290a280f35b60405162461bcd60e51b8152602060048201526011602482015270125b9d985b1a5908189bde081b195d995b607a1b6044820152606490fd5b50600a83111561016d565b60405162461bcd60e51b815260206004820152600e60248201526d139bdd08185d5d1a1bdc9a5e995960921b6044820152606490fd5b5083546001600160a01b0316331461015d565b8380fd5b80fd5b5034610291576020366003190112610291576102ae610e4b565b6102b6610eed565b6001600160a01b0390811690811561030b57600054826bffffffffffffffffffffffff60a01b821617600055167f8be0079c531659141344cd1fd0a4f28419497f9722a3daafe3b4186f6b6457e0600080a380f35b604051631e4fbdf760e01b815260048101849052602490fd5b5034610291576020908160031936011261029157906001600160a01b03610349610e4b565b1682526003815260408220805461035f81611368565b9061036d6040519283610fb3565b8082528382018093865284862086915b8383106103fa57505050506040519280840191818552518092526040840192945b8281106103ab5784840385f35b909192826080826103eb6001948a516060809160ff815116845260ff602082015116602085015263ffffffff604082015116604085015201511515910152565b0196019101949291909461039e565b600187819261040d859b9a98999b611b5f565b815201920192019190969493959661037d565b50346102915760203660031901126102915761043a610e4b565b610442610eed565b6001600160a01b03168152600560205260408120805460ff1916600117905580f35b5034610291576020366003190112610291576020906040906001600160a01b0361048c610e4b565b168152600383522054604051908152f35b50346102915760203660031901126102915760209060ff906040906001600160a01b036104c8610e4b565b168152600584522054166040519015158152f35b50346102915760203660031901126102915760209063ffffffff906040906001600160a01b0361050a610e4b565b16815260048452205416604051908152f35b50346102915780600319360112610291576002546040516001600160a01b039091168152602090f35b50346102915780600319360112610291576001546040516001600160a01b039091168152602090f35b5034610291578060031936011261029157602060405160968152f35b5034610291578060031936011261029157546040516001600160a01b039091168152602090f35b5034610291576020366003190112610291576105cb610e4b565b6105d3610eed565b6001600160a01b03168152600560205260408120805460ff1916905580f35b5034610291578060031936011261029157602061060e336110bd565b60ff60405191168152f35b5034610291578060031936011261029157610632610eed565b600080546001600160a01b0319811682556001600160a01b03167f8be0079c531659141344cd1fd0a4f28419497f9722a3daafe3b4186f6b6457e08280a380f35b5034610291576020366003190112610291576004359067ffffffffffffffff808311610a195736602384011215610a195782600401351161029157366024836004013560051b84010111610291576106c9611242565b508160040135151580610a0a575b156109d157604051906106e982610f7b565b808252604051916106f983610f5f565b600283528160208401526040830152805b8360040135821061072757604051806107238582610e94565b0390f35b909161073b83856004013560248701611380565b3533835261075460039182602052604085205411611263565b33835260205261077a6040832061077385876004013560248901611380565b3590610e66565b50906107b6825461079160ff8260301c16156112a3565b60ff80660100000000000066ff0000000000001984161780875560081c1691166114b2565b9160208301518061095d575b506107d56020840151602084015161109e565b6020830152604083015151610910575b506107fb6040820151516040840151519061109e565b9461080586611368565b956108136040519788610fb3565b808752610822601f1991611368565b01366020880137835b6040830151805182101561085d57906108478161085893611300565b51610852828a611300565b526112e4565b61082b565b505091939092805b6040860151805182101561089f57906108818161089a93611300565b516108526108948360408a01515161109e565b8a611300565b610865565b5050929361090a929560408601527f64ceffd217ffea3dc96012e37d7478c7c170f73838d5668f328b7dafe83306f26108e083886004013560248a01611380565b359160ff81511661090260406020840151930151604051938493339785611314565b0390a26112e4565b9061070a565b949192809491945b6040850151518110156109515761094c9061093e885460ff808260081c16911633611674565b610852826040890151611300565b610918565b509291945092386107e5565b6001546001600160a01b031690813b156109cd576040516340c10f1960e01b815233600482015260248101919091529085908290604490829084905af180156109c2579085916109ae575b506107c2565b6109b790610f19565b61028d5783386109a8565b6040513d87823e3d90fd5b8580fd5b60405162461bcd60e51b8152602060048201526011602482015270125b9d985b1a5908189bde0818dbdd5b9d607a1b6044820152606490fd5b50600a826004013511156106d7565b5080fd5b5034610291578060031936011261029157602060405161015e8152f35b503461029157604036600319011261029157610ab3610aad6080926040610a5f610e4b565b91602435928160608451610a7281610f43565b8281528260208201528286820152015260018060a01b03168082526003602052610aa0838320548510611263565b8152600360205220610e66565b50611b5f565b610aec60405180926060809160ff815116845260ff602082015116602085015263ffffffff604082015116604085015201511515910152565bf35b50346102915760203660031901126102915760043590610b0c611242565b503381526003602052610b2460408220548310611263565b3381526003602052610b398260408320610e66565b509081549160ff610b4f818560301c16156112a3565b66ff000000000000198416660100000000000017808355600894610b7991861c83169083166114b2565b936020850192835180610c31575b506040860194855151610be5575b61072387897f64ceffd217ffea3dc96012e37d7478c7c170f73838d5668f328b7dafe83306f28989610bd68a86511691519251604051938493339785611314565b0390a260405191829182610e94565b969092939591965b855151811015610c1e57610c1990610c0e85548780828d1c16911633611674565b610852828951611300565b610bed565b5095509391905081610bd6610723610b95565b6001546001600160a01b031690813b15610c97576040516340c10f1960e01b815233600482015260248101919091529086908290604490829084905af18015610c8c5715610b8757610c8590959195610f19565b9338610b87565b6040513d88823e3d90fd5b8680fd5b503461029157602036600319011261029157602061060e610cba610e4b565b6110bd565b503461029157602080600319360112610a1957610cda610e4b565b6001600160a01b03168252600381526040822080549092908190610cfd81611368565b94610d0b6040519687610fb3565b81865282528382208290858088015b848410610d715750505050505b8351811015610d68576060610d3c8286611300565b51015115610d53575b610d4e906112e4565b610d27565b90610d60610d4e916112e4565b919050610d45565b50604051908152f35b6001918291610d7f85611b5f565b8152019201920191908690610d1a565b503461029157602036600319011261029157602061060e610dae610e4b565b611b9d565b503461029157604036600319011261029157610dcd610e4b565b6001600160a01b0316815260036020526040812080546024359290831015610291576080610dfb8484610e66565b505460ff604051918181168352818160081c16602084015263ffffffff8160101c16604084015260301c1615156060820152f35b905034610a195781600319360112610a1957806101f460209252f35b600435906001600160a01b0382168203610e6157565b600080fd5b8054821015610e7e5760005260206000200190600090565b634e487b7160e01b600052603260045260246000fd5b906020908183528160a06040608086019360ff81511684880152838101518288015201519460608082015285518094520193019160005b828110610ed9575050505090565b835185529381019392810192600101610ecb565b6000546001600160a01b03163303610f0157565b60405163118cdaa760e01b8152336004820152602490fd5b67ffffffffffffffff8111610f2d57604052565b634e487b7160e01b600052604160045260246000fd5b6080810190811067ffffffffffffffff821117610f2d57604052565b6060810190811067ffffffffffffffff821117610f2d57604052565b6020810190811067ffffffffffffffff821117610f2d57604052565b6040810190811067ffffffffffffffff821117610f2d57604052565b90601f8019910116810190811067ffffffffffffffff821117610f2d57604052565b805468010000000000000000811015610f2d57610ff791600182018155610e66565b91909161105c57805182546020830151604084015160609094015166ffffffffffffff1990921660ff939093169290921760089290921b61ff00169190911760109290921b65ffffffff0000169190911790151560301b66ff00000000000016179055565b634e487b7160e01b600052600060045260246000fd5b63ffffffff918216908216039190821161108857565b634e487b7160e01b600052601160045260246000fd5b9190820180921161108857565b60ff60019116019060ff821161108857565b63ffffffff8042169160018060a01b031660009080825260049060209382855260ff9485610e106040936110f681868a2054168b611072565b1604169660648811611239575b86881680611117575b505050505050505090565b9091929394969885879997528784528489208363ffffffff19825416179055885b8a8116838110156111f95790877f34a279094a12dd79d988f2260f0c82466a18f281802743702ec289334c2841156111818d8f958a8c611188896111c29460039788914261109e565b06166110ab565b9361119285611390565b9588825283528c828220928051946111a986610f43565b8c881686528c8916908601528401526060830152610fd5565b8a5160ff918216815291166020820152604090a2168a81146111e657600101611138565b634e487b7160e01b8a526011895260248afd5b505098509291939550507fb21215581f2bf02817b3df357af23d42a65b54fbd0901349e2e63ab178165fe093955051908152a2388080808080808061110c565b60649750611103565b6040519061124f82610f5f565b606060408360008152600060208201520152565b1561126a57565b60405162461bcd60e51b8152602060048201526011602482015270092dcecc2d8d2c840c4def040d2dcc8caf607b1b6044820152606490fd5b156112aa57565b60405162461bcd60e51b8152602060048201526012602482015271109bde08185b1c9958591e481bdc195b995960721b6044820152606490fd5b60001981146110885760010190565b805115610e7e5760200190565b8051821015610e7e5760209160051b010190565b60a09060ff94939293608082019482526020958694168483015260408201526080606082015285518094520193019160005b828110611354575050505090565b835185529381019392810192600101611346565b67ffffffffffffffff8111610f2d5760051b60200190565b9190811015610e7e5760051b0190565b6040805142602082019081523360601b6bffffffffffffffffffffffff19169282019290925260f883901b6001600160f81b031916605482015260ff916103e8916113e881605581015b03601f198101835282610fb3565b5190200691166002811161140a5750610320111561140557600090565b600190565b6005811161143657506101f48110156114235750600090565b610352111561143157600190565b600290565b6008106114705761012c81101561144d5750600090565b6102bc81101561145d5750600190565b6103b6111561146b57600290565b600390565b60c881101561147f5750600090565b6101f481101561148f5750600190565b61032081101561149f5750600290565b6103b611156114ad57600390565b600490565b906114bb611242565b506040908151926103e8602094858101904282523360601b8682015260ff60f81b808560f81b1660548301528560f81b166055820152603681526114fe81610f5f565b519020066101f4811015611541575090611517916115d7565b9080519161152483610f7b565b6000835281519361153485610f5f565b6000855284015282015290565b929392610352111561158d5750509080519061155c82610f97565b600182528236818401376000611571836112f3565b52600081519361158085610f5f565b6001855284015282015290565b90611597916115d7565b918051916115a483610f97565b6001835280368185013760006115b9846112f3565b528151936115c685610f5f565b6002855260011c9084015282015290565b60ff1690600a820290828204600a148315171561108857678ac7230489e80000830291808304670de0b6b3a764000014901517156110885760ff169160018301809311611088576096830292808404609614811517156110885702685150ae84a8cdf0000002918115918304141715611088576064900490565b60005b8381106116645750506000910152565b8181015183820152602001611654565b604080514260208201908152606084901b6bffffffffffffffffffffffff19169282019290925260f884901b6001600160f81b03191660548201526116bc81605581016113da565b51902092600360ff84160260ff81169081036110885760ff6116dd85611b31565b169060ff6116ea86611b31565b1690603260ff85160261ffff81169081036110885760640161ffff81116110885780600360ff87161015611b15575b5061174581606461ffff61173d8383836117358199839b611b46565b160499611b46565b160494611b46565b1604611750846110ab565b91601960ff8616029361ffff85169485036110885761ffff85609601116110885760405195610100870187811067ffffffffffffffff821117610f2d578060405261179a81610f97565b600681526512195b1b595d60d21b61012089015287526040516117bc81610f97565b600581526420b936b7b960d91b602082015260208801526040516117df81610f97565b600581526453686f657360d81b6020820152604088015260405161180281610f97565b60068152652bb2b0b837b760d11b6020820152606088015260405161182681610f97565b600681526514da1a595b1960d21b6020820152608088015260405161184a81610f97565b60098152684163636573736f727960b81b602082015260a088015260405161187181610f97565b600481526352696e6760e01b602082015260c088015260405161189381610f97565b600381526214195d60ea1b602082015260e08801526040518060a081011067ffffffffffffffff60a083011117610f2d5760a081016040526118d760a08201610f97565b600660a082019081526521b7b6b6b7b760d11b60c083015281526040516118fd81610f97565b60088152672ab731b7b6b6b7b760c11b6020820152602082015260405161192381610f97565b60048152635261726560e01b6020820152604082015260405161194581610f97565b60048152634570696360e01b6020820152606082015260405161196781610f97565b60098152684c6567656e6461727960b81b60208201526080820152600560ff83161015610e7e57611fe08260051b16015196600860078c161015610e7e578a60051b60e016015196604051978189925190816020850191602001916119cb92611651565b820160208101600160fd1b9052815191826021830191602001916119ee92611651565b0103600181018852602101611a039088610fb3565b6002546001600160a01b031698611a19826110ab565b906040519b8c9a630150d33d60e21b8c52600160a01b600190031660048c015260071660248b015260ff1660448a015260ff16606489015260ff16608488015261ffff1660a487015261ffff1660c486015261ffff1660e485015260ff1661010484015260960161ffff16610124830152610144820161016090528181518061016483015261018492818484019160200191611ab492611651565b601f01601f191681010301815a602094600091f1908115611b0957600091611ada575090565b906020823d602011611b01575b81611af460209383610fb3565b8101031261029157505190565b3d9150611ae7565b6040513d6000823e3d90fd5b6064915061ffff16019061ffff82116110885790611745611719565b60011b906101fe60fe83169216820361108857565b91909161ffff8080941691160291821691820361108857565b90604051611b6c81610f43565b606060ff8294548181168452818160081c16602085015263ffffffff8160101c16604085015260301c161515910152565b60018060a01b0316600052600460205260ff610e1063ffffffff611bca8160406000205416824216611072565b16041660648111611bd85790565b5060649056fea2646970667358221220c76e1e73818dd3cd307aba6210193c4e7cb21c6644467ca95ea953e5b4c9554064736f6c63430008140033",
  "linkReferences": {},
  "deployedLinkReferences": {}
}