{
  "_format": "hh-sol-artifact-1",
  "contractName": "Equipment",
  "sourceName": "contracts/Equipment.sol",
  "abi": [
    {
      "inputs": [],
      "stateMutability": "nonpayable",
      "type": "constructor"
    },
    {
      "inputs": [],
      "name": "ERC721EnumerableForbiddenBatchMint",
      "type": "error"
    },
    {
      "inputs": [
        {
          "internalType": "address",
          "name": "sender",
          "type": "address"
        },
        {
          "internalType": "uint256",
          "name": "tokenId",
          "type": "uint256"
        },
        {
          "internalType": "address",
          "name": "owner",
          "type": "address"
        }
      ],
      "name": "ERC721IncorrectOwner",
      "type": "error"
    },
    {
      "inputs": [
        {
          "internalType": "address",
          "name": "operator",
          "type": "address"
        },
        {
          "internalType": "uint256",
          "name": "tokenId",
          "type": "uint256"
        }
      ],
      "name": "ERC721InsufficientApproval",
      "type": "error"
    },
    {
      "inputs": [
        {
          "internalType": "address",
          "name": "approver",
          "type": "address"
        }
      ],
      "name": "ERC721InvalidApprover",
      "type": "error"
    },
    {
      "inputs": [
        {
          "internalType": "address",
          "name": "operator",
          "type": "address"
        }
      ],
      "name": "ERC721InvalidOperator",
      "type": "error"
    },
    {
      "inputs": [
        {
          "internalType": "address",
          "name": "owner",
          "type": "address"
        }
      ],
      "name": "ERC721InvalidOwner",
      "type": "error"
    },
    {
      "inputs": [
        {
          "internalType": "address",
          "name": "receiver",
          "type": "address"
        }
      ],
      "name": "ERC721InvalidReceiver",
      "type": "error"
    },
    {
      "inputs": [
        {
          "internalType": "address",
          "name": "sender",
          "type": "address"
        }
      ],
      "name": "ERC721InvalidSender",
      "type": "error"
    },
    {
      "inputs": [
        {
          "internalType": "uint256",
          "name": "tokenId",
          "type": "uint256"
        }
      ],
      "name": "ERC721NonexistentToken",
      "type": "error"
    },
    {
      "inputs": [
        {
          "internalType": "address",
          "name": "owner",
          "type": "address"
        },
        {
          "internalType": "uint256",
          "name": "index",
          "type": "uint256"
        }
      ],
      "name": "ERC721OutOfBoundsIndex",
      "type": "error"
    },
    {
      "inputs": [
        {
          "internalType": "address",
          "name": "owner",
          "type": "address"
        }
      ],
      "name": "OwnableInvalidOwner",
      "type": "error"
    },
    {
      "inputs": [
        {
          "internalType": "address",
          "name": "account",
          "type": "address"
        }
      ],
      "name": "OwnableUnauthorizedAccount",
      "type": "error"
    },
    {
      "anonymous": false,
      "inputs": [
        {
          "indexed": true,
          "internalType": "address",
          "name": "owner",
          "type": "address"
        },
        {
          "indexed": true,
          "internalType": "address",
          "name": "approved",
          "type": "address"
        },
        {
          "indexed": true,
          "internalType": "uint256",
          "name": "tokenId",
          "type": "uint256"
        }
      ],
      "name": "Approval",
      "type": "event"
    },
    {
      "anonymous": false,
      "inputs": [
        {
          "indexed": true,
          "internalType": "address",
          "name": "owner",
          "type": "address"
        },
        {
          "indexed": true,
          "internalType": "address",
          "name": "operator",
          "type": "address"
        },
        {
          "indexed": false,
          "internalType": "bool",
          "name": "approved",
          "type": "bool"
        }
      ],
      "name": "ApprovalForAll",
      "type": "event"
    },
    {
      "anonymous": false,
      "inputs": [
        {
          "indexed": true,
          "internalType": "address",
          "name": "to",
          "type": "address"
        },
        {
          "indexed": true,
          "internalType": "uint256",
          "name": "tokenId",
          "type": "uint256"
        },
        {
          "indexed": false,
          "internalType": "uint8",
          "name": "equipmentType",
          "type": "uint8"
        },
        {
          "indexed": false,
          "internalType": "uint8",
          "name": "rarity",
          "type": "uint8"
        }
      ],
      "name": "EquipmentMinted",
      "type": "event"
    },
    {
      "anonymous": false,
      "inputs": [
        {
          "indexed": true,
          "internalType": "uint256",
          "name": "tokenId",
          "type": "uint256"
        },
        {
          "indexed": false,
          "internalType": "uint8",
          "name": "stars",
          "type": "uint8"
        },
        {
          "indexed": false,
          "internalType": "uint16",
          "name": "attack",
          "type": "uint16"
        },
        {
          "indexed": false,
          "internalType": "uint16",
          "name": "defense",
          "type": "uint16"
        },
        {
          "indexed": false,
          "internalType": "uint16",
          "name": "agility",
          "type": "uint16"
        }
      ],
      "name": "EquipmentUpdated",
      "type": "event"
    },
    {
      "anonymous": false,
      "inputs": [
        {
          "indexed": true,
          "internalType": "address",
          "name": "previousOwner",
          "type": "address"
        },
        {
          "indexed": true,
          "internalType": "address",
          "name": "newOwner",
          "type": "address"
        }
      ],
      "name": "OwnershipTransferred",
      "type": "event"
    },
    {
      "anonymous": false,
      "inputs": [
        {
          "indexed": true,
          "internalType": "address",
          "name": "from",
          "type": "address"
        },
        {
          "indexed": true,
          "internalType": "address",
          "name": "to",
          "type": "address"
        },
        {
          "indexed": true,
          "internalType": "uint256",
          "name": "tokenId",
          "type": "uint256"
        }
      ],
      "name": "Transfer",
      "type": "event"
    },
    {
      "inputs": [
        {
          "internalType": "address",
          "name": "to",
          "type": "address"
        },
        {
          "internalType": "uint256",
          "name": "tokenId",
          "type": "uint256"
        }
      ],
      "name": "approve",
      "outputs": [],
      "stateMutability": "nonpayable",
      "type": "function"
    },
    {
      "inputs": [
        {
          "internalType": "address",
          "name": "owner",
          "type": "address"
        }
      ],
      "name": "balanceOf",
      "outputs": [
        {
          "internalType": "uint256",
          "name": "",
          "type": "uint256"
        }
      ],
      "stateMutability": "view",
      "type": "function"
    },
    {
      "inputs": [
        {
          "internalType": "uint256",
          "name": "tokenId",
          "type": "uint256"
        }
      ],
      "name": "burn",
      "outputs": [],
      "stateMutability": "nonpayable",
      "type": "function"
    },
    {
      "inputs": [
        {
          "internalType": "uint256",
          "name": "",
          "type": "uint256"
        }
      ],
      "name": "equipmentData",
      "outputs": [
        {
          "internalType": "uint8",
          "name": "equipmentType",
          "type": "uint8"
        },
        {
          "internalType": "uint8",
          "name": "level",
          "type": "uint8"
        },
        {
          "internalType": "uint8",
          "name": "stars",
          "type": "uint8"
        },
        {
          "internalType": "uint8",
          "name": "rarity",
          "type": "uint8"
        },
        {
          "internalType": "uint16",
          "name": "attack",
          "type": "uint16"
        },
        {
          "internalType": "uint16",
          "name": "defense",
          "type": "uint16"
        },
        {
          "internalType": "uint16",
          "name": "agility",
          "type": "uint16"
        },
        {
          "internalType": "uint8",
          "name": "criticalRate",
          "type": "uint8"
        },
        {
          "internalType": "uint16",
          "name": "criticalDamage",
          "type": "uint16"
        },
        {
          "internalType": "string",
          "name": "name",
          "type": "string"
        }
      ],
      "stateMutability": "view",
      "type": "function"
    },
    {
      "inputs": [
        {
          "internalType": "uint256",
          "name": "tokenId",
          "type": "uint256"
        }
      ],
      "name": "getApproved",
      "outputs": [
        {
          "internalType": "address",
          "name": "",
          "type": "address"
        }
      ],
      "stateMutability": "view",
      "type": "function"
    },
    {
      "inputs": [
        {
          "internalType": "uint256",
          "name": "tokenId",
          "type": "uint256"
        }
      ],
      "name": "getEquipment",
      "outputs": [
        {
          "components": [
            {
              "internalType": "uint8",
              "name": "equipmentType",
              "type": "uint8"
            },
            {
              "internalType": "uint8",
              "name": "level",
              "type": "uint8"
            },
            {
              "internalType": "uint8",
              "name": "stars",
              "type": "uint8"
            },
            {
              "internalType": "uint8",
              "name": "rarity",
              "type": "uint8"
            },
            {
              "internalType": "uint16",
              "name": "attack",
              "type": "uint16"
            },
            {
              "internalType": "uint16",
              "name": "defense",
              "type": "uint16"
            },
            {
              "internalType": "uint16",
              "name": "agility",
              "type": "uint16"
            },
            {
              "internalType": "uint8",
              "name": "criticalRate",
              "type": "uint8"
            },
            {
              "internalType": "uint16",
              "name": "criticalDamage",
              "type": "uint16"
            },
            {
              "internalType": "string",
              "name": "name",
              "type": "string"
            }
          ],
          "internalType": "struct Equipment.EquipmentData",
          "name": "",
          "type": "tuple"
        }
      ],
      "stateMutability": "view",
      "type": "function"
    },
    {
      "inputs": [
        {
          "internalType": "address",
          "name": "owner",
          "type": "address"
        },
        {
          "internalType": "address",
          "name": "operator",
          "type": "address"
        }
      ],
      "name": "isApprovedForAll",
      "outputs": [
        {
          "internalType": "bool",
          "name": "",
          "type": "bool"
        }
      ],
      "stateMutability": "view",
      "type": "function"
    },
    {
      "inputs": [
        {
          "internalType": "address",
          "name": "to",
          "type": "address"
        },
        {
          "internalType": "uint8",
          "name": "equipmentType",
          "type": "uint8"
        },
        {
          "internalType": "uint8",
          "name": "level",
          "type": "uint8"
        },
        {
          "internalType": "uint8",
          "name": "stars",
          "type": "uint8"
        },
        {
          "internalType": "uint8",
          "name": "rarity",
          "type": "uint8"
        },
        {
          "internalType": "uint16",
          "name": "attack",
          "type": "uint16"
        },
        {
          "internalType": "uint16",
          "name": "defense",
          "type": "uint16"
        },
        {
          "internalType": "uint16",
          "name": "agility",
          "type": "uint16"
        },
        {
          "internalType": "uint8",
          "name": "criticalRate",
          "type": "uint8"
        },
        {
          "internalType": "uint16",
          "name": "criticalDamage",
          "type": "uint16"
        },
        {
          "internalType": "string",
          "name": "name",
          "type": "string"
        }
      ],
      "name": "mintEquipment",
      "outputs": [
        {
          "internalType": "uint256",
          "name": "",
          "type": "uint256"
        }
      ],
      "stateMutability": "nonpayable",
      "type": "function"
    },
    {
      "inputs": [],
      "name": "name",
      "outputs": [
        {
          "internalType": "string",
          "name": "",
          "type": "string"
        }
      ],
      "stateMutability": "view",
      "type": "function"
    },
    {
      "inputs": [],
      "name": "owner",
      "outputs": [
        {
          "internalType": "address",
          "name": "",
          "type": "address"
        }
      ],
      "stateMutability": "view",
      "type": "function"
    },
    {
      "inputs": [
        {
          "internalType": "uint256",
          "name": "tokenId",
          "type": "uint256"
        }
      ],
      "name": "ownerOf",
      "outputs": [
        {
          "internalType": "address",
          "name": "",
          "type": "address"
        }
      ],
      "stateMutability": "view",
      "type": "function"
    },
    {
      "inputs": [],
      "name": "renounceOwnership",
      "outputs": [],
      "stateMutability": "nonpayable",
      "type": "function"
    },
    {
      "inputs": [
        {
          "internalType": "address",
          "name": "from",
          "type": "address"
        },
        {
          "internalType": "address",
          "name": "to",
          "type": "address"
        },
        {
          "internalType": "uint256",
          "name": "tokenId",
          "type": "uint256"
        }
      ],
      "name": "safeTransferFrom",
      "outputs": [],
      "stateMutability": "nonpayable",
      "type": "function"
    },
    {
      "inputs": [
        {
          "internalType": "address",
          "name": "from",
          "type": "address"
        },
        {
          "internalType": "address",
          "name": "to",
          "type": "address"
        },
        {
          "internalType": "uint256",
          "name": "tokenId",
          "type": "uint256"
        },
        {
          "internalType": "bytes",
          "name": "data",
          "type": "bytes"
        }
      ],
      "name": "safeTransferFrom",
      "outputs": [],
      "stateMutability": "nonpayable",
      "type": "function"
    },
    {
      "inputs": [
        {
          "internalType": "address",
          "name": "operator",
          "type": "address"
        },
        {
          "internalType": "bool",
          "name": "approved",
          "type": "bool"
        }
      ],
      "name": "setApprovalForAll",
      "outputs": [],
      "stateMutability": "nonpayable",
      "type": "function"
    },
    {
      "inputs": [
        {
          "internalType": "bytes4",
          "name": "interfaceId",
          "type": "bytes4"
        }
      ],
      "name": "supportsInterface",
      "outputs": [
        {
          "internalType": "bool",
          "name": "",
          "type": "bool"
        }
      ],
      "stateMutability": "view",
      "type": "function"
    },
    {
      "inputs": [],
      "name": "symbol",
      "outputs": [
        {
          "internalType": "string",
          "name": "",
          "type": "string"
        }
      ],
      "stateMutability": "view",
      "type": "function"
    },
    {
      "inputs": [
        {
          "internalType": "uint256",
          "name": "index",
          "type": "uint256"
        }
      ],
      "name": "tokenByIndex",
      "outputs": [
        {
          "internalType": "uint256",
          "name": "",
          "type": "uint256"
        }
      ],
      "stateMutability": "view",
      "type": "function"
    },
    {
      "inputs": [
        {
          "internalType": "address",
          "name": "owner",
          "type": "address"
        },
        {
          "internalType": "uint256",
          "name": "index",
          "type": "uint256"
        }
      ],
      "name": "tokenOfOwnerByIndex",
      "outputs": [
        {
          "internalType": "uint256",
          "name": "",
          "type": "uint256"
        }
      ],
      "stateMutability": "view",
      "type": "function"
    },
    {
      "inputs": [
        {
          "internalType": "uint256",
          "name": "tokenId",
          "type": "uint256"
        }
      ],
      "name": "tokenURI",
      "outputs": [
        {
          "internalType": "string",
          "name": "",
          "type": "string"
        }
      ],
      "stateMutability": "view",
      "type": "function"
    },
    {
      "inputs": [],
      "name": "totalSupply",
      "outputs": [
        {
          "internalType": "uint256",
          "name": "",
          "type": "uint256"
        }
      ],
      "stateMutability": "view",
      "type": "function"
    },
    {
      "inputs": [],
      "name": "totalTokens",
      "outputs": [
        {
          "internalType": "uint256",
          "name": "",
          "type": "uint256"
        }
      ],
      "stateMutability": "view",
      "type": "function"
    },
    {
      "inputs": [
        {
          "internalType": "address",
          "name": "from",
          "type": "address"
        },
        {
          "internalType": "address",
          "name": "to",
          "type": "address"
        },
        {
          "internalType": "uint256",
          "name": "tokenId",
          "type": "uint256"
        }
      ],
      "name": "transferFrom",
      "outputs": [],
      "stateMutability": "nonpayable",
      "type": "function"
    },
    {
      "inputs": [
        {
          "internalType": "address",
          "name": "newOwner",
          "type": "address"
        }
      ],
      "name": "transferOwnership",
      "outputs": [],
      "stateMutability": "nonpayable",
      "type": "function"
    },
    {
      "inputs": [
        {
          "internalType": "uint256",
          "name": "tokenId",
          "type": "uint256"
        },
        {
          "internalType": "uint8",
          "name": "stars",
          "type": "uint8"
        },
        {
          "internalType": "uint16",
          "name": "attack",
          "type": "uint16"
        },
        {
          "internalType": "uint16",
          "name": "defense",
          "type": "uint16"
        },
        {
          "internalType": "uint16",
          "name": "agility",
          "type": "uint16"
        },
        {
          "internalType": "uint8",
          "name": "criticalRate",
          "type": "uint8"
        },
        {
          "internalType": "uint16",
          "name": "criticalDamage",
          "type": "uint16"
        }
      ],
      "name": "updateEquipment",
      "outputs": [],
      "stateMutability": "nonpayable",
      "type": "function"
    }
  ],
  "bytecode": "0x6080346200038b576001600160401b039060408181018381118382101762000375578152601382526020917f416476656e747572652045717569706d656e74000000000000000000000000008382015281519382850185811082821117620003755783526005855264045515549560dc1b84860152815181811162000375576000948554916001948584811c941680156200036a575b8385101462000356578190601f9485811162000303575b5083908583116001146200029f57899262000293575b5050600019600383901b1c191690851b1786555b86519283116200027f5783548481811c9116801562000274575b82821014620002605782811162000218575b5080918311600114620001b1575084958293949592620001a5575b5050600019600383901b1c191690821b1790555b33156200018d57600a8054336001600160a01b03198216811790925591519290916001600160a01b0316907f8be0079c531659141344cd1fd0a4f28419497f9722a3daafe3b4186f6b6457e09080a3611e549081620003918239f35b51631e4fbdf760e01b81526004810191909152602490fd5b0151905038806200011d565b90601f198316968487528287209287905b89821062000200575050838596979810620001e6575b505050811b01905562000131565b015160001960f88460031b161c19169055388080620001d8565b808785968294968601518155019501930190620001c2565b8487528187208380860160051c82019284871062000256575b0160051c019085905b8281106200024a57505062000102565b8881550185906200023a565b9250819262000231565b634e487b7160e01b87526022600452602487fd5b90607f1690620000f0565b634e487b7160e01b86526041600452602486fd5b015190503880620000c2565b898052848a208894509190601f1984168b5b87828210620002ec5750508411620002d2575b505050811b018655620000d6565b015160001960f88460031b161c19169055388080620002c4565b8385015186558b97909501949384019301620002b1565b9091508880528389208580850160051c8201928686106200034c575b918991869594930160051c01915b8281106200033d575050620000ac565b8b81558594508991016200032d565b925081926200031f565b634e487b7160e01b88526022600452602488fd5b93607f169362000095565b634e487b7160e01b600052604160045260246000fd5b600080fdfe608080604052600436101561001357600080fd5b60003560e01c90816301ffc9a71461162c5750806305434cf414610f3857806306fdde0314610e95578063081812fc14610e57578063095ea7b314610d7057806315bf15d614610bd257806318160ddd14610bb457806323b872dd14610b9d5780632f745c5914610b1957806342842e0e14610af157806342966c681461080b5780634f6ccce7146107b55780636352211e1461078557806370a082311461075a578063715018a6146106fd5780637e1c0c09146106df57806381dd2fa0146105315780638da5cb5b1461050857806395d89b4114610429578063a22cb46514610384578063b88d4fde14610322578063c6452e1314610272578063c87b56dd1461021b578063e985e9c5146101c55763f2fde38b1461013257600080fd5b346101c05760203660031901126101c05761014b6116b1565b610153611901565b6001600160a01b039081169081156101a757600a54826bffffffffffffffffffffffff60a01b821617600a55167f8be0079c531659141344cd1fd0a4f28419497f9722a3daafe3b4186f6b6457e0600080a3005b604051631e4fbdf760e01b815260006004820152602490fd5b600080fd5b346101c05760403660031901126101c0576101de6116b1565b6101e66116c7565b9060018060a01b03809116600052600560205260406000209116600052602052602060ff604060002054166040519015158152f35b346101c05760203660031901126101c057610237600435611d4b565b5060006040516102468161171b565b5261026e6040516102568161171b565b600081526040519182916020835260208301906117ac565b0390f35b346101c05760203660031901126101c057600435600052600c60205260406000206102a160018254920161185b565b9061026e604051928260ff859416845260ff8160081c16602085015260ff8160101c16604085015260ff8160181c16606085015261ffff90818160201c166080860152818160301c1660a0860152818160401c1660c086015260ff8160501c1660e086015260581c16610100840152610140806101208501528301906117ac565b346101c05760803660031901126101c05761033b6116b1565b6103436116c7565b6064359167ffffffffffffffff83116101c057366023840112156101c057610378610382933690602481600401359101611775565b9160443591611bf8565b005b346101c05760403660031901126101c05761039d6116b1565b602435908115158092036101c0576001600160a01b031690811561041057336000526005602052604060002082600052602052604060002060ff1981541660ff83161790556040519081527f17307eab39ab6107e8899845ad3d59bd9653f200f220920489ca2b5937696c3160203392a3005b604051630b61174360e31b815260048101839052602490fd5b346101c05760003660031901126101c0576040516000600180549061044d82611821565b808552918181169081156104e15750600114610488575b61026e8461047481860382611737565b6040519182916020835260208301906117ac565b600081815292507fb10e2d527612073b26eecdfd717e6a320cf44b4afac2b0732d9fcbe2b7fa0cf65b8284106104c957505050810160200161047482610464565b805460208587018101919091529093019281016104b1565b60ff191660208087019190915292151560051b850190920192506104749150839050610464565b346101c05760003660031901126101c057600a546040516001600160a01b039091168152602090f35b346101c05760203660031901126101c0576004356060610120604051610556816116fe565b60008152600060208201526000604082015260008382015260006080820152600060a0820152600060c0820152600060e0820152600061010082015201528060005260026020526105b560018060a01b03604060002054161515611dd2565b600052600c60205261012060406000206106436001604051926105d7846116fe565b61ffff815460ff8116865260ff8160081c16602087015260ff8160101c16604087015260ff8160181c166060870152818160201c166080870152818160301c1660a0870152818160401c1660c087015260ff8160501c1660e087015260581c166101008501520161185b565b8282015261026e6040519283926020845260ff815116602085015260ff602082015116604085015260ff604082015116606085015260ff606082015116608085015261ffff60808201511660a085015261ffff60a08201511660c085015261ffff60c08201511660e085015260ff60e08201511661010085015261ffff61010082015116828501520151610140808401526101608301906117ac565b346101c05760003660031901126101c0576020600b54604051908152f35b346101c05760003660031901126101c057610716611901565b600a80546001600160a01b031981169091556000906001600160a01b03167f8be0079c531659141344cd1fd0a4f28419497f9722a3daafe3b4186f6b6457e08280a3005b346101c05760203660031901126101c057602061077d6107786116b1565b61192d565b604051908152f35b346101c05760203660031901126101c05760206107a3600435611d4b565b6040516001600160a01b039091168152f35b346101c05760203660031901126101c0576004356008548110156107ec576107de602091611d6e565b90546040519160031b1c8152f35b6044906040519063295f44f760e21b8252600060048301526024820152fd5b346101c0576020806003193601126101c05760043590610829611901565b60008281526002825260409020546001600160a01b039061084d9082161515611dd2565b82600052600c825260016040600020600081550161086b8154611821565b9081610ab4575b505082600052600282526040600020541690811591821580610a81575b6000858152600284526040812080546001600160a01b03191690558590837fddf252ad1be2c89b69c2b068fc378daa952ba7f163c4a11628f55a4df523b3ef8280a483156109fc575050600854836000526009825280604060002055600160401b8110156109e6578361090b8260016109249401600855611d6e565b90919082549060031b91821b91600019901b1916179055565b600854600019918282019182116109d0576009908560005281815261094e60406000205493611d6e565b90549060031b1c6109628161090b86611d6e565b60005252604060002055826000526000604081205560085480156109ba5781019061098c82611d6e565b909182549160031b1b191690556008556109a257005b60249060405190637e27328960e01b82526004820152fd5b634e487b7160e01b600052603160045260246000fd5b634e487b7160e01b600052601160045260246000fd5b634e487b7160e01b600052604160045260246000fd5b610a07575b50610924565b610a108161192d565b84600052600783526040600020549160005260068352604060002091818103610a56575b5084600052600783526000604081205560005281526000604081205583610a01565b8160005282845260406000205481600052806040600020556000526007845260406000205585610a34565b60008581526004602052604080822080546001600160a01b0319169055838252600385529020805460001901905561088f565b81601f60009311600114610acc5750555b8380610872565b908083918252610aea601f878420940160051c840160018501611dbb565b5555610ac5565b346101c057610382610b02366117ec565b9060405192610b108461171b565b60008452611bf8565b346101c05760403660031901126101c057610b326116b1565b60243590610b3f8161192d565b821015610b725760018060a01b031660005260066020526040600020906000526020526020604060002054604051908152f35b60405163295f44f760e21b81526001600160a01b039190911660048201526024810191909152604490fd5b346101c057610382610bae366117ec565b91611966565b346101c05760003660031901126101c0576020600854604051908152f35b346101c05760e03660031901126101c057600435610bee6116dd565b60443561ffff918282168083036101c05760643590848216908183036101c057608435958616928387036101c05760a4359060ff821682036101c05785610d36610d5593610d1c7f6b94a489f7c6af2bcdfb729e31f9dcca1ee53cc79ff6407251c28d2741b6ae0e9b610d008e96610cde60809e610c6a6116ed565b99610c73611901565b600081815260026020526040902054610c96906001600160a01b03161515611dd2565b600052600c602052610cc06040600020998a9062ff000082549160101b169062ff00001916179055565b885465ffff00000000191660209190911b65ffff0000000016178855565b865467ffff000000000000191660309190911b67ffff00000000000016178655565b845461ffff60401b191660409190911b61ffff60401b16178455565b825460ff60501b191660509190911b60ff60501b16178255565b805461ffff60581b191660589290921b61ffff60581b16919091179055565b60ff60405194168452602084015260408301526060820152a2005b346101c05760403660031901126101c057610d896116b1565b602435610d9581611d4b565b33151580610e44575b80610e17575b610dff576001600160a01b039283169282918491167f8c5be1e5ebec7d5bd14f71427d1e84f3dd0314c0f7b2291e5b200ac8c7c3b925600080a4600090815260046020526040902080546001600160a01b0319169091179055005b60405163a9fbf51f60e01b8152336004820152602490fd5b5060018060a01b038116600052600560205260406000203360005260205260ff6040600020541615610da4565b506001600160a01b038116331415610d9e565b346101c05760203660031901126101c057600435610e7481611d4b565b506000526004602052602060018060a01b0360406000205416604051908152f35b346101c05760003660031901126101c05760405160008054610eb681611821565b808452906001908181169081156104e15750600114610edf5761026e8461047481860382611737565b600080805292507f290decd9548b62a8d60345a988386fc84ba6bc95484008f6362f93160ef3e5635b828410610f2057505050810160200161047482610464565b80546020858701810191909152909301928101610f08565b346101c0576101603660031901126101c057610f526116b1565b610f5a6116dd565b6044359160ff831683036101c0576064359160ff831683036101c05760843560ff811681036101c05760a43561ffff811681036101c057610f996116ed565b60e43561ffff811681036101c057610104359060ff821682036101c057610124359261ffff841684036101c0576101443567ffffffffffffffff81116101c057366023820112156101c057610ff8903690602481600401359101611775565b94611001611901565b600860ff891610156115ee57600560ff881610156115b857600560ff8b161161158357600b54996000198b146109d05760018b01600b556001600160a01b038a161561156a5760018b016000908152600260205260409020546001600160a01b03168015908c821561152f575b5060018060a01b038c16600052600360205260406000206001815401905560018d016000526002602052604060002060018060a01b038d166bffffffffffffffffffffffff60a01b82541617905560018d0160018060a01b038d16827fddf252ad1be2c89b69c2b068fc378daa952ba7f163c4a11628f55a4df523b3ef600080a48115611499578c60016008549101600052600960205280604060002055600160401b8110156109e6578d600161112d83826111489501600855611d6e565b919092019082549060031b91821b91600019901b1916179055565b6001600160a01b038c160361143f575b15611426576040519b61116a8d6116fe565b60ff8a168d5260ff1660208d015260ff1660408c015260ff871660608c015261ffff1660808b015261ffff1660a08a015261ffff1660c089015260ff1660e088015261ffff1661010087015261012086015260018401600052600c6020526040600020855160ff16815490602088015160081b61ff00169161ffff191617178155604086015160ff1661121090829062ff000082549160101b169062ff00001916179055565b60608601518154608088015165ffff0000000060209190911b1660189290921b63ff0000001665ffffff000000199091161717815560a0860151815467ffff000000000000191660309190911b67ffff0000000000001617815560c0860151815461ffff60401b191660409190911b61ffff60401b1617815560e0860151815460ff60501b191660509190911b60ff60501b16178155610100860151815461ffff60581b191660589190911b61ffff60581b1617815560010194610120015194855167ffffffffffffffff81116109e6576020966112ee8354611821565b601f81116113eb575b508790601f83116001146113815760ff9493929160009183611376575b50508160011b916000199060031b1c19161790555b60408051938316845291168583015260018401926001600160a01b0316917ff515eca58b3efeb4afcd87d40357a4f90ed7b7e0833345d648f63f14df30f9e89190a3600160405191018152f35b015190508980611314565b90601f1983169184600052896000209260005b8181106113d4575091600193918560ff98979694106113bb575b505050811b019055611329565b015160001960f88460031b161c191690558980806113ae565b92938b600181928786015181550195019301611394565b611416908460005289600020601f850160051c8101918b861061141c575b601f0160051c0190611dbb565b886112f7565b9091508190611409565b6040516339e3563760e11b815260006004820152602490fd5b6114488b61192d565b806000198101116109d05760018060a01b038c1660005260066020526040600020600019820160005260205260018d0160406000205560018d01600052600760205260001901604060002055611158565b6001600160a01b038c168114611148578c6114b38261192d565b600182016000526007602052600160406000205492846000526006602052604060002093838103611502575b500160005260076020526000604081205560005260205260006040812055611148565b836000528460205260406000205481600052806040600020556000526007602052604060002055386114df565b600101600090815260046020526040902080546001600160a01b0319169055806000526003602052604060002060001981540190558c61106e565b604051633250574960e11b815260006004820152602490fd5b60405162461bcd60e51b815260206004820152600d60248201526c496e76616c696420737461727360981b6044820152606490fd5b60405162461bcd60e51b815260206004820152600e60248201526d496e76616c69642072617269747960901b6044820152606490fd5b60405162461bcd60e51b8152602060048201526016602482015275496e76616c69642065717569706d656e74207479706560501b6044820152606490fd5b346101c05760203660031901126101c0576004359063ffffffff60e01b82168092036101c05760209163780e9d6360e01b811490811561166e575b5015158152f35b6380ac58cd60e01b8114915081156116a0575b811561168f575b5083611667565b6301ffc9a760e01b14905083611688565b635b5e139f60e01b81149150611681565b600435906001600160a01b03821682036101c057565b602435906001600160a01b03821682036101c057565b6024359060ff821682036101c057565b60c4359061ffff821682036101c057565b610140810190811067ffffffffffffffff8211176109e657604052565b6020810190811067ffffffffffffffff8211176109e657604052565b90601f8019910116810190811067ffffffffffffffff8211176109e657604052565b67ffffffffffffffff81116109e657601f01601f191660200190565b92919261178182611759565b9161178f6040519384611737565b8294818452818301116101c0578281602093846000960137010152565b919082519283825260005b8481106117d8575050826000602080949584010152601f8019910116010190565b6020818301810151848301820152016117b7565b60609060031901126101c0576001600160a01b039060043582811681036101c0579160243590811681036101c0579060443590565b90600182811c92168015611851575b602083101461183b57565b634e487b7160e01b600052602260045260246000fd5b91607f1691611830565b906040519182600082549261186f84611821565b9081845260019485811690816000146118de575060011461189b575b505061189992500383611737565b565b9093915060005260209081600020936000915b8183106118c65750506118999350820101388061188b565b855488840185015294850194879450918301916118ae565b91505061189994506020925060ff191682840152151560051b820101388061188b565b600a546001600160a01b0316330361191557565b60405163118cdaa760e01b8152336004820152602490fd5b6001600160a01b0316801561194d57600052600360205260406000205490565b6040516322718ad960e21b815260006004820152602490fd5b6001600160a01b038281169391841561156a57600094838652602095600287526040968488832054169633151580611b6a575b5087158015611b37575b84845260038352898420805460010190558784526002835289842080546001600160a01b0319168617905587858a7fddf252ad1be2c89b69c2b068fc378daa952ba7f163c4a11628f55a4df523b3ef8780a415611acb5760085487845260098352808a852055600160401b811015611ab7578761090b826001611a299401600855611d6e565b838803611a65575b505050501692838303611a445750505050565b6064945051926364283d7b60e01b8452600484015260248301526044820152fd5b611a6e9061192d565b600019810193908411611aa35782916007918a9452600681528383208584528152878484205587835252205538808080611a31565b634e487b7160e01b83526011600452602483fd5b634e487b7160e01b84526041600452602484fd5b878414611a2957611adb8861192d565b878452600783528984205490898552600684528a852091818103611b15575b5088855260078452848b812055845282528289812055611a29565b8186528285528b862054818752808d8820558652600785528b86205538611afa565b600088815260046020526040902080546001600160a01b03191690558884526003835289842080546000190190556119a3565b80611bb7575b15611b7b5738611999565b888789611b98576024915190637e27328960e01b82526004820152fd5b905163177e802f60e01b81523360048201526024810191909152604490fd5b503388148015611bdc575b80611b7057508683526004825233868a8520541614611b70565b5087835260058252888320338452825260ff8984205416611bc2565b611c03838383611966565b813b611c10575b50505050565b604051630a85bd0160e11b8082523360048301526001600160a01b03928316602483015260448201949094526080606482015260209592909116939092908390611c5e9060848301906117ac565b039285816000958187895af1849181611d07575b50611cd2575050503d600014611cca573d611c8c81611759565b90611c9a6040519283611737565b81528091843d92013e5b80519283611cc557604051633250574960e11b815260048101849052602490fd5b019050fd5b506060611ca4565b919450915063ffffffff60e01b1603611cef575038808080611c0a565b60249060405190633250574960e11b82526004820152fd5b9091508681813d8311611d44575b611d1f8183611737565b81010312611d4057516001600160e01b031981168103611d40579038611c72565b8480fd5b503d611d15565b6000818152600260205260409020546001600160a01b03169081156109a2575090565b600854811015611da55760086000527ff3f7a9fe364faab93b216da50a3214154f22a0a2b415b23a84c8169e8b636ee30190600090565b634e487b7160e01b600052603260045260246000fd5b818110611dc6575050565b60008155600101611dbb565b15611dd957565b60405162461bcd60e51b815260206004820152601860248201527f45717569706d656e7420646f6573206e6f7420657869737400000000000000006044820152606490fdfea2646970667358221220c7ede7bd7b0364e55652e67f68afa0720988ae9ac5063146a5f298b42cd13cb864736f6c63430008140033",
  "linkReferences": {},
  "deployedLinkReferences": {}
}